{
  "contractName": "FlipCoin",
  "abi": [
    {
      "inputs": [
        {
          "internalType": "string",
          "name": "name",
          "type": "string"
        },
        {
          "internalType": "string",
          "name": "symbol",
          "type": "string"
        }
      ],
      "stateMutability": "nonpayable",
      "type": "constructor"
    },
    {
      "anonymous": false,
      "inputs": [
        {
          "indexed": true,
          "internalType": "address",
          "name": "owner",
          "type": "address"
        },
        {
          "indexed": true,
          "internalType": "address",
          "name": "spender",
          "type": "address"
        },
        {
          "indexed": false,
          "internalType": "uint256",
          "name": "value",
          "type": "uint256"
        }
      ],
      "name": "Approval",
      "type": "event"
    },
    {
      "anonymous": false,
      "inputs": [
        {
          "indexed": true,
          "internalType": "address",
          "name": "from",
          "type": "address"
        },
        {
          "indexed": true,
          "internalType": "address",
          "name": "to",
          "type": "address"
        },
        {
          "indexed": false,
          "internalType": "uint256",
          "name": "value",
          "type": "uint256"
        }
      ],
      "name": "Transfer",
      "type": "event"
    },
    {
      "inputs": [
        {
          "internalType": "address",
          "name": "owner",
          "type": "address"
        },
        {
          "internalType": "address",
          "name": "spender",
          "type": "address"
        }
      ],
      "name": "allowance",
      "outputs": [
        {
          "internalType": "uint256",
          "name": "",
          "type": "uint256"
        }
      ],
      "stateMutability": "view",
      "type": "function",
      "constant": true
    },
    {
      "inputs": [
        {
          "internalType": "address",
          "name": "spender",
          "type": "address"
        },
        {
          "internalType": "uint256",
          "name": "amount",
          "type": "uint256"
        }
      ],
      "name": "approve",
      "outputs": [
        {
          "internalType": "bool",
          "name": "",
          "type": "bool"
        }
      ],
      "stateMutability": "nonpayable",
      "type": "function"
    },
    {
      "inputs": [
        {
          "internalType": "address",
          "name": "account",
          "type": "address"
        }
      ],
      "name": "balanceOf",
      "outputs": [
        {
          "internalType": "uint256",
          "name": "",
          "type": "uint256"
        }
      ],
      "stateMutability": "view",
      "type": "function",
      "constant": true
    },
    {
      "inputs": [],
      "name": "currentMintAmount",
      "outputs": [
        {
          "internalType": "uint256",
          "name": "",
          "type": "uint256"
        }
      ],
      "stateMutability": "view",
      "type": "function",
      "constant": true
    },
    {
      "inputs": [],
      "name": "currentOrder",
      "outputs": [
        {
          "internalType": "uint256",
          "name": "",
          "type": "uint256"
        }
      ],
      "stateMutability": "view",
      "type": "function",
      "constant": true
    },
    {
      "inputs": [],
      "name": "decimals",
      "outputs": [
        {
          "internalType": "uint8",
          "name": "",
          "type": "uint8"
        }
      ],
      "stateMutability": "view",
      "type": "function",
      "constant": true
    },
    {
      "inputs": [
        {
          "internalType": "address",
          "name": "spender",
          "type": "address"
        },
        {
          "internalType": "uint256",
          "name": "subtractedValue",
          "type": "uint256"
        }
      ],
      "name": "decreaseAllowance",
      "outputs": [
        {
          "internalType": "bool",
          "name": "",
          "type": "bool"
        }
      ],
      "stateMutability": "nonpayable",
      "type": "function"
    },
    {
      "inputs": [
        {
          "internalType": "address",
          "name": "",
          "type": "address"
        }
      ],
      "name": "expectedBalance",
      "outputs": [
        {
          "internalType": "uint256",
          "name": "",
          "type": "uint256"
        }
      ],
      "stateMutability": "view",
      "type": "function",
      "constant": true
    },
    {
      "inputs": [],
      "name": "expireTime",
      "outputs": [
        {
          "internalType": "uint256",
          "name": "",
          "type": "uint256"
        }
      ],
      "stateMutability": "view",
      "type": "function",
      "constant": true
    },
    {
      "inputs": [
        {
          "internalType": "address",
          "name": "spender",
          "type": "address"
        },
        {
          "internalType": "uint256",
          "name": "addedValue",
          "type": "uint256"
        }
      ],
      "name": "increaseAllowance",
      "outputs": [
        {
          "internalType": "bool",
          "name": "",
          "type": "bool"
        }
      ],
      "stateMutability": "nonpayable",
      "type": "function"
    },
    {
      "inputs": [],
      "name": "name",
      "outputs": [
        {
          "internalType": "string",
          "name": "",
          "type": "string"
        }
      ],
      "stateMutability": "view",
      "type": "function",
      "constant": true
    },
    {
      "inputs": [
        {
          "internalType": "uint256",
          "name": "",
          "type": "uint256"
        }
      ],
      "name": "orders",
      "outputs": [
        {
          "internalType": "uint256",
          "name": "id",
          "type": "uint256"
        },
        {
          "internalType": "uint256",
          "name": "lastReturnDate",
          "type": "uint256"
        },
        {
          "internalType": "uint256",
          "name": "flipCoin",
          "type": "uint256"
        },
        {
          "internalType": "address",
          "name": "userAccount",
          "type": "address"
        },
        {
          "internalType": "address",
          "name": "referrer",
          "type": "address"
        },
        {
          "internalType": "bool",
          "name": "isReferred",
          "type": "bool"
        },
        {
          "internalType": "enum FlipCoin.OrderStatus",
          "name": "status",
          "type": "uint8"
        },
        {
          "internalType": "enum FlipCoin.OrderType",
          "name": "orderType",
          "type": "uint8"
        }
      ],
      "stateMutability": "view",
      "type": "function",
      "constant": true
    },
    {
      "inputs": [],
      "name": "ownerAddress",
      "outputs": [
        {
          "internalType": "address",
          "name": "",
          "type": "address"
        }
      ],
      "stateMutability": "view",
      "type": "function",
      "constant": true
    },
    {
      "inputs": [],
      "name": "partners",
      "outputs": [
        {
          "internalType": "uint256",
          "name": "",
          "type": "uint256"
        }
      ],
      "stateMutability": "view",
      "type": "function",
      "constant": true
    },
    {
      "inputs": [],
      "name": "purchase_referrals",
      "outputs": [
        {
          "internalType": "uint256",
          "name": "",
          "type": "uint256"
        }
      ],
      "stateMutability": "view",
      "type": "function",
      "constant": true
    },
    {
      "inputs": [],
      "name": "purchase_rewards",
      "outputs": [
        {
          "internalType": "uint256",
          "name": "",
          "type": "uint256"
        }
      ],
      "stateMutability": "view",
      "type": "function",
      "constant": true
    },
    {
      "inputs": [],
      "name": "purchase_socialMedia",
      "outputs": [
        {
          "internalType": "uint256",
          "name": "",
          "type": "uint256"
        }
      ],
      "stateMutability": "view",
      "type": "function",
      "constant": true
    },
    {
      "inputs": [],
      "name": "referralReward",
      "outputs": [
        {
          "internalType": "uint256",
          "name": "",
          "type": "uint256"
        }
      ],
      "stateMutability": "view",
      "type": "function",
      "constant": true
    },
    {
      "inputs": [],
      "name": "socialMediaReward",
      "outputs": [
        {
          "internalType": "uint256",
          "name": "",
          "type": "uint256"
        }
      ],
      "stateMutability": "view",
      "type": "function",
      "constant": true
    },
    {
      "inputs": [],
      "name": "staking",
      "outputs": [
        {
          "internalType": "uint256",
          "name": "",
          "type": "uint256"
        }
      ],
      "stateMutability": "view",
      "type": "function",
      "constant": true
    },
    {
      "inputs": [],
      "name": "symbol",
      "outputs": [
        {
          "internalType": "string",
          "name": "",
          "type": "string"
        }
      ],
      "stateMutability": "view",
      "type": "function",
      "constant": true
    },
    {
      "inputs": [],
      "name": "tokenAddress",
      "outputs": [
        {
          "internalType": "address",
          "name": "",
          "type": "address"
        }
      ],
      "stateMutability": "view",
      "type": "function",
      "constant": true
    },
    {
      "inputs": [
        {
          "internalType": "uint256",
          "name": "",
          "type": "uint256"
        }
      ],
      "name": "totalReferrals",
      "outputs": [
        {
          "internalType": "uint256",
          "name": "",
          "type": "uint256"
        }
      ],
      "stateMutability": "view",
      "type": "function",
      "constant": true
    },
    {
      "inputs": [],
      "name": "totalSupply",
      "outputs": [
        {
          "internalType": "uint256",
          "name": "",
          "type": "uint256"
        }
      ],
      "stateMutability": "view",
      "type": "function",
      "constant": true
    },
    {
      "inputs": [
        {
          "internalType": "address",
          "name": "to",
          "type": "address"
        },
        {
          "internalType": "uint256",
          "name": "amount",
          "type": "uint256"
        }
      ],
      "name": "transfer",
      "outputs": [
        {
          "internalType": "bool",
          "name": "",
          "type": "bool"
        }
      ],
      "stateMutability": "nonpayable",
      "type": "function"
    },
    {
      "inputs": [
        {
          "internalType": "address",
          "name": "from",
          "type": "address"
        },
        {
          "internalType": "address",
          "name": "to",
          "type": "address"
        },
        {
          "internalType": "uint256",
          "name": "amount",
          "type": "uint256"
        }
      ],
      "name": "transferFrom",
      "outputs": [
        {
          "internalType": "bool",
          "name": "",
          "type": "bool"
        }
      ],
      "stateMutability": "nonpayable",
      "type": "function"
    },
    {
      "inputs": [
        {
          "internalType": "address[]",
          "name": "sellers",
          "type": "address[]"
        }
      ],
      "name": "distributeToPartners",
      "outputs": [],
      "stateMutability": "nonpayable",
      "type": "function"
    },
    {
      "inputs": [
        {
          "internalType": "address",
          "name": "seller",
          "type": "address"
        }
      ],
      "name": "removeSeller",
      "outputs": [],
      "stateMutability": "nonpayable",
      "type": "function"
    },
    {
      "inputs": [
        {
          "internalType": "uint256",
          "name": "amount",
          "type": "uint256"
        }
      ],
      "name": "mint",
      "outputs": [],
      "stateMutability": "nonpayable",
      "type": "function"
    },
    {
      "inputs": [],
      "name": "depositCoint",
      "outputs": [],
      "stateMutability": "nonpayable",
      "type": "function"
    },
    {
      "inputs": [],
      "name": "deductCoin",
      "outputs": [],
      "stateMutability": "payable",
      "type": "function",
      "payable": true
    },
    {
      "inputs": [
        {
          "internalType": "uint256",
          "name": "productPrice",
          "type": "uint256"
        },
        {
          "internalType": "address",
          "name": "userAccount",
          "type": "address"
        },
        {
          "internalType": "uint256",
          "name": "lastReturnDate",
          "type": "uint256"
        },
        {
          "internalType": "bool",
          "name": "isReferred",
          "type": "bool"
        },
        {
          "internalType": "address",
          "name": "referrer",
          "type": "address"
        }
      ],
      "name": "purchase",
      "outputs": [],
      "stateMutability": "nonpayable",
      "type": "function"
    },
    {
      "inputs": [
        {
          "internalType": "address",
          "name": "seller",
          "type": "address"
        },
        {
          "internalType": "uint256",
          "name": "amount",
          "type": "uint256"
        },
        {
          "internalType": "address",
          "name": "userAccount",
          "type": "address"
        }
      ],
      "name": "disperseCoin",
      "outputs": [],
      "stateMutability": "nonpayable",
      "type": "function"
    },
    {
      "inputs": [
        {
          "internalType": "uint256",
          "name": "orderId",
          "type": "uint256"
        }
      ],
      "name": "cancleOrder",
      "outputs": [],
      "stateMutability": "nonpayable",
      "type": "function"
    },
    {
      "inputs": [
        {
          "internalType": "address",
          "name": "userAccount",
          "type": "address"
        }
      ],
      "name": "socialMediaPost",
      "outputs": [],
      "stateMutability": "nonpayable",
      "type": "function"
    },
    {
      "inputs": [
        {
          "internalType": "address",
          "name": "userAccount",
          "type": "address"
        },
        {
          "internalType": "uint256",
          "name": "amount",
          "type": "uint256"
        }
      ],
      "name": "redeem",
      "outputs": [],
      "stateMutability": "nonpayable",
      "type": "function"
    },
    {
      "inputs": [
        {
          "internalType": "uint256",
          "name": "amount",
          "type": "uint256"
        },
        {
          "internalType": "address",
          "name": "userAccount",
          "type": "address"
        },
        {
          "internalType": "uint256",
          "name": "interval",
          "type": "uint256"
        }
      ],
      "name": "stakeTokens",
      "outputs": [],
      "stateMutability": "nonpayable",
      "type": "function"
    }
  ],
  "bytecode": "0x608060405261012c600b556005600c556005600d556000600e553480156200002657600080fd5b5060405162004cee38038062004cee83398181016040528101906200004c919062000522565b8181816003908051906020019062000066929190620002d5565b5080600490805190602001906200007f929190620002d5565b505050620000c130620000976200015560201b60201c565b600a620000a5919062000741565b62989680620000b5919062000792565b6200015e60201b60201c565b62989680600e8190555033600f60006101000a81548173ffffffffffffffffffffffffffffffffffffffff021916908373ffffffffffffffffffffffffffffffffffffffff16021790555030601060006101000a81548173ffffffffffffffffffffffffffffffffffffffff021916908373ffffffffffffffffffffffffffffffffffffffff160217905550505062000965565b60006012905090565b600073ffffffffffffffffffffffffffffffffffffffff168273ffffffffffffffffffffffffffffffffffffffff1603620001d0576040517f08c379a0000000000000000000000000000000000000000000000000000000008152600401620001c79062000854565b60405180910390fd5b620001e460008383620002cb60201b60201c565b8060026000828254620001f8919062000876565b92505081905550806000808473ffffffffffffffffffffffffffffffffffffffff1673ffffffffffffffffffffffffffffffffffffffff168152602001908152602001600020600082825401925050819055508173ffffffffffffffffffffffffffffffffffffffff16600073ffffffffffffffffffffffffffffffffffffffff167fddf252ad1be2c89b69c2b068fc378daa952ba7f163c4a11628f55a4df523b3ef83604051620002ab9190620008e4565b60405180910390a3620002c760008383620002d060201b60201c565b5050565b505050565b505050565b828054620002e39062000930565b90600052602060002090601f01602090048101928262000307576000855562000353565b82601f106200032257805160ff191683800117855562000353565b8280016001018555821562000353579182015b828111156200035257825182559160200191906001019062000335565b5b50905062000362919062000366565b5090565b5b808211156200038157600081600090555060010162000367565b5090565b6000604051905090565b600080fd5b600080fd5b600080fd5b600080fd5b6000601f19601f8301169050919050565b7f4e487b7100000000000000000000000000000000000000000000000000000000600052604160045260246000fd5b620003ee82620003a3565b810181811067ffffffffffffffff8211171562000410576200040f620003b4565b5b80604052505050565b60006200042562000385565b9050620004338282620003e3565b919050565b600067ffffffffffffffff821115620004565762000455620003b4565b5b6200046182620003a3565b9050602081019050919050565b60005b838110156200048e57808201518184015260208101905062000471565b838111156200049e576000848401525b50505050565b6000620004bb620004b58462000438565b62000419565b905082815260208101848484011115620004da57620004d96200039e565b5b620004e78482856200046e565b509392505050565b600082601f83011262000507576200050662000399565b5b815162000519848260208601620004a4565b91505092915050565b600080604083850312156200053c576200053b6200038f565b5b600083015167ffffffffffffffff8111156200055d576200055c62000394565b5b6200056b85828601620004ef565b925050602083015167ffffffffffffffff8111156200058f576200058e62000394565b5b6200059d85828601620004ef565b9150509250929050565b7f4e487b7100000000000000000000000000000000000000000000000000000000600052601160045260246000fd5b60008160011c9050919050565b6000808291508390505b600185111562000635578086048111156200060d576200060c620005a7565b5b60018516156200061d5780820291505b80810290506200062d85620005d6565b9450620005ed565b94509492505050565b60008262000650576001905062000723565b8162000660576000905062000723565b81600181146200067957600281146200068457620006ba565b600191505062000723565b60ff841115620006995762000698620005a7565b5b8360020a915084821115620006b357620006b2620005a7565b5b5062000723565b5060208310610133831016604e8410600b8410161715620006f45782820a905083811115620006ee57620006ed620005a7565b5b62000723565b620007038484846001620005e3565b925090508184048111156200071d576200071c620005a7565b5b81810290505b9392505050565b6000819050919050565b600060ff82169050919050565b60006200074e826200072a565b91506200075b8362000734565b92506200078a7fffffffffffffffffffffffffffffffffffffffffffffffffffffffffffffffff84846200063e565b905092915050565b60006200079f826200072a565b9150620007ac836200072a565b9250817fffffffffffffffffffffffffffffffffffffffffffffffffffffffffffffffff0483118215151615620007e857620007e7620005a7565b5b828202905092915050565b600082825260208201905092915050565b7f45524332303a206d696e7420746f20746865207a65726f206164647265737300600082015250565b60006200083c601f83620007f3565b9150620008498262000804565b602082019050919050565b600060208201905081810360008301526200086f816200082d565b9050919050565b600062000883826200072a565b915062000890836200072a565b9250827fffffffffffffffffffffffffffffffffffffffffffffffffffffffffffffffff03821115620008c857620008c7620005a7565b5b828201905092915050565b620008de816200072a565b82525050565b6000602082019050620008fb6000830184620008d3565b92915050565b7f4e487b7100000000000000000000000000000000000000000000000000000000600052602260045260246000fd5b600060028204905060018216806200094957607f821691505b6020821081036200095f576200095e62000901565b5b50919050565b61437980620009756000396000f3fe60806040526004361061021a5760003560e01c806395d89b4111610123578063b2a62064116100ab578063e3cc16e11161006f578063e3cc16e114610808578063f406cb8a14610812578063f64cccea1461083b578063f95c0df314610878578063ffc5f9e7146108a15761021a565b8063b2a6206414610721578063b64dac4d1461074c578063b9b85b4b14610777578063cec534d6146107a2578063dd62ed3e146107cb5761021a565b8063a0712d68116100f2578063a0712d6814610611578063a457c2d71461063a578063a4afe66b14610677578063a85c38ef146106a0578063a9059cbb146106e45761021a565b806395d89b41146105675780639a69ca9d146105925780639d76ea58146105bb5780639e28229d146105e65761021a565b8063313ce567116101a657806370a082311161017557806370a082311461049457806377937c21146104d15780637cb9cf54146104e857806381add559146105115780638f84aa091461053c5761021a565b8063313ce567146103d657806339509351146104015780634cf088d91461043e5780634d683674146104695761021a565b80631ca351b2116101ed5780631ca351b2146102dd5780631e9a69501461030857806323b872dd146103315780632ed8eaa61461036e578063310a1ee3146103ab5761021a565b806306fdde031461021f5780630860eeb21461024a578063095ea7b31461027557806318160ddd146102b2575b600080fd5b34801561022b57600080fd5b506102346108ca565b604051610241919061316b565b60405180910390f35b34801561025657600080fd5b5061025f61095c565b60405161026c91906131a6565b60405180910390f35b34801561028157600080fd5b5061029c6004803603810190610297919061325f565b610962565b6040516102a991906132ba565b60405180910390f35b3480156102be57600080fd5b506102c7610985565b6040516102d491906131a6565b60405180910390f35b3480156102e957600080fd5b506102f261098f565b6040516102ff91906131a6565b60405180910390f35b34801561031457600080fd5b5061032f600480360381019061032a919061325f565b610995565b005b34801561033d57600080fd5b50610358600480360381019061035391906132d5565b6109fa565b60405161036591906132ba565b60405180910390f35b34801561037a57600080fd5b5061039560048036038101906103909190613328565b610a29565b6040516103a291906131a6565b60405180910390f35b3480156103b757600080fd5b506103c0610a41565b6040516103cd91906131a6565b60405180910390f35b3480156103e257600080fd5b506103eb610a47565b6040516103f89190613371565b60405180910390f35b34801561040d57600080fd5b506104286004803603810190610423919061325f565b610a50565b60405161043591906132ba565b60405180910390f35b34801561044a57600080fd5b50610453610a87565b60405161046091906131a6565b60405180910390f35b34801561047557600080fd5b5061047e610a8d565b60405161048b91906131a6565b60405180910390f35b3480156104a057600080fd5b506104bb60048036038101906104b6919061338c565b610a93565b6040516104c891906131a6565b60405180910390f35b3480156104dd57600080fd5b506104e6610adb565b005b3480156104f457600080fd5b5061050f600480360381019061050a919061338c565b6112a0565b005b34801561051d57600080fd5b506105266112b5565b60405161053391906131a6565b60405180910390f35b34801561054857600080fd5b506105516112bb565b60405161055e91906133c8565b60405180910390f35b34801561057357600080fd5b5061057c6112e1565b604051610589919061316b565b60405180910390f35b34801561059e57600080fd5b506105b960048036038101906105b4919061338c565b611373565b005b3480156105c757600080fd5b506105d06115a9565b6040516105dd91906133c8565b60405180910390f35b3480156105f257600080fd5b506105fb6115cf565b60405161060891906131a6565b60405180910390f35b34801561061d57600080fd5b5061063860048036038101906106339190613328565b6115d5565b005b34801561064657600080fd5b50610661600480360381019061065c919061325f565b611661565b60405161066e91906132ba565b60405180910390f35b34801561068357600080fd5b5061069e6004803603810190610699919061340f565b6116d8565b005b3480156106ac57600080fd5b506106c760048036038101906106c29190613328565b611996565b6040516106db989796959493929190613549565b60405180910390f35b3480156106f057600080fd5b5061070b6004803603810190610706919061325f565b611a45565b60405161071891906132ba565b60405180910390f35b34801561072d57600080fd5b50610736611a68565b60405161074391906131a6565b60405180910390f35b34801561075857600080fd5b50610761611a6e565b60405161076e91906131a6565b60405180910390f35b34801561078357600080fd5b5061078c611a74565b60405161079991906131a6565b60405180910390f35b3480156107ae57600080fd5b506107c960048036038101906107c491906135c7565b611a7a565b005b3480156107d757600080fd5b506107f260048036038101906107ed919061361a565b611d34565b6040516107ff91906131a6565b60405180910390f35b610810611dbb565b005b34801561081e57600080fd5b5061083960048036038101906108349190613328565b6123d3565b005b34801561084757600080fd5b50610862600480360381019061085d919061338c565b612437565b60405161086f91906131a6565b60405180910390f35b34801561088457600080fd5b5061089f600480360381019061089a91906137a2565b61244f565b005b3480156108ad57600080fd5b506108c860048036038101906108c391906137eb565b61254d565b005b6060600380546108d99061386d565b80601f01602080910402602001604051908101604052809291908181526020018280546109059061386d565b80156109525780601f1061092757610100808354040283529160200191610952565b820191906000526020600020905b81548152906001019060200180831161093557829003601f168201915b5050505050905090565b60075481565b60008061096d61283b565b905061097a818585612843565b600191505092915050565b6000600254905090565b600c5481565b8061099f83610a93565b101580156109ad5750600081115b6109ec576040517f08c379a00000000000000000000000000000000000000000000000000000000081526004016109e3906138ea565b60405180910390fd5b6109f68282612a0c565b5050565b600080610a0561283b565b9050610a12858285612bd9565b610a1d858585612c65565b60019150509392505050565b60136020528060005260406000206000915090505481565b600b5481565b60006012905090565b600080610a5b61283b565b9050610a7c818585610a6d8589611d34565b610a779190613939565b612843565b600191505092915050565b60085481565b600d5481565b60008060008373ffffffffffffffffffffffffffffffffffffffff1673ffffffffffffffffffffffffffffffffffffffff168152602001908152602001600020549050919050565b60005b600a5481101561129d5760006003811115610afc57610afb61348a565b5b6011600083815260200190815260200160002060040160159054906101000a900460ff166003811115610b3257610b3161348a565b5b148015610b55575060116000828152602001908152602001600020600101544210155b1561128a5760016003811115610b6e57610b6d61348a565b5b6011600083815260200190815260200160002060040160169054906101000a900460ff166003811115610ba457610ba361348a565b5b03610c405760095460646005610bb8610985565b610bc2919061398f565b610bcc9190613a18565b11610c0c576040517f08c379a0000000000000000000000000000000000000000000000000000000008152600401610c0390613a95565b60405180910390fd5b601160008281526020019081526020016000206002015460096000828254610c349190613939565b92505081905550610ea0565b60026003811115610c5457610c5361348a565b5b6011600083815260200190815260200160002060040160169054906101000a900460ff166003811115610c8a57610c8961348a565b5b03610d265760075460646005610c9e610985565b610ca8919061398f565b610cb29190613a18565b11610cf2576040517f08c379a0000000000000000000000000000000000000000000000000000000008152600401610ce990613a95565b60405180910390fd5b601160008281526020019081526020016000206002015460076000828254610d1a9190613939565b92505081905550610e9f565b600380811115610d3957610d3861348a565b5b6011600083815260200190815260200160002060040160169054906101000a900460ff166003811115610d6f57610d6e61348a565b5b03610e0b576008546064600f610d83610985565b610d8d919061398f565b610d979190613a18565b11610dd7576040517f08c379a0000000000000000000000000000000000000000000000000000000008152600401610dce90613a95565b60405180910390fd5b601160008281526020019081526020016000206002015460086000828254610dff9190613939565b92505081905550610e9e565b60055460646028610e1a610985565b610e24919061398f565b610e2e9190613a18565b11610e6e576040517f08c379a0000000000000000000000000000000000000000000000000000000008152600401610e6590613a95565b60405180910390fd5b601160008281526020019081526020016000206002015460056000828254610e969190613939565b925050819055505b5b5b60026011600083815260200190815260200160002060040160156101000a81548160ff02191690836003811115610eda57610ed961348a565b5b02179055506000601060009054906101000a900473ffffffffffffffffffffffffffffffffffffffff1690508073ffffffffffffffffffffffffffffffffffffffff1663a9059cbb6011600085815260200190815260200160002060030160009054906101000a900473ffffffffffffffffffffffffffffffffffffffff1660116000868152602001908152602001600020600201546040518363ffffffff1660e01b8152600401610f8d929190613ab5565b6020604051808303816000875af1158015610fac573d6000803e3d6000fd5b505050506040513d601f19601f82011682018060405250810190610fd09190613af3565b506011600083815260200190815260200160002060020154601260006011600086815260200190815260200160002060030160009054906101000a900473ffffffffffffffffffffffffffffffffffffffff1673ffffffffffffffffffffffffffffffffffffffff1673ffffffffffffffffffffffffffffffffffffffff168152602001908152602001600020600082825461106c9190613939565b925050819055506011600083815260200190815260200160002060040160149054906101000a900460ff1615611288576006546064600f6110ab610985565b6110b5919061398f565b6110bf9190613a18565b116110ff576040517f08c379a00000000000000000000000000000000000000000000000000000000081526004016110f690613a95565b60405180910390fd5b6000601060009054906101000a900473ffffffffffffffffffffffffffffffffffffffff1690508073ffffffffffffffffffffffffffffffffffffffff1663a9059cbb6011600086815260200190815260200160002060040160009054906101000a900473ffffffffffffffffffffffffffffffffffffffff16600d546040518363ffffffff1660e01b8152600401611199929190613ab5565b6020604051808303816000875af11580156111b8573d6000803e3d6000fd5b505050506040513d601f19601f820116820180604052508101906111dc9190613af3565b50600d54601260006011600087815260200190815260200160002060040160009054906101000a900473ffffffffffffffffffffffffffffffffffffffff1673ffffffffffffffffffffffffffffffffffffffff1673ffffffffffffffffffffffffffffffffffffffff16815260200190815260200160002060008282546112649190613939565b92505081905550600d546006600082825461127f9190613939565b92505081905550505b505b808061129590613b20565b915050610ade565b50565b6112b2816112ad83610a93565b612a0c565b50565b60095481565b600f60009054906101000a900473ffffffffffffffffffffffffffffffffffffffff1681565b6060600480546112f09061386d565b80601f016020809104026020016040519081016040528092919081815260200182805461131c9061386d565b80156113695780601f1061133e57610100808354040283529160200191611369565b820191906000526020600020905b81548152906001019060200180831161134c57829003601f168201915b5050505050905090565b61137b61303b565b600a54816000018181525050600c5481604001818152505060008160a00190151590811515815250504281602001818152505060008160c0019060038111156113c7576113c661348a565b5b908160038111156113db576113da61348a565b5b8152505081816060019073ffffffffffffffffffffffffffffffffffffffff16908173ffffffffffffffffffffffffffffffffffffffff168152505060028160e0019060038111156114305761142f61348a565b5b908160038111156114445761144361348a565b5b815250508060116000600a54815260200190815260200160002060008201518160000155602082015181600101556040820151816002015560608201518160030160006101000a81548173ffffffffffffffffffffffffffffffffffffffff021916908373ffffffffffffffffffffffffffffffffffffffff16021790555060808201518160040160006101000a81548173ffffffffffffffffffffffffffffffffffffffff021916908373ffffffffffffffffffffffffffffffffffffffff16021790555060a08201518160040160146101000a81548160ff02191690831515021790555060c08201518160040160156101000a81548160ff021916908360038111156115555761155461348a565b5b021790555060e08201518160040160166101000a81548160ff021916908360038111156115855761158461348a565b5b0217905550905050600a60008154809291906115a090613b20565b91905055505050565b601060009054906101000a900473ffffffffffffffffffffffffffffffffffffffff1681565b600a5481565b3373ffffffffffffffffffffffffffffffffffffffff16600f60009054906101000a900473ffffffffffffffffffffffffffffffffffffffff1673ffffffffffffffffffffffffffffffffffffffff161461162f57600080fd5b6116573061163b610a47565b600a6116479190613c9b565b83611652919061398f565b612edb565b80600e8190555050565b60008061166c61283b565b9050600061167a8286611d34565b9050838110156116bf576040517f08c379a00000000000000000000000000000000000000000000000000000000081526004016116b690613d58565b60405180910390fd5b6116cc8286868403612843565b60019250505092915050565b6116e061303b565b600a5481600001818152505060646032876116fb9190613a18565b10611710576064816040018181525050611727565b60328661171d9190613a18565b8160400181815250505b84816060019073ffffffffffffffffffffffffffffffffffffffff16908173ffffffffffffffffffffffffffffffffffffffff168152505060008160c0019060038111156117785761177761348a565b5b9081600381111561178c5761178b61348a565b5b815250508381602001818152505060008160e0019060038111156117b3576117b261348a565b5b908160038111156117c7576117c661348a565b5b81525050821561181f5760018160a001901515908115158152505081816080019073ffffffffffffffffffffffffffffffffffffffff16908173ffffffffffffffffffffffffffffffffffffffff1681525050611831565b60008160a00190151590811515815250505b8060116000600a54815260200190815260200160002060008201518160000155602082015181600101556040820151816002015560608201518160030160006101000a81548173ffffffffffffffffffffffffffffffffffffffff021916908373ffffffffffffffffffffffffffffffffffffffff16021790555060808201518160040160006101000a81548173ffffffffffffffffffffffffffffffffffffffff021916908373ffffffffffffffffffffffffffffffffffffffff16021790555060a08201518160040160146101000a81548160ff02191690831515021790555060c08201518160040160156101000a81548160ff0219169083600381111561193e5761193d61348a565b5b021790555060e08201518160040160166101000a81548160ff0219169083600381111561196e5761196d61348a565b5b0217905550905050600a600081548092919061198990613b20565b9190505550505050505050565b60116020528060005260406000206000915090508060000154908060010154908060020154908060030160009054906101000a900473ffffffffffffffffffffffffffffffffffffffff16908060040160009054906101000a900473ffffffffffffffffffffffffffffffffffffffff16908060040160149054906101000a900460ff16908060040160159054906101000a900460ff16908060040160169054906101000a900460ff16905088565b600080611a5061283b565b9050611a5d818585612c65565b600191505092915050565b600e5481565b60055481565b60065481565b600083118015611a925750611a8e82610a93565b8311155b611ad1576040517f08c379a0000000000000000000000000000000000000000000000000000000008152600401611ac8906138ea565b60405180910390fd5b611adc823085612c65565b611ae461303b565b600a54816000018181525050600a84611afd9190613a18565b84611b089190613939565b81604001818152505060008160a00190151590811515815250508142611b2e9190613939565b81602001818152505060008160c001906003811115611b5057611b4f61348a565b5b90816003811115611b6457611b6361348a565b5b8152505060038160e001906003811115611b8157611b8061348a565b5b90816003811115611b9557611b9461348a565b5b8152505082816060019073ffffffffffffffffffffffffffffffffffffffff16908173ffffffffffffffffffffffffffffffffffffffff16815250508060116000600a54815260200190815260200160002060008201518160000155602082015181600101556040820151816002015560608201518160030160006101000a81548173ffffffffffffffffffffffffffffffffffffffff021916908373ffffffffffffffffffffffffffffffffffffffff16021790555060808201518160040160006101000a81548173ffffffffffffffffffffffffffffffffffffffff021916908373ffffffffffffffffffffffffffffffffffffffff16021790555060a08201518160040160146101000a81548160ff02191690831515021790555060c08201518160040160156101000a81548160ff02191690836003811115611cde57611cdd61348a565b5b021790555060e08201518160040160166101000a81548160ff02191690836003811115611d0e57611d0d61348a565b5b0217905550905050600a6000815480929190611d2990613b20565b919050555050505050565b6000600160008473ffffffffffffffffffffffffffffffffffffffff1673ffffffffffffffffffffffffffffffffffffffff16815260200190815260200160002060008373ffffffffffffffffffffffffffffffffffffffff1673ffffffffffffffffffffffffffffffffffffffff16815260200190815260200160002054905092915050565b60005b600a548110156123d05760026003811115611ddc57611ddb61348a565b5b6011600083815260200190815260200160002060040160159054906101000a900460ff166003811115611e1257611e1161348a565b5b148015611e425750600b546011600083815260200190815260200160002060010154611e3e9190613939565b4210155b156123bd576011600082815260200190815260200160002060020154601260006011600085815260200190815260200160002060030160009054906101000a900473ffffffffffffffffffffffffffffffffffffffff1673ffffffffffffffffffffffffffffffffffffffff1673ffffffffffffffffffffffffffffffffffffffff16815260200190815260200160002054611ede9190613d78565b611f1d6011600084815260200190815260200160002060030160009054906101000a900473ffffffffffffffffffffffffffffffffffffffff16610a93565b11156120495760006011600083815260200190815260200160002060020154601260006011600086815260200190815260200160002060030160009054906101000a900473ffffffffffffffffffffffffffffffffffffffff1673ffffffffffffffffffffffffffffffffffffffff1673ffffffffffffffffffffffffffffffffffffffff16815260200190815260200160002054611fbc9190613d78565b611ffb6011600085815260200190815260200160002060030160009054906101000a900473ffffffffffffffffffffffffffffffffffffffff16610a93565b6120059190613d78565b90506120476011600084815260200190815260200160002060030160009054906101000a900473ffffffffffffffffffffffffffffffffffffffff1682612a0c565b505b6011600082815260200190815260200160002060020154601260006011600085815260200190815260200160002060030160009054906101000a900473ffffffffffffffffffffffffffffffffffffffff1673ffffffffffffffffffffffffffffffffffffffff1673ffffffffffffffffffffffffffffffffffffffff16815260200190815260200160002060008282546120e49190613d78565b925050819055506011600082815260200190815260200160002060040160149054906101000a900460ff161561237d57600d54601260006011600085815260200190815260200160002060040160009054906101000a900473ffffffffffffffffffffffffffffffffffffffff1673ffffffffffffffffffffffffffffffffffffffff1673ffffffffffffffffffffffffffffffffffffffff168152602001908152602001600020546121979190613d78565b6121d66011600084815260200190815260200160002060040160009054906101000a900473ffffffffffffffffffffffffffffffffffffffff16610a93565b11156122ee576000600d54601260006011600086815260200190815260200160002060040160009054906101000a900473ffffffffffffffffffffffffffffffffffffffff1673ffffffffffffffffffffffffffffffffffffffff1673ffffffffffffffffffffffffffffffffffffffff168152602001908152602001600020546122619190613d78565b6122a06011600085815260200190815260200160002060040160009054906101000a900473ffffffffffffffffffffffffffffffffffffffff16610a93565b6122aa9190613d78565b90506122ec6011600084815260200190815260200160002060040160009054906101000a900473ffffffffffffffffffffffffffffffffffffffff1682612a0c565b505b600d54601260006011600085815260200190815260200160002060040160009054906101000a900473ffffffffffffffffffffffffffffffffffffffff1673ffffffffffffffffffffffffffffffffffffffff1673ffffffffffffffffffffffffffffffffffffffff16815260200190815260200160002060008282546123759190613d78565b925050819055505b60036011600083815260200190815260200160002060040160156101000a81548160ff021916908360038111156123b7576123b661348a565b5b02179055505b80806123c890613b20565b915050611dbe565b50565b426011600083815260200190815260200160002060010154116123f557600080fd5b60016011600083815260200190815260200160002060040160156101000a81548160ff0219169083600381111561242f5761242e61348a565b5b021790555050565b60126020528060005260406000206000915090505481565b60005b8151811015612549576000601060009054906101000a900473ffffffffffffffffffffffffffffffffffffffff1690508073ffffffffffffffffffffffffffffffffffffffff1663a9059cbb8484815181106124b1576124b0613dac565b5b602002602001015160646005600e546124ca919061398f565b6124d49190613a18565b6040518363ffffffff1660e01b81526004016124f1929190613ab5565b6020604051808303816000875af1158015612510573d6000803e3d6000fd5b505050506040513d601f19601f820116820180604052508101906125349190613af3565b5050808061254190613b20565b915050612452565b5050565b8161255784610a93565b1015612598576040517f08c379a000000000000000000000000000000000000000000000000000000000815260040161258f90613e4d565b60405180910390fd5b600954606460056125a7610985565b6125b1919061398f565b6125bb9190613a18565b116125fb576040517f08c379a00000000000000000000000000000000000000000000000000000000081526004016125f290613a95565b60405180910390fd5b61260361303b565b600a548160000181815250508281604001818152505060008160a00190151590811515815250504281602001818152505060008160c00190600381111561264d5761264c61348a565b5b908160038111156126615761266061348a565b5b8152505081816060019073ffffffffffffffffffffffffffffffffffffffff16908173ffffffffffffffffffffffffffffffffffffffff168152505060018160e0019060038111156126b6576126b561348a565b5b908160038111156126ca576126c961348a565b5b815250508060116000600a54815260200190815260200160002060008201518160000155602082015181600101556040820151816002015560608201518160030160006101000a81548173ffffffffffffffffffffffffffffffffffffffff021916908373ffffffffffffffffffffffffffffffffffffffff16021790555060808201518160040160006101000a81548173ffffffffffffffffffffffffffffffffffffffff021916908373ffffffffffffffffffffffffffffffffffffffff16021790555060a08201518160040160146101000a81548160ff02191690831515021790555060c08201518160040160156101000a81548160ff021916908360038111156127db576127da61348a565b5b021790555060e08201518160040160166101000a81548160ff0219169083600381111561280b5761280a61348a565b5b021790555090505061281d8484612a0c565b600a600081548092919061283090613b20565b919050555050505050565b600033905090565b600073ffffffffffffffffffffffffffffffffffffffff168373ffffffffffffffffffffffffffffffffffffffff16036128b2576040517f08c379a00000000000000000000000000000000000000000000000000000000081526004016128a990613edf565b60405180910390fd5b600073ffffffffffffffffffffffffffffffffffffffff168273ffffffffffffffffffffffffffffffffffffffff1603612921576040517f08c379a000000000000000000000000000000000000000000000000000000000815260040161291890613f71565b60405180910390fd5b80600160008573ffffffffffffffffffffffffffffffffffffffff1673ffffffffffffffffffffffffffffffffffffffff16815260200190815260200160002060008473ffffffffffffffffffffffffffffffffffffffff1673ffffffffffffffffffffffffffffffffffffffff168152602001908152602001600020819055508173ffffffffffffffffffffffffffffffffffffffff168373ffffffffffffffffffffffffffffffffffffffff167f8c5be1e5ebec7d5bd14f71427d1e84f3dd0314c0f7b2291e5b200ac8c7c3b925836040516129ff91906131a6565b60405180910390a3505050565b600073ffffffffffffffffffffffffffffffffffffffff168273ffffffffffffffffffffffffffffffffffffffff1603612a7b576040517f08c379a0000000000000000000000000000000000000000000000000000000008152600401612a7290614003565b60405180910390fd5b612a8782600083613031565b60008060008473ffffffffffffffffffffffffffffffffffffffff1673ffffffffffffffffffffffffffffffffffffffff16815260200190815260200160002054905081811015612b0d576040517f08c379a0000000000000000000000000000000000000000000000000000000008152600401612b0490614095565b60405180910390fd5b8181036000808573ffffffffffffffffffffffffffffffffffffffff1673ffffffffffffffffffffffffffffffffffffffff1681526020019081526020016000208190555081600260008282540392505081905550600073ffffffffffffffffffffffffffffffffffffffff168373ffffffffffffffffffffffffffffffffffffffff167fddf252ad1be2c89b69c2b068fc378daa952ba7f163c4a11628f55a4df523b3ef84604051612bc091906131a6565b60405180910390a3612bd483600084613036565b505050565b6000612be58484611d34565b90507fffffffffffffffffffffffffffffffffffffffffffffffffffffffffffffffff8114612c5f5781811015612c51576040517f08c379a0000000000000000000000000000000000000000000000000000000008152600401612c4890614101565b60405180910390fd5b612c5e8484848403612843565b5b50505050565b600073ffffffffffffffffffffffffffffffffffffffff168373ffffffffffffffffffffffffffffffffffffffff1603612cd4576040517f08c379a0000000000000000000000000000000000000000000000000000000008152600401612ccb90614193565b60405180910390fd5b600073ffffffffffffffffffffffffffffffffffffffff168273ffffffffffffffffffffffffffffffffffffffff1603612d43576040517f08c379a0000000000000000000000000000000000000000000000000000000008152600401612d3a90614225565b60405180910390fd5b612d4e838383613031565b60008060008573ffffffffffffffffffffffffffffffffffffffff1673ffffffffffffffffffffffffffffffffffffffff16815260200190815260200160002054905081811015612dd4576040517f08c379a0000000000000000000000000000000000000000000000000000000008152600401612dcb906142b7565b60405180910390fd5b8181036000808673ffffffffffffffffffffffffffffffffffffffff1673ffffffffffffffffffffffffffffffffffffffff16815260200190815260200160002081905550816000808573ffffffffffffffffffffffffffffffffffffffff1673ffffffffffffffffffffffffffffffffffffffff168152602001908152602001600020600082825401925050819055508273ffffffffffffffffffffffffffffffffffffffff168473ffffffffffffffffffffffffffffffffffffffff167fddf252ad1be2c89b69c2b068fc378daa952ba7f163c4a11628f55a4df523b3ef84604051612ec291906131a6565b60405180910390a3612ed5848484613036565b50505050565b600073ffffffffffffffffffffffffffffffffffffffff168273ffffffffffffffffffffffffffffffffffffffff1603612f4a576040517f08c379a0000000000000000000000000000000000000000000000000000000008152600401612f4190614323565b60405180910390fd5b612f5660008383613031565b8060026000828254612f689190613939565b92505081905550806000808473ffffffffffffffffffffffffffffffffffffffff1673ffffffffffffffffffffffffffffffffffffffff168152602001908152602001600020600082825401925050819055508173ffffffffffffffffffffffffffffffffffffffff16600073ffffffffffffffffffffffffffffffffffffffff167fddf252ad1be2c89b69c2b068fc378daa952ba7f163c4a11628f55a4df523b3ef8360405161301991906131a6565b60405180910390a361302d60008383613036565b5050565b505050565b505050565b604051806101000160405280600081526020016000815260200160008152602001600073ffffffffffffffffffffffffffffffffffffffff168152602001600073ffffffffffffffffffffffffffffffffffffffff168152602001600015158152602001600060038111156130b3576130b261348a565b5b8152602001600060038111156130cc576130cb61348a565b5b81525090565b600081519050919050565b600082825260208201905092915050565b60005b8381101561310c5780820151818401526020810190506130f1565b8381111561311b576000848401525b50505050565b6000601f19601f8301169050919050565b600061313d826130d2565b61314781856130dd565b93506131578185602086016130ee565b61316081613121565b840191505092915050565b600060208201905081810360008301526131858184613132565b905092915050565b6000819050919050565b6131a08161318d565b82525050565b60006020820190506131bb6000830184613197565b92915050565b6000604051905090565b600080fd5b600080fd5b600073ffffffffffffffffffffffffffffffffffffffff82169050919050565b6000613200826131d5565b9050919050565b613210816131f5565b811461321b57600080fd5b50565b60008135905061322d81613207565b92915050565b61323c8161318d565b811461324757600080fd5b50565b60008135905061325981613233565b92915050565b60008060408385031215613276576132756131cb565b5b60006132848582860161321e565b92505060206132958582860161324a565b9150509250929050565b60008115159050919050565b6132b48161329f565b82525050565b60006020820190506132cf60008301846132ab565b92915050565b6000806000606084860312156132ee576132ed6131cb565b5b60006132fc8682870161321e565b935050602061330d8682870161321e565b925050604061331e8682870161324a565b9150509250925092565b60006020828403121561333e5761333d6131cb565b5b600061334c8482850161324a565b91505092915050565b600060ff82169050919050565b61336b81613355565b82525050565b60006020820190506133866000830184613362565b92915050565b6000602082840312156133a2576133a16131cb565b5b60006133b08482850161321e565b91505092915050565b6133c2816131f5565b82525050565b60006020820190506133dd60008301846133b9565b92915050565b6133ec8161329f565b81146133f757600080fd5b50565b600081359050613409816133e3565b92915050565b600080600080600060a0868803121561342b5761342a6131cb565b5b60006134398882890161324a565b955050602061344a8882890161321e565b945050604061345b8882890161324a565b935050606061346c888289016133fa565b925050608061347d8882890161321e565b9150509295509295909350565b7f4e487b7100000000000000000000000000000000000000000000000000000000600052602160045260246000fd5b600481106134ca576134c961348a565b5b50565b60008190506134db826134b9565b919050565b60006134eb826134cd565b9050919050565b6134fb816134e0565b82525050565b600481106135125761351161348a565b5b50565b600081905061352382613501565b919050565b600061353382613515565b9050919050565b61354381613528565b82525050565b60006101008201905061355f600083018b613197565b61356c602083018a613197565b6135796040830189613197565b61358660608301886133b9565b61359360808301876133b9565b6135a060a08301866132ab565b6135ad60c08301856134f2565b6135ba60e083018461353a565b9998505050505050505050565b6000806000606084860312156135e0576135df6131cb565b5b60006135ee8682870161324a565b93505060206135ff8682870161321e565b92505060406136108682870161324a565b9150509250925092565b60008060408385031215613631576136306131cb565b5b600061363f8582860161321e565b92505060206136508582860161321e565b9150509250929050565b600080fd5b7f4e487b7100000000000000000000000000000000000000000000000000000000600052604160045260246000fd5b61369782613121565b810181811067ffffffffffffffff821117156136b6576136b561365f565b5b80604052505050565b60006136c96131c1565b90506136d5828261368e565b919050565b600067ffffffffffffffff8211156136f5576136f461365f565b5b602082029050602081019050919050565b600080fd5b600061371e613719846136da565b6136bf565b9050808382526020820190506020840283018581111561374157613740613706565b5b835b8181101561376a5780613756888261321e565b845260208401935050602081019050613743565b5050509392505050565b600082601f8301126137895761378861365a565b5b813561379984826020860161370b565b91505092915050565b6000602082840312156137b8576137b76131cb565b5b600082013567ffffffffffffffff8111156137d6576137d56131d0565b5b6137e284828501613774565b91505092915050565b600080600060608486031215613804576138036131cb565b5b60006138128682870161321e565b93505060206138238682870161324a565b92505060406138348682870161321e565b9150509250925092565b7f4e487b7100000000000000000000000000000000000000000000000000000000600052602260045260246000fd5b6000600282049050600182168061388557607f821691505b6020821081036138985761389761383e565b5b50919050565b7f496e73756666696369656e742062616c616e6365000000000000000000000000600082015250565b60006138d46014836130dd565b91506138df8261389e565b602082019050919050565b60006020820190508181036000830152613903816138c7565b9050919050565b7f4e487b7100000000000000000000000000000000000000000000000000000000600052601160045260246000fd5b60006139448261318d565b915061394f8361318d565b9250827fffffffffffffffffffffffffffffffffffffffffffffffffffffffffffffffff038211156139845761398361390a565b5b828201905092915050565b600061399a8261318d565b91506139a58361318d565b9250817fffffffffffffffffffffffffffffffffffffffffffffffffffffffffffffffff04831182151516156139de576139dd61390a565b5b828202905092915050565b7f4e487b7100000000000000000000000000000000000000000000000000000000600052601260045260246000fd5b6000613a238261318d565b9150613a2e8361318d565b925082613a3e57613a3d6139e9565b5b828204905092915050565b7f52756e6e696e67204c6f77206f6e20546f6b656e730000000000000000000000600082015250565b6000613a7f6015836130dd565b9150613a8a82613a49565b602082019050919050565b60006020820190508181036000830152613aae81613a72565b9050919050565b6000604082019050613aca60008301856133b9565b613ad76020830184613197565b9392505050565b600081519050613aed816133e3565b92915050565b600060208284031215613b0957613b086131cb565b5b6000613b1784828501613ade565b91505092915050565b6000613b2b8261318d565b91507fffffffffffffffffffffffffffffffffffffffffffffffffffffffffffffffff8203613b5d57613b5c61390a565b5b600182019050919050565b60008160011c9050919050565b6000808291508390505b6001851115613bbf57808604811115613b9b57613b9a61390a565b5b6001851615613baa5780820291505b8081029050613bb885613b68565b9450613b7f565b94509492505050565b600082613bd85760019050613c94565b81613be65760009050613c94565b8160018114613bfc5760028114613c0657613c35565b6001915050613c94565b60ff841115613c1857613c1761390a565b5b8360020a915084821115613c2f57613c2e61390a565b5b50613c94565b5060208310610133831016604e8410600b8410161715613c6a5782820a905083811115613c6557613c6461390a565b5b613c94565b613c778484846001613b75565b92509050818404811115613c8e57613c8d61390a565b5b81810290505b9392505050565b6000613ca68261318d565b9150613cb183613355565b9250613cde7fffffffffffffffffffffffffffffffffffffffffffffffffffffffffffffffff8484613bc8565b905092915050565b7f45524332303a2064656372656173656420616c6c6f77616e63652062656c6f7760008201527f207a65726f000000000000000000000000000000000000000000000000000000602082015250565b6000613d426025836130dd565b9150613d4d82613ce6565b604082019050919050565b60006020820190508181036000830152613d7181613d35565b9050919050565b6000613d838261318d565b9150613d8e8361318d565b925082821015613da157613da061390a565b5b828203905092915050565b7f4e487b7100000000000000000000000000000000000000000000000000000000600052603260045260246000fd5b7f53656c6c657220686173206e6f7420656e6f75676820616d6f756e74206f662060008201527f546f6b656e730000000000000000000000000000000000000000000000000000602082015250565b6000613e376026836130dd565b9150613e4282613ddb565b604082019050919050565b60006020820190508181036000830152613e6681613e2a565b9050919050565b7f45524332303a20617070726f76652066726f6d20746865207a65726f2061646460008201527f7265737300000000000000000000000000000000000000000000000000000000602082015250565b6000613ec96024836130dd565b9150613ed482613e6d565b604082019050919050565b60006020820190508181036000830152613ef881613ebc565b9050919050565b7f45524332303a20617070726f766520746f20746865207a65726f20616464726560008201527f7373000000000000000000000000000000000000000000000000000000000000602082015250565b6000613f5b6022836130dd565b9150613f6682613eff565b604082019050919050565b60006020820190508181036000830152613f8a81613f4e565b9050919050565b7f45524332303a206275726e2066726f6d20746865207a65726f2061646472657360008201527f7300000000000000000000000000000000000000000000000000000000000000602082015250565b6000613fed6021836130dd565b9150613ff882613f91565b604082019050919050565b6000602082019050818103600083015261401c81613fe0565b9050919050565b7f45524332303a206275726e20616d6f756e7420657863656564732062616c616e60008201527f6365000000000000000000000000000000000000000000000000000000000000602082015250565b600061407f6022836130dd565b915061408a82614023565b604082019050919050565b600060208201905081810360008301526140ae81614072565b9050919050565b7f45524332303a20696e73756666696369656e7420616c6c6f77616e6365000000600082015250565b60006140eb601d836130dd565b91506140f6826140b5565b602082019050919050565b6000602082019050818103600083015261411a816140de565b9050919050565b7f45524332303a207472616e736665722066726f6d20746865207a65726f20616460008201527f6472657373000000000000000000000000000000000000000000000000000000602082015250565b600061417d6025836130dd565b915061418882614121565b604082019050919050565b600060208201905081810360008301526141ac81614170565b9050919050565b7f45524332303a207472616e7366657220746f20746865207a65726f206164647260008201527f6573730000000000000000000000000000000000000000000000000000000000602082015250565b600061420f6023836130dd565b915061421a826141b3565b604082019050919050565b6000602082019050818103600083015261423e81614202565b9050919050565b7f45524332303a207472616e7366657220616d6f756e742065786365656473206260008201527f616c616e63650000000000000000000000000000000000000000000000000000602082015250565b60006142a16026836130dd565b91506142ac82614245565b604082019050919050565b600060208201905081810360008301526142d081614294565b9050919050565b7f45524332303a206d696e7420746f20746865207a65726f206164647265737300600082015250565b600061430d601f836130dd565b9150614318826142d7565b602082019050919050565b6000602082019050818103600083015261433c81614300565b905091905056fea2646970667358221220959d37ab224f15c4880f9546ca8396eef4566814016bff76d620a782a78772c464736f6c634300080d0033",
  "immutableReferences": {},
  "source": "// SPDX-License-Identifier: MIT\npragma solidity ^0.8.0;\n\n// Import the necessary ERC-20 interface\nimport \"@openzeppelin/contracts/token/ERC20/ERC20.sol\";\nimport \"@openzeppelin/contracts/token/ERC20/IERC20.sol\";\n\n// Inherit from the ERC-20 contract\ncontract FlipCoin is ERC20 {\n\n    uint256 public purchase_rewards;\n    uint256 public purchase_referrals;\n    uint256 public purchase_socialMedia;\n    uint256 public staking;\n    uint256 public partners;\n    uint256 public currentOrder;\n    uint256 public expireTime = 300;\n    uint256 public socialMediaReward = 5;\n    uint256 public referralReward = 5;\n    uint256 public currentMintAmount = 0;\n    address public ownerAddress;\n    address public tokenAddress;\n\n    enum OrderStatus\n    {\n        Confirmed,\n        Cancelled,\n        NotReturned,\n        Expired\n    }\n    enum OrderType\n    {\n        Purchase,\n        Airdrop,\n        SocialPost,\n        Stake\n    }\n    struct Order\n    {\n        uint256 id;\n        uint256 lastReturnDate;\n        uint256 flipCoin;\n        address userAccount;\n        address referrer;\n        bool isReferred;\n        OrderStatus status;\n        OrderType orderType;\n    }\n\n    mapping(uint256=>Order) public orders;\n    mapping(address=>uint256) public expectedBalance;\n    mapping(uint256=>uint256) public totalReferrals;\n\n    constructor(string memory name, string memory symbol) ERC20(name, symbol) {\n        _mint(address(this), 10000000 * 10 ** decimals());\n        currentMintAmount = 10000000;\n        ownerAddress = msg.sender;\n        tokenAddress = address(this);\n    }\n    function distributeToPartners(address[] memory sellers) external \n    {\n        for(uint256 i=0;i<sellers.length;i++)\n        {\n            IERC20 token = IERC20(tokenAddress);\n            token.transfer(sellers[i], (currentMintAmount * 5)/100);\n        }\n    }\n    function removeSeller(address seller) external \n    {\n        _burn(seller, balanceOf(seller));\n    }\n    function mint(uint256 amount) external \n    {\n        require(ownerAddress == msg.sender);\n        _mint(address(this), amount * 10 ** decimals());\n        currentMintAmount = amount;\n    }\n    function depositCoint() external {\n        for(uint256 i=0;i<currentOrder;i++)\n        {\n            if(orders[i].status == OrderStatus.Confirmed && block.timestamp >= orders[i].lastReturnDate)\n            {\n                if(orders[i].orderType == OrderType.Airdrop)\n                {\n                    require((totalSupply() * 5)/100 > partners, \"Running Low on Tokens\");\n                    partners += orders[i].flipCoin;\n                }\n                else if(orders[i].orderType == OrderType.SocialPost)\n                {\n                    require((totalSupply() * 5)/100 > purchase_socialMedia, \"Running Low on Tokens\");\n                    purchase_socialMedia += orders[i].flipCoin;\n                }\n                else if(orders[i].orderType == OrderType.Stake)\n                {\n                    require((totalSupply() * 15)/100 > staking, \"Running Low on Tokens\");\n                    staking += orders[i].flipCoin;\n                }\n                else \n                {\n                    require((totalSupply() * 40)/100 > purchase_rewards, \"Running Low on Tokens\");\n                    purchase_rewards += orders[i].flipCoin;\n                }\n                orders[i].status = OrderStatus.NotReturned;\n                IERC20 token = IERC20(tokenAddress);\n                token.transfer(orders[i].userAccount, orders[i].flipCoin);\n                expectedBalance[orders[i].userAccount] += orders[i].flipCoin;\n                if(orders[i].isReferred)\n                {\n                    require((totalSupply() * 15)/100 > purchase_referrals, \"Running Low on Tokens\");\n                    IERC20 tokenRef = IERC20(tokenAddress);\n                    tokenRef.transfer(orders[i].referrer, referralReward);\n                    expectedBalance[orders[i].referrer] += referralReward;\n                    purchase_referrals += referralReward;\n                }\n            }\n\n        }\n    }\n    function deductCoin() payable external {\n        for(uint256 i=0;i<currentOrder;i++)\n        {\n            if(orders[i].status == OrderStatus.NotReturned && block.timestamp >= orders[i].lastReturnDate + expireTime)\n            {\n                if(balanceOf(orders[i].userAccount) > (expectedBalance[orders[i].userAccount] - orders[i].flipCoin))\n                {\n                    uint256 extraAmount = balanceOf(orders[i].userAccount) - (expectedBalance[orders[i].userAccount] - orders[i].flipCoin);\n                    _burn(orders[i].userAccount, extraAmount);\n                }\n                expectedBalance[orders[i].userAccount] -= orders[i].flipCoin;\n                if(orders[i].isReferred)\n                {\n                    if(balanceOf(orders[i].referrer) > (expectedBalance[orders[i].referrer] - referralReward))\n                    {\n                        uint256 extraAmount = balanceOf(orders[i].referrer) - (expectedBalance[orders[i].referrer] - referralReward);\n                        _burn(orders[i].referrer, extraAmount);\n                    }\n                    expectedBalance[orders[i].referrer] -= referralReward;\n                }\n                orders[i].status = OrderStatus.Expired;\n            }\n        }\n    }\n    function purchase(uint256 productPrice,address userAccount, uint256 lastReturnDate,bool isReferred, address referrer)external {\n        Order memory newOrder;\n        newOrder.id = currentOrder;\n        if(productPrice/50 >= 100){\n        newOrder.flipCoin = 100;\n        }\n        else{\n            newOrder.flipCoin = productPrice / 50;\n        }\n        newOrder.userAccount = userAccount;\n        newOrder.status = OrderStatus.Confirmed;\n        newOrder.lastReturnDate = lastReturnDate;\n        newOrder.orderType = OrderType.Purchase;\n        if(isReferred)\n        {\n            newOrder.isReferred = true;\n            newOrder.referrer = referrer;\n        }\n        else \n        {\n            newOrder.isReferred = false;\n        }\n        orders[currentOrder] = newOrder;\n        currentOrder++;\n    }\n    function disperseCoin(address seller, uint256 amount, address userAccount) external {\n        require(balanceOf(seller) >= amount, \"Seller has not enough amount of Tokens\");\n        require((totalSupply() * 5)/100 > partners, \"Running Low on Tokens\");\n        Order memory newOrder;\n        newOrder.id = currentOrder;\n        newOrder.flipCoin = amount;\n        newOrder.isReferred = false;\n        newOrder.lastReturnDate = block.timestamp;\n        newOrder.status = OrderStatus.Confirmed;\n        newOrder.userAccount = userAccount;\n        newOrder.orderType = OrderType.Airdrop;\n        orders[currentOrder] = newOrder;\n        _burn(seller, amount);\n        currentOrder++;\n    }\n    function cancleOrder(uint256 orderId) external \n    {\n        require(orders[orderId].lastReturnDate > block.timestamp);\n        orders[orderId].status = OrderStatus.Cancelled;\n    }\n    function socialMediaPost(address userAccount) external \n    {\n        Order memory newOrder;\n        newOrder.id = currentOrder;\n        newOrder.flipCoin = socialMediaReward;\n        newOrder.isReferred = false;\n        newOrder.lastReturnDate = block.timestamp;\n        newOrder.status = OrderStatus.Confirmed;\n        newOrder.userAccount = userAccount;\n        newOrder.orderType = OrderType.SocialPost;\n        orders[currentOrder] = newOrder;\n        currentOrder++;\n    }\n    function redeem(address userAccount, uint256 amount) external \n    {\n        require(balanceOf(userAccount) >= amount && amount > 0, \"Insufficient balance\");\n        _burn(userAccount, amount);\n    }\n    function stakeTokens(uint256 amount, address userAccount, uint256 interval) external {\n        require(amount >0 && amount <= balanceOf(userAccount), \"Insufficient balance\");\n        _transfer(userAccount, address(this) ,amount);\n        Order memory newOrder;\n        newOrder.id = currentOrder;\n        newOrder.flipCoin = amount + amount/10;\n        newOrder.isReferred = false;\n        newOrder.lastReturnDate = block.timestamp + interval;\n        newOrder.status = OrderStatus.Confirmed;\n        newOrder.orderType = OrderType.Stake;\n        newOrder.userAccount = userAccount;\n        orders[currentOrder] = newOrder;\n        currentOrder++;\n    }\n}\n",
  "sourcePath": "/home/subrat0018/Desktop/project-grid/truffle/contracts/FlipCoin.sol",
  "compiler": {
    "name": "solc",
    "version": "0.8.13+commit.abaa5c0e.Emscripten.clang"
  },
  "schemaVersion": "3.4.15",
  "updatedAt": "2023-08-19T16:08:15.276Z",
  "networkType": "ethereum",
  "devdoc": {
    "kind": "dev",
    "methods": {
      "allowance(address,address)": {
        "details": "See {IERC20-allowance}."
      },
      "approve(address,uint256)": {
        "details": "See {IERC20-approve}. NOTE: If `amount` is the maximum `uint256`, the allowance is not updated on `transferFrom`. This is semantically equivalent to an infinite approval. Requirements: - `spender` cannot be the zero address."
      },
      "balanceOf(address)": {
        "details": "See {IERC20-balanceOf}."
      },
      "decimals()": {
        "details": "Returns the number of decimals used to get its user representation. For example, if `decimals` equals `2`, a balance of `505` tokens should be displayed to a user as `5.05` (`505 / 10 ** 2`). Tokens usually opt for a value of 18, imitating the relationship between Ether and Wei. This is the default value returned by this function, unless it's overridden. NOTE: This information is only used for _display_ purposes: it in no way affects any of the arithmetic of the contract, including {IERC20-balanceOf} and {IERC20-transfer}."
      },
      "decreaseAllowance(address,uint256)": {
        "details": "Atomically decreases the allowance granted to `spender` by the caller. This is an alternative to {approve} that can be used as a mitigation for problems described in {IERC20-approve}. Emits an {Approval} event indicating the updated allowance. Requirements: - `spender` cannot be the zero address. - `spender` must have allowance for the caller of at least `subtractedValue`."
      },
      "increaseAllowance(address,uint256)": {
        "details": "Atomically increases the allowance granted to `spender` by the caller. This is an alternative to {approve} that can be used as a mitigation for problems described in {IERC20-approve}. Emits an {Approval} event indicating the updated allowance. Requirements: - `spender` cannot be the zero address."
      },
      "name()": {
        "details": "Returns the name of the token."
      },
      "symbol()": {
        "details": "Returns the symbol of the token, usually a shorter version of the name."
      },
      "totalSupply()": {
        "details": "See {IERC20-totalSupply}."
      },
      "transfer(address,uint256)": {
        "details": "See {IERC20-transfer}. Requirements: - `to` cannot be the zero address. - the caller must have a balance of at least `amount`."
      },
      "transferFrom(address,address,uint256)": {
        "details": "See {IERC20-transferFrom}. Emits an {Approval} event indicating the updated allowance. This is not required by the EIP. See the note at the beginning of {ERC20}. NOTE: Does not update the allowance if the current allowance is the maximum `uint256`. Requirements: - `from` and `to` cannot be the zero address. - `from` must have a balance of at least `amount`. - the caller must have allowance for ``from``'s tokens of at least `amount`."
      }
    },
    "version": 1
  },
  "userdoc": {
    "kind": "user",
    "methods": {},
    "version": 1
  }
}