{
  "contractName": "FlipCoin",
  "abi": [
    {
      "inputs": [
        {
          "internalType": "string",
          "name": "name",
          "type": "string"
        },
        {
          "internalType": "string",
          "name": "symbol",
          "type": "string"
        }
      ],
      "stateMutability": "nonpayable",
      "type": "constructor"
    },
    {
      "anonymous": false,
      "inputs": [
        {
          "indexed": true,
          "internalType": "address",
          "name": "owner",
          "type": "address"
        },
        {
          "indexed": true,
          "internalType": "address",
          "name": "spender",
          "type": "address"
        },
        {
          "indexed": false,
          "internalType": "uint256",
          "name": "value",
          "type": "uint256"
        }
      ],
      "name": "Approval",
      "type": "event"
    },
    {
      "anonymous": false,
      "inputs": [
        {
          "indexed": true,
          "internalType": "address",
          "name": "from",
          "type": "address"
        },
        {
          "indexed": true,
          "internalType": "address",
          "name": "to",
          "type": "address"
        },
        {
          "indexed": false,
          "internalType": "uint256",
          "name": "value",
          "type": "uint256"
        }
      ],
      "name": "Transfer",
      "type": "event"
    },
    {
      "inputs": [
        {
          "internalType": "address",
          "name": "owner",
          "type": "address"
        },
        {
          "internalType": "address",
          "name": "spender",
          "type": "address"
        }
      ],
      "name": "allowance",
      "outputs": [
        {
          "internalType": "uint256",
          "name": "",
          "type": "uint256"
        }
      ],
      "stateMutability": "view",
      "type": "function",
      "constant": true
    },
    {
      "inputs": [
        {
          "internalType": "address",
          "name": "spender",
          "type": "address"
        },
        {
          "internalType": "uint256",
          "name": "amount",
          "type": "uint256"
        }
      ],
      "name": "approve",
      "outputs": [
        {
          "internalType": "bool",
          "name": "",
          "type": "bool"
        }
      ],
      "stateMutability": "nonpayable",
      "type": "function"
    },
    {
      "inputs": [
        {
          "internalType": "address",
          "name": "account",
          "type": "address"
        }
      ],
      "name": "balanceOf",
      "outputs": [
        {
          "internalType": "uint256",
          "name": "",
          "type": "uint256"
        }
      ],
      "stateMutability": "view",
      "type": "function",
      "constant": true
    },
    {
      "inputs": [],
      "name": "decimals",
      "outputs": [
        {
          "internalType": "uint8",
          "name": "",
          "type": "uint8"
        }
      ],
      "stateMutability": "view",
      "type": "function",
      "constant": true
    },
    {
      "inputs": [
        {
          "internalType": "address",
          "name": "spender",
          "type": "address"
        },
        {
          "internalType": "uint256",
          "name": "subtractedValue",
          "type": "uint256"
        }
      ],
      "name": "decreaseAllowance",
      "outputs": [
        {
          "internalType": "bool",
          "name": "",
          "type": "bool"
        }
      ],
      "stateMutability": "nonpayable",
      "type": "function"
    },
    {
      "inputs": [
        {
          "internalType": "address",
          "name": "",
          "type": "address"
        }
      ],
      "name": "expectedBalance",
      "outputs": [
        {
          "internalType": "uint256",
          "name": "",
          "type": "uint256"
        }
      ],
      "stateMutability": "view",
      "type": "function",
      "constant": true
    },
    {
      "inputs": [
        {
          "internalType": "address",
          "name": "spender",
          "type": "address"
        },
        {
          "internalType": "uint256",
          "name": "addedValue",
          "type": "uint256"
        }
      ],
      "name": "increaseAllowance",
      "outputs": [
        {
          "internalType": "bool",
          "name": "",
          "type": "bool"
        }
      ],
      "stateMutability": "nonpayable",
      "type": "function"
    },
    {
      "inputs": [],
      "name": "name",
      "outputs": [
        {
          "internalType": "string",
          "name": "",
          "type": "string"
        }
      ],
      "stateMutability": "view",
      "type": "function",
      "constant": true
    },
    {
      "inputs": [
        {
          "internalType": "uint256",
          "name": "",
          "type": "uint256"
        }
      ],
      "name": "orders",
      "outputs": [
        {
          "internalType": "uint256",
          "name": "id",
          "type": "uint256"
        },
        {
          "internalType": "uint256",
          "name": "lastReturnDate",
          "type": "uint256"
        },
        {
          "internalType": "uint256",
          "name": "flipCoin",
          "type": "uint256"
        },
        {
          "internalType": "address",
          "name": "userAccount",
          "type": "address"
        },
        {
          "internalType": "address",
          "name": "referrer",
          "type": "address"
        },
        {
          "internalType": "bool",
          "name": "isReferred",
          "type": "bool"
        },
        {
          "internalType": "enum FlipCoin.OrderStatus",
          "name": "status",
          "type": "uint8"
        },
        {
          "internalType": "enum FlipCoin.OrderType",
          "name": "orderType",
          "type": "uint8"
        }
      ],
      "stateMutability": "view",
      "type": "function",
      "constant": true
    },
    {
      "inputs": [],
      "name": "symbol",
      "outputs": [
        {
          "internalType": "string",
          "name": "",
          "type": "string"
        }
      ],
      "stateMutability": "view",
      "type": "function",
      "constant": true
    },
    {
      "inputs": [
        {
          "internalType": "uint256",
          "name": "",
          "type": "uint256"
        }
      ],
      "name": "totalReferrals",
      "outputs": [
        {
          "internalType": "uint256",
          "name": "",
          "type": "uint256"
        }
      ],
      "stateMutability": "view",
      "type": "function",
      "constant": true
    },
    {
      "inputs": [],
      "name": "totalSupply",
      "outputs": [
        {
          "internalType": "uint256",
          "name": "",
          "type": "uint256"
        }
      ],
      "stateMutability": "view",
      "type": "function",
      "constant": true
    },
    {
      "inputs": [
        {
          "internalType": "address",
          "name": "to",
          "type": "address"
        },
        {
          "internalType": "uint256",
          "name": "amount",
          "type": "uint256"
        }
      ],
      "name": "transfer",
      "outputs": [
        {
          "internalType": "bool",
          "name": "",
          "type": "bool"
        }
      ],
      "stateMutability": "nonpayable",
      "type": "function"
    },
    {
      "inputs": [
        {
          "internalType": "address",
          "name": "from",
          "type": "address"
        },
        {
          "internalType": "address",
          "name": "to",
          "type": "address"
        },
        {
          "internalType": "uint256",
          "name": "amount",
          "type": "uint256"
        }
      ],
      "name": "transferFrom",
      "outputs": [
        {
          "internalType": "bool",
          "name": "",
          "type": "bool"
        }
      ],
      "stateMutability": "nonpayable",
      "type": "function"
    },
    {
      "inputs": [
        {
          "internalType": "address[]",
          "name": "sellers",
          "type": "address[]"
        }
      ],
      "name": "distributeToPartners",
      "outputs": [],
      "stateMutability": "nonpayable",
      "type": "function"
    },
    {
      "inputs": [
        {
          "internalType": "address",
          "name": "seller",
          "type": "address"
        }
      ],
      "name": "removeSeller",
      "outputs": [],
      "stateMutability": "nonpayable",
      "type": "function"
    },
    {
      "inputs": [
        {
          "internalType": "uint256",
          "name": "amount",
          "type": "uint256"
        }
      ],
      "name": "mint",
      "outputs": [],
      "stateMutability": "nonpayable",
      "type": "function"
    },
    {
      "inputs": [],
      "name": "depositCoint",
      "outputs": [],
      "stateMutability": "nonpayable",
      "type": "function"
    },
    {
      "inputs": [],
      "name": "deductCoin",
      "outputs": [],
      "stateMutability": "payable",
      "type": "function",
      "payable": true
    },
    {
      "inputs": [
        {
          "internalType": "uint256",
          "name": "productPrice",
          "type": "uint256"
        },
        {
          "internalType": "address",
          "name": "userAccount",
          "type": "address"
        },
        {
          "internalType": "uint256",
          "name": "lastReturnDate",
          "type": "uint256"
        },
        {
          "internalType": "bool",
          "name": "isReferred",
          "type": "bool"
        },
        {
          "internalType": "address",
          "name": "referrer",
          "type": "address"
        }
      ],
      "name": "purchase",
      "outputs": [],
      "stateMutability": "nonpayable",
      "type": "function"
    },
    {
      "inputs": [
        {
          "internalType": "address",
          "name": "seller",
          "type": "address"
        },
        {
          "internalType": "uint256",
          "name": "amount",
          "type": "uint256"
        },
        {
          "internalType": "address",
          "name": "userAccount",
          "type": "address"
        }
      ],
      "name": "disperseCoin",
      "outputs": [],
      "stateMutability": "nonpayable",
      "type": "function"
    },
    {
      "inputs": [
        {
          "internalType": "uint256",
          "name": "orderId",
          "type": "uint256"
        }
      ],
      "name": "cancleOrder",
      "outputs": [],
      "stateMutability": "nonpayable",
      "type": "function"
    },
    {
      "inputs": [
        {
          "internalType": "address",
          "name": "userAccount",
          "type": "address"
        }
      ],
      "name": "socialMediaPost",
      "outputs": [],
      "stateMutability": "nonpayable",
      "type": "function"
    },
    {
      "inputs": [
        {
          "internalType": "address",
          "name": "userAccount",
          "type": "address"
        },
        {
          "internalType": "uint256",
          "name": "amount",
          "type": "uint256"
        }
      ],
      "name": "redeem",
      "outputs": [],
      "stateMutability": "nonpayable",
      "type": "function"
    },
    {
      "inputs": [
        {
          "internalType": "uint256",
          "name": "amount",
          "type": "uint256"
        },
        {
          "internalType": "address",
          "name": "userAccount",
          "type": "address"
        },
        {
          "internalType": "uint256",
          "name": "interval",
          "type": "uint256"
        }
      ],
      "name": "stakeTokens",
      "outputs": [],
      "stateMutability": "nonpayable",
      "type": "function"
    }
  ],
  "bytecode": "0x6080604052603c600b556001600c556001600d556000600e553480156200002557600080fd5b50604051620049f9380380620049f983398181016040528101906200004b919062000521565b8181816003908051906020019062000065929190620002d4565b5080600490805190602001906200007e929190620002d4565b505050620000c030620000966200015460201b60201c565b600a620000a4919062000740565b62989680620000b4919062000791565b6200015d60201b60201c565b62989680600e8190555033600f60006101000a81548173ffffffffffffffffffffffffffffffffffffffff021916908373ffffffffffffffffffffffffffffffffffffffff16021790555030601060006101000a81548173ffffffffffffffffffffffffffffffffffffffff021916908373ffffffffffffffffffffffffffffffffffffffff160217905550505062000964565b60006012905090565b600073ffffffffffffffffffffffffffffffffffffffff168273ffffffffffffffffffffffffffffffffffffffff1603620001cf576040517f08c379a0000000000000000000000000000000000000000000000000000000008152600401620001c69062000853565b60405180910390fd5b620001e360008383620002ca60201b60201c565b8060026000828254620001f7919062000875565b92505081905550806000808473ffffffffffffffffffffffffffffffffffffffff1673ffffffffffffffffffffffffffffffffffffffff168152602001908152602001600020600082825401925050819055508173ffffffffffffffffffffffffffffffffffffffff16600073ffffffffffffffffffffffffffffffffffffffff167fddf252ad1be2c89b69c2b068fc378daa952ba7f163c4a11628f55a4df523b3ef83604051620002aa9190620008e3565b60405180910390a3620002c660008383620002cf60201b60201c565b5050565b505050565b505050565b828054620002e2906200092f565b90600052602060002090601f01602090048101928262000306576000855562000352565b82601f106200032157805160ff191683800117855562000352565b8280016001018555821562000352579182015b828111156200035157825182559160200191906001019062000334565b5b50905062000361919062000365565b5090565b5b808211156200038057600081600090555060010162000366565b5090565b6000604051905090565b600080fd5b600080fd5b600080fd5b600080fd5b6000601f19601f8301169050919050565b7f4e487b7100000000000000000000000000000000000000000000000000000000600052604160045260246000fd5b620003ed82620003a2565b810181811067ffffffffffffffff821117156200040f576200040e620003b3565b5b80604052505050565b60006200042462000384565b9050620004328282620003e2565b919050565b600067ffffffffffffffff821115620004555762000454620003b3565b5b6200046082620003a2565b9050602081019050919050565b60005b838110156200048d57808201518184015260208101905062000470565b838111156200049d576000848401525b50505050565b6000620004ba620004b48462000437565b62000418565b905082815260208101848484011115620004d957620004d86200039d565b5b620004e68482856200046d565b509392505050565b600082601f83011262000506576200050562000398565b5b815162000518848260208601620004a3565b91505092915050565b600080604083850312156200053b576200053a6200038e565b5b600083015167ffffffffffffffff8111156200055c576200055b62000393565b5b6200056a85828601620004ee565b925050602083015167ffffffffffffffff8111156200058e576200058d62000393565b5b6200059c85828601620004ee565b9150509250929050565b7f4e487b7100000000000000000000000000000000000000000000000000000000600052601160045260246000fd5b60008160011c9050919050565b6000808291508390505b600185111562000634578086048111156200060c576200060b620005a6565b5b60018516156200061c5780820291505b80810290506200062c85620005d5565b9450620005ec565b94509492505050565b6000826200064f576001905062000722565b816200065f576000905062000722565b81600181146200067857600281146200068357620006b9565b600191505062000722565b60ff841115620006985762000697620005a6565b5b8360020a915084821115620006b257620006b1620005a6565b5b5062000722565b5060208310610133831016604e8410600b8410161715620006f35782820a905083811115620006ed57620006ec620005a6565b5b62000722565b620007028484846001620005e2565b925090508184048111156200071c576200071b620005a6565b5b81810290505b9392505050565b6000819050919050565b600060ff82169050919050565b60006200074d8262000729565b91506200075a8362000733565b9250620007897fffffffffffffffffffffffffffffffffffffffffffffffffffffffffffffffff84846200063d565b905092915050565b60006200079e8262000729565b9150620007ab8362000729565b9250817fffffffffffffffffffffffffffffffffffffffffffffffffffffffffffffffff0483118215151615620007e757620007e6620005a6565b5b828202905092915050565b600082825260208201905092915050565b7f45524332303a206d696e7420746f20746865207a65726f206164647265737300600082015250565b60006200083b601f83620007f2565b9150620008488262000803565b602082019050919050565b600060208201905081810360008301526200086e816200082c565b9050919050565b6000620008828262000729565b91506200088f8362000729565b9250827fffffffffffffffffffffffffffffffffffffffffffffffffffffffffffffffff03821115620008c757620008c6620005a6565b5b828201905092915050565b620008dd8162000729565b82525050565b6000602082019050620008fa6000830184620008d2565b92915050565b7f4e487b7100000000000000000000000000000000000000000000000000000000600052602260045260246000fd5b600060028204905060018216806200094857607f821691505b6020821081036200095e576200095d62000900565b5b50919050565b61408580620009746000396000f3fe6080604052600436106101665760003560e01c80639a69ca9d116100d1578063cec534d61161008a578063f406cb8a11610064578063f406cb8a1461055a578063f64cccea14610583578063f95c0df3146105c0578063ffc5f9e7146105e957610166565b8063cec534d6146104ea578063dd62ed3e14610513578063e3cc16e11461055057610166565b80639a69ca9d146103b1578063a0712d68146103da578063a457c2d714610403578063a4afe66b14610440578063a85c38ef14610469578063a9059cbb146104ad57610166565b8063313ce56711610123578063313ce567146102a157806339509351146102cc57806370a082311461030957806377937c21146103465780637cb9cf541461035d57806395d89b411461038657610166565b806306fdde031461016b578063095ea7b31461019657806318160ddd146101d35780631e9a6950146101fe57806323b872dd146102275780632ed8eaa614610264575b600080fd5b34801561017757600080fd5b50610180610612565b60405161018d9190612e92565b60405180910390f35b3480156101a257600080fd5b506101bd60048036038101906101b89190612f5c565b6106a4565b6040516101ca9190612fb7565b60405180910390f35b3480156101df57600080fd5b506101e86106c7565b6040516101f59190612fe1565b60405180910390f35b34801561020a57600080fd5b5061022560048036038101906102209190612f5c565b6106d1565b005b34801561023357600080fd5b5061024e60048036038101906102499190612ffc565b610736565b60405161025b9190612fb7565b60405180910390f35b34801561027057600080fd5b5061028b6004803603810190610286919061304f565b610765565b6040516102989190612fe1565b60405180910390f35b3480156102ad57600080fd5b506102b661077d565b6040516102c39190613098565b60405180910390f35b3480156102d857600080fd5b506102f360048036038101906102ee9190612f5c565b610786565b6040516103009190612fb7565b60405180910390f35b34801561031557600080fd5b50610330600480360381019061032b91906130b3565b6107bd565b60405161033d9190612fe1565b60405180910390f35b34801561035257600080fd5b5061035b610805565b005b34801561036957600080fd5b50610384600480360381019061037f91906130b3565b611025565b005b34801561039257600080fd5b5061039b61103a565b6040516103a89190612e92565b60405180910390f35b3480156103bd57600080fd5b506103d860048036038101906103d391906130b3565b6110cc565b005b3480156103e657600080fd5b5061040160048036038101906103fc919061304f565b611302565b005b34801561040f57600080fd5b5061042a60048036038101906104259190612f5c565b61138e565b6040516104379190612fb7565b60405180910390f35b34801561044c57600080fd5b506104676004803603810190610462919061310c565b611405565b005b34801561047557600080fd5b50610490600480360381019061048b919061304f565b6116c2565b6040516104a4989796959493929190613255565b60405180910390f35b3480156104b957600080fd5b506104d460048036038101906104cf9190612f5c565b611771565b6040516104e19190612fb7565b60405180910390f35b3480156104f657600080fd5b50610511600480360381019061050c91906132d3565b611794565b005b34801561051f57600080fd5b5061053a60048036038101906105359190613326565b611a4e565b6040516105479190612fe1565b60405180910390f35b610558611ad5565b005b34801561056657600080fd5b50610581600480360381019061057c919061304f565b6120ed565b005b34801561058f57600080fd5b506105aa60048036038101906105a591906130b3565b612151565b6040516105b79190612fe1565b60405180910390f35b3480156105cc57600080fd5b506105e760048036038101906105e291906134ae565b612169565b005b3480156105f557600080fd5b50610610600480360381019061060b91906134f7565b612267565b005b60606003805461062190613579565b80601f016020809104026020016040519081016040528092919081815260200182805461064d90613579565b801561069a5780601f1061066f5761010080835404028352916020019161069a565b820191906000526020600020905b81548152906001019060200180831161067d57829003601f168201915b5050505050905090565b6000806106af612562565b90506106bc81858561256a565b600191505092915050565b6000600254905090565b806106db836107bd565b101580156106e95750600081115b610728576040517f08c379a000000000000000000000000000000000000000000000000000000000815260040161071f906135f6565b60405180910390fd5b6107328282612733565b5050565b600080610741612562565b905061074e858285612900565b61075985858561298c565b60019150509392505050565b60136020528060005260406000206000915090505481565b60006012905090565b600080610791612562565b90506107b28185856107a38589611a4e565b6107ad9190613645565b61256a565b600191505092915050565b60008060008373ffffffffffffffffffffffffffffffffffffffff1673ffffffffffffffffffffffffffffffffffffffff168152602001908152602001600020549050919050565b60005b600a54811015611022576000600381111561082657610825613196565b5b6011600083815260200190815260200160002060040160159054906101000a900460ff16600381111561085c5761085b613196565b5b14801561087f575060116000828152602001908152602001600020600101544210155b1561100f576001600381111561089857610897613196565b5b6011600083815260200190815260200160002060040160169054906101000a900460ff1660038111156108ce576108cd613196565b5b0361097757600954612710600560506108e56106c7565b6108ef919061369b565b6108f9919061369b565b6109039190613724565b11610943576040517f08c379a000000000000000000000000000000000000000000000000000000000815260040161093a906137a1565b60405180910390fd5b60116000828152602001908152602001600020600201546009600082825461096b9190613645565b92505081905550610c0b565b6002600381111561098b5761098a613196565b5b6011600083815260200190815260200160002060040160169054906101000a900460ff1660038111156109c1576109c0613196565b5b03610a6a57600754612710600560506109d86106c7565b6109e2919061369b565b6109ec919061369b565b6109f69190613724565b11610a36576040517f08c379a0000000000000000000000000000000000000000000000000000000008152600401610a2d906137a1565b60405180910390fd5b601160008281526020019081526020016000206002015460096000828254610a5e9190613645565b92505081905550610c0a565b600380811115610a7d57610a7c613196565b5b6011600083815260200190815260200160002060040160169054906101000a900460ff166003811115610ab357610ab2613196565b5b03610b5c57600854612710600f6050610aca6106c7565b610ad4919061369b565b610ade919061369b565b610ae89190613724565b11610b28576040517f08c379a0000000000000000000000000000000000000000000000000000000008152600401610b1f906137a1565b60405180910390fd5b601160008281526020019081526020016000206002015460086000828254610b509190613645565b92505081905550610c09565b600554620f42406028603c6050610b716106c7565b610b7b919061369b565b610b85919061369b565b610b8f919061369b565b610b999190613724565b11610bd9576040517f08c379a0000000000000000000000000000000000000000000000000000000008152600401610bd0906137a1565b60405180910390fd5b601160008281526020019081526020016000206002015460056000828254610c019190613645565b925050819055505b5b5b60026011600083815260200190815260200160002060040160156101000a81548160ff02191690836003811115610c4557610c44613196565b5b02179055506000601060009054906101000a900473ffffffffffffffffffffffffffffffffffffffff1690508073ffffffffffffffffffffffffffffffffffffffff1663a9059cbb6011600085815260200190815260200160002060030160009054906101000a900473ffffffffffffffffffffffffffffffffffffffff1660116000868152602001908152602001600020600201546040518363ffffffff1660e01b8152600401610cf89291906137c1565b6020604051808303816000875af1158015610d17573d6000803e3d6000fd5b505050506040513d601f19601f82011682018060405250810190610d3b91906137ff565b506011600083815260200190815260200160002060020154601260006011600086815260200190815260200160002060030160009054906101000a900473ffffffffffffffffffffffffffffffffffffffff1673ffffffffffffffffffffffffffffffffffffffff1673ffffffffffffffffffffffffffffffffffffffff1681526020019081526020016000206000828254610dd79190613645565b925050819055506011600083815260200190815260200160002060040160149054906101000a900460ff161561100d57600654620f4240600f603c6050610e1c6106c7565b610e26919061369b565b610e30919061369b565b610e3a919061369b565b610e449190613724565b11610e84576040517f08c379a0000000000000000000000000000000000000000000000000000000008152600401610e7b906137a1565b60405180910390fd5b6000601060009054906101000a900473ffffffffffffffffffffffffffffffffffffffff1690508073ffffffffffffffffffffffffffffffffffffffff1663a9059cbb6011600086815260200190815260200160002060040160009054906101000a900473ffffffffffffffffffffffffffffffffffffffff16600d546040518363ffffffff1660e01b8152600401610f1e9291906137c1565b6020604051808303816000875af1158015610f3d573d6000803e3d6000fd5b505050506040513d601f19601f82011682018060405250810190610f6191906137ff565b50600d54601260006011600087815260200190815260200160002060040160009054906101000a900473ffffffffffffffffffffffffffffffffffffffff1673ffffffffffffffffffffffffffffffffffffffff1673ffffffffffffffffffffffffffffffffffffffff1681526020019081526020016000206000828254610fe99190613645565b92505081905550600d54600660008282546110049190613645565b92505081905550505b505b808061101a9061382c565b915050610808565b50565b61103781611032836107bd565b612733565b50565b60606004805461104990613579565b80601f016020809104026020016040519081016040528092919081815260200182805461107590613579565b80156110c25780601f10611097576101008083540402835291602001916110c2565b820191906000526020600020905b8154815290600101906020018083116110a557829003601f168201915b5050505050905090565b6110d4612d62565b600a54816000018181525050600c5481604001818152505060008160a00190151590811515815250504281602001818152505060008160c0019060038111156111205761111f613196565b5b9081600381111561113457611133613196565b5b8152505081816060019073ffffffffffffffffffffffffffffffffffffffff16908173ffffffffffffffffffffffffffffffffffffffff168152505060028160e00190600381111561118957611188613196565b5b9081600381111561119d5761119c613196565b5b815250508060116000600a54815260200190815260200160002060008201518160000155602082015181600101556040820151816002015560608201518160030160006101000a81548173ffffffffffffffffffffffffffffffffffffffff021916908373ffffffffffffffffffffffffffffffffffffffff16021790555060808201518160040160006101000a81548173ffffffffffffffffffffffffffffffffffffffff021916908373ffffffffffffffffffffffffffffffffffffffff16021790555060a08201518160040160146101000a81548160ff02191690831515021790555060c08201518160040160156101000a81548160ff021916908360038111156112ae576112ad613196565b5b021790555060e08201518160040160166101000a81548160ff021916908360038111156112de576112dd613196565b5b0217905550905050600a60008154809291906112f99061382c565b91905055505050565b3373ffffffffffffffffffffffffffffffffffffffff16600f60009054906101000a900473ffffffffffffffffffffffffffffffffffffffff1673ffffffffffffffffffffffffffffffffffffffff161461135c57600080fd5b6113843061136861077d565b600a61137491906139a7565b8361137f919061369b565b612c02565b80600e8190555050565b600080611399612562565b905060006113a78286611a4e565b9050838110156113ec576040517f08c379a00000000000000000000000000000000000000000000000000000000081526004016113e390613a64565b60405180910390fd5b6113f9828686840361256a565b60019250505092915050565b61140d612d62565b600a54816000018181525050606480876114279190613724565b1061143c576064816040018181525050611453565b6064866114499190613724565b8160400181815250505b84816060019073ffffffffffffffffffffffffffffffffffffffff16908173ffffffffffffffffffffffffffffffffffffffff168152505060008160c0019060038111156114a4576114a3613196565b5b908160038111156114b8576114b7613196565b5b815250508381602001818152505060008160e0019060038111156114df576114de613196565b5b908160038111156114f3576114f2613196565b5b81525050821561154b5760018160a001901515908115158152505081816080019073ffffffffffffffffffffffffffffffffffffffff16908173ffffffffffffffffffffffffffffffffffffffff168152505061155d565b60008160a00190151590811515815250505b8060116000600a54815260200190815260200160002060008201518160000155602082015181600101556040820151816002015560608201518160030160006101000a81548173ffffffffffffffffffffffffffffffffffffffff021916908373ffffffffffffffffffffffffffffffffffffffff16021790555060808201518160040160006101000a81548173ffffffffffffffffffffffffffffffffffffffff021916908373ffffffffffffffffffffffffffffffffffffffff16021790555060a08201518160040160146101000a81548160ff02191690831515021790555060c08201518160040160156101000a81548160ff0219169083600381111561166a57611669613196565b5b021790555060e08201518160040160166101000a81548160ff0219169083600381111561169a57611699613196565b5b0217905550905050600a60008154809291906116b59061382c565b9190505550505050505050565b60116020528060005260406000206000915090508060000154908060010154908060020154908060030160009054906101000a900473ffffffffffffffffffffffffffffffffffffffff16908060040160009054906101000a900473ffffffffffffffffffffffffffffffffffffffff16908060040160149054906101000a900460ff16908060040160159054906101000a900460ff16908060040160169054906101000a900460ff16905088565b60008061177c612562565b905061178981858561298c565b600191505092915050565b6000831180156117ac57506117a8826107bd565b8311155b6117eb576040517f08c379a00000000000000000000000000000000000000000000000000000000081526004016117e2906135f6565b60405180910390fd5b6117f682308561298c565b6117fe612d62565b600a54816000018181525050600a846118179190613724565b846118229190613645565b81604001818152505060008160a001901515908115158152505081426118489190613645565b81602001818152505060008160c00190600381111561186a57611869613196565b5b9081600381111561187e5761187d613196565b5b8152505060038160e00190600381111561189b5761189a613196565b5b908160038111156118af576118ae613196565b5b8152505082816060019073ffffffffffffffffffffffffffffffffffffffff16908173ffffffffffffffffffffffffffffffffffffffff16815250508060116000600a54815260200190815260200160002060008201518160000155602082015181600101556040820151816002015560608201518160030160006101000a81548173ffffffffffffffffffffffffffffffffffffffff021916908373ffffffffffffffffffffffffffffffffffffffff16021790555060808201518160040160006101000a81548173ffffffffffffffffffffffffffffffffffffffff021916908373ffffffffffffffffffffffffffffffffffffffff16021790555060a08201518160040160146101000a81548160ff02191690831515021790555060c08201518160040160156101000a81548160ff021916908360038111156119f8576119f7613196565b5b021790555060e08201518160040160166101000a81548160ff02191690836003811115611a2857611a27613196565b5b0217905550905050600a6000815480929190611a439061382c565b919050555050505050565b6000600160008473ffffffffffffffffffffffffffffffffffffffff1673ffffffffffffffffffffffffffffffffffffffff16815260200190815260200160002060008373ffffffffffffffffffffffffffffffffffffffff1673ffffffffffffffffffffffffffffffffffffffff16815260200190815260200160002054905092915050565b60005b600a548110156120ea5760026003811115611af657611af5613196565b5b6011600083815260200190815260200160002060040160159054906101000a900460ff166003811115611b2c57611b2b613196565b5b148015611b5c5750600b546011600083815260200190815260200160002060010154611b589190613645565b4210155b156120d7576011600082815260200190815260200160002060020154601260006011600085815260200190815260200160002060030160009054906101000a900473ffffffffffffffffffffffffffffffffffffffff1673ffffffffffffffffffffffffffffffffffffffff1673ffffffffffffffffffffffffffffffffffffffff16815260200190815260200160002054611bf89190613a84565b611c376011600084815260200190815260200160002060030160009054906101000a900473ffffffffffffffffffffffffffffffffffffffff166107bd565b1115611d635760006011600083815260200190815260200160002060020154601260006011600086815260200190815260200160002060030160009054906101000a900473ffffffffffffffffffffffffffffffffffffffff1673ffffffffffffffffffffffffffffffffffffffff1673ffffffffffffffffffffffffffffffffffffffff16815260200190815260200160002054611cd69190613a84565b611d156011600085815260200190815260200160002060030160009054906101000a900473ffffffffffffffffffffffffffffffffffffffff166107bd565b611d1f9190613a84565b9050611d616011600084815260200190815260200160002060030160009054906101000a900473ffffffffffffffffffffffffffffffffffffffff1682612733565b505b6011600082815260200190815260200160002060020154601260006011600085815260200190815260200160002060030160009054906101000a900473ffffffffffffffffffffffffffffffffffffffff1673ffffffffffffffffffffffffffffffffffffffff1673ffffffffffffffffffffffffffffffffffffffff1681526020019081526020016000206000828254611dfe9190613a84565b925050819055506011600082815260200190815260200160002060040160149054906101000a900460ff161561209757600d54601260006011600085815260200190815260200160002060040160009054906101000a900473ffffffffffffffffffffffffffffffffffffffff1673ffffffffffffffffffffffffffffffffffffffff1673ffffffffffffffffffffffffffffffffffffffff16815260200190815260200160002054611eb19190613a84565b611ef06011600084815260200190815260200160002060040160009054906101000a900473ffffffffffffffffffffffffffffffffffffffff166107bd565b1115612008576000600d54601260006011600086815260200190815260200160002060040160009054906101000a900473ffffffffffffffffffffffffffffffffffffffff1673ffffffffffffffffffffffffffffffffffffffff1673ffffffffffffffffffffffffffffffffffffffff16815260200190815260200160002054611f7b9190613a84565b611fba6011600085815260200190815260200160002060040160009054906101000a900473ffffffffffffffffffffffffffffffffffffffff166107bd565b611fc49190613a84565b90506120066011600084815260200190815260200160002060040160009054906101000a900473ffffffffffffffffffffffffffffffffffffffff1682612733565b505b600d54601260006011600085815260200190815260200160002060040160009054906101000a900473ffffffffffffffffffffffffffffffffffffffff1673ffffffffffffffffffffffffffffffffffffffff1673ffffffffffffffffffffffffffffffffffffffff168152602001908152602001600020600082825461208f9190613a84565b925050819055505b60036011600083815260200190815260200160002060040160156101000a81548160ff021916908360038111156120d1576120d0613196565b5b02179055505b80806120e29061382c565b915050611ad8565b50565b4260116000838152602001908152602001600020600101541161210f57600080fd5b60016011600083815260200190815260200160002060040160156101000a81548160ff0219169083600381111561214957612148613196565b5b021790555050565b60126020528060005260406000206000915090505481565b60005b8151811015612263576000601060009054906101000a900473ffffffffffffffffffffffffffffffffffffffff1690508073ffffffffffffffffffffffffffffffffffffffff1663a9059cbb8484815181106121cb576121ca613ab8565b5b602002602001015160646005600e546121e4919061369b565b6121ee9190613724565b6040518363ffffffff1660e01b815260040161220b9291906137c1565b6020604051808303816000875af115801561222a573d6000803e3d6000fd5b505050506040513d601f19601f8201168201806040525081019061224e91906137ff565b5050808061225b9061382c565b91505061216c565b5050565b81612271846107bd565b10156122b2576040517f08c379a00000000000000000000000000000000000000000000000000000000081526004016122a990613b59565b60405180910390fd5b600954612710600560506122c46106c7565b6122ce919061369b565b6122d8919061369b565b6122e29190613724565b11612322576040517f08c379a0000000000000000000000000000000000000000000000000000000008152600401612319906137a1565b60405180910390fd5b61232a612d62565b600a548160000181815250508281604001818152505060008160a00190151590811515815250504281602001818152505060008160c00190600381111561237457612373613196565b5b9081600381111561238857612387613196565b5b8152505081816060019073ffffffffffffffffffffffffffffffffffffffff16908173ffffffffffffffffffffffffffffffffffffffff168152505060018160e0019060038111156123dd576123dc613196565b5b908160038111156123f1576123f0613196565b5b815250508060116000600a54815260200190815260200160002060008201518160000155602082015181600101556040820151816002015560608201518160030160006101000a81548173ffffffffffffffffffffffffffffffffffffffff021916908373ffffffffffffffffffffffffffffffffffffffff16021790555060808201518160040160006101000a81548173ffffffffffffffffffffffffffffffffffffffff021916908373ffffffffffffffffffffffffffffffffffffffff16021790555060a08201518160040160146101000a81548160ff02191690831515021790555060c08201518160040160156101000a81548160ff0219169083600381111561250257612501613196565b5b021790555060e08201518160040160166101000a81548160ff0219169083600381111561253257612531613196565b5b02179055509050506125448484612733565b600a60008154809291906125579061382c565b919050555050505050565b600033905090565b600073ffffffffffffffffffffffffffffffffffffffff168373ffffffffffffffffffffffffffffffffffffffff16036125d9576040517f08c379a00000000000000000000000000000000000000000000000000000000081526004016125d090613beb565b60405180910390fd5b600073ffffffffffffffffffffffffffffffffffffffff168273ffffffffffffffffffffffffffffffffffffffff1603612648576040517f08c379a000000000000000000000000000000000000000000000000000000000815260040161263f90613c7d565b60405180910390fd5b80600160008573ffffffffffffffffffffffffffffffffffffffff1673ffffffffffffffffffffffffffffffffffffffff16815260200190815260200160002060008473ffffffffffffffffffffffffffffffffffffffff1673ffffffffffffffffffffffffffffffffffffffff168152602001908152602001600020819055508173ffffffffffffffffffffffffffffffffffffffff168373ffffffffffffffffffffffffffffffffffffffff167f8c5be1e5ebec7d5bd14f71427d1e84f3dd0314c0f7b2291e5b200ac8c7c3b925836040516127269190612fe1565b60405180910390a3505050565b600073ffffffffffffffffffffffffffffffffffffffff168273ffffffffffffffffffffffffffffffffffffffff16036127a2576040517f08c379a000000000000000000000000000000000000000000000000000000000815260040161279990613d0f565b60405180910390fd5b6127ae82600083612d58565b60008060008473ffffffffffffffffffffffffffffffffffffffff1673ffffffffffffffffffffffffffffffffffffffff16815260200190815260200160002054905081811015612834576040517f08c379a000000000000000000000000000000000000000000000000000000000815260040161282b90613da1565b60405180910390fd5b8181036000808573ffffffffffffffffffffffffffffffffffffffff1673ffffffffffffffffffffffffffffffffffffffff1681526020019081526020016000208190555081600260008282540392505081905550600073ffffffffffffffffffffffffffffffffffffffff168373ffffffffffffffffffffffffffffffffffffffff167fddf252ad1be2c89b69c2b068fc378daa952ba7f163c4a11628f55a4df523b3ef846040516128e79190612fe1565b60405180910390a36128fb83600084612d5d565b505050565b600061290c8484611a4e565b90507fffffffffffffffffffffffffffffffffffffffffffffffffffffffffffffffff81146129865781811015612978576040517f08c379a000000000000000000000000000000000000000000000000000000000815260040161296f90613e0d565b60405180910390fd5b612985848484840361256a565b5b50505050565b600073ffffffffffffffffffffffffffffffffffffffff168373ffffffffffffffffffffffffffffffffffffffff16036129fb576040517f08c379a00000000000000000000000000000000000000000000000000000000081526004016129f290613e9f565b60405180910390fd5b600073ffffffffffffffffffffffffffffffffffffffff168273ffffffffffffffffffffffffffffffffffffffff1603612a6a576040517f08c379a0000000000000000000000000000000000000000000000000000000008152600401612a6190613f31565b60405180910390fd5b612a75838383612d58565b60008060008573ffffffffffffffffffffffffffffffffffffffff1673ffffffffffffffffffffffffffffffffffffffff16815260200190815260200160002054905081811015612afb576040517f08c379a0000000000000000000000000000000000000000000000000000000008152600401612af290613fc3565b60405180910390fd5b8181036000808673ffffffffffffffffffffffffffffffffffffffff1673ffffffffffffffffffffffffffffffffffffffff16815260200190815260200160002081905550816000808573ffffffffffffffffffffffffffffffffffffffff1673ffffffffffffffffffffffffffffffffffffffff168152602001908152602001600020600082825401925050819055508273ffffffffffffffffffffffffffffffffffffffff168473ffffffffffffffffffffffffffffffffffffffff167fddf252ad1be2c89b69c2b068fc378daa952ba7f163c4a11628f55a4df523b3ef84604051612be99190612fe1565b60405180910390a3612bfc848484612d5d565b50505050565b600073ffffffffffffffffffffffffffffffffffffffff168273ffffffffffffffffffffffffffffffffffffffff1603612c71576040517f08c379a0000000000000000000000000000000000000000000000000000000008152600401612c689061402f565b60405180910390fd5b612c7d60008383612d58565b8060026000828254612c8f9190613645565b92505081905550806000808473ffffffffffffffffffffffffffffffffffffffff1673ffffffffffffffffffffffffffffffffffffffff168152602001908152602001600020600082825401925050819055508173ffffffffffffffffffffffffffffffffffffffff16600073ffffffffffffffffffffffffffffffffffffffff167fddf252ad1be2c89b69c2b068fc378daa952ba7f163c4a11628f55a4df523b3ef83604051612d409190612fe1565b60405180910390a3612d5460008383612d5d565b5050565b505050565b505050565b604051806101000160405280600081526020016000815260200160008152602001600073ffffffffffffffffffffffffffffffffffffffff168152602001600073ffffffffffffffffffffffffffffffffffffffff16815260200160001515815260200160006003811115612dda57612dd9613196565b5b815260200160006003811115612df357612df2613196565b5b81525090565b600081519050919050565b600082825260208201905092915050565b60005b83811015612e33578082015181840152602081019050612e18565b83811115612e42576000848401525b50505050565b6000601f19601f8301169050919050565b6000612e6482612df9565b612e6e8185612e04565b9350612e7e818560208601612e15565b612e8781612e48565b840191505092915050565b60006020820190508181036000830152612eac8184612e59565b905092915050565b6000604051905090565b600080fd5b600080fd5b600073ffffffffffffffffffffffffffffffffffffffff82169050919050565b6000612ef382612ec8565b9050919050565b612f0381612ee8565b8114612f0e57600080fd5b50565b600081359050612f2081612efa565b92915050565b6000819050919050565b612f3981612f26565b8114612f4457600080fd5b50565b600081359050612f5681612f30565b92915050565b60008060408385031215612f7357612f72612ebe565b5b6000612f8185828601612f11565b9250506020612f9285828601612f47565b9150509250929050565b60008115159050919050565b612fb181612f9c565b82525050565b6000602082019050612fcc6000830184612fa8565b92915050565b612fdb81612f26565b82525050565b6000602082019050612ff66000830184612fd2565b92915050565b60008060006060848603121561301557613014612ebe565b5b600061302386828701612f11565b935050602061303486828701612f11565b925050604061304586828701612f47565b9150509250925092565b60006020828403121561306557613064612ebe565b5b600061307384828501612f47565b91505092915050565b600060ff82169050919050565b6130928161307c565b82525050565b60006020820190506130ad6000830184613089565b92915050565b6000602082840312156130c9576130c8612ebe565b5b60006130d784828501612f11565b91505092915050565b6130e981612f9c565b81146130f457600080fd5b50565b600081359050613106816130e0565b92915050565b600080600080600060a0868803121561312857613127612ebe565b5b600061313688828901612f47565b955050602061314788828901612f11565b945050604061315888828901612f47565b9350506060613169888289016130f7565b925050608061317a88828901612f11565b9150509295509295909350565b61319081612ee8565b82525050565b7f4e487b7100000000000000000000000000000000000000000000000000000000600052602160045260246000fd5b600481106131d6576131d5613196565b5b50565b60008190506131e7826131c5565b919050565b60006131f7826131d9565b9050919050565b613207816131ec565b82525050565b6004811061321e5761321d613196565b5b50565b600081905061322f8261320d565b919050565b600061323f82613221565b9050919050565b61324f81613234565b82525050565b60006101008201905061326b600083018b612fd2565b613278602083018a612fd2565b6132856040830189612fd2565b6132926060830188613187565b61329f6080830187613187565b6132ac60a0830186612fa8565b6132b960c08301856131fe565b6132c660e0830184613246565b9998505050505050505050565b6000806000606084860312156132ec576132eb612ebe565b5b60006132fa86828701612f47565b935050602061330b86828701612f11565b925050604061331c86828701612f47565b9150509250925092565b6000806040838503121561333d5761333c612ebe565b5b600061334b85828601612f11565b925050602061335c85828601612f11565b9150509250929050565b600080fd5b7f4e487b7100000000000000000000000000000000000000000000000000000000600052604160045260246000fd5b6133a382612e48565b810181811067ffffffffffffffff821117156133c2576133c161336b565b5b80604052505050565b60006133d5612eb4565b90506133e1828261339a565b919050565b600067ffffffffffffffff8211156134015761340061336b565b5b602082029050602081019050919050565b600080fd5b600061342a613425846133e6565b6133cb565b9050808382526020820190506020840283018581111561344d5761344c613412565b5b835b8181101561347657806134628882612f11565b84526020840193505060208101905061344f565b5050509392505050565b600082601f83011261349557613494613366565b5b81356134a5848260208601613417565b91505092915050565b6000602082840312156134c4576134c3612ebe565b5b600082013567ffffffffffffffff8111156134e2576134e1612ec3565b5b6134ee84828501613480565b91505092915050565b6000806000606084860312156135105761350f612ebe565b5b600061351e86828701612f11565b935050602061352f86828701612f47565b925050604061354086828701612f11565b9150509250925092565b7f4e487b7100000000000000000000000000000000000000000000000000000000600052602260045260246000fd5b6000600282049050600182168061359157607f821691505b6020821081036135a4576135a361354a565b5b50919050565b7f496e73756666696369656e742062616c616e6365000000000000000000000000600082015250565b60006135e0601483612e04565b91506135eb826135aa565b602082019050919050565b6000602082019050818103600083015261360f816135d3565b9050919050565b7f4e487b7100000000000000000000000000000000000000000000000000000000600052601160045260246000fd5b600061365082612f26565b915061365b83612f26565b9250827fffffffffffffffffffffffffffffffffffffffffffffffffffffffffffffffff038211156136905761368f613616565b5b828201905092915050565b60006136a682612f26565b91506136b183612f26565b9250817fffffffffffffffffffffffffffffffffffffffffffffffffffffffffffffffff04831182151516156136ea576136e9613616565b5b828202905092915050565b7f4e487b7100000000000000000000000000000000000000000000000000000000600052601260045260246000fd5b600061372f82612f26565b915061373a83612f26565b92508261374a576137496136f5565b5b828204905092915050565b7f52756e6e696e67204c6f77206f6e20546f6b656e730000000000000000000000600082015250565b600061378b601583612e04565b915061379682613755565b602082019050919050565b600060208201905081810360008301526137ba8161377e565b9050919050565b60006040820190506137d66000830185613187565b6137e36020830184612fd2565b9392505050565b6000815190506137f9816130e0565b92915050565b60006020828403121561381557613814612ebe565b5b6000613823848285016137ea565b91505092915050565b600061383782612f26565b91507fffffffffffffffffffffffffffffffffffffffffffffffffffffffffffffffff820361386957613868613616565b5b600182019050919050565b60008160011c9050919050565b6000808291508390505b60018511156138cb578086048111156138a7576138a6613616565b5b60018516156138b65780820291505b80810290506138c485613874565b945061388b565b94509492505050565b6000826138e457600190506139a0565b816138f257600090506139a0565b8160018114613908576002811461391257613941565b60019150506139a0565b60ff84111561392457613923613616565b5b8360020a91508482111561393b5761393a613616565b5b506139a0565b5060208310610133831016604e8410600b84101617156139765782820a90508381111561397157613970613616565b5b6139a0565b6139838484846001613881565b9250905081840481111561399a57613999613616565b5b81810290505b9392505050565b60006139b282612f26565b91506139bd8361307c565b92506139ea7fffffffffffffffffffffffffffffffffffffffffffffffffffffffffffffffff84846138d4565b905092915050565b7f45524332303a2064656372656173656420616c6c6f77616e63652062656c6f7760008201527f207a65726f000000000000000000000000000000000000000000000000000000602082015250565b6000613a4e602583612e04565b9150613a59826139f2565b604082019050919050565b60006020820190508181036000830152613a7d81613a41565b9050919050565b6000613a8f82612f26565b9150613a9a83612f26565b925082821015613aad57613aac613616565b5b828203905092915050565b7f4e487b7100000000000000000000000000000000000000000000000000000000600052603260045260246000fd5b7f53656c6c657220686173206e6f7420656e6f75676820616d6f756e74206f662060008201527f546f6b656e730000000000000000000000000000000000000000000000000000602082015250565b6000613b43602683612e04565b9150613b4e82613ae7565b604082019050919050565b60006020820190508181036000830152613b7281613b36565b9050919050565b7f45524332303a20617070726f76652066726f6d20746865207a65726f2061646460008201527f7265737300000000000000000000000000000000000000000000000000000000602082015250565b6000613bd5602483612e04565b9150613be082613b79565b604082019050919050565b60006020820190508181036000830152613c0481613bc8565b9050919050565b7f45524332303a20617070726f766520746f20746865207a65726f20616464726560008201527f7373000000000000000000000000000000000000000000000000000000000000602082015250565b6000613c67602283612e04565b9150613c7282613c0b565b604082019050919050565b60006020820190508181036000830152613c9681613c5a565b9050919050565b7f45524332303a206275726e2066726f6d20746865207a65726f2061646472657360008201527f7300000000000000000000000000000000000000000000000000000000000000602082015250565b6000613cf9602183612e04565b9150613d0482613c9d565b604082019050919050565b60006020820190508181036000830152613d2881613cec565b9050919050565b7f45524332303a206275726e20616d6f756e7420657863656564732062616c616e60008201527f6365000000000000000000000000000000000000000000000000000000000000602082015250565b6000613d8b602283612e04565b9150613d9682613d2f565b604082019050919050565b60006020820190508181036000830152613dba81613d7e565b9050919050565b7f45524332303a20696e73756666696369656e7420616c6c6f77616e6365000000600082015250565b6000613df7601d83612e04565b9150613e0282613dc1565b602082019050919050565b60006020820190508181036000830152613e2681613dea565b9050919050565b7f45524332303a207472616e736665722066726f6d20746865207a65726f20616460008201527f6472657373000000000000000000000000000000000000000000000000000000602082015250565b6000613e89602583612e04565b9150613e9482613e2d565b604082019050919050565b60006020820190508181036000830152613eb881613e7c565b9050919050565b7f45524332303a207472616e7366657220746f20746865207a65726f206164647260008201527f6573730000000000000000000000000000000000000000000000000000000000602082015250565b6000613f1b602383612e04565b9150613f2682613ebf565b604082019050919050565b60006020820190508181036000830152613f4a81613f0e565b9050919050565b7f45524332303a207472616e7366657220616d6f756e742065786365656473206260008201527f616c616e63650000000000000000000000000000000000000000000000000000602082015250565b6000613fad602683612e04565b9150613fb882613f51565b604082019050919050565b60006020820190508181036000830152613fdc81613fa0565b9050919050565b7f45524332303a206d696e7420746f20746865207a65726f206164647265737300600082015250565b6000614019601f83612e04565b915061402482613fe3565b602082019050919050565b600060208201905081810360008301526140488161400c565b905091905056fea26469706673582212200f394fab3480b95a8c2566511e075f45be5b926721026de5335e073e8771664764736f6c634300080d0033",
  "immutableReferences": {},
  "source": "// SPDX-License-Identifier: MIT\npragma solidity ^0.8.13;\n\n\n// Import the necessary ERC-20 interface\nimport \"@openzeppelin/contracts/token/ERC20/ERC20.sol\";\nimport \"@openzeppelin/contracts/token/ERC20/IERC20.sol\";\n\n// Inherit from the ERC-20 contract\ncontract FlipCoin is ERC20 {\n\n    uint256 purchase_rewards;\n    uint256 purchase_referrals;\n    uint256 purchase_socialMedia;\n    uint256 staking;\n    uint256 partners;\n    uint256 currentOrder;\n    uint256 expireTime = 60;\n    uint256 socialMediaReward = 1;\n    uint256 referralReward = 1;\n    uint256 currentMintAmount = 0;\n    address ownerAddress;\n    address tokenAddress;\n\n    enum OrderStatus\n    {\n        Confirmed,\n        Cancelled,\n        NotReturned,\n        Expired\n    }\n    enum OrderType\n    {\n        Purchase,\n        Airdrop,\n        SocialPost,\n        Stake\n    }\n    struct Order\n    {\n        uint256 id;\n        uint256 lastReturnDate;\n        uint256 flipCoin;\n        address userAccount;\n        address referrer;\n        bool isReferred;\n        OrderStatus status;\n        OrderType orderType;\n    }\n\n    mapping(uint256=>Order) public orders;\n    mapping(address=>uint256) public expectedBalance;\n    mapping(uint256=>uint256) public totalReferrals;\n\n    constructor(string memory name, string memory symbol) ERC20(name, symbol) {\n        _mint(address(this), 10000000 * 10 ** decimals());\n        currentMintAmount = 10000000;\n        ownerAddress = msg.sender;\n        tokenAddress = address(this);\n    }\n    function distributeToPartners(address[] memory sellers) external \n    {\n        for(uint256 i=0;i<sellers.length;i++)\n        {\n            IERC20 token = IERC20(tokenAddress);\n            token.transfer(sellers[i], (currentMintAmount * 5)/100);\n        }\n    }\n    function removeSeller(address seller) external \n    {\n        _burn(seller, balanceOf(seller));\n    }\n    function mint(uint256 amount) external \n    {\n        require(ownerAddress == msg.sender);\n        _mint(address(this), amount * 10 ** decimals());\n        currentMintAmount = amount;\n    }\n    function depositCoint() external {\n        for(uint256 i=0;i<currentOrder;i++)\n        {\n            if(orders[i].status == OrderStatus.Confirmed && block.timestamp >= orders[i].lastReturnDate)\n            {\n                if(orders[i].orderType == OrderType.Airdrop)\n                {\n                    require((totalSupply() * 80 * 5)/10000 > partners, \"Running Low on Tokens\");\n                    partners += orders[i].flipCoin;\n                }\n                else if(orders[i].orderType == OrderType.SocialPost)\n                {\n                    require((totalSupply() * 80 * 5)/10000 > purchase_socialMedia, \"Running Low on Tokens\");\n                    partners += orders[i].flipCoin;\n                }\n                else if(orders[i].orderType == OrderType.Stake)\n                {\n                    require((totalSupply() * 80 * 15)/10000 > staking, \"Running Low on Tokens\");\n                    staking += orders[i].flipCoin;\n                }\n                else \n                {\n                    require((totalSupply() * 80 * 60 * 40)/1000000 > purchase_rewards, \"Running Low on Tokens\");\n                    purchase_rewards += orders[i].flipCoin;\n                }\n                orders[i].status = OrderStatus.NotReturned;\n                IERC20 token = IERC20(tokenAddress);\n                token.transfer(orders[i].userAccount, orders[i].flipCoin);\n                expectedBalance[orders[i].userAccount] += orders[i].flipCoin;\n                if(orders[i].isReferred)\n                {\n                    require((totalSupply() * 80 * 60 * 15)/1000000 > purchase_referrals, \"Running Low on Tokens\");\n                    IERC20 tokenRef = IERC20(tokenAddress);\n                    tokenRef.transfer(orders[i].referrer, referralReward);\n                    expectedBalance[orders[i].referrer] += referralReward;\n                    purchase_referrals += referralReward;\n                }\n            }\n\n        }\n    }\n    function deductCoin() payable external {\n        for(uint256 i=0;i<currentOrder;i++)\n        {\n            if(orders[i].status == OrderStatus.NotReturned && block.timestamp >= orders[i].lastReturnDate + expireTime)\n            {\n                if(balanceOf(orders[i].userAccount) > (expectedBalance[orders[i].userAccount] - orders[i].flipCoin))\n                {\n                    uint256 extraAmount = balanceOf(orders[i].userAccount) - (expectedBalance[orders[i].userAccount] - orders[i].flipCoin);\n                    _burn(orders[i].userAccount, extraAmount);\n                }\n                expectedBalance[orders[i].userAccount] -= orders[i].flipCoin;\n                if(orders[i].isReferred)\n                {\n                    if(balanceOf(orders[i].referrer) > (expectedBalance[orders[i].referrer] - referralReward))\n                    {\n                        uint256 extraAmount = balanceOf(orders[i].referrer) - (expectedBalance[orders[i].referrer] - referralReward);\n                        _burn(orders[i].referrer, extraAmount);\n                    }\n                    expectedBalance[orders[i].referrer] -= referralReward;\n                }\n                orders[i].status = OrderStatus.Expired;\n            }\n        }\n    }\n    function purchase(uint256 productPrice,address userAccount, uint256 lastReturnDate,bool isReferred, address referrer)external {\n        Order memory newOrder;\n        newOrder.id = currentOrder;\n        if(productPrice/100 >= 100){\n        newOrder.flipCoin = 100;\n        }\n        else{\n            newOrder.flipCoin = productPrice / 100;\n        }\n        newOrder.userAccount = userAccount;\n        newOrder.status = OrderStatus.Confirmed;\n        newOrder.lastReturnDate = lastReturnDate;\n        newOrder.orderType = OrderType.Purchase;\n        if(isReferred)\n        {\n            newOrder.isReferred = true;\n            newOrder.referrer = referrer;\n        }\n        else \n        {\n            newOrder.isReferred = false;\n        }\n        orders[currentOrder] = newOrder;\n        currentOrder++;\n    }\n    function disperseCoin(address seller, uint256 amount, address userAccount) external {\n        require(balanceOf(seller) >= amount, \"Seller has not enough amount of Tokens\");\n        require((totalSupply() * 80 * 5)/10000 > partners, \"Running Low on Tokens\");\n        Order memory newOrder;\n        newOrder.id = currentOrder;\n        newOrder.flipCoin = amount;\n        newOrder.isReferred = false;\n        newOrder.lastReturnDate = block.timestamp;\n        newOrder.status = OrderStatus.Confirmed;\n        newOrder.userAccount = userAccount;\n        newOrder.orderType = OrderType.Airdrop;\n        orders[currentOrder] = newOrder;\n        _burn(seller, amount);\n        currentOrder++;\n    }\n    function cancleOrder(uint256 orderId) external \n    {\n        require(orders[orderId].lastReturnDate > block.timestamp);\n        orders[orderId].status = OrderStatus.Cancelled;\n    }\n    function socialMediaPost(address userAccount) external \n    {\n        Order memory newOrder;\n        newOrder.id = currentOrder;\n        newOrder.flipCoin = socialMediaReward;\n        newOrder.isReferred = false;\n        newOrder.lastReturnDate = block.timestamp;\n        newOrder.status = OrderStatus.Confirmed;\n        newOrder.userAccount = userAccount;\n        newOrder.orderType = OrderType.SocialPost;\n        orders[currentOrder] = newOrder;\n        currentOrder++;\n    }\n    function redeem(address userAccount, uint256 amount) external \n    {\n        require(balanceOf(userAccount) >= amount && amount > 0, \"Insufficient balance\");\n        _burn(userAccount, amount);\n    }\n    function stakeTokens(uint256 amount, address userAccount, uint256 interval) external {\n        require(amount >0 && amount <= balanceOf(userAccount), \"Insufficient balance\");\n        _transfer(userAccount, address(this) ,amount);\n        Order memory newOrder;\n        newOrder.id = currentOrder;\n        newOrder.flipCoin = amount + amount/10;\n        newOrder.isReferred = false;\n        newOrder.lastReturnDate = block.timestamp + interval;\n        newOrder.status = OrderStatus.Confirmed;\n        newOrder.orderType = OrderType.Stake;\n        newOrder.userAccount = userAccount;\n        orders[currentOrder] = newOrder;\n        currentOrder++;\n    }\n}\n",
  "sourcePath": "/home/subrat0018/Desktop/project-grid/truffle/contracts/FlipCoin.sol",
  "compiler": {
    "name": "solc",
    "version": "0.8.13+commit.abaa5c0e.Emscripten.clang"
  },
  "schemaVersion": "3.4.15",
  "updatedAt": "2023-08-17T14:10:41.851Z",
  "networkType": "ethereum",
  "devdoc": {
    "kind": "dev",
    "methods": {
      "allowance(address,address)": {
        "details": "See {IERC20-allowance}."
      },
      "approve(address,uint256)": {
        "details": "See {IERC20-approve}. NOTE: If `amount` is the maximum `uint256`, the allowance is not updated on `transferFrom`. This is semantically equivalent to an infinite approval. Requirements: - `spender` cannot be the zero address."
      },
      "balanceOf(address)": {
        "details": "See {IERC20-balanceOf}."
      },
      "decimals()": {
        "details": "Returns the number of decimals used to get its user representation. For example, if `decimals` equals `2`, a balance of `505` tokens should be displayed to a user as `5.05` (`505 / 10 ** 2`). Tokens usually opt for a value of 18, imitating the relationship between Ether and Wei. This is the default value returned by this function, unless it's overridden. NOTE: This information is only used for _display_ purposes: it in no way affects any of the arithmetic of the contract, including {IERC20-balanceOf} and {IERC20-transfer}."
      },
      "decreaseAllowance(address,uint256)": {
        "details": "Atomically decreases the allowance granted to `spender` by the caller. This is an alternative to {approve} that can be used as a mitigation for problems described in {IERC20-approve}. Emits an {Approval} event indicating the updated allowance. Requirements: - `spender` cannot be the zero address. - `spender` must have allowance for the caller of at least `subtractedValue`."
      },
      "increaseAllowance(address,uint256)": {
        "details": "Atomically increases the allowance granted to `spender` by the caller. This is an alternative to {approve} that can be used as a mitigation for problems described in {IERC20-approve}. Emits an {Approval} event indicating the updated allowance. Requirements: - `spender` cannot be the zero address."
      },
      "name()": {
        "details": "Returns the name of the token."
      },
      "symbol()": {
        "details": "Returns the symbol of the token, usually a shorter version of the name."
      },
      "totalSupply()": {
        "details": "See {IERC20-totalSupply}."
      },
      "transfer(address,uint256)": {
        "details": "See {IERC20-transfer}. Requirements: - `to` cannot be the zero address. - the caller must have a balance of at least `amount`."
      },
      "transferFrom(address,address,uint256)": {
        "details": "See {IERC20-transferFrom}. Emits an {Approval} event indicating the updated allowance. This is not required by the EIP. See the note at the beginning of {ERC20}. NOTE: Does not update the allowance if the current allowance is the maximum `uint256`. Requirements: - `from` and `to` cannot be the zero address. - `from` must have a balance of at least `amount`. - the caller must have allowance for ``from``'s tokens of at least `amount`."
      }
    },
    "version": 1
  },
  "userdoc": {
    "kind": "user",
    "methods": {},
    "version": 1
  }
}