{
  "contractName": "FlipCoin",
  "abi": [
    {
      "inputs": [
        {
          "internalType": "string",
          "name": "name",
          "type": "string"
        },
        {
          "internalType": "string",
          "name": "symbol",
          "type": "string"
        }
      ],
      "stateMutability": "nonpayable",
      "type": "constructor"
    },
    {
      "anonymous": false,
      "inputs": [
        {
          "indexed": true,
          "internalType": "address",
          "name": "owner",
          "type": "address"
        },
        {
          "indexed": true,
          "internalType": "address",
          "name": "spender",
          "type": "address"
        },
        {
          "indexed": false,
          "internalType": "uint256",
          "name": "value",
          "type": "uint256"
        }
      ],
      "name": "Approval",
      "type": "event"
    },
    {
      "anonymous": false,
      "inputs": [
        {
          "indexed": true,
          "internalType": "address",
          "name": "from",
          "type": "address"
        },
        {
          "indexed": true,
          "internalType": "address",
          "name": "to",
          "type": "address"
        },
        {
          "indexed": false,
          "internalType": "uint256",
          "name": "value",
          "type": "uint256"
        }
      ],
      "name": "Transfer",
      "type": "event"
    },
    {
      "inputs": [
        {
          "internalType": "address",
          "name": "owner",
          "type": "address"
        },
        {
          "internalType": "address",
          "name": "spender",
          "type": "address"
        }
      ],
      "name": "allowance",
      "outputs": [
        {
          "internalType": "uint256",
          "name": "",
          "type": "uint256"
        }
      ],
      "stateMutability": "view",
      "type": "function",
      "constant": true
    },
    {
      "inputs": [
        {
          "internalType": "address",
          "name": "spender",
          "type": "address"
        },
        {
          "internalType": "uint256",
          "name": "amount",
          "type": "uint256"
        }
      ],
      "name": "approve",
      "outputs": [
        {
          "internalType": "bool",
          "name": "",
          "type": "bool"
        }
      ],
      "stateMutability": "nonpayable",
      "type": "function"
    },
    {
      "inputs": [
        {
          "internalType": "address",
          "name": "account",
          "type": "address"
        }
      ],
      "name": "balanceOf",
      "outputs": [
        {
          "internalType": "uint256",
          "name": "",
          "type": "uint256"
        }
      ],
      "stateMutability": "view",
      "type": "function",
      "constant": true
    },
    {
      "inputs": [],
      "name": "currentMintAmount",
      "outputs": [
        {
          "internalType": "uint256",
          "name": "",
          "type": "uint256"
        }
      ],
      "stateMutability": "view",
      "type": "function",
      "constant": true
    },
    {
      "inputs": [],
      "name": "currentOrder",
      "outputs": [
        {
          "internalType": "uint256",
          "name": "",
          "type": "uint256"
        }
      ],
      "stateMutability": "view",
      "type": "function",
      "constant": true
    },
    {
      "inputs": [],
      "name": "decimals",
      "outputs": [
        {
          "internalType": "uint8",
          "name": "",
          "type": "uint8"
        }
      ],
      "stateMutability": "view",
      "type": "function",
      "constant": true
    },
    {
      "inputs": [
        {
          "internalType": "address",
          "name": "spender",
          "type": "address"
        },
        {
          "internalType": "uint256",
          "name": "subtractedValue",
          "type": "uint256"
        }
      ],
      "name": "decreaseAllowance",
      "outputs": [
        {
          "internalType": "bool",
          "name": "",
          "type": "bool"
        }
      ],
      "stateMutability": "nonpayable",
      "type": "function"
    },
    {
      "inputs": [
        {
          "internalType": "address",
          "name": "",
          "type": "address"
        }
      ],
      "name": "expectedBalance",
      "outputs": [
        {
          "internalType": "uint256",
          "name": "",
          "type": "uint256"
        }
      ],
      "stateMutability": "view",
      "type": "function",
      "constant": true
    },
    {
      "inputs": [],
      "name": "expireTime",
      "outputs": [
        {
          "internalType": "uint256",
          "name": "",
          "type": "uint256"
        }
      ],
      "stateMutability": "view",
      "type": "function",
      "constant": true
    },
    {
      "inputs": [
        {
          "internalType": "address",
          "name": "spender",
          "type": "address"
        },
        {
          "internalType": "uint256",
          "name": "addedValue",
          "type": "uint256"
        }
      ],
      "name": "increaseAllowance",
      "outputs": [
        {
          "internalType": "bool",
          "name": "",
          "type": "bool"
        }
      ],
      "stateMutability": "nonpayable",
      "type": "function"
    },
    {
      "inputs": [],
      "name": "name",
      "outputs": [
        {
          "internalType": "string",
          "name": "",
          "type": "string"
        }
      ],
      "stateMutability": "view",
      "type": "function",
      "constant": true
    },
    {
      "inputs": [
        {
          "internalType": "uint256",
          "name": "",
          "type": "uint256"
        }
      ],
      "name": "orderHistory",
      "outputs": [
        {
          "internalType": "uint256",
          "name": "id",
          "type": "uint256"
        },
        {
          "internalType": "uint256",
          "name": "lastReturnDate",
          "type": "uint256"
        },
        {
          "internalType": "uint256",
          "name": "flipCoin",
          "type": "uint256"
        },
        {
          "internalType": "address",
          "name": "userAccount",
          "type": "address"
        },
        {
          "internalType": "address",
          "name": "referrer",
          "type": "address"
        },
        {
          "internalType": "bool",
          "name": "isReferred",
          "type": "bool"
        },
        {
          "internalType": "string",
          "name": "productName",
          "type": "string"
        },
        {
          "internalType": "string",
          "name": "imgUrl",
          "type": "string"
        },
        {
          "internalType": "enum FlipCoin.OrderStatus",
          "name": "status",
          "type": "uint8"
        },
        {
          "internalType": "enum FlipCoin.OrderType",
          "name": "orderType",
          "type": "uint8"
        }
      ],
      "stateMutability": "view",
      "type": "function",
      "constant": true
    },
    {
      "inputs": [
        {
          "internalType": "uint256",
          "name": "",
          "type": "uint256"
        }
      ],
      "name": "orders",
      "outputs": [
        {
          "internalType": "uint256",
          "name": "id",
          "type": "uint256"
        },
        {
          "internalType": "uint256",
          "name": "lastReturnDate",
          "type": "uint256"
        },
        {
          "internalType": "uint256",
          "name": "flipCoin",
          "type": "uint256"
        },
        {
          "internalType": "address",
          "name": "userAccount",
          "type": "address"
        },
        {
          "internalType": "address",
          "name": "referrer",
          "type": "address"
        },
        {
          "internalType": "bool",
          "name": "isReferred",
          "type": "bool"
        },
        {
          "internalType": "string",
          "name": "productName",
          "type": "string"
        },
        {
          "internalType": "string",
          "name": "imgUrl",
          "type": "string"
        },
        {
          "internalType": "enum FlipCoin.OrderStatus",
          "name": "status",
          "type": "uint8"
        },
        {
          "internalType": "enum FlipCoin.OrderType",
          "name": "orderType",
          "type": "uint8"
        }
      ],
      "stateMutability": "view",
      "type": "function",
      "constant": true
    },
    {
      "inputs": [],
      "name": "ownerAddress",
      "outputs": [
        {
          "internalType": "address",
          "name": "",
          "type": "address"
        }
      ],
      "stateMutability": "view",
      "type": "function",
      "constant": true
    },
    {
      "inputs": [],
      "name": "partners",
      "outputs": [
        {
          "internalType": "uint256",
          "name": "",
          "type": "uint256"
        }
      ],
      "stateMutability": "view",
      "type": "function",
      "constant": true
    },
    {
      "inputs": [],
      "name": "purchase_referrals",
      "outputs": [
        {
          "internalType": "uint256",
          "name": "",
          "type": "uint256"
        }
      ],
      "stateMutability": "view",
      "type": "function",
      "constant": true
    },
    {
      "inputs": [],
      "name": "purchase_rewards",
      "outputs": [
        {
          "internalType": "uint256",
          "name": "",
          "type": "uint256"
        }
      ],
      "stateMutability": "view",
      "type": "function",
      "constant": true
    },
    {
      "inputs": [],
      "name": "purchase_socialMedia",
      "outputs": [
        {
          "internalType": "uint256",
          "name": "",
          "type": "uint256"
        }
      ],
      "stateMutability": "view",
      "type": "function",
      "constant": true
    },
    {
      "inputs": [],
      "name": "referralReward",
      "outputs": [
        {
          "internalType": "uint256",
          "name": "",
          "type": "uint256"
        }
      ],
      "stateMutability": "view",
      "type": "function",
      "constant": true
    },
    {
      "inputs": [],
      "name": "socialMediaReward",
      "outputs": [
        {
          "internalType": "uint256",
          "name": "",
          "type": "uint256"
        }
      ],
      "stateMutability": "view",
      "type": "function",
      "constant": true
    },
    {
      "inputs": [],
      "name": "staking",
      "outputs": [
        {
          "internalType": "uint256",
          "name": "",
          "type": "uint256"
        }
      ],
      "stateMutability": "view",
      "type": "function",
      "constant": true
    },
    {
      "inputs": [],
      "name": "symbol",
      "outputs": [
        {
          "internalType": "string",
          "name": "",
          "type": "string"
        }
      ],
      "stateMutability": "view",
      "type": "function",
      "constant": true
    },
    {
      "inputs": [],
      "name": "tokenAddress",
      "outputs": [
        {
          "internalType": "address",
          "name": "",
          "type": "address"
        }
      ],
      "stateMutability": "view",
      "type": "function",
      "constant": true
    },
    {
      "inputs": [
        {
          "internalType": "uint256",
          "name": "",
          "type": "uint256"
        }
      ],
      "name": "totalReferrals",
      "outputs": [
        {
          "internalType": "uint256",
          "name": "",
          "type": "uint256"
        }
      ],
      "stateMutability": "view",
      "type": "function",
      "constant": true
    },
    {
      "inputs": [],
      "name": "totalSupply",
      "outputs": [
        {
          "internalType": "uint256",
          "name": "",
          "type": "uint256"
        }
      ],
      "stateMutability": "view",
      "type": "function",
      "constant": true
    },
    {
      "inputs": [
        {
          "internalType": "address",
          "name": "to",
          "type": "address"
        },
        {
          "internalType": "uint256",
          "name": "amount",
          "type": "uint256"
        }
      ],
      "name": "transfer",
      "outputs": [
        {
          "internalType": "bool",
          "name": "",
          "type": "bool"
        }
      ],
      "stateMutability": "nonpayable",
      "type": "function"
    },
    {
      "inputs": [
        {
          "internalType": "address",
          "name": "from",
          "type": "address"
        },
        {
          "internalType": "address",
          "name": "to",
          "type": "address"
        },
        {
          "internalType": "uint256",
          "name": "amount",
          "type": "uint256"
        }
      ],
      "name": "transferFrom",
      "outputs": [
        {
          "internalType": "bool",
          "name": "",
          "type": "bool"
        }
      ],
      "stateMutability": "nonpayable",
      "type": "function"
    },
    {
      "inputs": [
        {
          "internalType": "address[]",
          "name": "sellers",
          "type": "address[]"
        }
      ],
      "name": "distributeToPartners",
      "outputs": [],
      "stateMutability": "nonpayable",
      "type": "function"
    },
    {
      "inputs": [
        {
          "internalType": "address",
          "name": "seller",
          "type": "address"
        }
      ],
      "name": "removeSeller",
      "outputs": [],
      "stateMutability": "nonpayable",
      "type": "function"
    },
    {
      "inputs": [
        {
          "internalType": "uint256",
          "name": "amount",
          "type": "uint256"
        }
      ],
      "name": "mint",
      "outputs": [],
      "stateMutability": "nonpayable",
      "type": "function"
    },
    {
      "inputs": [],
      "name": "depositCoint",
      "outputs": [],
      "stateMutability": "nonpayable",
      "type": "function"
    },
    {
      "inputs": [],
      "name": "deductCoin",
      "outputs": [],
      "stateMutability": "payable",
      "type": "function",
      "payable": true
    },
    {
      "inputs": [
        {
          "internalType": "uint256",
          "name": "productPrice",
          "type": "uint256"
        },
        {
          "internalType": "address",
          "name": "userAccount",
          "type": "address"
        },
        {
          "internalType": "uint256",
          "name": "lastReturnDate",
          "type": "uint256"
        },
        {
          "internalType": "bool",
          "name": "isReferred",
          "type": "bool"
        },
        {
          "internalType": "address",
          "name": "referrer",
          "type": "address"
        },
        {
          "internalType": "bool",
          "name": "isRedeem",
          "type": "bool"
        },
        {
          "internalType": "uint256",
          "name": "redeemAmount",
          "type": "uint256"
        },
        {
          "internalType": "string",
          "name": "productName",
          "type": "string"
        },
        {
          "internalType": "string",
          "name": "imgUrl",
          "type": "string"
        }
      ],
      "name": "purchase",
      "outputs": [],
      "stateMutability": "nonpayable",
      "type": "function"
    },
    {
      "inputs": [
        {
          "internalType": "address",
          "name": "seller",
          "type": "address"
        },
        {
          "internalType": "uint256[]",
          "name": "amount",
          "type": "uint256[]"
        },
        {
          "internalType": "address[]",
          "name": "userAccount",
          "type": "address[]"
        },
        {
          "internalType": "uint256",
          "name": "totalAmount",
          "type": "uint256"
        }
      ],
      "name": "disperseCoin",
      "outputs": [],
      "stateMutability": "nonpayable",
      "type": "function"
    },
    {
      "inputs": [
        {
          "internalType": "uint256",
          "name": "orderId",
          "type": "uint256"
        }
      ],
      "name": "cancleOrder",
      "outputs": [],
      "stateMutability": "nonpayable",
      "type": "function"
    },
    {
      "inputs": [
        {
          "internalType": "address",
          "name": "userAccount",
          "type": "address"
        }
      ],
      "name": "socialMediaPost",
      "outputs": [],
      "stateMutability": "nonpayable",
      "type": "function"
    },
    {
      "inputs": [
        {
          "internalType": "uint256",
          "name": "amount",
          "type": "uint256"
        },
        {
          "internalType": "address",
          "name": "userAccount",
          "type": "address"
        },
        {
          "internalType": "uint256",
          "name": "interval",
          "type": "uint256"
        }
      ],
      "name": "stakeTokens",
      "outputs": [],
      "stateMutability": "nonpayable",
      "type": "function"
    }
  ],
  "bytecode": "0x608060405261012c600b556005600c556005600d556000600e55604051806080016040528060538152602001620066d560539139601190805190602001906200004a92919062000307565b503480156200005857600080fd5b50604051620067283803806200672883398181016040528101906200007e919062000554565b818181600390805190602001906200009892919062000307565b508060049080519060200190620000b192919062000307565b505050620000f330620000c96200018760201b60201c565b600a620000d7919062000773565b62989680620000e79190620007c4565b6200019060201b60201c565b62989680600e8190555033600f60006101000a81548173ffffffffffffffffffffffffffffffffffffffff021916908373ffffffffffffffffffffffffffffffffffffffff16021790555030601060006101000a81548173ffffffffffffffffffffffffffffffffffffffff021916908373ffffffffffffffffffffffffffffffffffffffff160217905550505062000997565b60006012905090565b600073ffffffffffffffffffffffffffffffffffffffff168273ffffffffffffffffffffffffffffffffffffffff160362000202576040517f08c379a0000000000000000000000000000000000000000000000000000000008152600401620001f99062000886565b60405180910390fd5b6200021660008383620002fd60201b60201c565b80600260008282546200022a9190620008a8565b92505081905550806000808473ffffffffffffffffffffffffffffffffffffffff1673ffffffffffffffffffffffffffffffffffffffff168152602001908152602001600020600082825401925050819055508173ffffffffffffffffffffffffffffffffffffffff16600073ffffffffffffffffffffffffffffffffffffffff167fddf252ad1be2c89b69c2b068fc378daa952ba7f163c4a11628f55a4df523b3ef83604051620002dd919062000916565b60405180910390a3620002f9600083836200030260201b60201c565b5050565b505050565b505050565b828054620003159062000962565b90600052602060002090601f01602090048101928262000339576000855562000385565b82601f106200035457805160ff191683800117855562000385565b8280016001018555821562000385579182015b828111156200038457825182559160200191906001019062000367565b5b50905062000394919062000398565b5090565b5b80821115620003b357600081600090555060010162000399565b5090565b6000604051905090565b600080fd5b600080fd5b600080fd5b600080fd5b6000601f19601f8301169050919050565b7f4e487b7100000000000000000000000000000000000000000000000000000000600052604160045260246000fd5b6200042082620003d5565b810181811067ffffffffffffffff82111715620004425762000441620003e6565b5b80604052505050565b600062000457620003b7565b905062000465828262000415565b919050565b600067ffffffffffffffff821115620004885762000487620003e6565b5b6200049382620003d5565b9050602081019050919050565b60005b83811015620004c0578082015181840152602081019050620004a3565b83811115620004d0576000848401525b50505050565b6000620004ed620004e7846200046a565b6200044b565b9050828152602081018484840111156200050c576200050b620003d0565b5b62000519848285620004a0565b509392505050565b600082601f830112620005395762000538620003cb565b5b81516200054b848260208601620004d6565b91505092915050565b600080604083850312156200056e576200056d620003c1565b5b600083015167ffffffffffffffff8111156200058f576200058e620003c6565b5b6200059d8582860162000521565b925050602083015167ffffffffffffffff811115620005c157620005c0620003c6565b5b620005cf8582860162000521565b9150509250929050565b7f4e487b7100000000000000000000000000000000000000000000000000000000600052601160045260246000fd5b60008160011c9050919050565b6000808291508390505b600185111562000667578086048111156200063f576200063e620005d9565b5b60018516156200064f5780820291505b80810290506200065f8562000608565b94506200061f565b94509492505050565b60008262000682576001905062000755565b8162000692576000905062000755565b8160018114620006ab5760028114620006b657620006ec565b600191505062000755565b60ff841115620006cb57620006ca620005d9565b5b8360020a915084821115620006e557620006e4620005d9565b5b5062000755565b5060208310610133831016604e8410600b8410161715620007265782820a90508381111562000720576200071f620005d9565b5b62000755565b62000735848484600162000615565b925090508184048111156200074f576200074e620005d9565b5b81810290505b9392505050565b6000819050919050565b600060ff82169050919050565b600062000780826200075c565b91506200078d8362000766565b9250620007bc7fffffffffffffffffffffffffffffffffffffffffffffffffffffffffffffffff848462000670565b905092915050565b6000620007d1826200075c565b9150620007de836200075c565b9250817fffffffffffffffffffffffffffffffffffffffffffffffffffffffffffffffff04831182151516156200081a5762000819620005d9565b5b828202905092915050565b600082825260208201905092915050565b7f45524332303a206d696e7420746f20746865207a65726f206164647265737300600082015250565b60006200086e601f8362000825565b91506200087b8262000836565b602082019050919050565b60006020820190508181036000830152620008a1816200085f565b9050919050565b6000620008b5826200075c565b9150620008c2836200075c565b9250827fffffffffffffffffffffffffffffffffffffffffffffffffffffffffffffffff03821115620008fa57620008f9620005d9565b5b828201905092915050565b62000910816200075c565b82525050565b60006020820190506200092d600083018462000905565b92915050565b7f4e487b7100000000000000000000000000000000000000000000000000000000600052602260045260246000fd5b600060028204905060018216806200097b57607f821691505b60208210810362000991576200099062000933565b5b50919050565b615d2e80620009a76000396000f3fe60806040526004361061021a5760003560e01c80638f84aa0911610123578063b2a62064116100ab578063dd62ed3e1161006f578063dd62ed3e14610813578063e3cc16e114610850578063f406cb8a1461085a578063f64cccea14610883578063f95c0df3146108c05761021a565b8063b2a6206414610740578063b64dac4d1461076b578063b9b85b4b14610796578063cec534d6146107c1578063da757a45146107ea5761021a565b80639e28229d116100f25780639e28229d1461062c578063a0712d6814610657578063a457c2d714610680578063a85c38ef146106bd578063a9059cbb146107035761021a565b80638f84aa091461058257806395d89b41146105ad5780639a69ca9d146105d85780639d76ea58146106015761021a565b8063313ce567116101a657806370a082311161017557806370a08231146104b157806377937c21146104ee5780637cb9cf541461050557806381add5591461052e5780638c16602f146105595761021a565b8063313ce567146103f3578063395093511461041e5780634cf088d91461045b5780634d683674146104865761021a565b806318160ddd116101ed57806318160ddd146102f85780631ca351b21461032357806323b872dd1461034e5780632ed8eaa61461038b578063310a1ee3146103c85761021a565b806306fdde031461021f5780630860eeb21461024a578063095ea7b3146102755780630d99a955146102b2575b600080fd5b34801561022b57600080fd5b506102346108e9565b60405161024191906148a9565b60405180910390f35b34801561025657600080fd5b5061025f61097b565b60405161026c91906148e4565b60405180910390f35b34801561028157600080fd5b5061029c6004803603810190610297919061499d565b610981565b6040516102a991906149f8565b60405180910390f35b3480156102be57600080fd5b506102d960048036038101906102d49190614a13565b6109a4565b6040516102ef9a99989796959493929190614b0e565b60405180910390f35b34801561030457600080fd5b5061030d610b7f565b60405161031a91906148e4565b60405180910390f35b34801561032f57600080fd5b50610338610b89565b60405161034591906148e4565b60405180910390f35b34801561035a57600080fd5b5061037560048036038101906103709190614bb8565b610b8f565b60405161038291906149f8565b60405180910390f35b34801561039757600080fd5b506103b260048036038101906103ad9190614a13565b610bbe565b6040516103bf91906148e4565b60405180910390f35b3480156103d457600080fd5b506103dd610bd6565b6040516103ea91906148e4565b60405180910390f35b3480156103ff57600080fd5b50610408610bdc565b6040516104159190614c27565b60405180910390f35b34801561042a57600080fd5b506104456004803603810190610440919061499d565b610be5565b60405161045291906149f8565b60405180910390f35b34801561046757600080fd5b50610470610c1c565b60405161047d91906148e4565b60405180910390f35b34801561049257600080fd5b5061049b610c22565b6040516104a891906148e4565b60405180910390f35b3480156104bd57600080fd5b506104d860048036038101906104d39190614c42565b610c28565b6040516104e591906148e4565b60405180910390f35b3480156104fa57600080fd5b50610503610c70565b005b34801561051157600080fd5b5061052c60048036038101906105279190614c42565b611648565b005b34801561053a57600080fd5b5061054361165d565b60405161055091906148e4565b60405180910390f35b34801561056557600080fd5b50610580600480360381019061057b9190614e7a565b611663565b005b34801561058e57600080fd5b50610597611ad0565b6040516105a49190614f19565b60405180910390f35b3480156105b957600080fd5b506105c2611af6565b6040516105cf91906148a9565b60405180910390f35b3480156105e457600080fd5b506105ff60048036038101906105fa9190614c42565b611b88565b005b34801561060d57600080fd5b50610616611ecd565b6040516106239190614f19565b60405180910390f35b34801561063857600080fd5b50610641611ef3565b60405161064e91906148e4565b60405180910390f35b34801561066357600080fd5b5061067e60048036038101906106799190614a13565b611ef9565b005b34801561068c57600080fd5b506106a760048036038101906106a2919061499d565b611f85565b6040516106b491906149f8565b60405180910390f35b3480156106c957600080fd5b506106e460048036038101906106df9190614a13565b611ffc565b6040516106fa9a99989796959493929190614b0e565b60405180910390f35b34801561070f57600080fd5b5061072a6004803603810190610725919061499d565b6121c7565b60405161073791906149f8565b60405180910390f35b34801561074c57600080fd5b506107556121ea565b60405161076291906148e4565b60405180910390f35b34801561077757600080fd5b506107806121f0565b60405161078d91906148e4565b60405180910390f35b3480156107a257600080fd5b506107ab6121f6565b6040516107b891906148e4565b60405180910390f35b3480156107cd57600080fd5b506107e860048036038101906107e39190614f34565b6121fc565b005b3480156107f657600080fd5b50610811600480360381019061080c9190615068565b612a9b565b005b34801561081f57600080fd5b5061083a6004803603810190610835919061516a565b612dbe565b60405161084791906148e4565b60405180910390f35b610858612e45565b005b34801561086657600080fd5b50610881600480360381019061087c9190614a13565b6136f9565b005b34801561088f57600080fd5b506108aa60048036038101906108a59190614c42565b61375d565b6040516108b791906148e4565b60405180910390f35b3480156108cc57600080fd5b506108e760048036038101906108e291906151aa565b613775565b005b6060600380546108f890615222565b80601f016020809104026020016040519081016040528092919081815260200182805461092490615222565b80156109715780601f1061094657610100808354040283529160200191610971565b820191906000526020600020905b81548152906001019060200180831161095457829003601f168201915b5050505050905090565b60075481565b60008061098c613873565b905061099981858561387b565b600191505092915050565b601581815481106109b457600080fd5b90600052602060002090600802016000915090508060000154908060010154908060020154908060030160009054906101000a900473ffffffffffffffffffffffffffffffffffffffff16908060040160009054906101000a900473ffffffffffffffffffffffffffffffffffffffff16908060040160149054906101000a900460ff1690806005018054610a4890615222565b80601f0160208091040260200160405190810160405280929190818152602001828054610a7490615222565b8015610ac15780601f10610a9657610100808354040283529160200191610ac1565b820191906000526020600020905b815481529060010190602001808311610aa457829003601f168201915b505050505090806006018054610ad690615222565b80601f0160208091040260200160405190810160405280929190818152602001828054610b0290615222565b8015610b4f5780601f10610b2457610100808354040283529160200191610b4f565b820191906000526020600020905b815481529060010190602001808311610b3257829003601f168201915b5050505050908060070160009054906101000a900460ff16908060070160019054906101000a900460ff1690508a565b6000600254905090565b600c5481565b600080610b9a613873565b9050610ba7858285613a44565b610bb2858585613ad0565b60019150509392505050565b60146020528060005260406000206000915090505481565b600b5481565b60006012905090565b600080610bf0613873565b9050610c11818585610c028589612dbe565b610c0c9190615282565b61387b565b600191505092915050565b60085481565b600d5481565b60008060008373ffffffffffffffffffffffffffffffffffffffff1673ffffffffffffffffffffffffffffffffffffffff168152602001908152602001600020549050919050565b60005b600a548110156116455760006003811115610c9157610c90614a4f565b5b6012600083815260200190815260200160002060070160009054906101000a900460ff166003811115610cc757610cc6614a4f565b5b148015610cea575060126000828152602001908152602001600020600101544210155b156116325760016003811115610d0357610d02614a4f565b5b6012600083815260200190815260200160002060070160019054906101000a900460ff166003811115610d3957610d38614a4f565b5b03610dd55760095460646005610d4d610b7f565b610d5791906152d8565b610d619190615361565b11610da1576040517f08c379a0000000000000000000000000000000000000000000000000000000008152600401610d98906153de565b60405180910390fd5b601260008281526020019081526020016000206002015460096000828254610dc99190615282565b92505081905550611035565b60026003811115610de957610de8614a4f565b5b6012600083815260200190815260200160002060070160019054906101000a900460ff166003811115610e1f57610e1e614a4f565b5b03610ebb5760075460646005610e33610b7f565b610e3d91906152d8565b610e479190615361565b11610e87576040517f08c379a0000000000000000000000000000000000000000000000000000000008152600401610e7e906153de565b60405180910390fd5b601260008281526020019081526020016000206002015460076000828254610eaf9190615282565b92505081905550611034565b600380811115610ece57610ecd614a4f565b5b6012600083815260200190815260200160002060070160019054906101000a900460ff166003811115610f0457610f03614a4f565b5b03610fa0576008546064600f610f18610b7f565b610f2291906152d8565b610f2c9190615361565b11610f6c576040517f08c379a0000000000000000000000000000000000000000000000000000000008152600401610f63906153de565b60405180910390fd5b601260008281526020019081526020016000206002015460086000828254610f949190615282565b92505081905550611033565b60055460646028610faf610b7f565b610fb991906152d8565b610fc39190615361565b11611003576040517f08c379a0000000000000000000000000000000000000000000000000000000008152600401610ffa906153de565b60405180910390fd5b60126000828152602001908152602001600020600201546005600082825461102b9190615282565b925050819055505b5b5b60026012600083815260200190815260200160002060070160006101000a81548160ff0219169083600381111561106f5761106e614a4f565b5b02179055506000601060009054906101000a900473ffffffffffffffffffffffffffffffffffffffff1690508073ffffffffffffffffffffffffffffffffffffffff1663a9059cbb6012600085815260200190815260200160002060030160009054906101000a900473ffffffffffffffffffffffffffffffffffffffff1660126000868152602001908152602001600020600201546040518363ffffffff1660e01b81526004016111229291906153fe565b6020604051808303816000875af1158015611141573d6000803e3d6000fd5b505050506040513d601f19601f82011682018060405250810190611165919061543c565b506012600083815260200190815260200160002060020154601360006012600086815260200190815260200160002060030160009054906101000a900473ffffffffffffffffffffffffffffffffffffffff1673ffffffffffffffffffffffffffffffffffffffff1673ffffffffffffffffffffffffffffffffffffffff16815260200190815260200160002060008282546112019190615282565b9250508190555060156012600084815260200190815260200160002090806001815401808255809150506001900390600052602060002090600802016000909190919091506000820154816000015560018201548160010155600282015481600201556003820160009054906101000a900473ffffffffffffffffffffffffffffffffffffffff168160030160006101000a81548173ffffffffffffffffffffffffffffffffffffffff021916908373ffffffffffffffffffffffffffffffffffffffff1602179055506004820160009054906101000a900473ffffffffffffffffffffffffffffffffffffffff168160040160006101000a81548173ffffffffffffffffffffffffffffffffffffffff021916908373ffffffffffffffffffffffffffffffffffffffff1602179055506004820160149054906101000a900460ff168160040160146101000a81548160ff021916908315150217905550600582018160050190805461137390615222565b61137e9291906145ae565b50600682018160060190805461139390615222565b61139e9291906145ae565b506007820160009054906101000a900460ff168160070160006101000a81548160ff021916908360038111156113d7576113d6614a4f565b5b02179055506007820160019054906101000a900460ff168160070160016101000a81548160ff0219169083600381111561141457611413614a4f565b5b021790555050506012600083815260200190815260200160002060040160149054906101000a900460ff1615611630576006546064600f611453610b7f565b61145d91906152d8565b6114679190615361565b116114a7576040517f08c379a000000000000000000000000000000000000000000000000000000000815260040161149e906153de565b60405180910390fd5b6000601060009054906101000a900473ffffffffffffffffffffffffffffffffffffffff1690508073ffffffffffffffffffffffffffffffffffffffff1663a9059cbb6012600086815260200190815260200160002060040160009054906101000a900473ffffffffffffffffffffffffffffffffffffffff16600d546040518363ffffffff1660e01b81526004016115419291906153fe565b6020604051808303816000875af1158015611560573d6000803e3d6000fd5b505050506040513d601f19601f82011682018060405250810190611584919061543c565b50600d54601360006012600087815260200190815260200160002060040160009054906101000a900473ffffffffffffffffffffffffffffffffffffffff1673ffffffffffffffffffffffffffffffffffffffff1673ffffffffffffffffffffffffffffffffffffffff168152602001908152602001600020600082825461160c9190615282565b92505081905550600d54600660008282546116279190615282565b92505081905550505b505b808061163d90615469565b915050610c73565b50565b61165a8161165583610c28565b613d46565b50565b60095481565b8061166d85610c28565b10156116ae576040517f08c379a00000000000000000000000000000000000000000000000000000000081526004016116a590615523565b60405180910390fd5b600954606460056116bd610b7f565b6116c791906152d8565b6116d19190615361565b11611711576040517f08c379a0000000000000000000000000000000000000000000000000000000008152600401611708906153de565b60405180910390fd5b60005b8351811015611ac95761172561463b565b600a548160000181815250508460008151811061174557611744615543565b5b602002602001015181604001818152505060008160a0019015159081151581525050428160200181815250506000816101000190600381111561178b5761178a614a4f565b5b9081600381111561179f5761179e614a4f565b5b815250508382815181106117b6576117b5615543565b5b6020026020010151816060019073ffffffffffffffffffffffffffffffffffffffff16908173ffffffffffffffffffffffffffffffffffffffff16815250506001816101200190600381111561180f5761180e614a4f565b5b9081600381111561182357611822614a4f565b5b815250506040518060400160405280600781526020017f41697244726f70000000000000000000000000000000000000000000000000008152508160c001819052506011805461187290615222565b80601f016020809104026020016040519081016040528092919081815260200182805461189e90615222565b80156118eb5780601f106118c0576101008083540402835291602001916118eb565b820191906000526020600020905b8154815290600101906020018083116118ce57829003601f168201915b50505050508160e001819052508060126000600a54815260200190815260200160002060008201518160000155602082015181600101556040820151816002015560608201518160030160006101000a81548173ffffffffffffffffffffffffffffffffffffffff021916908373ffffffffffffffffffffffffffffffffffffffff16021790555060808201518160040160006101000a81548173ffffffffffffffffffffffffffffffffffffffff021916908373ffffffffffffffffffffffffffffffffffffffff16021790555060a08201518160040160146101000a81548160ff02191690831515021790555060c08201518160050190805190602001906119f69291906146e0565b5060e0820151816006019080519060200190611a139291906146e0565b506101008201518160070160006101000a81548160ff02191690836003811115611a4057611a3f614a4f565b5b02179055506101208201518160070160016101000a81548160ff02191690836003811115611a7157611a70614a4f565b5b0217905550905050611a9d86868481518110611a9057611a8f615543565b5b6020026020010151613d46565b600a6000815480929190611ab090615469565b9190505550508080611ac190615469565b915050611714565b5050505050565b600f60009054906101000a900473ffffffffffffffffffffffffffffffffffffffff1681565b606060048054611b0590615222565b80601f0160208091040260200160405190810160405280929190818152602001828054611b3190615222565b8015611b7e5780601f10611b5357610100808354040283529160200191611b7e565b820191906000526020600020905b815481529060010190602001808311611b6157829003601f168201915b5050505050905090565b611b9061463b565b600a54816000018181525050600c5481604001818152505060008160a00190151590811515815250504281602001818152505060008161010001906003811115611bdd57611bdc614a4f565b5b90816003811115611bf157611bf0614a4f565b5b8152505081816060019073ffffffffffffffffffffffffffffffffffffffff16908173ffffffffffffffffffffffffffffffffffffffff168152505060028161012001906003811115611c4757611c46614a4f565b5b90816003811115611c5b57611c5a614a4f565b5b815250508060126000600a54815260200190815260200160002060008201518160000155602082015181600101556040820151816002015560608201518160030160006101000a81548173ffffffffffffffffffffffffffffffffffffffff021916908373ffffffffffffffffffffffffffffffffffffffff16021790555060808201518160040160006101000a81548173ffffffffffffffffffffffffffffffffffffffff021916908373ffffffffffffffffffffffffffffffffffffffff16021790555060a08201518160040160146101000a81548160ff02191690831515021790555060c0820151816005019080519060200190611d5d9291906146e0565b5060e0820151816006019080519060200190611d7a9291906146e0565b506101008201518160070160006101000a81548160ff02191690836003811115611da757611da6614a4f565b5b02179055506101208201518160070160016101000a81548160ff02191690836003811115611dd857611dd7614a4f565b5b02179055509050506040518060400160405280601881526020017f536f6369616c204d6564696120496e746572616374696f6e00000000000000008152508160c0018190525060118054611e2b90615222565b80601f0160208091040260200160405190810160405280929190818152602001828054611e5790615222565b8015611ea45780601f10611e7957610100808354040283529160200191611ea4565b820191906000526020600020905b815481529060010190602001808311611e8757829003601f168201915b50505050508160e00181905250600a6000815480929190611ec490615469565b91905055505050565b601060009054906101000a900473ffffffffffffffffffffffffffffffffffffffff1681565b600a5481565b3373ffffffffffffffffffffffffffffffffffffffff16600f60009054906101000a900473ffffffffffffffffffffffffffffffffffffffff1673ffffffffffffffffffffffffffffffffffffffff1614611f5357600080fd5b611f7b30611f5f610bdc565b600a611f6b91906156a5565b83611f7691906152d8565b613f13565b80600e8190555050565b600080611f90613873565b90506000611f9e8286612dbe565b905083811015611fe3576040517f08c379a0000000000000000000000000000000000000000000000000000000008152600401611fda90615762565b60405180910390fd5b611ff0828686840361387b565b60019250505092915050565b60126020528060005260406000206000915090508060000154908060010154908060020154908060030160009054906101000a900473ffffffffffffffffffffffffffffffffffffffff16908060040160009054906101000a900473ffffffffffffffffffffffffffffffffffffffff16908060040160149054906101000a900460ff169080600501805461209090615222565b80601f01602080910402602001604051908101604052809291908181526020018280546120bc90615222565b80156121095780601f106120de57610100808354040283529160200191612109565b820191906000526020600020905b8154815290600101906020018083116120ec57829003601f168201915b50505050509080600601805461211e90615222565b80601f016020809104026020016040519081016040528092919081815260200182805461214a90615222565b80156121975780601f1061216c57610100808354040283529160200191612197565b820191906000526020600020905b81548152906001019060200180831161217a57829003601f168201915b5050505050908060070160009054906101000a900460ff16908060070160019054906101000a900460ff1690508a565b6000806121d2613873565b90506121df818585613ad0565b600191505092915050565b600e5481565b60055481565b60065481565b600083118015612214575061221082610c28565b8311155b612253576040517f08c379a000000000000000000000000000000000000000000000000000000000815260040161224a906157ce565b60405180910390fd5b61225e823085613ad0565b61226661463b565b600a54816000018181525050600a8461227f9190615361565b8461228a9190615282565b81604001818152505060008160a001901515908115158152505081426122b09190615282565b816020018181525050600081610100019060038111156122d3576122d2614a4f565b5b908160038111156122e7576122e6614a4f565b5b815250506003816101200190600381111561230557612304614a4f565b5b9081600381111561231957612318614a4f565b5b8152505082816060019073ffffffffffffffffffffffffffffffffffffffff16908173ffffffffffffffffffffffffffffffffffffffff16815250506040518060400160405280600581526020017f5374616b650000000000000000000000000000000000000000000000000000008152508160c00181905250601180546123a090615222565b80601f01602080910402602001604051908101604052809291908181526020018280546123cc90615222565b80156124195780601f106123ee57610100808354040283529160200191612419565b820191906000526020600020905b8154815290600101906020018083116123fc57829003601f168201915b50505050508160e001819052508060126000600a54815260200190815260200160002060008201518160000155602082015181600101556040820151816002015560608201518160030160006101000a81548173ffffffffffffffffffffffffffffffffffffffff021916908373ffffffffffffffffffffffffffffffffffffffff16021790555060808201518160040160006101000a81548173ffffffffffffffffffffffffffffffffffffffff021916908373ffffffffffffffffffffffffffffffffffffffff16021790555060a08201518160040160146101000a81548160ff02191690831515021790555060c08201518160050190805190602001906125249291906146e0565b5060e08201518160060190805190602001906125419291906146e0565b506101008201518160070160006101000a81548160ff0219169083600381111561256e5761256d614a4f565b5b02179055506101208201518160070160016101000a81548160ff0219169083600381111561259f5761259e614a4f565b5b0217905550905050600a60008154809291906125ba90615469565b91905055506125c761463b565b600a548160000181815250508481604001818152505060008160a0019015159081151581525050428160200181815250506003816101000190600381111561261257612611614a4f565b5b9081600381111561262657612625614a4f565b5b815250506003816101200190600381111561264457612643614a4f565b5b9081600381111561265857612657614a4f565b5b8152505083816060019073ffffffffffffffffffffffffffffffffffffffff16908173ffffffffffffffffffffffffffffffffffffffff16815250506040518060400160405280600581526020017f5374616b650000000000000000000000000000000000000000000000000000008152508160c00181905250601180546126df90615222565b80601f016020809104026020016040519081016040528092919081815260200182805461270b90615222565b80156127585780601f1061272d57610100808354040283529160200191612758565b820191906000526020600020905b81548152906001019060200180831161273b57829003601f168201915b50505050508160e00181905250601581908060018154018082558091505060019003906000526020600020906008020160009091909190915060008201518160000155602082015181600101556040820151816002015560608201518160030160006101000a81548173ffffffffffffffffffffffffffffffffffffffff021916908373ffffffffffffffffffffffffffffffffffffffff16021790555060808201518160040160006101000a81548173ffffffffffffffffffffffffffffffffffffffff021916908373ffffffffffffffffffffffffffffffffffffffff16021790555060a08201518160040160146101000a81548160ff02191690831515021790555060c08201518160050190805190602001906128799291906146e0565b5060e08201518160060190805190602001906128969291906146e0565b506101008201518160070160006101000a81548160ff021916908360038111156128c3576128c2614a4f565b5b02179055506101208201518160070160016101000a81548160ff021916908360038111156128f4576128f3614a4f565b5b021790555050508160126000600a54815260200190815260200160002060008201518160000155602082015181600101556040820151816002015560608201518160030160006101000a81548173ffffffffffffffffffffffffffffffffffffffff021916908373ffffffffffffffffffffffffffffffffffffffff16021790555060808201518160040160006101000a81548173ffffffffffffffffffffffffffffffffffffffff021916908373ffffffffffffffffffffffffffffffffffffffff16021790555060a08201518160040160146101000a81548160ff02191690831515021790555060c08201518160050190805190602001906129f99291906146e0565b5060e0820151816006019080519060200190612a169291906146e0565b506101008201518160070160006101000a81548160ff02191690836003811115612a4357612a42614a4f565b5b02179055506101208201518160070160016101000a81548160ff02191690836003811115612a7457612a73614a4f565b5b0217905550905050600a6000815480929190612a8f90615469565b91905055505050505050565b612aa361463b565b600a54816000018181525050606460328b612abe9190615361565b10612ad3576064816040018181525050612aea565b60328a612ae09190615361565b8160400181815250505b88816060019073ffffffffffffffffffffffffffffffffffffffff16908173ffffffffffffffffffffffffffffffffffffffff168152505060008161010001906003811115612b3c57612b3b614a4f565b5b90816003811115612b5057612b4f614a4f565b5b815250508781602001818152505060008161012001906003811115612b7857612b77614a4f565b5b90816003811115612b8c57612b8b614a4f565b5b81525050828160c00181905250818160e001819052508615612bf65760018160a001901515908115158152505085816080019073ffffffffffffffffffffffffffffffffffffffff16908173ffffffffffffffffffffffffffffffffffffffff1681525050612c08565b60008160a00190151590811515815250505b8060126000600a54815260200190815260200160002060008201518160000155602082015181600101556040820151816002015560608201518160030160006101000a81548173ffffffffffffffffffffffffffffffffffffffff021916908373ffffffffffffffffffffffffffffffffffffffff16021790555060808201518160040160006101000a81548173ffffffffffffffffffffffffffffffffffffffff021916908373ffffffffffffffffffffffffffffffffffffffff16021790555060a08201518160040160146101000a81548160ff02191690831515021790555060c0820151816005019080519060200190612d069291906146e0565b5060e0820151816006019080519060200190612d239291906146e0565b506101008201518160070160006101000a81548160ff02191690836003811115612d5057612d4f614a4f565b5b02179055506101208201518160070160016101000a81548160ff02191690836003811115612d8157612d80614a4f565b5b0217905550905050600a6000815480929190612d9c90615469565b91905055508415612db257612db18985614069565b5b50505050505050505050565b6000600160008473ffffffffffffffffffffffffffffffffffffffff1673ffffffffffffffffffffffffffffffffffffffff16815260200190815260200160002060008373ffffffffffffffffffffffffffffffffffffffff1673ffffffffffffffffffffffffffffffffffffffff16815260200190815260200160002054905092915050565b60005b600a548110156136f65760026003811115612e6657612e65614a4f565b5b6012600083815260200190815260200160002060070160009054906101000a900460ff166003811115612e9c57612e9b614a4f565b5b148015612ecc5750600b546012600083815260200190815260200160002060010154612ec89190615282565b4210155b156136e35760036012600083815260200190815260200160002060070160006101000a81548160ff02191690836003811115612f0b57612f0a614a4f565b5b02179055506012600082815260200190815260200160002060020154601360006012600085815260200190815260200160002060030160009054906101000a900473ffffffffffffffffffffffffffffffffffffffff1673ffffffffffffffffffffffffffffffffffffffff1673ffffffffffffffffffffffffffffffffffffffff16815260200190815260200160002054612fa791906157ee565b612fe66012600084815260200190815260200160002060030160009054906101000a900473ffffffffffffffffffffffffffffffffffffffff16610c28565b11156133ae5760006012600083815260200190815260200160002060020154601360006012600086815260200190815260200160002060030160009054906101000a900473ffffffffffffffffffffffffffffffffffffffff1673ffffffffffffffffffffffffffffffffffffffff1673ffffffffffffffffffffffffffffffffffffffff1681526020019081526020016000205461308591906157ee565b6130c46012600085815260200190815260200160002060030160009054906101000a900473ffffffffffffffffffffffffffffffffffffffff16610c28565b6130ce91906157ee565b90506131106012600084815260200190815260200160002060030160009054906101000a900473ffffffffffffffffffffffffffffffffffffffff1682613d46565b80601260008481526020019081526020016000206002018190555060116012600084815260200190815260200160002060060190805461314f90615222565b61315a929190614766565b50600b54601260008481526020019081526020016000206001015461317f9190615282565b601260008481526020019081526020016000206001018190555060156012600084815260200190815260200160002090806001815401808255809150506001900390600052602060002090600802016000909190919091506000820154816000015560018201548160010155600282015481600201556003820160009054906101000a900473ffffffffffffffffffffffffffffffffffffffff168160030160006101000a81548173ffffffffffffffffffffffffffffffffffffffff021916908373ffffffffffffffffffffffffffffffffffffffff1602179055506004820160009054906101000a900473ffffffffffffffffffffffffffffffffffffffff168160040160006101000a81548173ffffffffffffffffffffffffffffffffffffffff021916908373ffffffffffffffffffffffffffffffffffffffff1602179055506004820160149054906101000a900460ff168160040160146101000a81548160ff021916908315150217905550600582018160050190805461330490615222565b61330f9291906145ae565b50600682018160060190805461332490615222565b61332f9291906145ae565b506007820160009054906101000a900460ff168160070160006101000a81548160ff0219169083600381111561336857613367614a4f565b5b02179055506007820160019054906101000a900460ff168160070160016101000a81548160ff021916908360038111156133a5576133a4614a4f565b5b02179055505050505b6012600082815260200190815260200160002060020154601360006012600085815260200190815260200160002060030160009054906101000a900473ffffffffffffffffffffffffffffffffffffffff1673ffffffffffffffffffffffffffffffffffffffff1673ffffffffffffffffffffffffffffffffffffffff168152602001908152602001600020600082825461344991906157ee565b925050819055506012600082815260200190815260200160002060040160149054906101000a900460ff16156136e257600d54601360006012600085815260200190815260200160002060040160009054906101000a900473ffffffffffffffffffffffffffffffffffffffff1673ffffffffffffffffffffffffffffffffffffffff1673ffffffffffffffffffffffffffffffffffffffff168152602001908152602001600020546134fc91906157ee565b61353b6012600084815260200190815260200160002060040160009054906101000a900473ffffffffffffffffffffffffffffffffffffffff16610c28565b1115613653576000600d54601360006012600086815260200190815260200160002060040160009054906101000a900473ffffffffffffffffffffffffffffffffffffffff1673ffffffffffffffffffffffffffffffffffffffff1673ffffffffffffffffffffffffffffffffffffffff168152602001908152602001600020546135c691906157ee565b6136056012600085815260200190815260200160002060040160009054906101000a900473ffffffffffffffffffffffffffffffffffffffff16610c28565b61360f91906157ee565b90506136516012600084815260200190815260200160002060040160009054906101000a900473ffffffffffffffffffffffffffffffffffffffff1682613d46565b505b600d54601360006012600085815260200190815260200160002060040160009054906101000a900473ffffffffffffffffffffffffffffffffffffffff1673ffffffffffffffffffffffffffffffffffffffff1673ffffffffffffffffffffffffffffffffffffffff16815260200190815260200160002060008282546136da91906157ee565b925050819055505b5b80806136ee90615469565b915050612e48565b50565b4260126000838152602001908152602001600020600101541161371b57600080fd5b60016012600083815260200190815260200160002060070160006101000a81548160ff0219169083600381111561375557613754614a4f565b5b021790555050565b60136020528060005260406000206000915090505481565b60005b815181101561386f576000601060009054906101000a900473ffffffffffffffffffffffffffffffffffffffff1690508073ffffffffffffffffffffffffffffffffffffffff1663a9059cbb8484815181106137d7576137d6615543565b5b602002602001015160646005600e546137f091906152d8565b6137fa9190615361565b6040518363ffffffff1660e01b81526004016138179291906153fe565b6020604051808303816000875af1158015613836573d6000803e3d6000fd5b505050506040513d601f19601f8201168201806040525081019061385a919061543c565b5050808061386790615469565b915050613778565b5050565b600033905090565b600073ffffffffffffffffffffffffffffffffffffffff168373ffffffffffffffffffffffffffffffffffffffff16036138ea576040517f08c379a00000000000000000000000000000000000000000000000000000000081526004016138e190615894565b60405180910390fd5b600073ffffffffffffffffffffffffffffffffffffffff168273ffffffffffffffffffffffffffffffffffffffff1603613959576040517f08c379a000000000000000000000000000000000000000000000000000000000815260040161395090615926565b60405180910390fd5b80600160008573ffffffffffffffffffffffffffffffffffffffff1673ffffffffffffffffffffffffffffffffffffffff16815260200190815260200160002060008473ffffffffffffffffffffffffffffffffffffffff1673ffffffffffffffffffffffffffffffffffffffff168152602001908152602001600020819055508173ffffffffffffffffffffffffffffffffffffffff168373ffffffffffffffffffffffffffffffffffffffff167f8c5be1e5ebec7d5bd14f71427d1e84f3dd0314c0f7b2291e5b200ac8c7c3b92583604051613a3791906148e4565b60405180910390a3505050565b6000613a508484612dbe565b90507fffffffffffffffffffffffffffffffffffffffffffffffffffffffffffffffff8114613aca5781811015613abc576040517f08c379a0000000000000000000000000000000000000000000000000000000008152600401613ab390615992565b60405180910390fd5b613ac9848484840361387b565b5b50505050565b600073ffffffffffffffffffffffffffffffffffffffff168373ffffffffffffffffffffffffffffffffffffffff1603613b3f576040517f08c379a0000000000000000000000000000000000000000000000000000000008152600401613b3690615a24565b60405180910390fd5b600073ffffffffffffffffffffffffffffffffffffffff168273ffffffffffffffffffffffffffffffffffffffff1603613bae576040517f08c379a0000000000000000000000000000000000000000000000000000000008152600401613ba590615ab6565b60405180910390fd5b613bb98383836145a4565b60008060008573ffffffffffffffffffffffffffffffffffffffff1673ffffffffffffffffffffffffffffffffffffffff16815260200190815260200160002054905081811015613c3f576040517f08c379a0000000000000000000000000000000000000000000000000000000008152600401613c3690615b48565b60405180910390fd5b8181036000808673ffffffffffffffffffffffffffffffffffffffff1673ffffffffffffffffffffffffffffffffffffffff16815260200190815260200160002081905550816000808573ffffffffffffffffffffffffffffffffffffffff1673ffffffffffffffffffffffffffffffffffffffff168152602001908152602001600020600082825401925050819055508273ffffffffffffffffffffffffffffffffffffffff168473ffffffffffffffffffffffffffffffffffffffff167fddf252ad1be2c89b69c2b068fc378daa952ba7f163c4a11628f55a4df523b3ef84604051613d2d91906148e4565b60405180910390a3613d408484846145a9565b50505050565b600073ffffffffffffffffffffffffffffffffffffffff168273ffffffffffffffffffffffffffffffffffffffff1603613db5576040517f08c379a0000000000000000000000000000000000000000000000000000000008152600401613dac90615bda565b60405180910390fd5b613dc1826000836145a4565b60008060008473ffffffffffffffffffffffffffffffffffffffff1673ffffffffffffffffffffffffffffffffffffffff16815260200190815260200160002054905081811015613e47576040517f08c379a0000000000000000000000000000000000000000000000000000000008152600401613e3e90615c6c565b60405180910390fd5b8181036000808573ffffffffffffffffffffffffffffffffffffffff1673ffffffffffffffffffffffffffffffffffffffff1681526020019081526020016000208190555081600260008282540392505081905550600073ffffffffffffffffffffffffffffffffffffffff168373ffffffffffffffffffffffffffffffffffffffff167fddf252ad1be2c89b69c2b068fc378daa952ba7f163c4a11628f55a4df523b3ef84604051613efa91906148e4565b60405180910390a3613f0e836000846145a9565b505050565b600073ffffffffffffffffffffffffffffffffffffffff168273ffffffffffffffffffffffffffffffffffffffff1603613f82576040517f08c379a0000000000000000000000000000000000000000000000000000000008152600401613f7990615cd8565b60405180910390fd5b613f8e600083836145a4565b8060026000828254613fa09190615282565b92505081905550806000808473ffffffffffffffffffffffffffffffffffffffff1673ffffffffffffffffffffffffffffffffffffffff168152602001908152602001600020600082825401925050819055508173ffffffffffffffffffffffffffffffffffffffff16600073ffffffffffffffffffffffffffffffffffffffff167fddf252ad1be2c89b69c2b068fc378daa952ba7f163c4a11628f55a4df523b3ef8360405161405191906148e4565b60405180910390a3614065600083836145a9565b5050565b8061407383610c28565b101580156140815750600081115b6140c0576040517f08c379a00000000000000000000000000000000000000000000000000000000081526004016140b7906157ce565b60405180910390fd5b6140c861463b565b600a548160000181815250508181604001818152505060008160a0019015159081151581525050428160200181815250506003816101000190600381111561411357614112614a4f565b5b9081600381111561412757614126614a4f565b5b8152505082816060019073ffffffffffffffffffffffffffffffffffffffff16908173ffffffffffffffffffffffffffffffffffffffff16815250506000816101200190600381111561417d5761417c614a4f565b5b9081600381111561419157614190614a4f565b5b815250506040518060400160405280600681526020017f52656465656d00000000000000000000000000000000000000000000000000008152508160c00181905250601180546141e090615222565b80601f016020809104026020016040519081016040528092919081815260200182805461420c90615222565b80156142595780601f1061422e57610100808354040283529160200191614259565b820191906000526020600020905b81548152906001019060200180831161423c57829003601f168201915b50505050508160e00181905250601581908060018154018082558091505060019003906000526020600020906008020160009091909190915060008201518160000155602082015181600101556040820151816002015560608201518160030160006101000a81548173ffffffffffffffffffffffffffffffffffffffff021916908373ffffffffffffffffffffffffffffffffffffffff16021790555060808201518160040160006101000a81548173ffffffffffffffffffffffffffffffffffffffff021916908373ffffffffffffffffffffffffffffffffffffffff16021790555060a08201518160040160146101000a81548160ff02191690831515021790555060c082015181600501908051906020019061437a9291906146e0565b5060e08201518160060190805190602001906143979291906146e0565b506101008201518160070160006101000a81548160ff021916908360038111156143c4576143c3614a4f565b5b02179055506101208201518160070160016101000a81548160ff021916908360038111156143f5576143f4614a4f565b5b021790555050508060126000600a54815260200190815260200160002060008201518160000155602082015181600101556040820151816002015560608201518160030160006101000a81548173ffffffffffffffffffffffffffffffffffffffff021916908373ffffffffffffffffffffffffffffffffffffffff16021790555060808201518160040160006101000a81548173ffffffffffffffffffffffffffffffffffffffff021916908373ffffffffffffffffffffffffffffffffffffffff16021790555060a08201518160040160146101000a81548160ff02191690831515021790555060c08201518160050190805190602001906144fa9291906146e0565b5060e08201518160060190805190602001906145179291906146e0565b506101008201518160070160006101000a81548160ff0219169083600381111561454457614543614a4f565b5b02179055506101208201518160070160016101000a81548160ff0219169083600381111561457557614574614a4f565b5b0217905550905050600a600081548092919061459090615469565b919050555061459f8383613d46565b505050565b505050565b505050565b8280546145ba90615222565b90600052602060002090601f0160209004810192826145dc576000855561462a565b82601f106145ed578054855561462a565b8280016001018555821561462a57600052602060002091601f016020900482015b8281111561462957825482559160010191906001019061460e565b5b50905061463791906147f3565b5090565b604051806101400160405280600081526020016000815260200160008152602001600073ffffffffffffffffffffffffffffffffffffffff168152602001600073ffffffffffffffffffffffffffffffffffffffff1681526020016000151581526020016060815260200160608152602001600060038111156146c1576146c0614a4f565b5b8152602001600060038111156146da576146d9614a4f565b5b81525090565b8280546146ec90615222565b90600052602060002090601f01602090048101928261470e5760008555614755565b82601f1061472757805160ff1916838001178555614755565b82800160010185558215614755579182015b82811115614754578251825591602001919060010190614739565b5b50905061476291906147f3565b5090565b82805461477290615222565b90600052602060002090601f01602090048101928261479457600085556147e2565b82601f106147a557805485556147e2565b828001600101855582156147e257600052602060002091601f016020900482015b828111156147e15782548255916001019190600101906147c6565b5b5090506147ef91906147f3565b5090565b5b8082111561480c5760008160009055506001016147f4565b5090565b600081519050919050565b600082825260208201905092915050565b60005b8381101561484a57808201518184015260208101905061482f565b83811115614859576000848401525b50505050565b6000601f19601f8301169050919050565b600061487b82614810565b614885818561481b565b935061489581856020860161482c565b61489e8161485f565b840191505092915050565b600060208201905081810360008301526148c38184614870565b905092915050565b6000819050919050565b6148de816148cb565b82525050565b60006020820190506148f960008301846148d5565b92915050565b6000604051905090565b600080fd5b600080fd5b600073ffffffffffffffffffffffffffffffffffffffff82169050919050565b600061493e82614913565b9050919050565b61494e81614933565b811461495957600080fd5b50565b60008135905061496b81614945565b92915050565b61497a816148cb565b811461498557600080fd5b50565b60008135905061499781614971565b92915050565b600080604083850312156149b4576149b3614909565b5b60006149c28582860161495c565b92505060206149d385828601614988565b9150509250929050565b60008115159050919050565b6149f2816149dd565b82525050565b6000602082019050614a0d60008301846149e9565b92915050565b600060208284031215614a2957614a28614909565b5b6000614a3784828501614988565b91505092915050565b614a4981614933565b82525050565b7f4e487b7100000000000000000000000000000000000000000000000000000000600052602160045260246000fd5b60048110614a8f57614a8e614a4f565b5b50565b6000819050614aa082614a7e565b919050565b6000614ab082614a92565b9050919050565b614ac081614aa5565b82525050565b60048110614ad757614ad6614a4f565b5b50565b6000819050614ae882614ac6565b919050565b6000614af882614ada565b9050919050565b614b0881614aed565b82525050565b600061014082019050614b24600083018d6148d5565b614b31602083018c6148d5565b614b3e604083018b6148d5565b614b4b606083018a614a40565b614b586080830189614a40565b614b6560a08301886149e9565b81810360c0830152614b778187614870565b905081810360e0830152614b8b8186614870565b9050614b9b610100830185614ab7565b614ba9610120830184614aff565b9b9a5050505050505050505050565b600080600060608486031215614bd157614bd0614909565b5b6000614bdf8682870161495c565b9350506020614bf08682870161495c565b9250506040614c0186828701614988565b9150509250925092565b600060ff82169050919050565b614c2181614c0b565b82525050565b6000602082019050614c3c6000830184614c18565b92915050565b600060208284031215614c5857614c57614909565b5b6000614c668482850161495c565b91505092915050565b600080fd5b7f4e487b7100000000000000000000000000000000000000000000000000000000600052604160045260246000fd5b614cac8261485f565b810181811067ffffffffffffffff82111715614ccb57614cca614c74565b5b80604052505050565b6000614cde6148ff565b9050614cea8282614ca3565b919050565b600067ffffffffffffffff821115614d0a57614d09614c74565b5b602082029050602081019050919050565b600080fd5b6000614d33614d2e84614cef565b614cd4565b90508083825260208201905060208402830185811115614d5657614d55614d1b565b5b835b81811015614d7f5780614d6b8882614988565b845260208401935050602081019050614d58565b5050509392505050565b600082601f830112614d9e57614d9d614c6f565b5b8135614dae848260208601614d20565b91505092915050565b600067ffffffffffffffff821115614dd257614dd1614c74565b5b602082029050602081019050919050565b6000614df6614df184614db7565b614cd4565b90508083825260208201905060208402830185811115614e1957614e18614d1b565b5b835b81811015614e425780614e2e888261495c565b845260208401935050602081019050614e1b565b5050509392505050565b600082601f830112614e6157614e60614c6f565b5b8135614e71848260208601614de3565b91505092915050565b60008060008060808587031215614e9457614e93614909565b5b6000614ea28782880161495c565b945050602085013567ffffffffffffffff811115614ec357614ec261490e565b5b614ecf87828801614d89565b935050604085013567ffffffffffffffff811115614ef057614eef61490e565b5b614efc87828801614e4c565b9250506060614f0d87828801614988565b91505092959194509250565b6000602082019050614f2e6000830184614a40565b92915050565b600080600060608486031215614f4d57614f4c614909565b5b6000614f5b86828701614988565b9350506020614f6c8682870161495c565b9250506040614f7d86828701614988565b9150509250925092565b614f90816149dd565b8114614f9b57600080fd5b50565b600081359050614fad81614f87565b92915050565b600080fd5b600067ffffffffffffffff821115614fd357614fd2614c74565b5b614fdc8261485f565b9050602081019050919050565b82818337600083830152505050565b600061500b61500684614fb8565b614cd4565b90508281526020810184848401111561502757615026614fb3565b5b615032848285614fe9565b509392505050565b600082601f83011261504f5761504e614c6f565b5b813561505f848260208601614ff8565b91505092915050565b60008060008060008060008060006101208a8c03121561508b5761508a614909565b5b60006150998c828d01614988565b99505060206150aa8c828d0161495c565b98505060406150bb8c828d01614988565b97505060606150cc8c828d01614f9e565b96505060806150dd8c828d0161495c565b95505060a06150ee8c828d01614f9e565b94505060c06150ff8c828d01614988565b93505060e08a013567ffffffffffffffff8111156151205761511f61490e565b5b61512c8c828d0161503a565b9250506101008a013567ffffffffffffffff81111561514e5761514d61490e565b5b61515a8c828d0161503a565b9150509295985092959850929598565b6000806040838503121561518157615180614909565b5b600061518f8582860161495c565b92505060206151a08582860161495c565b9150509250929050565b6000602082840312156151c0576151bf614909565b5b600082013567ffffffffffffffff8111156151de576151dd61490e565b5b6151ea84828501614e4c565b91505092915050565b7f4e487b7100000000000000000000000000000000000000000000000000000000600052602260045260246000fd5b6000600282049050600182168061523a57607f821691505b60208210810361524d5761524c6151f3565b5b50919050565b7f4e487b7100000000000000000000000000000000000000000000000000000000600052601160045260246000fd5b600061528d826148cb565b9150615298836148cb565b9250827fffffffffffffffffffffffffffffffffffffffffffffffffffffffffffffffff038211156152cd576152cc615253565b5b828201905092915050565b60006152e3826148cb565b91506152ee836148cb565b9250817fffffffffffffffffffffffffffffffffffffffffffffffffffffffffffffffff048311821515161561532757615326615253565b5b828202905092915050565b7f4e487b7100000000000000000000000000000000000000000000000000000000600052601260045260246000fd5b600061536c826148cb565b9150615377836148cb565b92508261538757615386615332565b5b828204905092915050565b7f52756e6e696e67204c6f77206f6e20546f6b656e730000000000000000000000600082015250565b60006153c860158361481b565b91506153d382615392565b602082019050919050565b600060208201905081810360008301526153f7816153bb565b9050919050565b60006040820190506154136000830185614a40565b61542060208301846148d5565b9392505050565b60008151905061543681614f87565b92915050565b60006020828403121561545257615451614909565b5b600061546084828501615427565b91505092915050565b6000615474826148cb565b91507fffffffffffffffffffffffffffffffffffffffffffffffffffffffffffffffff82036154a6576154a5615253565b5b600182019050919050565b7f53656c6c657220686173206e6f7420656e6f75676820616d6f756e74206f662060008201527f546f6b656e730000000000000000000000000000000000000000000000000000602082015250565b600061550d60268361481b565b9150615518826154b1565b604082019050919050565b6000602082019050818103600083015261553c81615500565b9050919050565b7f4e487b7100000000000000000000000000000000000000000000000000000000600052603260045260246000fd5b60008160011c9050919050565b6000808291508390505b60018511156155c9578086048111156155a5576155a4615253565b5b60018516156155b45780820291505b80810290506155c285615572565b9450615589565b94509492505050565b6000826155e2576001905061569e565b816155f0576000905061569e565b816001811461560657600281146156105761563f565b600191505061569e565b60ff84111561562257615621615253565b5b8360020a91508482111561563957615638615253565b5b5061569e565b5060208310610133831016604e8410600b84101617156156745782820a90508381111561566f5761566e615253565b5b61569e565b615681848484600161557f565b9250905081840481111561569857615697615253565b5b81810290505b9392505050565b60006156b0826148cb565b91506156bb83614c0b565b92506156e87fffffffffffffffffffffffffffffffffffffffffffffffffffffffffffffffff84846155d2565b905092915050565b7f45524332303a2064656372656173656420616c6c6f77616e63652062656c6f7760008201527f207a65726f000000000000000000000000000000000000000000000000000000602082015250565b600061574c60258361481b565b9150615757826156f0565b604082019050919050565b6000602082019050818103600083015261577b8161573f565b9050919050565b7f496e73756666696369656e742062616c616e6365000000000000000000000000600082015250565b60006157b860148361481b565b91506157c382615782565b602082019050919050565b600060208201905081810360008301526157e7816157ab565b9050919050565b60006157f9826148cb565b9150615804836148cb565b92508282101561581757615816615253565b5b828203905092915050565b7f45524332303a20617070726f76652066726f6d20746865207a65726f2061646460008201527f7265737300000000000000000000000000000000000000000000000000000000602082015250565b600061587e60248361481b565b915061588982615822565b604082019050919050565b600060208201905081810360008301526158ad81615871565b9050919050565b7f45524332303a20617070726f766520746f20746865207a65726f20616464726560008201527f7373000000000000000000000000000000000000000000000000000000000000602082015250565b600061591060228361481b565b915061591b826158b4565b604082019050919050565b6000602082019050818103600083015261593f81615903565b9050919050565b7f45524332303a20696e73756666696369656e7420616c6c6f77616e6365000000600082015250565b600061597c601d8361481b565b915061598782615946565b602082019050919050565b600060208201905081810360008301526159ab8161596f565b9050919050565b7f45524332303a207472616e736665722066726f6d20746865207a65726f20616460008201527f6472657373000000000000000000000000000000000000000000000000000000602082015250565b6000615a0e60258361481b565b9150615a19826159b2565b604082019050919050565b60006020820190508181036000830152615a3d81615a01565b9050919050565b7f45524332303a207472616e7366657220746f20746865207a65726f206164647260008201527f6573730000000000000000000000000000000000000000000000000000000000602082015250565b6000615aa060238361481b565b9150615aab82615a44565b604082019050919050565b60006020820190508181036000830152615acf81615a93565b9050919050565b7f45524332303a207472616e7366657220616d6f756e742065786365656473206260008201527f616c616e63650000000000000000000000000000000000000000000000000000602082015250565b6000615b3260268361481b565b9150615b3d82615ad6565b604082019050919050565b60006020820190508181036000830152615b6181615b25565b9050919050565b7f45524332303a206275726e2066726f6d20746865207a65726f2061646472657360008201527f7300000000000000000000000000000000000000000000000000000000000000602082015250565b6000615bc460218361481b565b9150615bcf82615b68565b604082019050919050565b60006020820190508181036000830152615bf381615bb7565b9050919050565b7f45524332303a206275726e20616d6f756e7420657863656564732062616c616e60008201527f6365000000000000000000000000000000000000000000000000000000000000602082015250565b6000615c5660228361481b565b9150615c6182615bfa565b604082019050919050565b60006020820190508181036000830152615c8581615c49565b9050919050565b7f45524332303a206d696e7420746f20746865207a65726f206164647265737300600082015250565b6000615cc2601f8361481b565b9150615ccd82615c8c565b602082019050919050565b60006020820190508181036000830152615cf181615cb5565b905091905056fea26469706673582212208a1a46c11f958951d497ee35f80241f25fbbbb018f2aa8a18d4ce26f027027d264736f6c634300080d003368747470733a2f2f7265732e636c6f7564696e6172792e636f6d2f73616d62697473616e6b616c702f696d6167652f75706c6f61642f76313639323532383935302f6663636f696e5f656d757a75362e706e67",
  "immutableReferences": {},
  "source": "// SPDX-License-Identifier: MIT\npragma solidity ^0.8.0;\n\n// Import the necessary ERC-20 interface\nimport \"@openzeppelin/contracts/token/ERC20/ERC20.sol\";\nimport \"@openzeppelin/contracts/token/ERC20/IERC20.sol\";\n\n// Inherit from the ERC-20 contract\ncontract FlipCoin is ERC20 {\n\n    uint256 public purchase_rewards;\n    uint256 public purchase_referrals;\n    uint256 public purchase_socialMedia;\n    uint256 public staking;\n    uint256 public partners;\n    uint256 public currentOrder;\n    uint256 public expireTime = 300;\n    uint256 public socialMediaReward = 5;\n    uint256 public referralReward = 5;\n    uint256 public currentMintAmount = 0;\n    address public ownerAddress;\n    address public tokenAddress;\n    string tokenUrl = \"https://res.cloudinary.com/sambitsankalp/image/upload/v1692528950/fccoin_emuzu6.png\";\n\n    enum OrderStatus\n    {\n        Confirmed,\n        Cancelled,\n        NotReturned,\n        Expired\n    }\n    enum OrderType\n    {\n        Purchase,\n        Airdrop,\n        SocialPost,\n        Stake\n    }\n    struct Order\n    {\n        uint256 id;\n        uint256 lastReturnDate;\n        uint256 flipCoin;\n        address userAccount;\n        address referrer;\n        bool isReferred;\n        string productName;\n        string imgUrl;\n        OrderStatus status;\n        OrderType orderType;\n    }\n\n    mapping(uint256=>Order) public orders;\n    mapping(address=>uint256) public expectedBalance;\n    mapping(uint256=>uint256) public totalReferrals;\n\n    Order[] public orderHistory;\n\n    constructor(string memory name, string memory symbol) ERC20(name, symbol) {\n        _mint(address(this), 10000000 * 10 ** decimals());\n        currentMintAmount = 10000000;\n        ownerAddress = msg.sender;\n        tokenAddress = address(this);\n    }\n    function distributeToPartners(address[] memory sellers) external \n    {\n        for(uint256 i=0;i<sellers.length;i++)\n        {\n            IERC20 token = IERC20(tokenAddress);\n            token.transfer(sellers[i], (currentMintAmount * 5)/100);\n        }\n    }\n    function removeSeller(address seller) external \n    {\n        _burn(seller, balanceOf(seller));\n    }\n    function mint(uint256 amount) external \n    {\n        require(ownerAddress == msg.sender);\n        _mint(address(this), amount * 10 ** decimals());\n        currentMintAmount = amount;\n    }\n    function depositCoint() external {\n        for(uint256 i=0;i<currentOrder;i++)\n        {\n            if(orders[i].status == OrderStatus.Confirmed && block.timestamp >= orders[i].lastReturnDate)\n            {\n                if(orders[i].orderType == OrderType.Airdrop)\n                {\n                    require((totalSupply() * 5)/100 > partners, \"Running Low on Tokens\");\n                    partners += orders[i].flipCoin;\n                }\n                else if(orders[i].orderType == OrderType.SocialPost)\n                {\n                    require((totalSupply() * 5)/100 > purchase_socialMedia, \"Running Low on Tokens\");\n                    purchase_socialMedia += orders[i].flipCoin;\n                }\n                else if(orders[i].orderType == OrderType.Stake)\n                {\n                    require((totalSupply() * 15)/100 > staking, \"Running Low on Tokens\");\n                    staking += orders[i].flipCoin;\n                }\n                else \n                {\n                    require((totalSupply() * 40)/100 > purchase_rewards, \"Running Low on Tokens\");\n                    purchase_rewards += orders[i].flipCoin;\n                }\n                orders[i].status = OrderStatus.NotReturned;\n                IERC20 token = IERC20(tokenAddress);\n                token.transfer(orders[i].userAccount, orders[i].flipCoin);\n                expectedBalance[orders[i].userAccount] += orders[i].flipCoin;\n                orderHistory.push(orders[i]);\n                if(orders[i].isReferred)\n                {\n                    require((totalSupply() * 15)/100 > purchase_referrals, \"Running Low on Tokens\");\n                    IERC20 tokenRef = IERC20(tokenAddress);\n                    tokenRef.transfer(orders[i].referrer, referralReward);\n                    expectedBalance[orders[i].referrer] += referralReward;\n                    purchase_referrals += referralReward;\n                }\n            }\n\n        }\n    }\n    function deductCoin() payable external {\n        for(uint256 i=0;i<currentOrder;i++)\n        {\n            if(orders[i].status == OrderStatus.NotReturned && block.timestamp >= orders[i].lastReturnDate + expireTime)\n            {\n                orders[i].status = OrderStatus.Expired;\n                if(balanceOf(orders[i].userAccount) > (expectedBalance[orders[i].userAccount] - orders[i].flipCoin))\n                {\n                    uint256 extraAmount = balanceOf(orders[i].userAccount) - (expectedBalance[orders[i].userAccount] - orders[i].flipCoin);\n                    _burn(orders[i].userAccount, extraAmount);\n                    orders[i].flipCoin = extraAmount;\n                    orders[i].imgUrl = tokenUrl;\n                    orders[i].lastReturnDate = orders[i].lastReturnDate + expireTime;\n                    orderHistory.push(orders[i]);\n                }\n                expectedBalance[orders[i].userAccount] -= orders[i].flipCoin;\n                if(orders[i].isReferred)\n                {\n                    if(balanceOf(orders[i].referrer) > (expectedBalance[orders[i].referrer] - referralReward))\n                    {\n                        uint256 extraAmount = balanceOf(orders[i].referrer) - (expectedBalance[orders[i].referrer] - referralReward);\n                        _burn(orders[i].referrer, extraAmount);\n                    }\n                    expectedBalance[orders[i].referrer] -= referralReward;\n                } \n            }\n        }\n    }\n    function purchase(uint256 productPrice,address userAccount, uint256 lastReturnDate,bool isReferred, address referrer, bool isRedeem, uint256 redeemAmount, string memory productName, string memory imgUrl)external {\n        Order memory newOrder;\n        newOrder.id = currentOrder;\n        if(productPrice/50 >= 100){\n        newOrder.flipCoin = 100;\n        }\n        else{\n            newOrder.flipCoin = productPrice / 50;\n        }\n        newOrder.userAccount = userAccount;\n        newOrder.status = OrderStatus.Confirmed;\n        newOrder.lastReturnDate = lastReturnDate;\n        newOrder.orderType = OrderType.Purchase;\n        newOrder.productName = productName;\n        newOrder.imgUrl = imgUrl;\n        if(isReferred)\n        {\n            newOrder.isReferred = true;\n            newOrder.referrer = referrer;\n        }\n        else \n        {\n            newOrder.isReferred = false;\n        }\n        orders[currentOrder] = newOrder;\n        currentOrder++;\n        if(isRedeem)\n        {\n            redeem(userAccount, redeemAmount);\n        }\n        \n    }\n    function disperseCoin(address seller, uint256[] memory amount, address[] memory userAccount, uint256 totalAmount) external {\n        require(balanceOf(seller) >= totalAmount, \"Seller has not enough amount of Tokens\");\n        require((totalSupply() * 5)/100 > partners, \"Running Low on Tokens\");\n        for(uint256 i=0;i<amount.length;i++)\n        {\n            Order memory newOrder;\n            newOrder.id = currentOrder;\n            newOrder.flipCoin = amount[0];\n            newOrder.isReferred = false;\n            newOrder.lastReturnDate = block.timestamp;\n            newOrder.status = OrderStatus.Confirmed;\n            newOrder.userAccount = userAccount[i];\n            newOrder.orderType = OrderType.Airdrop;\n            newOrder.productName = \"AirDrop\";\n            newOrder.imgUrl = tokenUrl;\n            orders[currentOrder] = newOrder;\n            _burn(seller, amount[i]);\n            currentOrder++;\n        }\n    }\n    function cancleOrder(uint256 orderId) external \n    {\n        require(orders[orderId].lastReturnDate > block.timestamp);\n        orders[orderId].status = OrderStatus.Cancelled;\n    }\n    function socialMediaPost(address userAccount) external \n    {\n        Order memory newOrder;\n        newOrder.id = currentOrder;\n        newOrder.flipCoin = socialMediaReward;\n        newOrder.isReferred = false;\n        newOrder.lastReturnDate = block.timestamp;\n        newOrder.status = OrderStatus.Confirmed;\n        newOrder.userAccount = userAccount;\n        newOrder.orderType = OrderType.SocialPost;\n        orders[currentOrder] = newOrder;\n        newOrder.productName = \"Social Media Interaction\";\n        newOrder.imgUrl = tokenUrl;\n        currentOrder++;\n    }\n    function redeem(address userAccount, uint256 amount) internal  \n    {\n        require(balanceOf(userAccount) >= amount && amount > 0, \"Insufficient balance\");\n        Order memory newOrder;\n        newOrder.id = currentOrder;\n        newOrder.flipCoin = amount;\n        newOrder.isReferred = false;\n        newOrder.lastReturnDate = block.timestamp;\n        newOrder.status = OrderStatus.Expired;\n        newOrder.userAccount = userAccount;\n        newOrder.orderType = OrderType.Purchase;\n        newOrder.productName = \"Redeem\";\n        newOrder.imgUrl = tokenUrl;\n        orderHistory.push(newOrder);\n        orders[currentOrder] = newOrder;\n        currentOrder++;\n        _burn(userAccount, amount);\n    }\n    function stakeTokens(uint256 amount, address userAccount, uint256 interval) external {\n        require(amount >0 && amount <= balanceOf(userAccount), \"Insufficient balance\");\n        _transfer(userAccount, address(this) ,amount);\n        Order memory newOrder;\n        newOrder.id = currentOrder;\n        newOrder.flipCoin = amount + amount/10;\n        newOrder.isReferred = false;\n        newOrder.lastReturnDate = block.timestamp + interval;\n        newOrder.status = OrderStatus.Confirmed;\n        newOrder.orderType = OrderType.Stake;\n        newOrder.userAccount = userAccount;\n        newOrder.productName = \"Stake\";\n        newOrder.imgUrl = tokenUrl;\n        orders[currentOrder] = newOrder;\n        currentOrder++;\n        Order memory newOrder2;\n        newOrder2.id = currentOrder;\n        newOrder2.flipCoin = amount;\n        newOrder2.isReferred = false;\n        newOrder2.lastReturnDate = block.timestamp;\n        newOrder2.status = OrderStatus.Expired;\n        newOrder2.orderType = OrderType.Stake;\n        newOrder2.userAccount = userAccount;\n        newOrder2.productName = \"Stake\";\n        newOrder2.imgUrl = tokenUrl;\n        orderHistory.push(newOrder2);\n        orders[currentOrder] = newOrder;\n        currentOrder++;\n    }\n}\n",
  "sourcePath": "/home/subrat0018/Desktop/project-grid/truffle/contracts/FlipCoin.sol",
  "compiler": {
    "name": "solc",
    "version": "0.8.13+commit.abaa5c0e.Emscripten.clang"
  },
  "schemaVersion": "3.4.15",
  "updatedAt": "2023-08-20T14:15:36.138Z",
  "networkType": "ethereum",
  "devdoc": {
    "kind": "dev",
    "methods": {
      "allowance(address,address)": {
        "details": "See {IERC20-allowance}."
      },
      "approve(address,uint256)": {
        "details": "See {IERC20-approve}. NOTE: If `amount` is the maximum `uint256`, the allowance is not updated on `transferFrom`. This is semantically equivalent to an infinite approval. Requirements: - `spender` cannot be the zero address."
      },
      "balanceOf(address)": {
        "details": "See {IERC20-balanceOf}."
      },
      "decimals()": {
        "details": "Returns the number of decimals used to get its user representation. For example, if `decimals` equals `2`, a balance of `505` tokens should be displayed to a user as `5.05` (`505 / 10 ** 2`). Tokens usually opt for a value of 18, imitating the relationship between Ether and Wei. This is the default value returned by this function, unless it's overridden. NOTE: This information is only used for _display_ purposes: it in no way affects any of the arithmetic of the contract, including {IERC20-balanceOf} and {IERC20-transfer}."
      },
      "decreaseAllowance(address,uint256)": {
        "details": "Atomically decreases the allowance granted to `spender` by the caller. This is an alternative to {approve} that can be used as a mitigation for problems described in {IERC20-approve}. Emits an {Approval} event indicating the updated allowance. Requirements: - `spender` cannot be the zero address. - `spender` must have allowance for the caller of at least `subtractedValue`."
      },
      "increaseAllowance(address,uint256)": {
        "details": "Atomically increases the allowance granted to `spender` by the caller. This is an alternative to {approve} that can be used as a mitigation for problems described in {IERC20-approve}. Emits an {Approval} event indicating the updated allowance. Requirements: - `spender` cannot be the zero address."
      },
      "name()": {
        "details": "Returns the name of the token."
      },
      "symbol()": {
        "details": "Returns the symbol of the token, usually a shorter version of the name."
      },
      "totalSupply()": {
        "details": "See {IERC20-totalSupply}."
      },
      "transfer(address,uint256)": {
        "details": "See {IERC20-transfer}. Requirements: - `to` cannot be the zero address. - the caller must have a balance of at least `amount`."
      },
      "transferFrom(address,address,uint256)": {
        "details": "See {IERC20-transferFrom}. Emits an {Approval} event indicating the updated allowance. This is not required by the EIP. See the note at the beginning of {ERC20}. NOTE: Does not update the allowance if the current allowance is the maximum `uint256`. Requirements: - `from` and `to` cannot be the zero address. - `from` must have a balance of at least `amount`. - the caller must have allowance for ``from``'s tokens of at least `amount`."
      }
    },
    "version": 1
  },
  "userdoc": {
    "kind": "user",
    "methods": {},
    "version": 1
  }
}