{
  "contractName": "FlipCoin",
  "abi": [
    {
      "inputs": [
        {
          "internalType": "string",
          "name": "name",
          "type": "string"
        },
        {
          "internalType": "string",
          "name": "symbol",
          "type": "string"
        }
      ],
      "stateMutability": "nonpayable",
      "type": "constructor"
    },
    {
      "anonymous": false,
      "inputs": [
        {
          "indexed": true,
          "internalType": "address",
          "name": "owner",
          "type": "address"
        },
        {
          "indexed": true,
          "internalType": "address",
          "name": "spender",
          "type": "address"
        },
        {
          "indexed": false,
          "internalType": "uint256",
          "name": "value",
          "type": "uint256"
        }
      ],
      "name": "Approval",
      "type": "event"
    },
    {
      "anonymous": false,
      "inputs": [
        {
          "indexed": true,
          "internalType": "address",
          "name": "from",
          "type": "address"
        },
        {
          "indexed": true,
          "internalType": "address",
          "name": "to",
          "type": "address"
        },
        {
          "indexed": false,
          "internalType": "uint256",
          "name": "value",
          "type": "uint256"
        }
      ],
      "name": "Transfer",
      "type": "event"
    },
    {
      "inputs": [
        {
          "internalType": "address",
          "name": "owner",
          "type": "address"
        },
        {
          "internalType": "address",
          "name": "spender",
          "type": "address"
        }
      ],
      "name": "allowance",
      "outputs": [
        {
          "internalType": "uint256",
          "name": "",
          "type": "uint256"
        }
      ],
      "stateMutability": "view",
      "type": "function",
      "constant": true
    },
    {
      "inputs": [
        {
          "internalType": "address",
          "name": "spender",
          "type": "address"
        },
        {
          "internalType": "uint256",
          "name": "amount",
          "type": "uint256"
        }
      ],
      "name": "approve",
      "outputs": [
        {
          "internalType": "bool",
          "name": "",
          "type": "bool"
        }
      ],
      "stateMutability": "nonpayable",
      "type": "function"
    },
    {
      "inputs": [
        {
          "internalType": "address",
          "name": "account",
          "type": "address"
        }
      ],
      "name": "balanceOf",
      "outputs": [
        {
          "internalType": "uint256",
          "name": "",
          "type": "uint256"
        }
      ],
      "stateMutability": "view",
      "type": "function",
      "constant": true
    },
    {
      "inputs": [],
      "name": "currentMintAmount",
      "outputs": [
        {
          "internalType": "uint256",
          "name": "",
          "type": "uint256"
        }
      ],
      "stateMutability": "view",
      "type": "function",
      "constant": true
    },
    {
      "inputs": [],
      "name": "currentOrder",
      "outputs": [
        {
          "internalType": "uint256",
          "name": "",
          "type": "uint256"
        }
      ],
      "stateMutability": "view",
      "type": "function",
      "constant": true
    },
    {
      "inputs": [],
      "name": "decimals",
      "outputs": [
        {
          "internalType": "uint8",
          "name": "",
          "type": "uint8"
        }
      ],
      "stateMutability": "view",
      "type": "function",
      "constant": true
    },
    {
      "inputs": [
        {
          "internalType": "address",
          "name": "spender",
          "type": "address"
        },
        {
          "internalType": "uint256",
          "name": "subtractedValue",
          "type": "uint256"
        }
      ],
      "name": "decreaseAllowance",
      "outputs": [
        {
          "internalType": "bool",
          "name": "",
          "type": "bool"
        }
      ],
      "stateMutability": "nonpayable",
      "type": "function"
    },
    {
      "inputs": [
        {
          "internalType": "address",
          "name": "",
          "type": "address"
        }
      ],
      "name": "expectedBalance",
      "outputs": [
        {
          "internalType": "uint256",
          "name": "",
          "type": "uint256"
        }
      ],
      "stateMutability": "view",
      "type": "function",
      "constant": true
    },
    {
      "inputs": [],
      "name": "expireTime",
      "outputs": [
        {
          "internalType": "uint256",
          "name": "",
          "type": "uint256"
        }
      ],
      "stateMutability": "view",
      "type": "function",
      "constant": true
    },
    {
      "inputs": [
        {
          "internalType": "address",
          "name": "spender",
          "type": "address"
        },
        {
          "internalType": "uint256",
          "name": "addedValue",
          "type": "uint256"
        }
      ],
      "name": "increaseAllowance",
      "outputs": [
        {
          "internalType": "bool",
          "name": "",
          "type": "bool"
        }
      ],
      "stateMutability": "nonpayable",
      "type": "function"
    },
    {
      "inputs": [],
      "name": "name",
      "outputs": [
        {
          "internalType": "string",
          "name": "",
          "type": "string"
        }
      ],
      "stateMutability": "view",
      "type": "function",
      "constant": true
    },
    {
      "inputs": [
        {
          "internalType": "uint256",
          "name": "",
          "type": "uint256"
        }
      ],
      "name": "orders",
      "outputs": [
        {
          "internalType": "uint256",
          "name": "id",
          "type": "uint256"
        },
        {
          "internalType": "uint256",
          "name": "lastReturnDate",
          "type": "uint256"
        },
        {
          "internalType": "uint256",
          "name": "flipCoin",
          "type": "uint256"
        },
        {
          "internalType": "address",
          "name": "userAccount",
          "type": "address"
        },
        {
          "internalType": "address",
          "name": "referrer",
          "type": "address"
        },
        {
          "internalType": "bool",
          "name": "isReferred",
          "type": "bool"
        },
        {
          "internalType": "enum FlipCoin.OrderStatus",
          "name": "status",
          "type": "uint8"
        },
        {
          "internalType": "enum FlipCoin.OrderType",
          "name": "orderType",
          "type": "uint8"
        }
      ],
      "stateMutability": "view",
      "type": "function",
      "constant": true
    },
    {
      "inputs": [],
      "name": "ownerAddress",
      "outputs": [
        {
          "internalType": "address",
          "name": "",
          "type": "address"
        }
      ],
      "stateMutability": "view",
      "type": "function",
      "constant": true
    },
    {
      "inputs": [],
      "name": "partners",
      "outputs": [
        {
          "internalType": "uint256",
          "name": "",
          "type": "uint256"
        }
      ],
      "stateMutability": "view",
      "type": "function",
      "constant": true
    },
    {
      "inputs": [],
      "name": "purchase_referrals",
      "outputs": [
        {
          "internalType": "uint256",
          "name": "",
          "type": "uint256"
        }
      ],
      "stateMutability": "view",
      "type": "function",
      "constant": true
    },
    {
      "inputs": [],
      "name": "purchase_rewards",
      "outputs": [
        {
          "internalType": "uint256",
          "name": "",
          "type": "uint256"
        }
      ],
      "stateMutability": "view",
      "type": "function",
      "constant": true
    },
    {
      "inputs": [],
      "name": "purchase_socialMedia",
      "outputs": [
        {
          "internalType": "uint256",
          "name": "",
          "type": "uint256"
        }
      ],
      "stateMutability": "view",
      "type": "function",
      "constant": true
    },
    {
      "inputs": [],
      "name": "referralReward",
      "outputs": [
        {
          "internalType": "uint256",
          "name": "",
          "type": "uint256"
        }
      ],
      "stateMutability": "view",
      "type": "function",
      "constant": true
    },
    {
      "inputs": [],
      "name": "socialMediaReward",
      "outputs": [
        {
          "internalType": "uint256",
          "name": "",
          "type": "uint256"
        }
      ],
      "stateMutability": "view",
      "type": "function",
      "constant": true
    },
    {
      "inputs": [],
      "name": "staking",
      "outputs": [
        {
          "internalType": "uint256",
          "name": "",
          "type": "uint256"
        }
      ],
      "stateMutability": "view",
      "type": "function",
      "constant": true
    },
    {
      "inputs": [],
      "name": "symbol",
      "outputs": [
        {
          "internalType": "string",
          "name": "",
          "type": "string"
        }
      ],
      "stateMutability": "view",
      "type": "function",
      "constant": true
    },
    {
      "inputs": [],
      "name": "tokenAddress",
      "outputs": [
        {
          "internalType": "address",
          "name": "",
          "type": "address"
        }
      ],
      "stateMutability": "view",
      "type": "function",
      "constant": true
    },
    {
      "inputs": [
        {
          "internalType": "uint256",
          "name": "",
          "type": "uint256"
        }
      ],
      "name": "totalReferrals",
      "outputs": [
        {
          "internalType": "uint256",
          "name": "",
          "type": "uint256"
        }
      ],
      "stateMutability": "view",
      "type": "function",
      "constant": true
    },
    {
      "inputs": [],
      "name": "totalSupply",
      "outputs": [
        {
          "internalType": "uint256",
          "name": "",
          "type": "uint256"
        }
      ],
      "stateMutability": "view",
      "type": "function",
      "constant": true
    },
    {
      "inputs": [
        {
          "internalType": "address",
          "name": "to",
          "type": "address"
        },
        {
          "internalType": "uint256",
          "name": "amount",
          "type": "uint256"
        }
      ],
      "name": "transfer",
      "outputs": [
        {
          "internalType": "bool",
          "name": "",
          "type": "bool"
        }
      ],
      "stateMutability": "nonpayable",
      "type": "function"
    },
    {
      "inputs": [
        {
          "internalType": "address",
          "name": "from",
          "type": "address"
        },
        {
          "internalType": "address",
          "name": "to",
          "type": "address"
        },
        {
          "internalType": "uint256",
          "name": "amount",
          "type": "uint256"
        }
      ],
      "name": "transferFrom",
      "outputs": [
        {
          "internalType": "bool",
          "name": "",
          "type": "bool"
        }
      ],
      "stateMutability": "nonpayable",
      "type": "function"
    },
    {
      "inputs": [
        {
          "internalType": "address[]",
          "name": "sellers",
          "type": "address[]"
        }
      ],
      "name": "distributeToPartners",
      "outputs": [],
      "stateMutability": "nonpayable",
      "type": "function"
    },
    {
      "inputs": [
        {
          "internalType": "address",
          "name": "seller",
          "type": "address"
        }
      ],
      "name": "removeSeller",
      "outputs": [],
      "stateMutability": "nonpayable",
      "type": "function"
    },
    {
      "inputs": [
        {
          "internalType": "uint256",
          "name": "amount",
          "type": "uint256"
        }
      ],
      "name": "mint",
      "outputs": [],
      "stateMutability": "nonpayable",
      "type": "function"
    },
    {
      "inputs": [],
      "name": "depositCoint",
      "outputs": [],
      "stateMutability": "nonpayable",
      "type": "function"
    },
    {
      "inputs": [],
      "name": "deductCoin",
      "outputs": [],
      "stateMutability": "payable",
      "type": "function",
      "payable": true
    },
    {
      "inputs": [
        {
          "internalType": "uint256",
          "name": "productPrice",
          "type": "uint256"
        },
        {
          "internalType": "address",
          "name": "userAccount",
          "type": "address"
        },
        {
          "internalType": "uint256",
          "name": "lastReturnDate",
          "type": "uint256"
        },
        {
          "internalType": "bool",
          "name": "isReferred",
          "type": "bool"
        },
        {
          "internalType": "address",
          "name": "referrer",
          "type": "address"
        }
      ],
      "name": "purchase",
      "outputs": [],
      "stateMutability": "nonpayable",
      "type": "function"
    },
    {
      "inputs": [
        {
          "internalType": "address",
          "name": "seller",
          "type": "address"
        },
        {
          "internalType": "uint256",
          "name": "amount",
          "type": "uint256"
        },
        {
          "internalType": "address",
          "name": "userAccount",
          "type": "address"
        }
      ],
      "name": "disperseCoin",
      "outputs": [],
      "stateMutability": "nonpayable",
      "type": "function"
    },
    {
      "inputs": [
        {
          "internalType": "uint256",
          "name": "orderId",
          "type": "uint256"
        }
      ],
      "name": "cancleOrder",
      "outputs": [],
      "stateMutability": "nonpayable",
      "type": "function"
    },
    {
      "inputs": [
        {
          "internalType": "address",
          "name": "userAccount",
          "type": "address"
        }
      ],
      "name": "socialMediaPost",
      "outputs": [],
      "stateMutability": "nonpayable",
      "type": "function"
    },
    {
      "inputs": [
        {
          "internalType": "address",
          "name": "userAccount",
          "type": "address"
        },
        {
          "internalType": "uint256",
          "name": "amount",
          "type": "uint256"
        }
      ],
      "name": "redeem",
      "outputs": [],
      "stateMutability": "nonpayable",
      "type": "function"
    },
    {
      "inputs": [
        {
          "internalType": "uint256",
          "name": "amount",
          "type": "uint256"
        },
        {
          "internalType": "address",
          "name": "userAccount",
          "type": "address"
        },
        {
          "internalType": "uint256",
          "name": "interval",
          "type": "uint256"
        }
      ],
      "name": "stakeTokens",
      "outputs": [],
      "stateMutability": "nonpayable",
      "type": "function"
    }
  ],
  "bytecode": "0x6080604052603c600b556001600c556001600d556000600e553480156200002557600080fd5b5060405162004d5438038062004d5483398181016040528101906200004b919062000521565b8181816003908051906020019062000065929190620002d4565b5080600490805190602001906200007e929190620002d4565b505050620000c030620000966200015460201b60201c565b600a620000a4919062000740565b62989680620000b4919062000791565b6200015d60201b60201c565b62989680600e8190555033600f60006101000a81548173ffffffffffffffffffffffffffffffffffffffff021916908373ffffffffffffffffffffffffffffffffffffffff16021790555030601060006101000a81548173ffffffffffffffffffffffffffffffffffffffff021916908373ffffffffffffffffffffffffffffffffffffffff160217905550505062000964565b60006012905090565b600073ffffffffffffffffffffffffffffffffffffffff168273ffffffffffffffffffffffffffffffffffffffff1603620001cf576040517f08c379a0000000000000000000000000000000000000000000000000000000008152600401620001c69062000853565b60405180910390fd5b620001e360008383620002ca60201b60201c565b8060026000828254620001f7919062000875565b92505081905550806000808473ffffffffffffffffffffffffffffffffffffffff1673ffffffffffffffffffffffffffffffffffffffff168152602001908152602001600020600082825401925050819055508173ffffffffffffffffffffffffffffffffffffffff16600073ffffffffffffffffffffffffffffffffffffffff167fddf252ad1be2c89b69c2b068fc378daa952ba7f163c4a11628f55a4df523b3ef83604051620002aa9190620008e3565b60405180910390a3620002c660008383620002cf60201b60201c565b5050565b505050565b505050565b828054620002e2906200092f565b90600052602060002090601f01602090048101928262000306576000855562000352565b82601f106200032157805160ff191683800117855562000352565b8280016001018555821562000352579182015b828111156200035157825182559160200191906001019062000334565b5b50905062000361919062000365565b5090565b5b808211156200038057600081600090555060010162000366565b5090565b6000604051905090565b600080fd5b600080fd5b600080fd5b600080fd5b6000601f19601f8301169050919050565b7f4e487b7100000000000000000000000000000000000000000000000000000000600052604160045260246000fd5b620003ed82620003a2565b810181811067ffffffffffffffff821117156200040f576200040e620003b3565b5b80604052505050565b60006200042462000384565b9050620004328282620003e2565b919050565b600067ffffffffffffffff821115620004555762000454620003b3565b5b6200046082620003a2565b9050602081019050919050565b60005b838110156200048d57808201518184015260208101905062000470565b838111156200049d576000848401525b50505050565b6000620004ba620004b48462000437565b62000418565b905082815260208101848484011115620004d957620004d86200039d565b5b620004e68482856200046d565b509392505050565b600082601f83011262000506576200050562000398565b5b815162000518848260208601620004a3565b91505092915050565b600080604083850312156200053b576200053a6200038e565b5b600083015167ffffffffffffffff8111156200055c576200055b62000393565b5b6200056a85828601620004ee565b925050602083015167ffffffffffffffff8111156200058e576200058d62000393565b5b6200059c85828601620004ee565b9150509250929050565b7f4e487b7100000000000000000000000000000000000000000000000000000000600052601160045260246000fd5b60008160011c9050919050565b6000808291508390505b600185111562000634578086048111156200060c576200060b620005a6565b5b60018516156200061c5780820291505b80810290506200062c85620005d5565b9450620005ec565b94509492505050565b6000826200064f576001905062000722565b816200065f576000905062000722565b81600181146200067857600281146200068357620006b9565b600191505062000722565b60ff841115620006985762000697620005a6565b5b8360020a915084821115620006b257620006b1620005a6565b5b5062000722565b5060208310610133831016604e8410600b8410161715620006f35782820a905083811115620006ed57620006ec620005a6565b5b62000722565b620007028484846001620005e2565b925090508184048111156200071c576200071b620005a6565b5b81810290505b9392505050565b6000819050919050565b600060ff82169050919050565b60006200074d8262000729565b91506200075a8362000733565b9250620007897fffffffffffffffffffffffffffffffffffffffffffffffffffffffffffffffff84846200063d565b905092915050565b60006200079e8262000729565b9150620007ab8362000729565b9250817fffffffffffffffffffffffffffffffffffffffffffffffffffffffffffffffff0483118215151615620007e757620007e6620005a6565b5b828202905092915050565b600082825260208201905092915050565b7f45524332303a206d696e7420746f20746865207a65726f206164647265737300600082015250565b60006200083b601f83620007f2565b9150620008488262000803565b602082019050919050565b600060208201905081810360008301526200086e816200082c565b9050919050565b6000620008828262000729565b91506200088f8362000729565b9250827fffffffffffffffffffffffffffffffffffffffffffffffffffffffffffffffff03821115620008c757620008c6620005a6565b5b828201905092915050565b620008dd8162000729565b82525050565b6000602082019050620008fa6000830184620008d2565b92915050565b7f4e487b7100000000000000000000000000000000000000000000000000000000600052602260045260246000fd5b600060028204905060018216806200094857607f821691505b6020821081036200095e576200095d62000900565b5b50919050565b6143e080620009746000396000f3fe60806040526004361061021a5760003560e01c806395d89b4111610123578063b2a62064116100ab578063e3cc16e11161006f578063e3cc16e114610808578063f406cb8a14610812578063f64cccea1461083b578063f95c0df314610878578063ffc5f9e7146108a15761021a565b8063b2a6206414610721578063b64dac4d1461074c578063b9b85b4b14610777578063cec534d6146107a2578063dd62ed3e146107cb5761021a565b8063a0712d68116100f2578063a0712d6814610611578063a457c2d71461063a578063a4afe66b14610677578063a85c38ef146106a0578063a9059cbb146106e45761021a565b806395d89b41146105675780639a69ca9d146105925780639d76ea58146105bb5780639e28229d146105e65761021a565b8063313ce567116101a657806370a082311161017557806370a082311461049457806377937c21146104d15780637cb9cf54146104e857806381add559146105115780638f84aa091461053c5761021a565b8063313ce567146103d657806339509351146104015780634cf088d91461043e5780634d683674146104695761021a565b80631ca351b2116101ed5780631ca351b2146102dd5780631e9a69501461030857806323b872dd146103315780632ed8eaa61461036e578063310a1ee3146103ab5761021a565b806306fdde031461021f5780630860eeb21461024a578063095ea7b31461027557806318160ddd146102b2575b600080fd5b34801561022b57600080fd5b506102346108ca565b60405161024191906131d2565b60405180910390f35b34801561025657600080fd5b5061025f61095c565b60405161026c919061320d565b60405180910390f35b34801561028157600080fd5b5061029c600480360381019061029791906132c6565b610962565b6040516102a99190613321565b60405180910390f35b3480156102be57600080fd5b506102c7610985565b6040516102d4919061320d565b60405180910390f35b3480156102e957600080fd5b506102f261098f565b6040516102ff919061320d565b60405180910390f35b34801561031457600080fd5b5061032f600480360381019061032a91906132c6565b610995565b005b34801561033d57600080fd5b506103586004803603810190610353919061333c565b6109fa565b6040516103659190613321565b60405180910390f35b34801561037a57600080fd5b506103956004803603810190610390919061338f565b610a29565b6040516103a2919061320d565b60405180910390f35b3480156103b757600080fd5b506103c0610a41565b6040516103cd919061320d565b60405180910390f35b3480156103e257600080fd5b506103eb610a47565b6040516103f891906133d8565b60405180910390f35b34801561040d57600080fd5b50610428600480360381019061042391906132c6565b610a50565b6040516104359190613321565b60405180910390f35b34801561044a57600080fd5b50610453610a87565b604051610460919061320d565b60405180910390f35b34801561047557600080fd5b5061047e610a8d565b60405161048b919061320d565b60405180910390f35b3480156104a057600080fd5b506104bb60048036038101906104b691906133f3565b610a93565b6040516104c8919061320d565b60405180910390f35b3480156104dd57600080fd5b506104e6610adb565b005b3480156104f457600080fd5b5061050f600480360381019061050a91906133f3565b6112fb565b005b34801561051d57600080fd5b50610526611310565b604051610533919061320d565b60405180910390f35b34801561054857600080fd5b50610551611316565b60405161055e919061342f565b60405180910390f35b34801561057357600080fd5b5061057c61133c565b60405161058991906131d2565b60405180910390f35b34801561059e57600080fd5b506105b960048036038101906105b491906133f3565b6113ce565b005b3480156105c757600080fd5b506105d0611604565b6040516105dd919061342f565b60405180910390f35b3480156105f257600080fd5b506105fb61162a565b604051610608919061320d565b60405180910390f35b34801561061d57600080fd5b506106386004803603810190610633919061338f565b611630565b005b34801561064657600080fd5b50610661600480360381019061065c91906132c6565b6116bc565b60405161066e9190613321565b60405180910390f35b34801561068357600080fd5b5061069e60048036038101906106999190613476565b611733565b005b3480156106ac57600080fd5b506106c760048036038101906106c2919061338f565b6119f0565b6040516106db9897969594939291906135b0565b60405180910390f35b3480156106f057600080fd5b5061070b600480360381019061070691906132c6565b611a9f565b6040516107189190613321565b60405180910390f35b34801561072d57600080fd5b50610736611ac2565b604051610743919061320d565b60405180910390f35b34801561075857600080fd5b50610761611ac8565b60405161076e919061320d565b60405180910390f35b34801561078357600080fd5b5061078c611ace565b604051610799919061320d565b60405180910390f35b3480156107ae57600080fd5b506107c960048036038101906107c4919061362e565b611ad4565b005b3480156107d757600080fd5b506107f260048036038101906107ed9190613681565b611d8e565b6040516107ff919061320d565b60405180910390f35b610810611e15565b005b34801561081e57600080fd5b506108396004803603810190610834919061338f565b61242d565b005b34801561084757600080fd5b50610862600480360381019061085d91906133f3565b612491565b60405161086f919061320d565b60405180910390f35b34801561088457600080fd5b5061089f600480360381019061089a9190613809565b6124a9565b005b3480156108ad57600080fd5b506108c860048036038101906108c39190613852565b6125a7565b005b6060600380546108d9906138d4565b80601f0160208091040260200160405190810160405280929190818152602001828054610905906138d4565b80156109525780601f1061092757610100808354040283529160200191610952565b820191906000526020600020905b81548152906001019060200180831161093557829003601f168201915b5050505050905090565b60075481565b60008061096d6128a2565b905061097a8185856128aa565b600191505092915050565b6000600254905090565b600c5481565b8061099f83610a93565b101580156109ad5750600081115b6109ec576040517f08c379a00000000000000000000000000000000000000000000000000000000081526004016109e390613951565b60405180910390fd5b6109f68282612a73565b5050565b600080610a056128a2565b9050610a12858285612c40565b610a1d858585612ccc565b60019150509392505050565b60136020528060005260406000206000915090505481565b600b5481565b60006012905090565b600080610a5b6128a2565b9050610a7c818585610a6d8589611d8e565b610a7791906139a0565b6128aa565b600191505092915050565b60085481565b600d5481565b60008060008373ffffffffffffffffffffffffffffffffffffffff1673ffffffffffffffffffffffffffffffffffffffff168152602001908152602001600020549050919050565b60005b600a548110156112f85760006003811115610afc57610afb6134f1565b5b6011600083815260200190815260200160002060040160159054906101000a900460ff166003811115610b3257610b316134f1565b5b148015610b55575060116000828152602001908152602001600020600101544210155b156112e55760016003811115610b6e57610b6d6134f1565b5b6011600083815260200190815260200160002060040160169054906101000a900460ff166003811115610ba457610ba36134f1565b5b03610c4d5760095461271060056050610bbb610985565b610bc591906139f6565b610bcf91906139f6565b610bd99190613a7f565b11610c19576040517f08c379a0000000000000000000000000000000000000000000000000000000008152600401610c1090613afc565b60405180910390fd5b601160008281526020019081526020016000206002015460096000828254610c4191906139a0565b92505081905550610ee1565b60026003811115610c6157610c606134f1565b5b6011600083815260200190815260200160002060040160169054906101000a900460ff166003811115610c9757610c966134f1565b5b03610d405760075461271060056050610cae610985565b610cb891906139f6565b610cc291906139f6565b610ccc9190613a7f565b11610d0c576040517f08c379a0000000000000000000000000000000000000000000000000000000008152600401610d0390613afc565b60405180910390fd5b601160008281526020019081526020016000206002015460096000828254610d3491906139a0565b92505081905550610ee0565b600380811115610d5357610d526134f1565b5b6011600083815260200190815260200160002060040160169054906101000a900460ff166003811115610d8957610d886134f1565b5b03610e3257600854612710600f6050610da0610985565b610daa91906139f6565b610db491906139f6565b610dbe9190613a7f565b11610dfe576040517f08c379a0000000000000000000000000000000000000000000000000000000008152600401610df590613afc565b60405180910390fd5b601160008281526020019081526020016000206002015460086000828254610e2691906139a0565b92505081905550610edf565b600554620f42406028603c6050610e47610985565b610e5191906139f6565b610e5b91906139f6565b610e6591906139f6565b610e6f9190613a7f565b11610eaf576040517f08c379a0000000000000000000000000000000000000000000000000000000008152600401610ea690613afc565b60405180910390fd5b601160008281526020019081526020016000206002015460056000828254610ed791906139a0565b925050819055505b5b5b60026011600083815260200190815260200160002060040160156101000a81548160ff02191690836003811115610f1b57610f1a6134f1565b5b02179055506000601060009054906101000a900473ffffffffffffffffffffffffffffffffffffffff1690508073ffffffffffffffffffffffffffffffffffffffff1663a9059cbb6011600085815260200190815260200160002060030160009054906101000a900473ffffffffffffffffffffffffffffffffffffffff1660116000868152602001908152602001600020600201546040518363ffffffff1660e01b8152600401610fce929190613b1c565b6020604051808303816000875af1158015610fed573d6000803e3d6000fd5b505050506040513d601f19601f820116820180604052508101906110119190613b5a565b506011600083815260200190815260200160002060020154601260006011600086815260200190815260200160002060030160009054906101000a900473ffffffffffffffffffffffffffffffffffffffff1673ffffffffffffffffffffffffffffffffffffffff1673ffffffffffffffffffffffffffffffffffffffff16815260200190815260200160002060008282546110ad91906139a0565b925050819055506011600083815260200190815260200160002060040160149054906101000a900460ff16156112e357600654620f4240600f603c60506110f2610985565b6110fc91906139f6565b61110691906139f6565b61111091906139f6565b61111a9190613a7f565b1161115a576040517f08c379a000000000000000000000000000000000000000000000000000000000815260040161115190613afc565b60405180910390fd5b6000601060009054906101000a900473ffffffffffffffffffffffffffffffffffffffff1690508073ffffffffffffffffffffffffffffffffffffffff1663a9059cbb6011600086815260200190815260200160002060040160009054906101000a900473ffffffffffffffffffffffffffffffffffffffff16600d546040518363ffffffff1660e01b81526004016111f4929190613b1c565b6020604051808303816000875af1158015611213573d6000803e3d6000fd5b505050506040513d601f19601f820116820180604052508101906112379190613b5a565b50600d54601260006011600087815260200190815260200160002060040160009054906101000a900473ffffffffffffffffffffffffffffffffffffffff1673ffffffffffffffffffffffffffffffffffffffff1673ffffffffffffffffffffffffffffffffffffffff16815260200190815260200160002060008282546112bf91906139a0565b92505081905550600d54600660008282546112da91906139a0565b92505081905550505b505b80806112f090613b87565b915050610ade565b50565b61130d8161130883610a93565b612a73565b50565b60095481565b600f60009054906101000a900473ffffffffffffffffffffffffffffffffffffffff1681565b60606004805461134b906138d4565b80601f0160208091040260200160405190810160405280929190818152602001828054611377906138d4565b80156113c45780601f10611399576101008083540402835291602001916113c4565b820191906000526020600020905b8154815290600101906020018083116113a757829003601f168201915b5050505050905090565b6113d66130a2565b600a54816000018181525050600c5481604001818152505060008160a00190151590811515815250504281602001818152505060008160c001906003811115611422576114216134f1565b5b90816003811115611436576114356134f1565b5b8152505081816060019073ffffffffffffffffffffffffffffffffffffffff16908173ffffffffffffffffffffffffffffffffffffffff168152505060028160e00190600381111561148b5761148a6134f1565b5b9081600381111561149f5761149e6134f1565b5b815250508060116000600a54815260200190815260200160002060008201518160000155602082015181600101556040820151816002015560608201518160030160006101000a81548173ffffffffffffffffffffffffffffffffffffffff021916908373ffffffffffffffffffffffffffffffffffffffff16021790555060808201518160040160006101000a81548173ffffffffffffffffffffffffffffffffffffffff021916908373ffffffffffffffffffffffffffffffffffffffff16021790555060a08201518160040160146101000a81548160ff02191690831515021790555060c08201518160040160156101000a81548160ff021916908360038111156115b0576115af6134f1565b5b021790555060e08201518160040160166101000a81548160ff021916908360038111156115e0576115df6134f1565b5b0217905550905050600a60008154809291906115fb90613b87565b91905055505050565b601060009054906101000a900473ffffffffffffffffffffffffffffffffffffffff1681565b600a5481565b3373ffffffffffffffffffffffffffffffffffffffff16600f60009054906101000a900473ffffffffffffffffffffffffffffffffffffffff1673ffffffffffffffffffffffffffffffffffffffff161461168a57600080fd5b6116b230611696610a47565b600a6116a29190613d02565b836116ad91906139f6565b612f42565b80600e8190555050565b6000806116c76128a2565b905060006116d58286611d8e565b90508381101561171a576040517f08c379a000000000000000000000000000000000000000000000000000000000815260040161171190613dbf565b60405180910390fd5b61172782868684036128aa565b60019250505092915050565b61173b6130a2565b600a54816000018181525050606480876117559190613a7f565b1061176a576064816040018181525050611781565b6064866117779190613a7f565b8160400181815250505b84816060019073ffffffffffffffffffffffffffffffffffffffff16908173ffffffffffffffffffffffffffffffffffffffff168152505060008160c0019060038111156117d2576117d16134f1565b5b908160038111156117e6576117e56134f1565b5b815250508381602001818152505060008160e00190600381111561180d5761180c6134f1565b5b90816003811115611821576118206134f1565b5b8152505082156118795760018160a001901515908115158152505081816080019073ffffffffffffffffffffffffffffffffffffffff16908173ffffffffffffffffffffffffffffffffffffffff168152505061188b565b60008160a00190151590811515815250505b8060116000600a54815260200190815260200160002060008201518160000155602082015181600101556040820151816002015560608201518160030160006101000a81548173ffffffffffffffffffffffffffffffffffffffff021916908373ffffffffffffffffffffffffffffffffffffffff16021790555060808201518160040160006101000a81548173ffffffffffffffffffffffffffffffffffffffff021916908373ffffffffffffffffffffffffffffffffffffffff16021790555060a08201518160040160146101000a81548160ff02191690831515021790555060c08201518160040160156101000a81548160ff02191690836003811115611998576119976134f1565b5b021790555060e08201518160040160166101000a81548160ff021916908360038111156119c8576119c76134f1565b5b0217905550905050600a60008154809291906119e390613b87565b9190505550505050505050565b60116020528060005260406000206000915090508060000154908060010154908060020154908060030160009054906101000a900473ffffffffffffffffffffffffffffffffffffffff16908060040160009054906101000a900473ffffffffffffffffffffffffffffffffffffffff16908060040160149054906101000a900460ff16908060040160159054906101000a900460ff16908060040160169054906101000a900460ff16905088565b600080611aaa6128a2565b9050611ab7818585612ccc565b600191505092915050565b600e5481565b60055481565b60065481565b600083118015611aec5750611ae882610a93565b8311155b611b2b576040517f08c379a0000000000000000000000000000000000000000000000000000000008152600401611b2290613951565b60405180910390fd5b611b36823085612ccc565b611b3e6130a2565b600a54816000018181525050600a84611b579190613a7f565b84611b6291906139a0565b81604001818152505060008160a00190151590811515815250508142611b8891906139a0565b81602001818152505060008160c001906003811115611baa57611ba96134f1565b5b90816003811115611bbe57611bbd6134f1565b5b8152505060038160e001906003811115611bdb57611bda6134f1565b5b90816003811115611bef57611bee6134f1565b5b8152505082816060019073ffffffffffffffffffffffffffffffffffffffff16908173ffffffffffffffffffffffffffffffffffffffff16815250508060116000600a54815260200190815260200160002060008201518160000155602082015181600101556040820151816002015560608201518160030160006101000a81548173ffffffffffffffffffffffffffffffffffffffff021916908373ffffffffffffffffffffffffffffffffffffffff16021790555060808201518160040160006101000a81548173ffffffffffffffffffffffffffffffffffffffff021916908373ffffffffffffffffffffffffffffffffffffffff16021790555060a08201518160040160146101000a81548160ff02191690831515021790555060c08201518160040160156101000a81548160ff02191690836003811115611d3857611d376134f1565b5b021790555060e08201518160040160166101000a81548160ff02191690836003811115611d6857611d676134f1565b5b0217905550905050600a6000815480929190611d8390613b87565b919050555050505050565b6000600160008473ffffffffffffffffffffffffffffffffffffffff1673ffffffffffffffffffffffffffffffffffffffff16815260200190815260200160002060008373ffffffffffffffffffffffffffffffffffffffff1673ffffffffffffffffffffffffffffffffffffffff16815260200190815260200160002054905092915050565b60005b600a5481101561242a5760026003811115611e3657611e356134f1565b5b6011600083815260200190815260200160002060040160159054906101000a900460ff166003811115611e6c57611e6b6134f1565b5b148015611e9c5750600b546011600083815260200190815260200160002060010154611e9891906139a0565b4210155b15612417576011600082815260200190815260200160002060020154601260006011600085815260200190815260200160002060030160009054906101000a900473ffffffffffffffffffffffffffffffffffffffff1673ffffffffffffffffffffffffffffffffffffffff1673ffffffffffffffffffffffffffffffffffffffff16815260200190815260200160002054611f389190613ddf565b611f776011600084815260200190815260200160002060030160009054906101000a900473ffffffffffffffffffffffffffffffffffffffff16610a93565b11156120a35760006011600083815260200190815260200160002060020154601260006011600086815260200190815260200160002060030160009054906101000a900473ffffffffffffffffffffffffffffffffffffffff1673ffffffffffffffffffffffffffffffffffffffff1673ffffffffffffffffffffffffffffffffffffffff168152602001908152602001600020546120169190613ddf565b6120556011600085815260200190815260200160002060030160009054906101000a900473ffffffffffffffffffffffffffffffffffffffff16610a93565b61205f9190613ddf565b90506120a16011600084815260200190815260200160002060030160009054906101000a900473ffffffffffffffffffffffffffffffffffffffff1682612a73565b505b6011600082815260200190815260200160002060020154601260006011600085815260200190815260200160002060030160009054906101000a900473ffffffffffffffffffffffffffffffffffffffff1673ffffffffffffffffffffffffffffffffffffffff1673ffffffffffffffffffffffffffffffffffffffff168152602001908152602001600020600082825461213e9190613ddf565b925050819055506011600082815260200190815260200160002060040160149054906101000a900460ff16156123d757600d54601260006011600085815260200190815260200160002060040160009054906101000a900473ffffffffffffffffffffffffffffffffffffffff1673ffffffffffffffffffffffffffffffffffffffff1673ffffffffffffffffffffffffffffffffffffffff168152602001908152602001600020546121f19190613ddf565b6122306011600084815260200190815260200160002060040160009054906101000a900473ffffffffffffffffffffffffffffffffffffffff16610a93565b1115612348576000600d54601260006011600086815260200190815260200160002060040160009054906101000a900473ffffffffffffffffffffffffffffffffffffffff1673ffffffffffffffffffffffffffffffffffffffff1673ffffffffffffffffffffffffffffffffffffffff168152602001908152602001600020546122bb9190613ddf565b6122fa6011600085815260200190815260200160002060040160009054906101000a900473ffffffffffffffffffffffffffffffffffffffff16610a93565b6123049190613ddf565b90506123466011600084815260200190815260200160002060040160009054906101000a900473ffffffffffffffffffffffffffffffffffffffff1682612a73565b505b600d54601260006011600085815260200190815260200160002060040160009054906101000a900473ffffffffffffffffffffffffffffffffffffffff1673ffffffffffffffffffffffffffffffffffffffff1673ffffffffffffffffffffffffffffffffffffffff16815260200190815260200160002060008282546123cf9190613ddf565b925050819055505b60036011600083815260200190815260200160002060040160156101000a81548160ff02191690836003811115612411576124106134f1565b5b02179055505b808061242290613b87565b915050611e18565b50565b4260116000838152602001908152602001600020600101541161244f57600080fd5b60016011600083815260200190815260200160002060040160156101000a81548160ff02191690836003811115612489576124886134f1565b5b021790555050565b60126020528060005260406000206000915090505481565b60005b81518110156125a3576000601060009054906101000a900473ffffffffffffffffffffffffffffffffffffffff1690508073ffffffffffffffffffffffffffffffffffffffff1663a9059cbb84848151811061250b5761250a613e13565b5b602002602001015160646005600e5461252491906139f6565b61252e9190613a7f565b6040518363ffffffff1660e01b815260040161254b929190613b1c565b6020604051808303816000875af115801561256a573d6000803e3d6000fd5b505050506040513d601f19601f8201168201806040525081019061258e9190613b5a565b5050808061259b90613b87565b9150506124ac565b5050565b816125b184610a93565b10156125f2576040517f08c379a00000000000000000000000000000000000000000000000000000000081526004016125e990613eb4565b60405180910390fd5b60095461271060056050612604610985565b61260e91906139f6565b61261891906139f6565b6126229190613a7f565b11612662576040517f08c379a000000000000000000000000000000000000000000000000000000000815260040161265990613afc565b60405180910390fd5b61266a6130a2565b600a548160000181815250508281604001818152505060008160a00190151590811515815250504281602001818152505060008160c0019060038111156126b4576126b36134f1565b5b908160038111156126c8576126c76134f1565b5b8152505081816060019073ffffffffffffffffffffffffffffffffffffffff16908173ffffffffffffffffffffffffffffffffffffffff168152505060018160e00190600381111561271d5761271c6134f1565b5b90816003811115612731576127306134f1565b5b815250508060116000600a54815260200190815260200160002060008201518160000155602082015181600101556040820151816002015560608201518160030160006101000a81548173ffffffffffffffffffffffffffffffffffffffff021916908373ffffffffffffffffffffffffffffffffffffffff16021790555060808201518160040160006101000a81548173ffffffffffffffffffffffffffffffffffffffff021916908373ffffffffffffffffffffffffffffffffffffffff16021790555060a08201518160040160146101000a81548160ff02191690831515021790555060c08201518160040160156101000a81548160ff02191690836003811115612842576128416134f1565b5b021790555060e08201518160040160166101000a81548160ff02191690836003811115612872576128716134f1565b5b02179055509050506128848484612a73565b600a600081548092919061289790613b87565b919050555050505050565b600033905090565b600073ffffffffffffffffffffffffffffffffffffffff168373ffffffffffffffffffffffffffffffffffffffff1603612919576040517f08c379a000000000000000000000000000000000000000000000000000000000815260040161291090613f46565b60405180910390fd5b600073ffffffffffffffffffffffffffffffffffffffff168273ffffffffffffffffffffffffffffffffffffffff1603612988576040517f08c379a000000000000000000000000000000000000000000000000000000000815260040161297f90613fd8565b60405180910390fd5b80600160008573ffffffffffffffffffffffffffffffffffffffff1673ffffffffffffffffffffffffffffffffffffffff16815260200190815260200160002060008473ffffffffffffffffffffffffffffffffffffffff1673ffffffffffffffffffffffffffffffffffffffff168152602001908152602001600020819055508173ffffffffffffffffffffffffffffffffffffffff168373ffffffffffffffffffffffffffffffffffffffff167f8c5be1e5ebec7d5bd14f71427d1e84f3dd0314c0f7b2291e5b200ac8c7c3b92583604051612a66919061320d565b60405180910390a3505050565b600073ffffffffffffffffffffffffffffffffffffffff168273ffffffffffffffffffffffffffffffffffffffff1603612ae2576040517f08c379a0000000000000000000000000000000000000000000000000000000008152600401612ad99061406a565b60405180910390fd5b612aee82600083613098565b60008060008473ffffffffffffffffffffffffffffffffffffffff1673ffffffffffffffffffffffffffffffffffffffff16815260200190815260200160002054905081811015612b74576040517f08c379a0000000000000000000000000000000000000000000000000000000008152600401612b6b906140fc565b60405180910390fd5b8181036000808573ffffffffffffffffffffffffffffffffffffffff1673ffffffffffffffffffffffffffffffffffffffff1681526020019081526020016000208190555081600260008282540392505081905550600073ffffffffffffffffffffffffffffffffffffffff168373ffffffffffffffffffffffffffffffffffffffff167fddf252ad1be2c89b69c2b068fc378daa952ba7f163c4a11628f55a4df523b3ef84604051612c27919061320d565b60405180910390a3612c3b8360008461309d565b505050565b6000612c4c8484611d8e565b90507fffffffffffffffffffffffffffffffffffffffffffffffffffffffffffffffff8114612cc65781811015612cb8576040517f08c379a0000000000000000000000000000000000000000000000000000000008152600401612caf90614168565b60405180910390fd5b612cc584848484036128aa565b5b50505050565b600073ffffffffffffffffffffffffffffffffffffffff168373ffffffffffffffffffffffffffffffffffffffff1603612d3b576040517f08c379a0000000000000000000000000000000000000000000000000000000008152600401612d32906141fa565b60405180910390fd5b600073ffffffffffffffffffffffffffffffffffffffff168273ffffffffffffffffffffffffffffffffffffffff1603612daa576040517f08c379a0000000000000000000000000000000000000000000000000000000008152600401612da19061428c565b60405180910390fd5b612db5838383613098565b60008060008573ffffffffffffffffffffffffffffffffffffffff1673ffffffffffffffffffffffffffffffffffffffff16815260200190815260200160002054905081811015612e3b576040517f08c379a0000000000000000000000000000000000000000000000000000000008152600401612e329061431e565b60405180910390fd5b8181036000808673ffffffffffffffffffffffffffffffffffffffff1673ffffffffffffffffffffffffffffffffffffffff16815260200190815260200160002081905550816000808573ffffffffffffffffffffffffffffffffffffffff1673ffffffffffffffffffffffffffffffffffffffff168152602001908152602001600020600082825401925050819055508273ffffffffffffffffffffffffffffffffffffffff168473ffffffffffffffffffffffffffffffffffffffff167fddf252ad1be2c89b69c2b068fc378daa952ba7f163c4a11628f55a4df523b3ef84604051612f29919061320d565b60405180910390a3612f3c84848461309d565b50505050565b600073ffffffffffffffffffffffffffffffffffffffff168273ffffffffffffffffffffffffffffffffffffffff1603612fb1576040517f08c379a0000000000000000000000000000000000000000000000000000000008152600401612fa89061438a565b60405180910390fd5b612fbd60008383613098565b8060026000828254612fcf91906139a0565b92505081905550806000808473ffffffffffffffffffffffffffffffffffffffff1673ffffffffffffffffffffffffffffffffffffffff168152602001908152602001600020600082825401925050819055508173ffffffffffffffffffffffffffffffffffffffff16600073ffffffffffffffffffffffffffffffffffffffff167fddf252ad1be2c89b69c2b068fc378daa952ba7f163c4a11628f55a4df523b3ef83604051613080919061320d565b60405180910390a36130946000838361309d565b5050565b505050565b505050565b604051806101000160405280600081526020016000815260200160008152602001600073ffffffffffffffffffffffffffffffffffffffff168152602001600073ffffffffffffffffffffffffffffffffffffffff1681526020016000151581526020016000600381111561311a576131196134f1565b5b815260200160006003811115613133576131326134f1565b5b81525090565b600081519050919050565b600082825260208201905092915050565b60005b83811015613173578082015181840152602081019050613158565b83811115613182576000848401525b50505050565b6000601f19601f8301169050919050565b60006131a482613139565b6131ae8185613144565b93506131be818560208601613155565b6131c781613188565b840191505092915050565b600060208201905081810360008301526131ec8184613199565b905092915050565b6000819050919050565b613207816131f4565b82525050565b600060208201905061322260008301846131fe565b92915050565b6000604051905090565b600080fd5b600080fd5b600073ffffffffffffffffffffffffffffffffffffffff82169050919050565b60006132678261323c565b9050919050565b6132778161325c565b811461328257600080fd5b50565b6000813590506132948161326e565b92915050565b6132a3816131f4565b81146132ae57600080fd5b50565b6000813590506132c08161329a565b92915050565b600080604083850312156132dd576132dc613232565b5b60006132eb85828601613285565b92505060206132fc858286016132b1565b9150509250929050565b60008115159050919050565b61331b81613306565b82525050565b60006020820190506133366000830184613312565b92915050565b60008060006060848603121561335557613354613232565b5b600061336386828701613285565b935050602061337486828701613285565b9250506040613385868287016132b1565b9150509250925092565b6000602082840312156133a5576133a4613232565b5b60006133b3848285016132b1565b91505092915050565b600060ff82169050919050565b6133d2816133bc565b82525050565b60006020820190506133ed60008301846133c9565b92915050565b60006020828403121561340957613408613232565b5b600061341784828501613285565b91505092915050565b6134298161325c565b82525050565b60006020820190506134446000830184613420565b92915050565b61345381613306565b811461345e57600080fd5b50565b6000813590506134708161344a565b92915050565b600080600080600060a0868803121561349257613491613232565b5b60006134a0888289016132b1565b95505060206134b188828901613285565b94505060406134c2888289016132b1565b93505060606134d388828901613461565b92505060806134e488828901613285565b9150509295509295909350565b7f4e487b7100000000000000000000000000000000000000000000000000000000600052602160045260246000fd5b60048110613531576135306134f1565b5b50565b600081905061354282613520565b919050565b600061355282613534565b9050919050565b61356281613547565b82525050565b60048110613579576135786134f1565b5b50565b600081905061358a82613568565b919050565b600061359a8261357c565b9050919050565b6135aa8161358f565b82525050565b6000610100820190506135c6600083018b6131fe565b6135d3602083018a6131fe565b6135e060408301896131fe565b6135ed6060830188613420565b6135fa6080830187613420565b61360760a0830186613312565b61361460c0830185613559565b61362160e08301846135a1565b9998505050505050505050565b60008060006060848603121561364757613646613232565b5b6000613655868287016132b1565b935050602061366686828701613285565b9250506040613677868287016132b1565b9150509250925092565b6000806040838503121561369857613697613232565b5b60006136a685828601613285565b92505060206136b785828601613285565b9150509250929050565b600080fd5b7f4e487b7100000000000000000000000000000000000000000000000000000000600052604160045260246000fd5b6136fe82613188565b810181811067ffffffffffffffff8211171561371d5761371c6136c6565b5b80604052505050565b6000613730613228565b905061373c82826136f5565b919050565b600067ffffffffffffffff82111561375c5761375b6136c6565b5b602082029050602081019050919050565b600080fd5b600061378561378084613741565b613726565b905080838252602082019050602084028301858111156137a8576137a761376d565b5b835b818110156137d157806137bd8882613285565b8452602084019350506020810190506137aa565b5050509392505050565b600082601f8301126137f0576137ef6136c1565b5b8135613800848260208601613772565b91505092915050565b60006020828403121561381f5761381e613232565b5b600082013567ffffffffffffffff81111561383d5761383c613237565b5b613849848285016137db565b91505092915050565b60008060006060848603121561386b5761386a613232565b5b600061387986828701613285565b935050602061388a868287016132b1565b925050604061389b86828701613285565b9150509250925092565b7f4e487b7100000000000000000000000000000000000000000000000000000000600052602260045260246000fd5b600060028204905060018216806138ec57607f821691505b6020821081036138ff576138fe6138a5565b5b50919050565b7f496e73756666696369656e742062616c616e6365000000000000000000000000600082015250565b600061393b601483613144565b915061394682613905565b602082019050919050565b6000602082019050818103600083015261396a8161392e565b9050919050565b7f4e487b7100000000000000000000000000000000000000000000000000000000600052601160045260246000fd5b60006139ab826131f4565b91506139b6836131f4565b9250827fffffffffffffffffffffffffffffffffffffffffffffffffffffffffffffffff038211156139eb576139ea613971565b5b828201905092915050565b6000613a01826131f4565b9150613a0c836131f4565b9250817fffffffffffffffffffffffffffffffffffffffffffffffffffffffffffffffff0483118215151615613a4557613a44613971565b5b828202905092915050565b7f4e487b7100000000000000000000000000000000000000000000000000000000600052601260045260246000fd5b6000613a8a826131f4565b9150613a95836131f4565b925082613aa557613aa4613a50565b5b828204905092915050565b7f52756e6e696e67204c6f77206f6e20546f6b656e730000000000000000000000600082015250565b6000613ae6601583613144565b9150613af182613ab0565b602082019050919050565b60006020820190508181036000830152613b1581613ad9565b9050919050565b6000604082019050613b316000830185613420565b613b3e60208301846131fe565b9392505050565b600081519050613b548161344a565b92915050565b600060208284031215613b7057613b6f613232565b5b6000613b7e84828501613b45565b91505092915050565b6000613b92826131f4565b91507fffffffffffffffffffffffffffffffffffffffffffffffffffffffffffffffff8203613bc457613bc3613971565b5b600182019050919050565b60008160011c9050919050565b6000808291508390505b6001851115613c2657808604811115613c0257613c01613971565b5b6001851615613c115780820291505b8081029050613c1f85613bcf565b9450613be6565b94509492505050565b600082613c3f5760019050613cfb565b81613c4d5760009050613cfb565b8160018114613c635760028114613c6d57613c9c565b6001915050613cfb565b60ff841115613c7f57613c7e613971565b5b8360020a915084821115613c9657613c95613971565b5b50613cfb565b5060208310610133831016604e8410600b8410161715613cd15782820a905083811115613ccc57613ccb613971565b5b613cfb565b613cde8484846001613bdc565b92509050818404811115613cf557613cf4613971565b5b81810290505b9392505050565b6000613d0d826131f4565b9150613d18836133bc565b9250613d457fffffffffffffffffffffffffffffffffffffffffffffffffffffffffffffffff8484613c2f565b905092915050565b7f45524332303a2064656372656173656420616c6c6f77616e63652062656c6f7760008201527f207a65726f000000000000000000000000000000000000000000000000000000602082015250565b6000613da9602583613144565b9150613db482613d4d565b604082019050919050565b60006020820190508181036000830152613dd881613d9c565b9050919050565b6000613dea826131f4565b9150613df5836131f4565b925082821015613e0857613e07613971565b5b828203905092915050565b7f4e487b7100000000000000000000000000000000000000000000000000000000600052603260045260246000fd5b7f53656c6c657220686173206e6f7420656e6f75676820616d6f756e74206f662060008201527f546f6b656e730000000000000000000000000000000000000000000000000000602082015250565b6000613e9e602683613144565b9150613ea982613e42565b604082019050919050565b60006020820190508181036000830152613ecd81613e91565b9050919050565b7f45524332303a20617070726f76652066726f6d20746865207a65726f2061646460008201527f7265737300000000000000000000000000000000000000000000000000000000602082015250565b6000613f30602483613144565b9150613f3b82613ed4565b604082019050919050565b60006020820190508181036000830152613f5f81613f23565b9050919050565b7f45524332303a20617070726f766520746f20746865207a65726f20616464726560008201527f7373000000000000000000000000000000000000000000000000000000000000602082015250565b6000613fc2602283613144565b9150613fcd82613f66565b604082019050919050565b60006020820190508181036000830152613ff181613fb5565b9050919050565b7f45524332303a206275726e2066726f6d20746865207a65726f2061646472657360008201527f7300000000000000000000000000000000000000000000000000000000000000602082015250565b6000614054602183613144565b915061405f82613ff8565b604082019050919050565b6000602082019050818103600083015261408381614047565b9050919050565b7f45524332303a206275726e20616d6f756e7420657863656564732062616c616e60008201527f6365000000000000000000000000000000000000000000000000000000000000602082015250565b60006140e6602283613144565b91506140f18261408a565b604082019050919050565b60006020820190508181036000830152614115816140d9565b9050919050565b7f45524332303a20696e73756666696369656e7420616c6c6f77616e6365000000600082015250565b6000614152601d83613144565b915061415d8261411c565b602082019050919050565b6000602082019050818103600083015261418181614145565b9050919050565b7f45524332303a207472616e736665722066726f6d20746865207a65726f20616460008201527f6472657373000000000000000000000000000000000000000000000000000000602082015250565b60006141e4602583613144565b91506141ef82614188565b604082019050919050565b60006020820190508181036000830152614213816141d7565b9050919050565b7f45524332303a207472616e7366657220746f20746865207a65726f206164647260008201527f6573730000000000000000000000000000000000000000000000000000000000602082015250565b6000614276602383613144565b91506142818261421a565b604082019050919050565b600060208201905081810360008301526142a581614269565b9050919050565b7f45524332303a207472616e7366657220616d6f756e742065786365656473206260008201527f616c616e63650000000000000000000000000000000000000000000000000000602082015250565b6000614308602683613144565b9150614313826142ac565b604082019050919050565b60006020820190508181036000830152614337816142fb565b9050919050565b7f45524332303a206d696e7420746f20746865207a65726f206164647265737300600082015250565b6000614374601f83613144565b915061437f8261433e565b602082019050919050565b600060208201905081810360008301526143a381614367565b905091905056fea2646970667358221220d26ed4c54dc77afe199ccf388c34d48fd4cd67ff18785208ca0d8ec07eb79e3964736f6c634300080d0033",
  "immutableReferences": {},
  "source": "// SPDX-License-Identifier: MIT\r\npragma solidity ^0.8.13;\r\n\r\n\r\n// Import the necessary ERC-20 interface\r\nimport \"@openzeppelin/contracts/token/ERC20/ERC20.sol\";\r\nimport \"@openzeppelin/contracts/token/ERC20/IERC20.sol\";\r\n\r\n// Inherit from the ERC-20 contract\r\ncontract FlipCoin is ERC20 {\r\n\r\n    uint256 public purchase_rewards;\r\n    uint256 public purchase_referrals;\r\n    uint256 public purchase_socialMedia;\r\n    uint256 public staking;\r\n    uint256 public partners;\r\n    uint256 public currentOrder;\r\n    uint256 public expireTime = 60;\r\n    uint256 public socialMediaReward = 1;\r\n    uint256 public referralReward = 1;\r\n    uint256 public currentMintAmount = 0;\r\n    address public ownerAddress;\r\n    address public tokenAddress;\r\n\r\n    enum OrderStatus\r\n    {\r\n        Confirmed,\r\n        Cancelled,\r\n        NotReturned,\r\n        Expired\r\n    }\r\n    enum OrderType\r\n    {\r\n        Purchase,\r\n        Airdrop,\r\n        SocialPost,\r\n        Stake\r\n    }\r\n    struct Order\r\n    {\r\n        uint256 id;\r\n        uint256 lastReturnDate;\r\n        uint256 flipCoin;\r\n        address userAccount;\r\n        address referrer;\r\n        bool isReferred;\r\n        OrderStatus status;\r\n        OrderType orderType;\r\n    }\r\n\r\n    mapping(uint256=>Order) public orders;\r\n    mapping(address=>uint256) public expectedBalance;\r\n    mapping(uint256=>uint256) public totalReferrals;\r\n\r\n    constructor(string memory name, string memory symbol) ERC20(name, symbol) {\r\n        _mint(address(this), 10000000 * 10 ** decimals());\r\n        currentMintAmount = 10000000;\r\n        ownerAddress = msg.sender;\r\n        tokenAddress = address(this);\r\n    }\r\n    function distributeToPartners(address[] memory sellers) external \r\n    {\r\n        for(uint256 i=0;i<sellers.length;i++)\r\n        {\r\n            IERC20 token = IERC20(tokenAddress);\r\n            token.transfer(sellers[i], (currentMintAmount * 5)/100);\r\n        }\r\n    }\r\n    function removeSeller(address seller) external \r\n    {\r\n        _burn(seller, balanceOf(seller));\r\n    }\r\n    function mint(uint256 amount) external \r\n    {\r\n        require(ownerAddress == msg.sender);\r\n        _mint(address(this), amount * 10 ** decimals());\r\n        currentMintAmount = amount;\r\n    }\r\n    function depositCoint() external {\r\n        for(uint256 i=0;i<currentOrder;i++)\r\n        {\r\n            if(orders[i].status == OrderStatus.Confirmed && block.timestamp >= orders[i].lastReturnDate)\r\n            {\r\n                if(orders[i].orderType == OrderType.Airdrop)\r\n                {\r\n                    require((totalSupply() * 80 * 5)/10000 > partners, \"Running Low on Tokens\");\r\n                    partners += orders[i].flipCoin;\r\n                }\r\n                else if(orders[i].orderType == OrderType.SocialPost)\r\n                {\r\n                    require((totalSupply() * 80 * 5)/10000 > purchase_socialMedia, \"Running Low on Tokens\");\r\n                    partners += orders[i].flipCoin;\r\n                }\r\n                else if(orders[i].orderType == OrderType.Stake)\r\n                {\r\n                    require((totalSupply() * 80 * 15)/10000 > staking, \"Running Low on Tokens\");\r\n                    staking += orders[i].flipCoin;\r\n                }\r\n                else \r\n                {\r\n                    require((totalSupply() * 80 * 60 * 40)/1000000 > purchase_rewards, \"Running Low on Tokens\");\r\n                    purchase_rewards += orders[i].flipCoin;\r\n                }\r\n                orders[i].status = OrderStatus.NotReturned;\r\n                IERC20 token = IERC20(tokenAddress);\r\n                token.transfer(orders[i].userAccount, orders[i].flipCoin);\r\n                expectedBalance[orders[i].userAccount] += orders[i].flipCoin;\r\n                if(orders[i].isReferred)\r\n                {\r\n                    require((totalSupply() * 80 * 60 * 15)/1000000 > purchase_referrals, \"Running Low on Tokens\");\r\n                    IERC20 tokenRef = IERC20(tokenAddress);\r\n                    tokenRef.transfer(orders[i].referrer, referralReward);\r\n                    expectedBalance[orders[i].referrer] += referralReward;\r\n                    purchase_referrals += referralReward;\r\n                }\r\n            }\r\n\r\n        }\r\n    }\r\n    function deductCoin() payable external {\r\n        for(uint256 i=0;i<currentOrder;i++)\r\n        {\r\n            if(orders[i].status == OrderStatus.NotReturned && block.timestamp >= orders[i].lastReturnDate + expireTime)\r\n            {\r\n                if(balanceOf(orders[i].userAccount) > (expectedBalance[orders[i].userAccount] - orders[i].flipCoin))\r\n                {\r\n                    uint256 extraAmount = balanceOf(orders[i].userAccount) - (expectedBalance[orders[i].userAccount] - orders[i].flipCoin);\r\n                    _burn(orders[i].userAccount, extraAmount);\r\n                }\r\n                expectedBalance[orders[i].userAccount] -= orders[i].flipCoin;\r\n                if(orders[i].isReferred)\r\n                {\r\n                    if(balanceOf(orders[i].referrer) > (expectedBalance[orders[i].referrer] - referralReward))\r\n                    {\r\n                        uint256 extraAmount = balanceOf(orders[i].referrer) - (expectedBalance[orders[i].referrer] - referralReward);\r\n                        _burn(orders[i].referrer, extraAmount);\r\n                    }\r\n                    expectedBalance[orders[i].referrer] -= referralReward;\r\n                }\r\n                orders[i].status = OrderStatus.Expired;\r\n            }\r\n        }\r\n    }\r\n    function purchase(uint256 productPrice,address userAccount, uint256 lastReturnDate,bool isReferred, address referrer)external {\r\n        Order memory newOrder;\r\n        newOrder.id = currentOrder;\r\n        if(productPrice/100 >= 100){\r\n        newOrder.flipCoin = 100;\r\n        }\r\n        else{\r\n            newOrder.flipCoin = productPrice / 100;\r\n        }\r\n        newOrder.userAccount = userAccount;\r\n        newOrder.status = OrderStatus.Confirmed;\r\n        newOrder.lastReturnDate = lastReturnDate;\r\n        newOrder.orderType = OrderType.Purchase;\r\n        if(isReferred)\r\n        {\r\n            newOrder.isReferred = true;\r\n            newOrder.referrer = referrer;\r\n        }\r\n        else \r\n        {\r\n            newOrder.isReferred = false;\r\n        }\r\n        orders[currentOrder] = newOrder;\r\n        currentOrder++;\r\n    }\r\n    function disperseCoin(address seller, uint256 amount, address userAccount) external {\r\n        require(balanceOf(seller) >= amount, \"Seller has not enough amount of Tokens\");\r\n        require((totalSupply() * 80 * 5)/10000 > partners, \"Running Low on Tokens\");\r\n        Order memory newOrder;\r\n        newOrder.id = currentOrder;\r\n        newOrder.flipCoin = amount;\r\n        newOrder.isReferred = false;\r\n        newOrder.lastReturnDate = block.timestamp;\r\n        newOrder.status = OrderStatus.Confirmed;\r\n        newOrder.userAccount = userAccount;\r\n        newOrder.orderType = OrderType.Airdrop;\r\n        orders[currentOrder] = newOrder;\r\n        _burn(seller, amount);\r\n        currentOrder++;\r\n    }\r\n    function cancleOrder(uint256 orderId) external \r\n    {\r\n        require(orders[orderId].lastReturnDate > block.timestamp);\r\n        orders[orderId].status = OrderStatus.Cancelled;\r\n    }\r\n    function socialMediaPost(address userAccount) external \r\n    {\r\n        Order memory newOrder;\r\n        newOrder.id = currentOrder;\r\n        newOrder.flipCoin = socialMediaReward;\r\n        newOrder.isReferred = false;\r\n        newOrder.lastReturnDate = block.timestamp;\r\n        newOrder.status = OrderStatus.Confirmed;\r\n        newOrder.userAccount = userAccount;\r\n        newOrder.orderType = OrderType.SocialPost;\r\n        orders[currentOrder] = newOrder;\r\n        currentOrder++;\r\n    }\r\n    function redeem(address userAccount, uint256 amount) external \r\n    {\r\n        require(balanceOf(userAccount) >= amount && amount > 0, \"Insufficient balance\");\r\n        _burn(userAccount, amount);\r\n    }\r\n    function stakeTokens(uint256 amount, address userAccount, uint256 interval) external {\r\n        require(amount >0 && amount <= balanceOf(userAccount), \"Insufficient balance\");\r\n        _transfer(userAccount, address(this) ,amount);\r\n        Order memory newOrder;\r\n        newOrder.id = currentOrder;\r\n        newOrder.flipCoin = amount + amount/10;\r\n        newOrder.isReferred = false;\r\n        newOrder.lastReturnDate = block.timestamp + interval;\r\n        newOrder.status = OrderStatus.Confirmed;\r\n        newOrder.orderType = OrderType.Stake;\r\n        newOrder.userAccount = userAccount;\r\n        orders[currentOrder] = newOrder;\r\n        currentOrder++;\r\n    }\r\n}\r\n",
  "sourcePath": "D:\\Dev\\Flipkart Grid\\project-grid\\truffle\\contracts\\FlipCoin.sol",
  "compiler": {
    "name": "solc",
    "version": "0.8.13+commit.abaa5c0e.Emscripten.clang"
  },
  "schemaVersion": "3.4.8",
  "updatedAt": "2023-08-19T14:46:30.934Z",
  "networkType": "ethereum",
  "devdoc": {
    "kind": "dev",
    "methods": {
      "allowance(address,address)": {
        "details": "See {IERC20-allowance}."
      },
      "approve(address,uint256)": {
        "details": "See {IERC20-approve}. NOTE: If `amount` is the maximum `uint256`, the allowance is not updated on `transferFrom`. This is semantically equivalent to an infinite approval. Requirements: - `spender` cannot be the zero address."
      },
      "balanceOf(address)": {
        "details": "See {IERC20-balanceOf}."
      },
      "decimals()": {
        "details": "Returns the number of decimals used to get its user representation. For example, if `decimals` equals `2`, a balance of `505` tokens should be displayed to a user as `5.05` (`505 / 10 ** 2`). Tokens usually opt for a value of 18, imitating the relationship between Ether and Wei. This is the default value returned by this function, unless it's overridden. NOTE: This information is only used for _display_ purposes: it in no way affects any of the arithmetic of the contract, including {IERC20-balanceOf} and {IERC20-transfer}."
      },
      "decreaseAllowance(address,uint256)": {
        "details": "Atomically decreases the allowance granted to `spender` by the caller. This is an alternative to {approve} that can be used as a mitigation for problems described in {IERC20-approve}. Emits an {Approval} event indicating the updated allowance. Requirements: - `spender` cannot be the zero address. - `spender` must have allowance for the caller of at least `subtractedValue`."
      },
      "increaseAllowance(address,uint256)": {
        "details": "Atomically increases the allowance granted to `spender` by the caller. This is an alternative to {approve} that can be used as a mitigation for problems described in {IERC20-approve}. Emits an {Approval} event indicating the updated allowance. Requirements: - `spender` cannot be the zero address."
      },
      "name()": {
        "details": "Returns the name of the token."
      },
      "symbol()": {
        "details": "Returns the symbol of the token, usually a shorter version of the name."
      },
      "totalSupply()": {
        "details": "See {IERC20-totalSupply}."
      },
      "transfer(address,uint256)": {
        "details": "See {IERC20-transfer}. Requirements: - `to` cannot be the zero address. - the caller must have a balance of at least `amount`."
      },
      "transferFrom(address,address,uint256)": {
        "details": "See {IERC20-transferFrom}. Emits an {Approval} event indicating the updated allowance. This is not required by the EIP. See the note at the beginning of {ERC20}. NOTE: Does not update the allowance if the current allowance is the maximum `uint256`. Requirements: - `from` and `to` cannot be the zero address. - `from` must have a balance of at least `amount`. - the caller must have allowance for ``from``'s tokens of at least `amount`."
      }
    },
    "version": 1
  },
  "userdoc": {
    "kind": "user",
    "methods": {},
    "version": 1
  }
}