{
  "contractName": "FlipCoin",
  "abi": [
    {
      "inputs": [
        {
          "internalType": "string",
          "name": "name",
          "type": "string"
        },
        {
          "internalType": "string",
          "name": "symbol",
          "type": "string"
        }
      ],
      "stateMutability": "nonpayable",
      "type": "constructor"
    },
    {
      "anonymous": false,
      "inputs": [
        {
          "indexed": true,
          "internalType": "address",
          "name": "owner",
          "type": "address"
        },
        {
          "indexed": true,
          "internalType": "address",
          "name": "spender",
          "type": "address"
        },
        {
          "indexed": false,
          "internalType": "uint256",
          "name": "value",
          "type": "uint256"
        }
      ],
      "name": "Approval",
      "type": "event"
    },
    {
      "anonymous": false,
      "inputs": [
        {
          "indexed": true,
          "internalType": "address",
          "name": "from",
          "type": "address"
        },
        {
          "indexed": true,
          "internalType": "address",
          "name": "to",
          "type": "address"
        },
        {
          "indexed": false,
          "internalType": "uint256",
          "name": "value",
          "type": "uint256"
        }
      ],
      "name": "Transfer",
      "type": "event"
    },
    {
      "inputs": [
        {
          "internalType": "address",
          "name": "owner",
          "type": "address"
        },
        {
          "internalType": "address",
          "name": "spender",
          "type": "address"
        }
      ],
      "name": "allowance",
      "outputs": [
        {
          "internalType": "uint256",
          "name": "",
          "type": "uint256"
        }
      ],
      "stateMutability": "view",
      "type": "function"
    },
    {
      "inputs": [
        {
          "internalType": "address",
          "name": "spender",
          "type": "address"
        },
        {
          "internalType": "uint256",
          "name": "amount",
          "type": "uint256"
        }
      ],
      "name": "approve",
      "outputs": [
        {
          "internalType": "bool",
          "name": "",
          "type": "bool"
        }
      ],
      "stateMutability": "nonpayable",
      "type": "function"
    },
    {
      "inputs": [
        {
          "internalType": "address",
          "name": "account",
          "type": "address"
        }
      ],
      "name": "balanceOf",
      "outputs": [
        {
          "internalType": "uint256",
          "name": "",
          "type": "uint256"
        }
      ],
      "stateMutability": "view",
      "type": "function"
    },
    {
      "inputs": [],
      "name": "decimals",
      "outputs": [
        {
          "internalType": "uint8",
          "name": "",
          "type": "uint8"
        }
      ],
      "stateMutability": "view",
      "type": "function"
    },
    {
      "inputs": [
        {
          "internalType": "address",
          "name": "spender",
          "type": "address"
        },
        {
          "internalType": "uint256",
          "name": "subtractedValue",
          "type": "uint256"
        }
      ],
      "name": "decreaseAllowance",
      "outputs": [
        {
          "internalType": "bool",
          "name": "",
          "type": "bool"
        }
      ],
      "stateMutability": "nonpayable",
      "type": "function"
    },
    {
      "inputs": [
        {
          "internalType": "address",
          "name": "",
          "type": "address"
        }
      ],
      "name": "expectedBalance",
      "outputs": [
        {
          "internalType": "uint256",
          "name": "",
          "type": "uint256"
        }
      ],
      "stateMutability": "view",
      "type": "function"
    },
    {
      "inputs": [
        {
          "internalType": "address",
          "name": "spender",
          "type": "address"
        },
        {
          "internalType": "uint256",
          "name": "addedValue",
          "type": "uint256"
        }
      ],
      "name": "increaseAllowance",
      "outputs": [
        {
          "internalType": "bool",
          "name": "",
          "type": "bool"
        }
      ],
      "stateMutability": "nonpayable",
      "type": "function"
    },
    {
      "inputs": [],
      "name": "name",
      "outputs": [
        {
          "internalType": "string",
          "name": "",
          "type": "string"
        }
      ],
      "stateMutability": "view",
      "type": "function"
    },
    {
      "inputs": [
        {
          "internalType": "uint256",
          "name": "",
          "type": "uint256"
        }
      ],
      "name": "orders",
      "outputs": [
        {
          "internalType": "uint256",
          "name": "id",
          "type": "uint256"
        },
        {
          "internalType": "uint256",
          "name": "lastReturnDate",
          "type": "uint256"
        },
        {
          "internalType": "uint256",
          "name": "flipCoin",
          "type": "uint256"
        },
        {
          "internalType": "address",
          "name": "userAccount",
          "type": "address"
        },
        {
          "internalType": "address",
          "name": "referrer",
          "type": "address"
        },
        {
          "internalType": "bool",
          "name": "isReferred",
          "type": "bool"
        },
        {
          "internalType": "enum FlipCoin.OrderStatus",
          "name": "status",
          "type": "uint8"
        },
        {
          "internalType": "enum FlipCoin.OrderType",
          "name": "orderType",
          "type": "uint8"
        }
      ],
      "stateMutability": "view",
      "type": "function"
    },
    {
      "inputs": [],
      "name": "symbol",
      "outputs": [
        {
          "internalType": "string",
          "name": "",
          "type": "string"
        }
      ],
      "stateMutability": "view",
      "type": "function"
    },
    {
      "inputs": [
        {
          "internalType": "uint256",
          "name": "",
          "type": "uint256"
        }
      ],
      "name": "totalReferrals",
      "outputs": [
        {
          "internalType": "uint256",
          "name": "",
          "type": "uint256"
        }
      ],
      "stateMutability": "view",
      "type": "function"
    },
    {
      "inputs": [],
      "name": "totalSupply",
      "outputs": [
        {
          "internalType": "uint256",
          "name": "",
          "type": "uint256"
        }
      ],
      "stateMutability": "view",
      "type": "function"
    },
    {
      "inputs": [
        {
          "internalType": "address",
          "name": "to",
          "type": "address"
        },
        {
          "internalType": "uint256",
          "name": "amount",
          "type": "uint256"
        }
      ],
      "name": "transfer",
      "outputs": [
        {
          "internalType": "bool",
          "name": "",
          "type": "bool"
        }
      ],
      "stateMutability": "nonpayable",
      "type": "function"
    },
    {
      "inputs": [
        {
          "internalType": "address",
          "name": "from",
          "type": "address"
        },
        {
          "internalType": "address",
          "name": "to",
          "type": "address"
        },
        {
          "internalType": "uint256",
          "name": "amount",
          "type": "uint256"
        }
      ],
      "name": "transferFrom",
      "outputs": [
        {
          "internalType": "bool",
          "name": "",
          "type": "bool"
        }
      ],
      "stateMutability": "nonpayable",
      "type": "function"
    },
    {
      "inputs": [
        {
          "internalType": "address[]",
          "name": "sellers",
          "type": "address[]"
        }
      ],
      "name": "distributeToPartners",
      "outputs": [],
      "stateMutability": "nonpayable",
      "type": "function"
    },
    {
      "inputs": [
        {
          "internalType": "address",
          "name": "seller",
          "type": "address"
        }
      ],
      "name": "removeSeller",
      "outputs": [],
      "stateMutability": "nonpayable",
      "type": "function"
    },
    {
      "inputs": [
        {
          "internalType": "uint256",
          "name": "amount",
          "type": "uint256"
        }
      ],
      "name": "mint",
      "outputs": [],
      "stateMutability": "nonpayable",
      "type": "function"
    },
    {
      "inputs": [],
      "name": "depositCoint",
      "outputs": [],
      "stateMutability": "nonpayable",
      "type": "function"
    },
    {
      "inputs": [],
      "name": "deductCoin",
      "outputs": [],
      "stateMutability": "payable",
      "type": "function"
    },
    {
      "inputs": [
        {
          "internalType": "uint256",
          "name": "productPrice",
          "type": "uint256"
        },
        {
          "internalType": "address",
          "name": "userAccount",
          "type": "address"
        },
        {
          "internalType": "uint256",
          "name": "lastReturnDate",
          "type": "uint256"
        },
        {
          "internalType": "bool",
          "name": "isReferred",
          "type": "bool"
        },
        {
          "internalType": "address",
          "name": "referrer",
          "type": "address"
        }
      ],
      "name": "purchase",
      "outputs": [],
      "stateMutability": "nonpayable",
      "type": "function"
    },
    {
      "inputs": [
        {
          "internalType": "address",
          "name": "seller",
          "type": "address"
        },
        {
          "internalType": "uint256",
          "name": "amount",
          "type": "uint256"
        },
        {
          "internalType": "address",
          "name": "userAccount",
          "type": "address"
        }
      ],
      "name": "disperseCoin",
      "outputs": [],
      "stateMutability": "nonpayable",
      "type": "function"
    },
    {
      "inputs": [
        {
          "internalType": "uint256",
          "name": "orderId",
          "type": "uint256"
        }
      ],
      "name": "cancleOrder",
      "outputs": [],
      "stateMutability": "nonpayable",
      "type": "function"
    },
    {
      "inputs": [
        {
          "internalType": "address",
          "name": "userAccount",
          "type": "address"
        }
      ],
      "name": "socialMediaPost",
      "outputs": [],
      "stateMutability": "nonpayable",
      "type": "function"
    },
    {
      "inputs": [
        {
          "internalType": "address",
          "name": "userAccount",
          "type": "address"
        },
        {
          "internalType": "uint256",
          "name": "amount",
          "type": "uint256"
        }
      ],
      "name": "redeem",
      "outputs": [],
      "stateMutability": "nonpayable",
      "type": "function"
    },
    {
      "inputs": [
        {
          "internalType": "uint256",
          "name": "amount",
          "type": "uint256"
        },
        {
          "internalType": "address",
          "name": "userAccount",
          "type": "address"
        },
        {
          "internalType": "uint256",
          "name": "interval",
          "type": "uint256"
        }
      ],
      "name": "stakeTokens",
      "outputs": [],
      "stateMutability": "nonpayable",
      "type": "function"
    }
  ],
  "bytecode": "0x6080604052603c600b556001600c556001600d556000600e553480156200002557600080fd5b5060405162004b7a38038062004b7a83398181016040528101906200004b919062000459565b818181600390816200005e919062000729565b50806004908162000070919062000729565b505050620000b230620000886200014660201b60201c565b600a620000969190620009a0565b62989680620000a69190620009f1565b6200014f60201b60201c565b62989680600e8190555033600f60006101000a81548173ffffffffffffffffffffffffffffffffffffffff021916908373ffffffffffffffffffffffffffffffffffffffff16021790555030601060006101000a81548173ffffffffffffffffffffffffffffffffffffffff021916908373ffffffffffffffffffffffffffffffffffffffff160217905550505062000b28565b60006012905090565b600073ffffffffffffffffffffffffffffffffffffffff168273ffffffffffffffffffffffffffffffffffffffff1603620001c1576040517f08c379a0000000000000000000000000000000000000000000000000000000008152600401620001b89062000a9d565b60405180910390fd5b620001d560008383620002bc60201b60201c565b8060026000828254620001e9919062000abf565b92505081905550806000808473ffffffffffffffffffffffffffffffffffffffff1673ffffffffffffffffffffffffffffffffffffffff168152602001908152602001600020600082825401925050819055508173ffffffffffffffffffffffffffffffffffffffff16600073ffffffffffffffffffffffffffffffffffffffff167fddf252ad1be2c89b69c2b068fc378daa952ba7f163c4a11628f55a4df523b3ef836040516200029c919062000b0b565b60405180910390a3620002b860008383620002c160201b60201c565b5050565b505050565b505050565b6000604051905090565b600080fd5b600080fd5b600080fd5b600080fd5b6000601f19601f8301169050919050565b7f4e487b7100000000000000000000000000000000000000000000000000000000600052604160045260246000fd5b6200032f82620002e4565b810181811067ffffffffffffffff82111715620003515762000350620002f5565b5b80604052505050565b600062000366620002c6565b905062000374828262000324565b919050565b600067ffffffffffffffff821115620003975762000396620002f5565b5b620003a282620002e4565b9050602081019050919050565b60005b83811015620003cf578082015181840152602081019050620003b2565b60008484015250505050565b6000620003f2620003ec8462000379565b6200035a565b905082815260208101848484011115620004115762000410620002df565b5b6200041e848285620003af565b509392505050565b600082601f8301126200043e576200043d620002da565b5b815162000450848260208601620003db565b91505092915050565b60008060408385031215620004735762000472620002d0565b5b600083015167ffffffffffffffff811115620004945762000493620002d5565b5b620004a28582860162000426565b925050602083015167ffffffffffffffff811115620004c657620004c5620002d5565b5b620004d48582860162000426565b9150509250929050565b600081519050919050565b7f4e487b7100000000000000000000000000000000000000000000000000000000600052602260045260246000fd5b600060028204905060018216806200053157607f821691505b602082108103620005475762000546620004e9565b5b50919050565b60008190508160005260206000209050919050565b60006020601f8301049050919050565b600082821b905092915050565b600060088302620005b17fffffffffffffffffffffffffffffffffffffffffffffffffffffffffffffffff8262000572565b620005bd868362000572565b95508019841693508086168417925050509392505050565b6000819050919050565b6000819050919050565b60006200060a62000604620005fe84620005d5565b620005df565b620005d5565b9050919050565b6000819050919050565b6200062683620005e9565b6200063e620006358262000611565b8484546200057f565b825550505050565b600090565b6200065562000646565b620006628184846200061b565b505050565b5b818110156200068a576200067e6000826200064b565b60018101905062000668565b5050565b601f821115620006d957620006a3816200054d565b620006ae8462000562565b81016020851015620006be578190505b620006d6620006cd8562000562565b83018262000667565b50505b505050565b600082821c905092915050565b6000620006fe60001984600802620006de565b1980831691505092915050565b6000620007198383620006eb565b9150826002028217905092915050565b6200073482620004de565b67ffffffffffffffff81111562000750576200074f620002f5565b5b6200075c825462000518565b620007698282856200068e565b600060209050601f831160018114620007a157600084156200078c578287015190505b6200079885826200070b565b86555062000808565b601f198416620007b1866200054d565b60005b82811015620007db57848901518255600182019150602085019450602081019050620007b4565b86831015620007fb5784890151620007f7601f891682620006eb565b8355505b6001600288020188555050505b505050505050565b7f4e487b7100000000000000000000000000000000000000000000000000000000600052601160045260246000fd5b60008160011c9050919050565b6000808291508390505b60018511156200089e5780860481111562000876576200087562000810565b5b6001851615620008865780820291505b808102905062000896856200083f565b945062000856565b94509492505050565b600082620008b957600190506200098c565b81620008c957600090506200098c565b8160018114620008e25760028114620008ed5762000923565b60019150506200098c565b60ff84111562000902576200090162000810565b5b8360020a9150848211156200091c576200091b62000810565b5b506200098c565b5060208310610133831016604e8410600b84101617156200095d5782820a90508381111562000957576200095662000810565b5b6200098c565b6200096c84848460016200084c565b9250905081840481111562000986576200098562000810565b5b81810290505b9392505050565b600060ff82169050919050565b6000620009ad82620005d5565b9150620009ba8362000993565b9250620009e97fffffffffffffffffffffffffffffffffffffffffffffffffffffffffffffffff8484620008a7565b905092915050565b6000620009fe82620005d5565b915062000a0b83620005d5565b925082820262000a1b81620005d5565b9150828204841483151762000a355762000a3462000810565b5b5092915050565b600082825260208201905092915050565b7f45524332303a206d696e7420746f20746865207a65726f206164647265737300600082015250565b600062000a85601f8362000a3c565b915062000a928262000a4d565b602082019050919050565b6000602082019050818103600083015262000ab88162000a76565b9050919050565b600062000acc82620005d5565b915062000ad983620005d5565b925082820190508082111562000af45762000af362000810565b5b92915050565b62000b0581620005d5565b82525050565b600060208201905062000b22600083018462000afa565b92915050565b6140428062000b386000396000f3fe6080604052600436106101665760003560e01c80639a69ca9d116100d1578063cec534d61161008a578063f406cb8a11610064578063f406cb8a1461055a578063f64cccea14610583578063f95c0df3146105c0578063ffc5f9e7146105e957610166565b8063cec534d6146104ea578063dd62ed3e14610513578063e3cc16e11461055057610166565b80639a69ca9d146103b1578063a0712d68146103da578063a457c2d714610403578063a4afe66b14610440578063a85c38ef14610469578063a9059cbb146104ad57610166565b8063313ce56711610123578063313ce567146102a157806339509351146102cc57806370a082311461030957806377937c21146103465780637cb9cf541461035d57806395d89b411461038657610166565b806306fdde031461016b578063095ea7b31461019657806318160ddd146101d35780631e9a6950146101fe57806323b872dd146102275780632ed8eaa614610264575b600080fd5b34801561017757600080fd5b50610180610612565b60405161018d9190612e89565b60405180910390f35b3480156101a257600080fd5b506101bd60048036038101906101b89190612f53565b6106a4565b6040516101ca9190612fae565b60405180910390f35b3480156101df57600080fd5b506101e86106c7565b6040516101f59190612fd8565b60405180910390f35b34801561020a57600080fd5b5061022560048036038101906102209190612f53565b6106d1565b005b34801561023357600080fd5b5061024e60048036038101906102499190612ff3565b610736565b60405161025b9190612fae565b60405180910390f35b34801561027057600080fd5b5061028b60048036038101906102869190613046565b610765565b6040516102989190612fd8565b60405180910390f35b3480156102ad57600080fd5b506102b661077d565b6040516102c3919061308f565b60405180910390f35b3480156102d857600080fd5b506102f360048036038101906102ee9190612f53565b610786565b6040516103009190612fae565b60405180910390f35b34801561031557600080fd5b50610330600480360381019061032b91906130aa565b6107bd565b60405161033d9190612fd8565b60405180910390f35b34801561035257600080fd5b5061035b610805565b005b34801561036957600080fd5b50610384600480360381019061037f91906130aa565b611025565b005b34801561039257600080fd5b5061039b61103a565b6040516103a89190612e89565b60405180910390f35b3480156103bd57600080fd5b506103d860048036038101906103d391906130aa565b6110cc565b005b3480156103e657600080fd5b5061040160048036038101906103fc9190613046565b611302565b005b34801561040f57600080fd5b5061042a60048036038101906104259190612f53565b61138e565b6040516104379190612fae565b60405180910390f35b34801561044c57600080fd5b5061046760048036038101906104629190613103565b611405565b005b34801561047557600080fd5b50610490600480360381019061048b9190613046565b6116c2565b6040516104a498979695949392919061324c565b60405180910390f35b3480156104b957600080fd5b506104d460048036038101906104cf9190612f53565b611771565b6040516104e19190612fae565b60405180910390f35b3480156104f657600080fd5b50610511600480360381019061050c91906132ca565b611794565b005b34801561051f57600080fd5b5061053a6004803603810190610535919061331d565b611a4e565b6040516105479190612fd8565b60405180910390f35b610558611ad5565b005b34801561056657600080fd5b50610581600480360381019061057c9190613046565b6120ed565b005b34801561058f57600080fd5b506105aa60048036038101906105a591906130aa565b612151565b6040516105b79190612fd8565b60405180910390f35b3480156105cc57600080fd5b506105e760048036038101906105e291906134a5565b612169565b005b3480156105f557600080fd5b50610610600480360381019061060b91906134ee565b612267565b005b60606003805461062190613570565b80601f016020809104026020016040519081016040528092919081815260200182805461064d90613570565b801561069a5780601f1061066f5761010080835404028352916020019161069a565b820191906000526020600020905b81548152906001019060200180831161067d57829003601f168201915b5050505050905090565b6000806106af612562565b90506106bc81858561256a565b600191505092915050565b6000600254905090565b806106db836107bd565b101580156106e95750600081115b610728576040517f08c379a000000000000000000000000000000000000000000000000000000000815260040161071f906135ed565b60405180910390fd5b6107328282612733565b5050565b600080610741612562565b905061074e858285612900565b61075985858561298c565b60019150509392505050565b60136020528060005260406000206000915090505481565b60006012905090565b600080610791612562565b90506107b28185856107a38589611a4e565b6107ad919061363c565b61256a565b600191505092915050565b60008060008373ffffffffffffffffffffffffffffffffffffffff1673ffffffffffffffffffffffffffffffffffffffff168152602001908152602001600020549050919050565b60005b600a5481101561102257600060038111156108265761082561318d565b5b6011600083815260200190815260200160002060040160159054906101000a900460ff16600381111561085c5761085b61318d565b5b14801561087f575060116000828152602001908152602001600020600101544210155b1561100f57600160038111156108985761089761318d565b5b6011600083815260200190815260200160002060040160169054906101000a900460ff1660038111156108ce576108cd61318d565b5b0361097757600954612710600560506108e56106c7565b6108ef9190613670565b6108f99190613670565b61090391906136e1565b11610943576040517f08c379a000000000000000000000000000000000000000000000000000000000815260040161093a9061375e565b60405180910390fd5b60116000828152602001908152602001600020600201546009600082825461096b919061363c565b92505081905550610c0b565b6002600381111561098b5761098a61318d565b5b6011600083815260200190815260200160002060040160169054906101000a900460ff1660038111156109c1576109c061318d565b5b03610a6a57600754612710600560506109d86106c7565b6109e29190613670565b6109ec9190613670565b6109f691906136e1565b11610a36576040517f08c379a0000000000000000000000000000000000000000000000000000000008152600401610a2d9061375e565b60405180910390fd5b601160008281526020019081526020016000206002015460096000828254610a5e919061363c565b92505081905550610c0a565b600380811115610a7d57610a7c61318d565b5b6011600083815260200190815260200160002060040160169054906101000a900460ff166003811115610ab357610ab261318d565b5b03610b5c57600854612710600f6050610aca6106c7565b610ad49190613670565b610ade9190613670565b610ae891906136e1565b11610b28576040517f08c379a0000000000000000000000000000000000000000000000000000000008152600401610b1f9061375e565b60405180910390fd5b601160008281526020019081526020016000206002015460086000828254610b50919061363c565b92505081905550610c09565b600554620f42406028603c6050610b716106c7565b610b7b9190613670565b610b859190613670565b610b8f9190613670565b610b9991906136e1565b11610bd9576040517f08c379a0000000000000000000000000000000000000000000000000000000008152600401610bd09061375e565b60405180910390fd5b601160008281526020019081526020016000206002015460056000828254610c01919061363c565b925050819055505b5b5b60026011600083815260200190815260200160002060040160156101000a81548160ff02191690836003811115610c4557610c4461318d565b5b02179055506000601060009054906101000a900473ffffffffffffffffffffffffffffffffffffffff1690508073ffffffffffffffffffffffffffffffffffffffff1663a9059cbb6011600085815260200190815260200160002060030160009054906101000a900473ffffffffffffffffffffffffffffffffffffffff1660116000868152602001908152602001600020600201546040518363ffffffff1660e01b8152600401610cf892919061377e565b6020604051808303816000875af1158015610d17573d6000803e3d6000fd5b505050506040513d601f19601f82011682018060405250810190610d3b91906137bc565b506011600083815260200190815260200160002060020154601260006011600086815260200190815260200160002060030160009054906101000a900473ffffffffffffffffffffffffffffffffffffffff1673ffffffffffffffffffffffffffffffffffffffff1673ffffffffffffffffffffffffffffffffffffffff1681526020019081526020016000206000828254610dd7919061363c565b925050819055506011600083815260200190815260200160002060040160149054906101000a900460ff161561100d57600654620f4240600f603c6050610e1c6106c7565b610e269190613670565b610e309190613670565b610e3a9190613670565b610e4491906136e1565b11610e84576040517f08c379a0000000000000000000000000000000000000000000000000000000008152600401610e7b9061375e565b60405180910390fd5b6000601060009054906101000a900473ffffffffffffffffffffffffffffffffffffffff1690508073ffffffffffffffffffffffffffffffffffffffff1663a9059cbb6011600086815260200190815260200160002060040160009054906101000a900473ffffffffffffffffffffffffffffffffffffffff16600d546040518363ffffffff1660e01b8152600401610f1e92919061377e565b6020604051808303816000875af1158015610f3d573d6000803e3d6000fd5b505050506040513d601f19601f82011682018060405250810190610f6191906137bc565b50600d54601260006011600087815260200190815260200160002060040160009054906101000a900473ffffffffffffffffffffffffffffffffffffffff1673ffffffffffffffffffffffffffffffffffffffff1673ffffffffffffffffffffffffffffffffffffffff1681526020019081526020016000206000828254610fe9919061363c565b92505081905550600d5460066000828254611004919061363c565b92505081905550505b505b808061101a906137e9565b915050610808565b50565b61103781611032836107bd565b612733565b50565b60606004805461104990613570565b80601f016020809104026020016040519081016040528092919081815260200182805461107590613570565b80156110c25780601f10611097576101008083540402835291602001916110c2565b820191906000526020600020905b8154815290600101906020018083116110a557829003601f168201915b5050505050905090565b6110d4612d62565b600a54816000018181525050600c5481604001818152505060008160a00190151590811515815250504281602001818152505060008160c0019060038111156111205761111f61318d565b5b908160038111156111345761113361318d565b5b8152505081816060019073ffffffffffffffffffffffffffffffffffffffff16908173ffffffffffffffffffffffffffffffffffffffff168152505060028160e0019060038111156111895761118861318d565b5b9081600381111561119d5761119c61318d565b5b815250508060116000600a54815260200190815260200160002060008201518160000155602082015181600101556040820151816002015560608201518160030160006101000a81548173ffffffffffffffffffffffffffffffffffffffff021916908373ffffffffffffffffffffffffffffffffffffffff16021790555060808201518160040160006101000a81548173ffffffffffffffffffffffffffffffffffffffff021916908373ffffffffffffffffffffffffffffffffffffffff16021790555060a08201518160040160146101000a81548160ff02191690831515021790555060c08201518160040160156101000a81548160ff021916908360038111156112ae576112ad61318d565b5b021790555060e08201518160040160166101000a81548160ff021916908360038111156112de576112dd61318d565b5b0217905550905050600a60008154809291906112f9906137e9565b91905055505050565b3373ffffffffffffffffffffffffffffffffffffffff16600f60009054906101000a900473ffffffffffffffffffffffffffffffffffffffff1673ffffffffffffffffffffffffffffffffffffffff161461135c57600080fd5b6113843061136861077d565b600a6113749190613964565b8361137f9190613670565b612c02565b80600e8190555050565b600080611399612562565b905060006113a78286611a4e565b9050838110156113ec576040517f08c379a00000000000000000000000000000000000000000000000000000000081526004016113e390613a21565b60405180910390fd5b6113f9828686840361256a565b60019250505092915050565b61140d612d62565b600a548160000181815250506064808761142791906136e1565b1061143c576064816040018181525050611453565b60648661144991906136e1565b8160400181815250505b84816060019073ffffffffffffffffffffffffffffffffffffffff16908173ffffffffffffffffffffffffffffffffffffffff168152505060008160c0019060038111156114a4576114a361318d565b5b908160038111156114b8576114b761318d565b5b815250508381602001818152505060008160e0019060038111156114df576114de61318d565b5b908160038111156114f3576114f261318d565b5b81525050821561154b5760018160a001901515908115158152505081816080019073ffffffffffffffffffffffffffffffffffffffff16908173ffffffffffffffffffffffffffffffffffffffff168152505061155d565b60008160a00190151590811515815250505b8060116000600a54815260200190815260200160002060008201518160000155602082015181600101556040820151816002015560608201518160030160006101000a81548173ffffffffffffffffffffffffffffffffffffffff021916908373ffffffffffffffffffffffffffffffffffffffff16021790555060808201518160040160006101000a81548173ffffffffffffffffffffffffffffffffffffffff021916908373ffffffffffffffffffffffffffffffffffffffff16021790555060a08201518160040160146101000a81548160ff02191690831515021790555060c08201518160040160156101000a81548160ff0219169083600381111561166a5761166961318d565b5b021790555060e08201518160040160166101000a81548160ff0219169083600381111561169a5761169961318d565b5b0217905550905050600a60008154809291906116b5906137e9565b9190505550505050505050565b60116020528060005260406000206000915090508060000154908060010154908060020154908060030160009054906101000a900473ffffffffffffffffffffffffffffffffffffffff16908060040160009054906101000a900473ffffffffffffffffffffffffffffffffffffffff16908060040160149054906101000a900460ff16908060040160159054906101000a900460ff16908060040160169054906101000a900460ff16905088565b60008061177c612562565b905061178981858561298c565b600191505092915050565b6000831180156117ac57506117a8826107bd565b8311155b6117eb576040517f08c379a00000000000000000000000000000000000000000000000000000000081526004016117e2906135ed565b60405180910390fd5b6117f682308561298c565b6117fe612d62565b600a54816000018181525050600a8461181791906136e1565b84611822919061363c565b81604001818152505060008160a00190151590811515815250508142611848919061363c565b81602001818152505060008160c00190600381111561186a5761186961318d565b5b9081600381111561187e5761187d61318d565b5b8152505060038160e00190600381111561189b5761189a61318d565b5b908160038111156118af576118ae61318d565b5b8152505082816060019073ffffffffffffffffffffffffffffffffffffffff16908173ffffffffffffffffffffffffffffffffffffffff16815250508060116000600a54815260200190815260200160002060008201518160000155602082015181600101556040820151816002015560608201518160030160006101000a81548173ffffffffffffffffffffffffffffffffffffffff021916908373ffffffffffffffffffffffffffffffffffffffff16021790555060808201518160040160006101000a81548173ffffffffffffffffffffffffffffffffffffffff021916908373ffffffffffffffffffffffffffffffffffffffff16021790555060a08201518160040160146101000a81548160ff02191690831515021790555060c08201518160040160156101000a81548160ff021916908360038111156119f8576119f761318d565b5b021790555060e08201518160040160166101000a81548160ff02191690836003811115611a2857611a2761318d565b5b0217905550905050600a6000815480929190611a43906137e9565b919050555050505050565b6000600160008473ffffffffffffffffffffffffffffffffffffffff1673ffffffffffffffffffffffffffffffffffffffff16815260200190815260200160002060008373ffffffffffffffffffffffffffffffffffffffff1673ffffffffffffffffffffffffffffffffffffffff16815260200190815260200160002054905092915050565b60005b600a548110156120ea5760026003811115611af657611af561318d565b5b6011600083815260200190815260200160002060040160159054906101000a900460ff166003811115611b2c57611b2b61318d565b5b148015611b5c5750600b546011600083815260200190815260200160002060010154611b58919061363c565b4210155b156120d7576011600082815260200190815260200160002060020154601260006011600085815260200190815260200160002060030160009054906101000a900473ffffffffffffffffffffffffffffffffffffffff1673ffffffffffffffffffffffffffffffffffffffff1673ffffffffffffffffffffffffffffffffffffffff16815260200190815260200160002054611bf89190613a41565b611c376011600084815260200190815260200160002060030160009054906101000a900473ffffffffffffffffffffffffffffffffffffffff166107bd565b1115611d635760006011600083815260200190815260200160002060020154601260006011600086815260200190815260200160002060030160009054906101000a900473ffffffffffffffffffffffffffffffffffffffff1673ffffffffffffffffffffffffffffffffffffffff1673ffffffffffffffffffffffffffffffffffffffff16815260200190815260200160002054611cd69190613a41565b611d156011600085815260200190815260200160002060030160009054906101000a900473ffffffffffffffffffffffffffffffffffffffff166107bd565b611d1f9190613a41565b9050611d616011600084815260200190815260200160002060030160009054906101000a900473ffffffffffffffffffffffffffffffffffffffff1682612733565b505b6011600082815260200190815260200160002060020154601260006011600085815260200190815260200160002060030160009054906101000a900473ffffffffffffffffffffffffffffffffffffffff1673ffffffffffffffffffffffffffffffffffffffff1673ffffffffffffffffffffffffffffffffffffffff1681526020019081526020016000206000828254611dfe9190613a41565b925050819055506011600082815260200190815260200160002060040160149054906101000a900460ff161561209757600d54601260006011600085815260200190815260200160002060040160009054906101000a900473ffffffffffffffffffffffffffffffffffffffff1673ffffffffffffffffffffffffffffffffffffffff1673ffffffffffffffffffffffffffffffffffffffff16815260200190815260200160002054611eb19190613a41565b611ef06011600084815260200190815260200160002060040160009054906101000a900473ffffffffffffffffffffffffffffffffffffffff166107bd565b1115612008576000600d54601260006011600086815260200190815260200160002060040160009054906101000a900473ffffffffffffffffffffffffffffffffffffffff1673ffffffffffffffffffffffffffffffffffffffff1673ffffffffffffffffffffffffffffffffffffffff16815260200190815260200160002054611f7b9190613a41565b611fba6011600085815260200190815260200160002060040160009054906101000a900473ffffffffffffffffffffffffffffffffffffffff166107bd565b611fc49190613a41565b90506120066011600084815260200190815260200160002060040160009054906101000a900473ffffffffffffffffffffffffffffffffffffffff1682612733565b505b600d54601260006011600085815260200190815260200160002060040160009054906101000a900473ffffffffffffffffffffffffffffffffffffffff1673ffffffffffffffffffffffffffffffffffffffff1673ffffffffffffffffffffffffffffffffffffffff168152602001908152602001600020600082825461208f9190613a41565b925050819055505b60036011600083815260200190815260200160002060040160156101000a81548160ff021916908360038111156120d1576120d061318d565b5b02179055505b80806120e2906137e9565b915050611ad8565b50565b4260116000838152602001908152602001600020600101541161210f57600080fd5b60016011600083815260200190815260200160002060040160156101000a81548160ff021916908360038111156121495761214861318d565b5b021790555050565b60126020528060005260406000206000915090505481565b60005b8151811015612263576000601060009054906101000a900473ffffffffffffffffffffffffffffffffffffffff1690508073ffffffffffffffffffffffffffffffffffffffff1663a9059cbb8484815181106121cb576121ca613a75565b5b602002602001015160646005600e546121e49190613670565b6121ee91906136e1565b6040518363ffffffff1660e01b815260040161220b92919061377e565b6020604051808303816000875af115801561222a573d6000803e3d6000fd5b505050506040513d601f19601f8201168201806040525081019061224e91906137bc565b5050808061225b906137e9565b91505061216c565b5050565b81612271846107bd565b10156122b2576040517f08c379a00000000000000000000000000000000000000000000000000000000081526004016122a990613b16565b60405180910390fd5b600954612710600560506122c46106c7565b6122ce9190613670565b6122d89190613670565b6122e291906136e1565b11612322576040517f08c379a00000000000000000000000000000000000000000000000000000000081526004016123199061375e565b60405180910390fd5b61232a612d62565b600a548160000181815250508281604001818152505060008160a00190151590811515815250504281602001818152505060008160c0019060038111156123745761237361318d565b5b908160038111156123885761238761318d565b5b8152505081816060019073ffffffffffffffffffffffffffffffffffffffff16908173ffffffffffffffffffffffffffffffffffffffff168152505060018160e0019060038111156123dd576123dc61318d565b5b908160038111156123f1576123f061318d565b5b815250508060116000600a54815260200190815260200160002060008201518160000155602082015181600101556040820151816002015560608201518160030160006101000a81548173ffffffffffffffffffffffffffffffffffffffff021916908373ffffffffffffffffffffffffffffffffffffffff16021790555060808201518160040160006101000a81548173ffffffffffffffffffffffffffffffffffffffff021916908373ffffffffffffffffffffffffffffffffffffffff16021790555060a08201518160040160146101000a81548160ff02191690831515021790555060c08201518160040160156101000a81548160ff021916908360038111156125025761250161318d565b5b021790555060e08201518160040160166101000a81548160ff021916908360038111156125325761253161318d565b5b02179055509050506125448484612733565b600a6000815480929190612557906137e9565b919050555050505050565b600033905090565b600073ffffffffffffffffffffffffffffffffffffffff168373ffffffffffffffffffffffffffffffffffffffff16036125d9576040517f08c379a00000000000000000000000000000000000000000000000000000000081526004016125d090613ba8565b60405180910390fd5b600073ffffffffffffffffffffffffffffffffffffffff168273ffffffffffffffffffffffffffffffffffffffff1603612648576040517f08c379a000000000000000000000000000000000000000000000000000000000815260040161263f90613c3a565b60405180910390fd5b80600160008573ffffffffffffffffffffffffffffffffffffffff1673ffffffffffffffffffffffffffffffffffffffff16815260200190815260200160002060008473ffffffffffffffffffffffffffffffffffffffff1673ffffffffffffffffffffffffffffffffffffffff168152602001908152602001600020819055508173ffffffffffffffffffffffffffffffffffffffff168373ffffffffffffffffffffffffffffffffffffffff167f8c5be1e5ebec7d5bd14f71427d1e84f3dd0314c0f7b2291e5b200ac8c7c3b925836040516127269190612fd8565b60405180910390a3505050565b600073ffffffffffffffffffffffffffffffffffffffff168273ffffffffffffffffffffffffffffffffffffffff16036127a2576040517f08c379a000000000000000000000000000000000000000000000000000000000815260040161279990613ccc565b60405180910390fd5b6127ae82600083612d58565b60008060008473ffffffffffffffffffffffffffffffffffffffff1673ffffffffffffffffffffffffffffffffffffffff16815260200190815260200160002054905081811015612834576040517f08c379a000000000000000000000000000000000000000000000000000000000815260040161282b90613d5e565b60405180910390fd5b8181036000808573ffffffffffffffffffffffffffffffffffffffff1673ffffffffffffffffffffffffffffffffffffffff1681526020019081526020016000208190555081600260008282540392505081905550600073ffffffffffffffffffffffffffffffffffffffff168373ffffffffffffffffffffffffffffffffffffffff167fddf252ad1be2c89b69c2b068fc378daa952ba7f163c4a11628f55a4df523b3ef846040516128e79190612fd8565b60405180910390a36128fb83600084612d5d565b505050565b600061290c8484611a4e565b90507fffffffffffffffffffffffffffffffffffffffffffffffffffffffffffffffff81146129865781811015612978576040517f08c379a000000000000000000000000000000000000000000000000000000000815260040161296f90613dca565b60405180910390fd5b612985848484840361256a565b5b50505050565b600073ffffffffffffffffffffffffffffffffffffffff168373ffffffffffffffffffffffffffffffffffffffff16036129fb576040517f08c379a00000000000000000000000000000000000000000000000000000000081526004016129f290613e5c565b60405180910390fd5b600073ffffffffffffffffffffffffffffffffffffffff168273ffffffffffffffffffffffffffffffffffffffff1603612a6a576040517f08c379a0000000000000000000000000000000000000000000000000000000008152600401612a6190613eee565b60405180910390fd5b612a75838383612d58565b60008060008573ffffffffffffffffffffffffffffffffffffffff1673ffffffffffffffffffffffffffffffffffffffff16815260200190815260200160002054905081811015612afb576040517f08c379a0000000000000000000000000000000000000000000000000000000008152600401612af290613f80565b60405180910390fd5b8181036000808673ffffffffffffffffffffffffffffffffffffffff1673ffffffffffffffffffffffffffffffffffffffff16815260200190815260200160002081905550816000808573ffffffffffffffffffffffffffffffffffffffff1673ffffffffffffffffffffffffffffffffffffffff168152602001908152602001600020600082825401925050819055508273ffffffffffffffffffffffffffffffffffffffff168473ffffffffffffffffffffffffffffffffffffffff167fddf252ad1be2c89b69c2b068fc378daa952ba7f163c4a11628f55a4df523b3ef84604051612be99190612fd8565b60405180910390a3612bfc848484612d5d565b50505050565b600073ffffffffffffffffffffffffffffffffffffffff168273ffffffffffffffffffffffffffffffffffffffff1603612c71576040517f08c379a0000000000000000000000000000000000000000000000000000000008152600401612c6890613fec565b60405180910390fd5b612c7d60008383612d58565b8060026000828254612c8f919061363c565b92505081905550806000808473ffffffffffffffffffffffffffffffffffffffff1673ffffffffffffffffffffffffffffffffffffffff168152602001908152602001600020600082825401925050819055508173ffffffffffffffffffffffffffffffffffffffff16600073ffffffffffffffffffffffffffffffffffffffff167fddf252ad1be2c89b69c2b068fc378daa952ba7f163c4a11628f55a4df523b3ef83604051612d409190612fd8565b60405180910390a3612d5460008383612d5d565b5050565b505050565b505050565b604051806101000160405280600081526020016000815260200160008152602001600073ffffffffffffffffffffffffffffffffffffffff168152602001600073ffffffffffffffffffffffffffffffffffffffff16815260200160001515815260200160006003811115612dda57612dd961318d565b5b815260200160006003811115612df357612df261318d565b5b81525090565b600081519050919050565b600082825260208201905092915050565b60005b83811015612e33578082015181840152602081019050612e18565b60008484015250505050565b6000601f19601f8301169050919050565b6000612e5b82612df9565b612e658185612e04565b9350612e75818560208601612e15565b612e7e81612e3f565b840191505092915050565b60006020820190508181036000830152612ea38184612e50565b905092915050565b6000604051905090565b600080fd5b600080fd5b600073ffffffffffffffffffffffffffffffffffffffff82169050919050565b6000612eea82612ebf565b9050919050565b612efa81612edf565b8114612f0557600080fd5b50565b600081359050612f1781612ef1565b92915050565b6000819050919050565b612f3081612f1d565b8114612f3b57600080fd5b50565b600081359050612f4d81612f27565b92915050565b60008060408385031215612f6a57612f69612eb5565b5b6000612f7885828601612f08565b9250506020612f8985828601612f3e565b9150509250929050565b60008115159050919050565b612fa881612f93565b82525050565b6000602082019050612fc36000830184612f9f565b92915050565b612fd281612f1d565b82525050565b6000602082019050612fed6000830184612fc9565b92915050565b60008060006060848603121561300c5761300b612eb5565b5b600061301a86828701612f08565b935050602061302b86828701612f08565b925050604061303c86828701612f3e565b9150509250925092565b60006020828403121561305c5761305b612eb5565b5b600061306a84828501612f3e565b91505092915050565b600060ff82169050919050565b61308981613073565b82525050565b60006020820190506130a46000830184613080565b92915050565b6000602082840312156130c0576130bf612eb5565b5b60006130ce84828501612f08565b91505092915050565b6130e081612f93565b81146130eb57600080fd5b50565b6000813590506130fd816130d7565b92915050565b600080600080600060a0868803121561311f5761311e612eb5565b5b600061312d88828901612f3e565b955050602061313e88828901612f08565b945050604061314f88828901612f3e565b9350506060613160888289016130ee565b925050608061317188828901612f08565b9150509295509295909350565b61318781612edf565b82525050565b7f4e487b7100000000000000000000000000000000000000000000000000000000600052602160045260246000fd5b600481106131cd576131cc61318d565b5b50565b60008190506131de826131bc565b919050565b60006131ee826131d0565b9050919050565b6131fe816131e3565b82525050565b600481106132155761321461318d565b5b50565b600081905061322682613204565b919050565b600061323682613218565b9050919050565b6132468161322b565b82525050565b600061010082019050613262600083018b612fc9565b61326f602083018a612fc9565b61327c6040830189612fc9565b613289606083018861317e565b613296608083018761317e565b6132a360a0830186612f9f565b6132b060c08301856131f5565b6132bd60e083018461323d565b9998505050505050505050565b6000806000606084860312156132e3576132e2612eb5565b5b60006132f186828701612f3e565b935050602061330286828701612f08565b925050604061331386828701612f3e565b9150509250925092565b6000806040838503121561333457613333612eb5565b5b600061334285828601612f08565b925050602061335385828601612f08565b9150509250929050565b600080fd5b7f4e487b7100000000000000000000000000000000000000000000000000000000600052604160045260246000fd5b61339a82612e3f565b810181811067ffffffffffffffff821117156133b9576133b8613362565b5b80604052505050565b60006133cc612eab565b90506133d88282613391565b919050565b600067ffffffffffffffff8211156133f8576133f7613362565b5b602082029050602081019050919050565b600080fd5b600061342161341c846133dd565b6133c2565b9050808382526020820190506020840283018581111561344457613443613409565b5b835b8181101561346d57806134598882612f08565b845260208401935050602081019050613446565b5050509392505050565b600082601f83011261348c5761348b61335d565b5b813561349c84826020860161340e565b91505092915050565b6000602082840312156134bb576134ba612eb5565b5b600082013567ffffffffffffffff8111156134d9576134d8612eba565b5b6134e584828501613477565b91505092915050565b60008060006060848603121561350757613506612eb5565b5b600061351586828701612f08565b935050602061352686828701612f3e565b925050604061353786828701612f08565b9150509250925092565b7f4e487b7100000000000000000000000000000000000000000000000000000000600052602260045260246000fd5b6000600282049050600182168061358857607f821691505b60208210810361359b5761359a613541565b5b50919050565b7f496e73756666696369656e742062616c616e6365000000000000000000000000600082015250565b60006135d7601483612e04565b91506135e2826135a1565b602082019050919050565b60006020820190508181036000830152613606816135ca565b9050919050565b7f4e487b7100000000000000000000000000000000000000000000000000000000600052601160045260246000fd5b600061364782612f1d565b915061365283612f1d565b925082820190508082111561366a5761366961360d565b5b92915050565b600061367b82612f1d565b915061368683612f1d565b925082820261369481612f1d565b915082820484148315176136ab576136aa61360d565b5b5092915050565b7f4e487b7100000000000000000000000000000000000000000000000000000000600052601260045260246000fd5b60006136ec82612f1d565b91506136f783612f1d565b925082613707576137066136b2565b5b828204905092915050565b7f52756e6e696e67204c6f77206f6e20546f6b656e730000000000000000000000600082015250565b6000613748601583612e04565b915061375382613712565b602082019050919050565b600060208201905081810360008301526137778161373b565b9050919050565b6000604082019050613793600083018561317e565b6137a06020830184612fc9565b9392505050565b6000815190506137b6816130d7565b92915050565b6000602082840312156137d2576137d1612eb5565b5b60006137e0848285016137a7565b91505092915050565b60006137f482612f1d565b91507fffffffffffffffffffffffffffffffffffffffffffffffffffffffffffffffff82036138265761382561360d565b5b600182019050919050565b60008160011c9050919050565b6000808291508390505b6001851115613888578086048111156138645761386361360d565b5b60018516156138735780820291505b808102905061388185613831565b9450613848565b94509492505050565b6000826138a1576001905061395d565b816138af576000905061395d565b81600181146138c557600281146138cf576138fe565b600191505061395d565b60ff8411156138e1576138e061360d565b5b8360020a9150848211156138f8576138f761360d565b5b5061395d565b5060208310610133831016604e8410600b84101617156139335782820a90508381111561392e5761392d61360d565b5b61395d565b613940848484600161383e565b925090508184048111156139575761395661360d565b5b81810290505b9392505050565b600061396f82612f1d565b915061397a83613073565b92506139a77fffffffffffffffffffffffffffffffffffffffffffffffffffffffffffffffff8484613891565b905092915050565b7f45524332303a2064656372656173656420616c6c6f77616e63652062656c6f7760008201527f207a65726f000000000000000000000000000000000000000000000000000000602082015250565b6000613a0b602583612e04565b9150613a16826139af565b604082019050919050565b60006020820190508181036000830152613a3a816139fe565b9050919050565b6000613a4c82612f1d565b9150613a5783612f1d565b9250828203905081811115613a6f57613a6e61360d565b5b92915050565b7f4e487b7100000000000000000000000000000000000000000000000000000000600052603260045260246000fd5b7f53656c6c657220686173206e6f7420656e6f75676820616d6f756e74206f662060008201527f546f6b656e730000000000000000000000000000000000000000000000000000602082015250565b6000613b00602683612e04565b9150613b0b82613aa4565b604082019050919050565b60006020820190508181036000830152613b2f81613af3565b9050919050565b7f45524332303a20617070726f76652066726f6d20746865207a65726f2061646460008201527f7265737300000000000000000000000000000000000000000000000000000000602082015250565b6000613b92602483612e04565b9150613b9d82613b36565b604082019050919050565b60006020820190508181036000830152613bc181613b85565b9050919050565b7f45524332303a20617070726f766520746f20746865207a65726f20616464726560008201527f7373000000000000000000000000000000000000000000000000000000000000602082015250565b6000613c24602283612e04565b9150613c2f82613bc8565b604082019050919050565b60006020820190508181036000830152613c5381613c17565b9050919050565b7f45524332303a206275726e2066726f6d20746865207a65726f2061646472657360008201527f7300000000000000000000000000000000000000000000000000000000000000602082015250565b6000613cb6602183612e04565b9150613cc182613c5a565b604082019050919050565b60006020820190508181036000830152613ce581613ca9565b9050919050565b7f45524332303a206275726e20616d6f756e7420657863656564732062616c616e60008201527f6365000000000000000000000000000000000000000000000000000000000000602082015250565b6000613d48602283612e04565b9150613d5382613cec565b604082019050919050565b60006020820190508181036000830152613d7781613d3b565b9050919050565b7f45524332303a20696e73756666696369656e7420616c6c6f77616e6365000000600082015250565b6000613db4601d83612e04565b9150613dbf82613d7e565b602082019050919050565b60006020820190508181036000830152613de381613da7565b9050919050565b7f45524332303a207472616e736665722066726f6d20746865207a65726f20616460008201527f6472657373000000000000000000000000000000000000000000000000000000602082015250565b6000613e46602583612e04565b9150613e5182613dea565b604082019050919050565b60006020820190508181036000830152613e7581613e39565b9050919050565b7f45524332303a207472616e7366657220746f20746865207a65726f206164647260008201527f6573730000000000000000000000000000000000000000000000000000000000602082015250565b6000613ed8602383612e04565b9150613ee382613e7c565b604082019050919050565b60006020820190508181036000830152613f0781613ecb565b9050919050565b7f45524332303a207472616e7366657220616d6f756e742065786365656473206260008201527f616c616e63650000000000000000000000000000000000000000000000000000602082015250565b6000613f6a602683612e04565b9150613f7582613f0e565b604082019050919050565b60006020820190508181036000830152613f9981613f5d565b9050919050565b7f45524332303a206d696e7420746f20746865207a65726f206164647265737300600082015250565b6000613fd6601f83612e04565b9150613fe182613fa0565b602082019050919050565b6000602082019050818103600083015261400581613fc9565b905091905056fea2646970667358221220da3023bf7fbbd296262fd457d30a82831a49b06c26c536c76fb68c66981580d264736f6c63430008120033",
  "immutableReferences": {},
  "source": "// SPDX-License-Identifier: MIT\npragma solidity ^0.8.0;\n\n// Import the necessary ERC-20 interface\nimport \"@openzeppelin/contracts/token/ERC20/ERC20.sol\";\nimport \"@openzeppelin/contracts/token/ERC20/IERC20.sol\";\n\n// Inherit from the ERC-20 contract\ncontract FlipCoin is ERC20 {\n\n    uint256 purchase_rewards;\n    uint256 purchase_referrals;\n    uint256 purchase_socialMedia;\n    uint256 staking;\n    uint256 partners;\n    uint256 currentOrder;\n    uint256 expireTime = 60;\n    uint256 socialMediaReward = 1;\n    uint256 referralReward = 1;\n    uint256 currentMintAmount = 0;\n    address ownerAddress;\n    address tokenAddress;\n\n    enum OrderStatus\n    {\n        Confirmed,\n        Cancelled,\n        NotReturned,\n        Expired\n    }\n    enum OrderType\n    {\n        Purchase,\n        Airdrop,\n        SocialPost,\n        Stake\n    }\n    struct Order\n    {\n        uint256 id;\n        uint256 lastReturnDate;\n        uint256 flipCoin;\n        address userAccount;\n        address referrer;\n        bool isReferred;\n        OrderStatus status;\n        OrderType orderType;\n    }\n\n    mapping(uint256=>Order) public orders;\n    mapping(address=>uint256) public expectedBalance;\n    mapping(uint256=>uint256) public totalReferrals;\n\n    constructor(string memory name, string memory symbol) ERC20(name, symbol) {\n        _mint(address(this), 10000000 * 10 ** decimals());\n        currentMintAmount = 10000000;\n        ownerAddress = msg.sender;\n        tokenAddress = address(this);\n    }\n    function distributeToPartners(address[] memory sellers) external \n    {\n        for(uint256 i=0;i<sellers.length;i++)\n        {\n            IERC20 token = IERC20(tokenAddress);\n            token.transfer(sellers[i], (currentMintAmount * 5)/100);\n        }\n    }\n    function removeSeller(address seller) external \n    {\n        _burn(seller, balanceOf(seller));\n    }\n    function mint(uint256 amount) external \n    {\n        require(ownerAddress == msg.sender);\n        _mint(address(this), amount * 10 ** decimals());\n        currentMintAmount = amount;\n    }\n    function depositCoint() external {\n        for(uint256 i=0;i<currentOrder;i++)\n        {\n            if(orders[i].status == OrderStatus.Confirmed && block.timestamp >= orders[i].lastReturnDate)\n            {\n                if(orders[i].orderType == OrderType.Airdrop)\n                {\n                    require((totalSupply() * 80 * 5)/10000 > partners, \"Running Low on Tokens\");\n                    partners += orders[i].flipCoin;\n                }\n                else if(orders[i].orderType == OrderType.SocialPost)\n                {\n                    require((totalSupply() * 80 * 5)/10000 > purchase_socialMedia, \"Running Low on Tokens\");\n                    partners += orders[i].flipCoin;\n                }\n                else if(orders[i].orderType == OrderType.Stake)\n                {\n                    require((totalSupply() * 80 * 15)/10000 > staking, \"Running Low on Tokens\");\n                    staking += orders[i].flipCoin;\n                }\n                else \n                {\n                    require((totalSupply() * 80 * 60 * 40)/1000000 > purchase_rewards, \"Running Low on Tokens\");\n                    purchase_rewards += orders[i].flipCoin;\n                }\n                orders[i].status = OrderStatus.NotReturned;\n                IERC20 token = IERC20(tokenAddress);\n                token.transfer(orders[i].userAccount, orders[i].flipCoin);\n                expectedBalance[orders[i].userAccount] += orders[i].flipCoin;\n                if(orders[i].isReferred)\n                {\n                    require((totalSupply() * 80 * 60 * 15)/1000000 > purchase_referrals, \"Running Low on Tokens\");\n                    IERC20 tokenRef = IERC20(tokenAddress);\n                    tokenRef.transfer(orders[i].referrer, referralReward);\n                    expectedBalance[orders[i].referrer] += referralReward;\n                    purchase_referrals += referralReward;\n                }\n            }\n\n        }\n    }\n    function deductCoin() payable external {\n        for(uint256 i=0;i<currentOrder;i++)\n        {\n            if(orders[i].status == OrderStatus.NotReturned && block.timestamp >= orders[i].lastReturnDate + expireTime)\n            {\n                if(balanceOf(orders[i].userAccount) > (expectedBalance[orders[i].userAccount] - orders[i].flipCoin))\n                {\n                    uint256 extraAmount = balanceOf(orders[i].userAccount) - (expectedBalance[orders[i].userAccount] - orders[i].flipCoin);\n                    _burn(orders[i].userAccount, extraAmount);\n                }\n                expectedBalance[orders[i].userAccount] -= orders[i].flipCoin;\n                if(orders[i].isReferred)\n                {\n                    if(balanceOf(orders[i].referrer) > (expectedBalance[orders[i].referrer] - referralReward))\n                    {\n                        uint256 extraAmount = balanceOf(orders[i].referrer) - (expectedBalance[orders[i].referrer] - referralReward);\n                        _burn(orders[i].referrer, extraAmount);\n                    }\n                    expectedBalance[orders[i].referrer] -= referralReward;\n                }\n                orders[i].status = OrderStatus.Expired;\n            }\n        }\n    }\n    function purchase(uint256 productPrice,address userAccount, uint256 lastReturnDate,bool isReferred, address referrer)external {\n        Order memory newOrder;\n        newOrder.id = currentOrder;\n        if(productPrice/100 >= 100){\n        newOrder.flipCoin = 100;\n        }\n        else{\n            newOrder.flipCoin = productPrice / 100;\n        }\n        newOrder.userAccount = userAccount;\n        newOrder.status = OrderStatus.Confirmed;\n        newOrder.lastReturnDate = lastReturnDate;\n        newOrder.orderType = OrderType.Purchase;\n        if(isReferred)\n        {\n            newOrder.isReferred = true;\n            newOrder.referrer = referrer;\n        }\n        else \n        {\n            newOrder.isReferred = false;\n        }\n        orders[currentOrder] = newOrder;\n        currentOrder++;\n    }\n    function disperseCoin(address seller, uint256 amount, address userAccount) external {\n        require(balanceOf(seller) >= amount, \"Seller has not enough amount of Tokens\");\n        require((totalSupply() * 80 * 5)/10000 > partners, \"Running Low on Tokens\");\n        Order memory newOrder;\n        newOrder.id = currentOrder;\n        newOrder.flipCoin = amount;\n        newOrder.isReferred = false;\n        newOrder.lastReturnDate = block.timestamp;\n        newOrder.status = OrderStatus.Confirmed;\n        newOrder.userAccount = userAccount;\n        newOrder.orderType = OrderType.Airdrop;\n        orders[currentOrder] = newOrder;\n        _burn(seller, amount);\n        currentOrder++;\n    }\n    function cancleOrder(uint256 orderId) external \n    {\n        require(orders[orderId].lastReturnDate > block.timestamp);\n        orders[orderId].status = OrderStatus.Cancelled;\n    }\n    function socialMediaPost(address userAccount) external \n    {\n        Order memory newOrder;\n        newOrder.id = currentOrder;\n        newOrder.flipCoin = socialMediaReward;\n        newOrder.isReferred = false;\n        newOrder.lastReturnDate = block.timestamp;\n        newOrder.status = OrderStatus.Confirmed;\n        newOrder.userAccount = userAccount;\n        newOrder.orderType = OrderType.SocialPost;\n        orders[currentOrder] = newOrder;\n        currentOrder++;\n    }\n    function redeem(address userAccount, uint256 amount) external \n    {\n        require(balanceOf(userAccount) >= amount && amount > 0, \"Insufficient balance\");\n        _burn(userAccount, amount);\n    }\n    function stakeTokens(uint256 amount, address userAccount, uint256 interval) external {\n        require(amount >0 && amount <= balanceOf(userAccount), \"Insufficient balance\");\n        _transfer(userAccount, address(this) ,amount);\n        Order memory newOrder;\n        newOrder.id = currentOrder;\n        newOrder.flipCoin = amount + amount/10;\n        newOrder.isReferred = false;\n        newOrder.lastReturnDate = block.timestamp + interval;\n        newOrder.status = OrderStatus.Confirmed;\n        newOrder.orderType = OrderType.Stake;\n        newOrder.userAccount = userAccount;\n        orders[currentOrder] = newOrder;\n        currentOrder++;\n    }\n}\n",
  "sourcePath": "/home/subrat0018/Desktop/project-grid/truffle/contracts/token.sol",
  "compiler": {
    "name": "solc",
    "version": "0.8.18+commit.87f61d96.Emscripten.clang"
  },
  "schemaVersion": "3.4.15",
  "updatedAt": "2023-08-17T13:36:45.278Z",
  "devdoc": {
    "events": {
      "Approval(address,address,uint256)": {
        "details": "Emitted when the allowance of a `spender` for an `owner` is set by a call to {approve}. `value` is the new allowance."
      },
      "Transfer(address,address,uint256)": {
        "details": "Emitted when `value` tokens are moved from one account (`from`) to another (`to`). Note that `value` may be zero."
      }
    },
    "kind": "dev",
    "methods": {
      "allowance(address,address)": {
        "details": "See {IERC20-allowance}."
      },
      "approve(address,uint256)": {
        "details": "See {IERC20-approve}. NOTE: If `amount` is the maximum `uint256`, the allowance is not updated on `transferFrom`. This is semantically equivalent to an infinite approval. Requirements: - `spender` cannot be the zero address."
      },
      "balanceOf(address)": {
        "details": "See {IERC20-balanceOf}."
      },
      "decimals()": {
        "details": "Returns the number of decimals used to get its user representation. For example, if `decimals` equals `2`, a balance of `505` tokens should be displayed to a user as `5.05` (`505 / 10 ** 2`). Tokens usually opt for a value of 18, imitating the relationship between Ether and Wei. This is the default value returned by this function, unless it's overridden. NOTE: This information is only used for _display_ purposes: it in no way affects any of the arithmetic of the contract, including {IERC20-balanceOf} and {IERC20-transfer}."
      },
      "decreaseAllowance(address,uint256)": {
        "details": "Atomically decreases the allowance granted to `spender` by the caller. This is an alternative to {approve} that can be used as a mitigation for problems described in {IERC20-approve}. Emits an {Approval} event indicating the updated allowance. Requirements: - `spender` cannot be the zero address. - `spender` must have allowance for the caller of at least `subtractedValue`."
      },
      "increaseAllowance(address,uint256)": {
        "details": "Atomically increases the allowance granted to `spender` by the caller. This is an alternative to {approve} that can be used as a mitigation for problems described in {IERC20-approve}. Emits an {Approval} event indicating the updated allowance. Requirements: - `spender` cannot be the zero address."
      },
      "name()": {
        "details": "Returns the name of the token."
      },
      "symbol()": {
        "details": "Returns the symbol of the token, usually a shorter version of the name."
      },
      "totalSupply()": {
        "details": "See {IERC20-totalSupply}."
      },
      "transfer(address,uint256)": {
        "details": "See {IERC20-transfer}. Requirements: - `to` cannot be the zero address. - the caller must have a balance of at least `amount`."
      },
      "transferFrom(address,address,uint256)": {
        "details": "See {IERC20-transferFrom}. Emits an {Approval} event indicating the updated allowance. This is not required by the EIP. See the note at the beginning of {ERC20}. NOTE: Does not update the allowance if the current allowance is the maximum `uint256`. Requirements: - `from` and `to` cannot be the zero address. - `from` must have a balance of at least `amount`. - the caller must have allowance for ``from``'s tokens of at least `amount`."
      }
    },
    "version": 1
  },
  "userdoc": {
    "kind": "user",
    "methods": {},
    "version": 1
  }
}