{
  "contractName": "FlipCoin",
  "abi": [
    {
      "inputs": [
        {
          "internalType": "string",
          "name": "name",
          "type": "string"
        },
        {
          "internalType": "string",
          "name": "symbol",
          "type": "string"
        }
      ],
      "stateMutability": "nonpayable",
      "type": "constructor"
    },
    {
      "anonymous": false,
      "inputs": [
        {
          "indexed": true,
          "internalType": "address",
          "name": "owner",
          "type": "address"
        },
        {
          "indexed": true,
          "internalType": "address",
          "name": "spender",
          "type": "address"
        },
        {
          "indexed": false,
          "internalType": "uint256",
          "name": "value",
          "type": "uint256"
        }
      ],
      "name": "Approval",
      "type": "event"
    },
    {
      "anonymous": false,
      "inputs": [
        {
          "indexed": true,
          "internalType": "address",
          "name": "from",
          "type": "address"
        },
        {
          "indexed": true,
          "internalType": "address",
          "name": "to",
          "type": "address"
        },
        {
          "indexed": false,
          "internalType": "uint256",
          "name": "value",
          "type": "uint256"
        }
      ],
      "name": "Transfer",
      "type": "event"
    },
    {
      "inputs": [
        {
          "internalType": "address",
          "name": "owner",
          "type": "address"
        },
        {
          "internalType": "address",
          "name": "spender",
          "type": "address"
        }
      ],
      "name": "allowance",
      "outputs": [
        {
          "internalType": "uint256",
          "name": "",
          "type": "uint256"
        }
      ],
      "stateMutability": "view",
      "type": "function",
      "constant": true
    },
    {
      "inputs": [
        {
          "internalType": "address",
          "name": "spender",
          "type": "address"
        },
        {
          "internalType": "uint256",
          "name": "amount",
          "type": "uint256"
        }
      ],
      "name": "approve",
      "outputs": [
        {
          "internalType": "bool",
          "name": "",
          "type": "bool"
        }
      ],
      "stateMutability": "nonpayable",
      "type": "function"
    },
    {
      "inputs": [
        {
          "internalType": "address",
          "name": "account",
          "type": "address"
        }
      ],
      "name": "balanceOf",
      "outputs": [
        {
          "internalType": "uint256",
          "name": "",
          "type": "uint256"
        }
      ],
      "stateMutability": "view",
      "type": "function",
      "constant": true
    },
    {
      "inputs": [],
      "name": "currentMintAmount",
      "outputs": [
        {
          "internalType": "uint256",
          "name": "",
          "type": "uint256"
        }
      ],
      "stateMutability": "view",
      "type": "function",
      "constant": true
    },
    {
      "inputs": [],
      "name": "currentOrder",
      "outputs": [
        {
          "internalType": "uint256",
          "name": "",
          "type": "uint256"
        }
      ],
      "stateMutability": "view",
      "type": "function",
      "constant": true
    },
    {
      "inputs": [],
      "name": "decimals",
      "outputs": [
        {
          "internalType": "uint8",
          "name": "",
          "type": "uint8"
        }
      ],
      "stateMutability": "view",
      "type": "function",
      "constant": true
    },
    {
      "inputs": [
        {
          "internalType": "address",
          "name": "spender",
          "type": "address"
        },
        {
          "internalType": "uint256",
          "name": "subtractedValue",
          "type": "uint256"
        }
      ],
      "name": "decreaseAllowance",
      "outputs": [
        {
          "internalType": "bool",
          "name": "",
          "type": "bool"
        }
      ],
      "stateMutability": "nonpayable",
      "type": "function"
    },
    {
      "inputs": [
        {
          "internalType": "address",
          "name": "",
          "type": "address"
        }
      ],
      "name": "expectedBalance",
      "outputs": [
        {
          "internalType": "uint256",
          "name": "",
          "type": "uint256"
        }
      ],
      "stateMutability": "view",
      "type": "function",
      "constant": true
    },
    {
      "inputs": [],
      "name": "expireTime",
      "outputs": [
        {
          "internalType": "uint256",
          "name": "",
          "type": "uint256"
        }
      ],
      "stateMutability": "view",
      "type": "function",
      "constant": true
    },
    {
      "inputs": [
        {
          "internalType": "address",
          "name": "spender",
          "type": "address"
        },
        {
          "internalType": "uint256",
          "name": "addedValue",
          "type": "uint256"
        }
      ],
      "name": "increaseAllowance",
      "outputs": [
        {
          "internalType": "bool",
          "name": "",
          "type": "bool"
        }
      ],
      "stateMutability": "nonpayable",
      "type": "function"
    },
    {
      "inputs": [],
      "name": "name",
      "outputs": [
        {
          "internalType": "string",
          "name": "",
          "type": "string"
        }
      ],
      "stateMutability": "view",
      "type": "function",
      "constant": true
    },
    {
      "inputs": [
        {
          "internalType": "uint256",
          "name": "",
          "type": "uint256"
        }
      ],
      "name": "orders",
      "outputs": [
        {
          "internalType": "uint256",
          "name": "id",
          "type": "uint256"
        },
        {
          "internalType": "uint256",
          "name": "lastReturnDate",
          "type": "uint256"
        },
        {
          "internalType": "uint256",
          "name": "flipCoin",
          "type": "uint256"
        },
        {
          "internalType": "address",
          "name": "userAccount",
          "type": "address"
        },
        {
          "internalType": "address",
          "name": "referrer",
          "type": "address"
        },
        {
          "internalType": "bool",
          "name": "isReferred",
          "type": "bool"
        },
        {
          "internalType": "string",
          "name": "productName",
          "type": "string"
        },
        {
          "internalType": "string",
          "name": "imgUrl",
          "type": "string"
        },
        {
          "internalType": "enum FlipCoin.OrderStatus",
          "name": "status",
          "type": "uint8"
        },
        {
          "internalType": "enum FlipCoin.OrderType",
          "name": "orderType",
          "type": "uint8"
        }
      ],
      "stateMutability": "view",
      "type": "function",
      "constant": true
    },
    {
      "inputs": [],
      "name": "ownerAddress",
      "outputs": [
        {
          "internalType": "address",
          "name": "",
          "type": "address"
        }
      ],
      "stateMutability": "view",
      "type": "function",
      "constant": true
    },
    {
      "inputs": [],
      "name": "partners",
      "outputs": [
        {
          "internalType": "uint256",
          "name": "",
          "type": "uint256"
        }
      ],
      "stateMutability": "view",
      "type": "function",
      "constant": true
    },
    {
      "inputs": [],
      "name": "purchase_referrals",
      "outputs": [
        {
          "internalType": "uint256",
          "name": "",
          "type": "uint256"
        }
      ],
      "stateMutability": "view",
      "type": "function",
      "constant": true
    },
    {
      "inputs": [],
      "name": "purchase_rewards",
      "outputs": [
        {
          "internalType": "uint256",
          "name": "",
          "type": "uint256"
        }
      ],
      "stateMutability": "view",
      "type": "function",
      "constant": true
    },
    {
      "inputs": [],
      "name": "purchase_socialMedia",
      "outputs": [
        {
          "internalType": "uint256",
          "name": "",
          "type": "uint256"
        }
      ],
      "stateMutability": "view",
      "type": "function",
      "constant": true
    },
    {
      "inputs": [],
      "name": "referralReward",
      "outputs": [
        {
          "internalType": "uint256",
          "name": "",
          "type": "uint256"
        }
      ],
      "stateMutability": "view",
      "type": "function",
      "constant": true
    },
    {
      "inputs": [],
      "name": "socialMediaReward",
      "outputs": [
        {
          "internalType": "uint256",
          "name": "",
          "type": "uint256"
        }
      ],
      "stateMutability": "view",
      "type": "function",
      "constant": true
    },
    {
      "inputs": [],
      "name": "staking",
      "outputs": [
        {
          "internalType": "uint256",
          "name": "",
          "type": "uint256"
        }
      ],
      "stateMutability": "view",
      "type": "function",
      "constant": true
    },
    {
      "inputs": [],
      "name": "symbol",
      "outputs": [
        {
          "internalType": "string",
          "name": "",
          "type": "string"
        }
      ],
      "stateMutability": "view",
      "type": "function",
      "constant": true
    },
    {
      "inputs": [],
      "name": "tokenAddress",
      "outputs": [
        {
          "internalType": "address",
          "name": "",
          "type": "address"
        }
      ],
      "stateMutability": "view",
      "type": "function",
      "constant": true
    },
    {
      "inputs": [
        {
          "internalType": "uint256",
          "name": "",
          "type": "uint256"
        }
      ],
      "name": "totalReferrals",
      "outputs": [
        {
          "internalType": "uint256",
          "name": "",
          "type": "uint256"
        }
      ],
      "stateMutability": "view",
      "type": "function",
      "constant": true
    },
    {
      "inputs": [],
      "name": "totalSupply",
      "outputs": [
        {
          "internalType": "uint256",
          "name": "",
          "type": "uint256"
        }
      ],
      "stateMutability": "view",
      "type": "function",
      "constant": true
    },
    {
      "inputs": [
        {
          "internalType": "address",
          "name": "to",
          "type": "address"
        },
        {
          "internalType": "uint256",
          "name": "amount",
          "type": "uint256"
        }
      ],
      "name": "transfer",
      "outputs": [
        {
          "internalType": "bool",
          "name": "",
          "type": "bool"
        }
      ],
      "stateMutability": "nonpayable",
      "type": "function"
    },
    {
      "inputs": [
        {
          "internalType": "address",
          "name": "from",
          "type": "address"
        },
        {
          "internalType": "address",
          "name": "to",
          "type": "address"
        },
        {
          "internalType": "uint256",
          "name": "amount",
          "type": "uint256"
        }
      ],
      "name": "transferFrom",
      "outputs": [
        {
          "internalType": "bool",
          "name": "",
          "type": "bool"
        }
      ],
      "stateMutability": "nonpayable",
      "type": "function"
    },
    {
      "inputs": [
        {
          "internalType": "address[]",
          "name": "sellers",
          "type": "address[]"
        }
      ],
      "name": "distributeToPartners",
      "outputs": [],
      "stateMutability": "nonpayable",
      "type": "function"
    },
    {
      "inputs": [
        {
          "internalType": "address",
          "name": "seller",
          "type": "address"
        }
      ],
      "name": "removeSeller",
      "outputs": [],
      "stateMutability": "nonpayable",
      "type": "function"
    },
    {
      "inputs": [
        {
          "internalType": "uint256",
          "name": "amount",
          "type": "uint256"
        }
      ],
      "name": "mint",
      "outputs": [],
      "stateMutability": "nonpayable",
      "type": "function"
    },
    {
      "inputs": [],
      "name": "depositCoint",
      "outputs": [],
      "stateMutability": "nonpayable",
      "type": "function"
    },
    {
      "inputs": [],
      "name": "deductCoin",
      "outputs": [],
      "stateMutability": "payable",
      "type": "function",
      "payable": true
    },
    {
      "inputs": [
        {
          "internalType": "uint256",
          "name": "productPrice",
          "type": "uint256"
        },
        {
          "internalType": "address",
          "name": "userAccount",
          "type": "address"
        },
        {
          "internalType": "uint256",
          "name": "lastReturnDate",
          "type": "uint256"
        },
        {
          "internalType": "bool",
          "name": "isReferred",
          "type": "bool"
        },
        {
          "internalType": "address",
          "name": "referrer",
          "type": "address"
        },
        {
          "internalType": "bool",
          "name": "isRedeem",
          "type": "bool"
        },
        {
          "internalType": "uint256",
          "name": "redeemAmount",
          "type": "uint256"
        },
        {
          "internalType": "string",
          "name": "productName",
          "type": "string"
        },
        {
          "internalType": "string",
          "name": "imgUrl",
          "type": "string"
        }
      ],
      "name": "purchase",
      "outputs": [],
      "stateMutability": "nonpayable",
      "type": "function"
    },
    {
      "inputs": [
        {
          "internalType": "address",
          "name": "seller",
          "type": "address"
        },
        {
          "internalType": "uint256[]",
          "name": "amount",
          "type": "uint256[]"
        },
        {
          "internalType": "address[]",
          "name": "userAccount",
          "type": "address[]"
        },
        {
          "internalType": "uint256",
          "name": "totalAmount",
          "type": "uint256"
        }
      ],
      "name": "disperseCoin",
      "outputs": [],
      "stateMutability": "nonpayable",
      "type": "function"
    },
    {
      "inputs": [
        {
          "internalType": "uint256",
          "name": "orderId",
          "type": "uint256"
        }
      ],
      "name": "cancleOrder",
      "outputs": [],
      "stateMutability": "nonpayable",
      "type": "function"
    },
    {
      "inputs": [
        {
          "internalType": "address",
          "name": "userAccount",
          "type": "address"
        }
      ],
      "name": "socialMediaPost",
      "outputs": [],
      "stateMutability": "nonpayable",
      "type": "function"
    },
    {
      "inputs": [
        {
          "internalType": "uint256",
          "name": "amount",
          "type": "uint256"
        },
        {
          "internalType": "address",
          "name": "userAccount",
          "type": "address"
        },
        {
          "internalType": "uint256",
          "name": "interval",
          "type": "uint256"
        }
      ],
      "name": "stakeTokens",
      "outputs": [],
      "stateMutability": "nonpayable",
      "type": "function"
    }
  ],
  "bytecode": "0x608060405261012c600b556005600c556005600d556000600e553480156200002657600080fd5b506040516200566e3803806200566e83398181016040528101906200004c919062000522565b8181816003908051906020019062000066929190620002d5565b5080600490805190602001906200007f929190620002d5565b505050620000c130620000976200015560201b60201c565b600a620000a5919062000741565b62989680620000b5919062000792565b6200015e60201b60201c565b62989680600e8190555033600f60006101000a81548173ffffffffffffffffffffffffffffffffffffffff021916908373ffffffffffffffffffffffffffffffffffffffff16021790555030601060006101000a81548173ffffffffffffffffffffffffffffffffffffffff021916908373ffffffffffffffffffffffffffffffffffffffff160217905550505062000965565b60006012905090565b600073ffffffffffffffffffffffffffffffffffffffff168273ffffffffffffffffffffffffffffffffffffffff1603620001d0576040517f08c379a0000000000000000000000000000000000000000000000000000000008152600401620001c79062000854565b60405180910390fd5b620001e460008383620002cb60201b60201c565b8060026000828254620001f8919062000876565b92505081905550806000808473ffffffffffffffffffffffffffffffffffffffff1673ffffffffffffffffffffffffffffffffffffffff168152602001908152602001600020600082825401925050819055508173ffffffffffffffffffffffffffffffffffffffff16600073ffffffffffffffffffffffffffffffffffffffff167fddf252ad1be2c89b69c2b068fc378daa952ba7f163c4a11628f55a4df523b3ef83604051620002ab9190620008e4565b60405180910390a3620002c760008383620002d060201b60201c565b5050565b505050565b505050565b828054620002e39062000930565b90600052602060002090601f01602090048101928262000307576000855562000353565b82601f106200032257805160ff191683800117855562000353565b8280016001018555821562000353579182015b828111156200035257825182559160200191906001019062000335565b5b50905062000362919062000366565b5090565b5b808211156200038157600081600090555060010162000367565b5090565b6000604051905090565b600080fd5b600080fd5b600080fd5b600080fd5b6000601f19601f8301169050919050565b7f4e487b7100000000000000000000000000000000000000000000000000000000600052604160045260246000fd5b620003ee82620003a3565b810181811067ffffffffffffffff8211171562000410576200040f620003b4565b5b80604052505050565b60006200042562000385565b9050620004338282620003e3565b919050565b600067ffffffffffffffff821115620004565762000455620003b4565b5b6200046182620003a3565b9050602081019050919050565b60005b838110156200048e57808201518184015260208101905062000471565b838111156200049e576000848401525b50505050565b6000620004bb620004b58462000438565b62000419565b905082815260208101848484011115620004da57620004d96200039e565b5b620004e78482856200046e565b509392505050565b600082601f83011262000507576200050662000399565b5b815162000519848260208601620004a4565b91505092915050565b600080604083850312156200053c576200053b6200038f565b5b600083015167ffffffffffffffff8111156200055d576200055c62000394565b5b6200056b85828601620004ef565b925050602083015167ffffffffffffffff8111156200058f576200058e62000394565b5b6200059d85828601620004ef565b9150509250929050565b7f4e487b7100000000000000000000000000000000000000000000000000000000600052601160045260246000fd5b60008160011c9050919050565b6000808291508390505b600185111562000635578086048111156200060d576200060c620005a7565b5b60018516156200061d5780820291505b80810290506200062d85620005d6565b9450620005ed565b94509492505050565b60008262000650576001905062000723565b8162000660576000905062000723565b81600181146200067957600281146200068457620006ba565b600191505062000723565b60ff841115620006995762000698620005a7565b5b8360020a915084821115620006b357620006b2620005a7565b5b5062000723565b5060208310610133831016604e8410600b8410161715620006f45782820a905083811115620006ee57620006ed620005a7565b5b62000723565b620007038484846001620005e3565b925090508184048111156200071d576200071c620005a7565b5b81810290505b9392505050565b6000819050919050565b600060ff82169050919050565b60006200074e826200072a565b91506200075b8362000734565b92506200078a7fffffffffffffffffffffffffffffffffffffffffffffffffffffffffffffffff84846200063e565b905092915050565b60006200079f826200072a565b9150620007ac836200072a565b9250817fffffffffffffffffffffffffffffffffffffffffffffffffffffffffffffffff0483118215151615620007e857620007e7620005a7565b5b828202905092915050565b600082825260208201905092915050565b7f45524332303a206d696e7420746f20746865207a65726f206164647265737300600082015250565b60006200083c601f83620007f3565b9150620008498262000804565b602082019050919050565b600060208201905081810360008301526200086f816200082d565b9050919050565b600062000883826200072a565b915062000890836200072a565b9250827fffffffffffffffffffffffffffffffffffffffffffffffffffffffffffffffff03821115620008c857620008c7620005a7565b5b828201905092915050565b620008de816200072a565b82525050565b6000602082019050620008fb6000830184620008d3565b92915050565b7f4e487b7100000000000000000000000000000000000000000000000000000000600052602260045260246000fd5b600060028204905060018216806200094957607f821691505b6020821081036200095f576200095e62000901565b5b50919050565b614cf980620009756000396000f3fe60806040526004361061020f5760003560e01c806395d89b4111610118578063b64dac4d116100a0578063dd62ed3e1161006f578063dd62ed3e146107c2578063e3cc16e1146107ff578063f406cb8a14610809578063f64cccea14610832578063f95c0df31461086f5761020f565b8063b64dac4d1461071a578063b9b85b4b14610745578063cec534d614610770578063da757a45146107995761020f565b8063a0712d68116100e7578063a0712d6814610606578063a457c2d71461062f578063a85c38ef1461066c578063a9059cbb146106b2578063b2a62064146106ef5761020f565b806395d89b411461055c5780639a69ca9d146105875780639d76ea58146105b05780639e28229d146105db5761020f565b8063395093511161019b57806377937c211161016a57806377937c211461049d5780637cb9cf54146104b457806381add559146104dd5780638c16602f146105085780638f84aa09146105315761020f565b806339509351146103cd5780634cf088d91461040a5780634d6836741461043557806370a08231146104605761020f565b80631ca351b2116101e25780631ca351b2146102d257806323b872dd146102fd5780632ed8eaa61461033a578063310a1ee314610377578063313ce567146103a25761020f565b806306fdde03146102145780630860eeb21461023f578063095ea7b31461026a57806318160ddd146102a7575b600080fd5b34801561022057600080fd5b50610229610898565b6040516102369190613821565b60405180910390f35b34801561024b57600080fd5b5061025461092a565b604051610261919061385c565b60405180910390f35b34801561027657600080fd5b50610291600480360381019061028c9190613915565b610930565b60405161029e9190613970565b60405180910390f35b3480156102b357600080fd5b506102bc610953565b6040516102c9919061385c565b60405180910390f35b3480156102de57600080fd5b506102e761095d565b6040516102f4919061385c565b60405180910390f35b34801561030957600080fd5b50610324600480360381019061031f919061398b565b610963565b6040516103319190613970565b60405180910390f35b34801561034657600080fd5b50610361600480360381019061035c91906139de565b610992565b60405161036e919061385c565b60405180910390f35b34801561038357600080fd5b5061038c6109aa565b604051610399919061385c565b60405180910390f35b3480156103ae57600080fd5b506103b76109b0565b6040516103c49190613a27565b60405180910390f35b3480156103d957600080fd5b506103f460048036038101906103ef9190613915565b6109b9565b6040516104019190613970565b60405180910390f35b34801561041657600080fd5b5061041f6109f0565b60405161042c919061385c565b60405180910390f35b34801561044157600080fd5b5061044a6109f6565b604051610457919061385c565b60405180910390f35b34801561046c57600080fd5b5061048760048036038101906104829190613a42565b6109fc565b604051610494919061385c565b60405180910390f35b3480156104a957600080fd5b506104b2610a44565b005b3480156104c057600080fd5b506104db60048036038101906104d69190613a42565b611209565b005b3480156104e957600080fd5b506104f261121e565b6040516104ff919061385c565b60405180910390f35b34801561051457600080fd5b5061052f600480360381019061052a9190613c7a565b611224565b005b34801561053d57600080fd5b506105466115c0565b6040516105539190613d28565b60405180910390f35b34801561056857600080fd5b506105716115e6565b60405161057e9190613821565b60405180910390f35b34801561059357600080fd5b506105ae60048036038101906105a99190613a42565b611678565b005b3480156105bc57600080fd5b506105c561194b565b6040516105d29190613d28565b60405180910390f35b3480156105e757600080fd5b506105f0611971565b6040516105fd919061385c565b60405180910390f35b34801561061257600080fd5b5061062d600480360381019061062891906139de565b611977565b005b34801561063b57600080fd5b5061065660048036038101906106519190613915565b611a03565b6040516106639190613970565b60405180910390f35b34801561067857600080fd5b50610693600480360381019061068e91906139de565b611a7a565b6040516106a99a99989796959493929190613e02565b60405180910390f35b3480156106be57600080fd5b506106d960048036038101906106d49190613915565b611c45565b6040516106e69190613970565b60405180910390f35b3480156106fb57600080fd5b50610704611c68565b604051610711919061385c565b60405180910390f35b34801561072657600080fd5b5061072f611c6e565b60405161073c919061385c565b60405180910390f35b34801561075157600080fd5b5061075a611c74565b604051610767919061385c565b60405180910390f35b34801561077c57600080fd5b5061079760048036038101906107929190613eac565b611c7a565b005b3480156107a557600080fd5b506107c060048036038101906107bb9190613fe0565b611fd1565b005b3480156107ce57600080fd5b506107e960048036038101906107e491906140e2565b6122f4565b6040516107f6919061385c565b60405180910390f35b61080761237b565b005b34801561081557600080fd5b50610830600480360381019061082b91906139de565b612993565b005b34801561083e57600080fd5b5061085960048036038101906108549190613a42565b6129f7565b604051610866919061385c565b60405180910390f35b34801561087b57600080fd5b5061089660048036038101906108919190614122565b612a0f565b005b6060600380546108a79061419a565b80601f01602080910402602001604051908101604052809291908181526020018280546108d39061419a565b80156109205780601f106108f557610100808354040283529160200191610920565b820191906000526020600020905b81548152906001019060200180831161090357829003601f168201915b5050505050905090565b60075481565b60008061093b612b0d565b9050610948818585612b15565b600191505092915050565b6000600254905090565b600c5481565b60008061096e612b0d565b905061097b858285612cde565b610986858585612d6a565b60019150509392505050565b60136020528060005260406000206000915090505481565b600b5481565b60006012905090565b6000806109c4612b0d565b90506109e58185856109d685896122f4565b6109e091906141fa565b612b15565b600191505092915050565b60085481565b600d5481565b60008060008373ffffffffffffffffffffffffffffffffffffffff1673ffffffffffffffffffffffffffffffffffffffff168152602001908152602001600020549050919050565b60005b600a548110156112065760006003811115610a6557610a64613d43565b5b6011600083815260200190815260200160002060070160009054906101000a900460ff166003811115610a9b57610a9a613d43565b5b148015610abe575060116000828152602001908152602001600020600101544210155b156111f35760016003811115610ad757610ad6613d43565b5b6011600083815260200190815260200160002060070160019054906101000a900460ff166003811115610b0d57610b0c613d43565b5b03610ba95760095460646005610b21610953565b610b2b9190614250565b610b3591906142d9565b11610b75576040517f08c379a0000000000000000000000000000000000000000000000000000000008152600401610b6c90614356565b60405180910390fd5b601160008281526020019081526020016000206002015460096000828254610b9d91906141fa565b92505081905550610e09565b60026003811115610bbd57610bbc613d43565b5b6011600083815260200190815260200160002060070160019054906101000a900460ff166003811115610bf357610bf2613d43565b5b03610c8f5760075460646005610c07610953565b610c119190614250565b610c1b91906142d9565b11610c5b576040517f08c379a0000000000000000000000000000000000000000000000000000000008152600401610c5290614356565b60405180910390fd5b601160008281526020019081526020016000206002015460076000828254610c8391906141fa565b92505081905550610e08565b600380811115610ca257610ca1613d43565b5b6011600083815260200190815260200160002060070160019054906101000a900460ff166003811115610cd857610cd7613d43565b5b03610d74576008546064600f610cec610953565b610cf69190614250565b610d0091906142d9565b11610d40576040517f08c379a0000000000000000000000000000000000000000000000000000000008152600401610d3790614356565b60405180910390fd5b601160008281526020019081526020016000206002015460086000828254610d6891906141fa565b92505081905550610e07565b60055460646028610d83610953565b610d8d9190614250565b610d9791906142d9565b11610dd7576040517f08c379a0000000000000000000000000000000000000000000000000000000008152600401610dce90614356565b60405180910390fd5b601160008281526020019081526020016000206002015460056000828254610dff91906141fa565b925050819055505b5b5b60026011600083815260200190815260200160002060070160006101000a81548160ff02191690836003811115610e4357610e42613d43565b5b02179055506000601060009054906101000a900473ffffffffffffffffffffffffffffffffffffffff1690508073ffffffffffffffffffffffffffffffffffffffff1663a9059cbb6011600085815260200190815260200160002060030160009054906101000a900473ffffffffffffffffffffffffffffffffffffffff1660116000868152602001908152602001600020600201546040518363ffffffff1660e01b8152600401610ef6929190614376565b6020604051808303816000875af1158015610f15573d6000803e3d6000fd5b505050506040513d601f19601f82011682018060405250810190610f3991906143b4565b506011600083815260200190815260200160002060020154601260006011600086815260200190815260200160002060030160009054906101000a900473ffffffffffffffffffffffffffffffffffffffff1673ffffffffffffffffffffffffffffffffffffffff1673ffffffffffffffffffffffffffffffffffffffff1681526020019081526020016000206000828254610fd591906141fa565b925050819055506011600083815260200190815260200160002060040160149054906101000a900460ff16156111f1576006546064600f611014610953565b61101e9190614250565b61102891906142d9565b11611068576040517f08c379a000000000000000000000000000000000000000000000000000000000815260040161105f90614356565b60405180910390fd5b6000601060009054906101000a900473ffffffffffffffffffffffffffffffffffffffff1690508073ffffffffffffffffffffffffffffffffffffffff1663a9059cbb6011600086815260200190815260200160002060040160009054906101000a900473ffffffffffffffffffffffffffffffffffffffff16600d546040518363ffffffff1660e01b8152600401611102929190614376565b6020604051808303816000875af1158015611121573d6000803e3d6000fd5b505050506040513d601f19601f8201168201806040525081019061114591906143b4565b50600d54601260006011600087815260200190815260200160002060040160009054906101000a900473ffffffffffffffffffffffffffffffffffffffff1673ffffffffffffffffffffffffffffffffffffffff1673ffffffffffffffffffffffffffffffffffffffff16815260200190815260200160002060008282546111cd91906141fa565b92505081905550600d54600660008282546111e891906141fa565b92505081905550505b505b80806111fe906143e1565b915050610a47565b50565b61121b81611216836109fc565b612fe0565b50565b60095481565b8061122e856109fc565b101561126f576040517f08c379a00000000000000000000000000000000000000000000000000000000081526004016112669061449b565b60405180910390fd5b6009546064600561127e610953565b6112889190614250565b61129291906142d9565b116112d2576040517f08c379a00000000000000000000000000000000000000000000000000000000081526004016112c990614356565b60405180910390fd5b60005b83518110156115b9576112e6613640565b600a5481600001818152505084600081518110611306576113056144bb565b5b602002602001015181604001818152505060008160a0019015159081151581525050428160200181815250506000816101000190600381111561134c5761134b613d43565b5b908160038111156113605761135f613d43565b5b81525050838281518110611377576113766144bb565b5b6020026020010151816060019073ffffffffffffffffffffffffffffffffffffffff16908173ffffffffffffffffffffffffffffffffffffffff1681525050600181610120019060038111156113d0576113cf613d43565b5b908160038111156113e4576113e3613d43565b5b815250508060116000600a54815260200190815260200160002060008201518160000155602082015181600101556040820151816002015560608201518160030160006101000a81548173ffffffffffffffffffffffffffffffffffffffff021916908373ffffffffffffffffffffffffffffffffffffffff16021790555060808201518160040160006101000a81548173ffffffffffffffffffffffffffffffffffffffff021916908373ffffffffffffffffffffffffffffffffffffffff16021790555060a08201518160040160146101000a81548160ff02191690831515021790555060c08201518160050190805190602001906114e69291906136e5565b5060e08201518160060190805190602001906115039291906136e5565b506101008201518160070160006101000a81548160ff021916908360038111156115305761152f613d43565b5b02179055506101208201518160070160016101000a81548160ff0219169083600381111561156157611560613d43565b5b021790555090505061158d868684815181106115805761157f6144bb565b5b6020026020010151612fe0565b600a60008154809291906115a0906143e1565b91905055505080806115b1906143e1565b9150506112d5565b5050505050565b600f60009054906101000a900473ffffffffffffffffffffffffffffffffffffffff1681565b6060600480546115f59061419a565b80601f01602080910402602001604051908101604052809291908181526020018280546116219061419a565b801561166e5780601f106116435761010080835404028352916020019161166e565b820191906000526020600020905b81548152906001019060200180831161165157829003601f168201915b5050505050905090565b611680613640565b600a54816000018181525050600c5481604001818152505060008160a001901515908115158152505042816020018181525050600081610100019060038111156116cd576116cc613d43565b5b908160038111156116e1576116e0613d43565b5b8152505081816060019073ffffffffffffffffffffffffffffffffffffffff16908173ffffffffffffffffffffffffffffffffffffffff16815250506002816101200190600381111561173757611736613d43565b5b9081600381111561174b5761174a613d43565b5b815250508060116000600a54815260200190815260200160002060008201518160000155602082015181600101556040820151816002015560608201518160030160006101000a81548173ffffffffffffffffffffffffffffffffffffffff021916908373ffffffffffffffffffffffffffffffffffffffff16021790555060808201518160040160006101000a81548173ffffffffffffffffffffffffffffffffffffffff021916908373ffffffffffffffffffffffffffffffffffffffff16021790555060a08201518160040160146101000a81548160ff02191690831515021790555060c082015181600501908051906020019061184d9291906136e5565b5060e082015181600601908051906020019061186a9291906136e5565b506101008201518160070160006101000a81548160ff0219169083600381111561189757611896613d43565b5b02179055506101208201518160070160016101000a81548160ff021916908360038111156118c8576118c7613d43565b5b02179055509050506040518060400160405280601881526020017f536f6369616c204d6564696120496e746572616374696f6e00000000000000008152508160c00181905250604051806080016040528060538152602001614c71605391398160e00181905250600a6000815480929190611942906143e1565b91905055505050565b601060009054906101000a900473ffffffffffffffffffffffffffffffffffffffff1681565b600a5481565b3373ffffffffffffffffffffffffffffffffffffffff16600f60009054906101000a900473ffffffffffffffffffffffffffffffffffffffff1673ffffffffffffffffffffffffffffffffffffffff16146119d157600080fd5b6119f9306119dd6109b0565b600a6119e9919061461d565b836119f49190614250565b6131ad565b80600e8190555050565b600080611a0e612b0d565b90506000611a1c82866122f4565b905083811015611a61576040517f08c379a0000000000000000000000000000000000000000000000000000000008152600401611a58906146da565b60405180910390fd5b611a6e8286868403612b15565b60019250505092915050565b60116020528060005260406000206000915090508060000154908060010154908060020154908060030160009054906101000a900473ffffffffffffffffffffffffffffffffffffffff16908060040160009054906101000a900473ffffffffffffffffffffffffffffffffffffffff16908060040160149054906101000a900460ff1690806005018054611b0e9061419a565b80601f0160208091040260200160405190810160405280929190818152602001828054611b3a9061419a565b8015611b875780601f10611b5c57610100808354040283529160200191611b87565b820191906000526020600020905b815481529060010190602001808311611b6a57829003601f168201915b505050505090806006018054611b9c9061419a565b80601f0160208091040260200160405190810160405280929190818152602001828054611bc89061419a565b8015611c155780601f10611bea57610100808354040283529160200191611c15565b820191906000526020600020905b815481529060010190602001808311611bf857829003601f168201915b5050505050908060070160009054906101000a900460ff16908060070160019054906101000a900460ff1690508a565b600080611c50612b0d565b9050611c5d818585612d6a565b600191505092915050565b600e5481565b60055481565b60065481565b600083118015611c925750611c8e826109fc565b8311155b611cd1576040517f08c379a0000000000000000000000000000000000000000000000000000000008152600401611cc890614746565b60405180910390fd5b611cdc823085612d6a565b611ce4613640565b600a54816000018181525050600a84611cfd91906142d9565b84611d0891906141fa565b81604001818152505060008160a00190151590811515815250508142611d2e91906141fa565b81602001818152505060008161010001906003811115611d5157611d50613d43565b5b90816003811115611d6557611d64613d43565b5b8152505060038161012001906003811115611d8357611d82613d43565b5b90816003811115611d9757611d96613d43565b5b8152505082816060019073ffffffffffffffffffffffffffffffffffffffff16908173ffffffffffffffffffffffffffffffffffffffff16815250506040518060400160405280600581526020017f5374616b650000000000000000000000000000000000000000000000000000008152508160c00181905250604051806080016040528060538152602001614c71605391398160e001819052508060116000600a54815260200190815260200160002060008201518160000155602082015181600101556040820151816002015560608201518160030160006101000a81548173ffffffffffffffffffffffffffffffffffffffff021916908373ffffffffffffffffffffffffffffffffffffffff16021790555060808201518160040160006101000a81548173ffffffffffffffffffffffffffffffffffffffff021916908373ffffffffffffffffffffffffffffffffffffffff16021790555060a08201518160040160146101000a81548160ff02191690831515021790555060c0820151816005019080519060200190611f309291906136e5565b5060e0820151816006019080519060200190611f4d9291906136e5565b506101008201518160070160006101000a81548160ff02191690836003811115611f7a57611f79613d43565b5b02179055506101208201518160070160016101000a81548160ff02191690836003811115611fab57611faa613d43565b5b0217905550905050600a6000815480929190611fc6906143e1565b919050555050505050565b611fd9613640565b600a54816000018181525050606460328b611ff491906142d9565b10612009576064816040018181525050612020565b60328a61201691906142d9565b8160400181815250505b88816060019073ffffffffffffffffffffffffffffffffffffffff16908173ffffffffffffffffffffffffffffffffffffffff16815250506000816101000190600381111561207257612071613d43565b5b9081600381111561208657612085613d43565b5b8152505087816020018181525050600081610120019060038111156120ae576120ad613d43565b5b908160038111156120c2576120c1613d43565b5b81525050828160c00181905250818160e00181905250861561212c5760018160a001901515908115158152505085816080019073ffffffffffffffffffffffffffffffffffffffff16908173ffffffffffffffffffffffffffffffffffffffff168152505061213e565b60008160a00190151590811515815250505b8060116000600a54815260200190815260200160002060008201518160000155602082015181600101556040820151816002015560608201518160030160006101000a81548173ffffffffffffffffffffffffffffffffffffffff021916908373ffffffffffffffffffffffffffffffffffffffff16021790555060808201518160040160006101000a81548173ffffffffffffffffffffffffffffffffffffffff021916908373ffffffffffffffffffffffffffffffffffffffff16021790555060a08201518160040160146101000a81548160ff02191690831515021790555060c082015181600501908051906020019061223c9291906136e5565b5060e08201518160060190805190602001906122599291906136e5565b506101008201518160070160006101000a81548160ff0219169083600381111561228657612285613d43565b5b02179055506101208201518160070160016101000a81548160ff021916908360038111156122b7576122b6613d43565b5b0217905550905050600a60008154809291906122d2906143e1565b919050555084156122e8576122e78985613303565b5b50505050505050505050565b6000600160008473ffffffffffffffffffffffffffffffffffffffff1673ffffffffffffffffffffffffffffffffffffffff16815260200190815260200160002060008373ffffffffffffffffffffffffffffffffffffffff1673ffffffffffffffffffffffffffffffffffffffff16815260200190815260200160002054905092915050565b60005b600a54811015612990576002600381111561239c5761239b613d43565b5b6011600083815260200190815260200160002060070160009054906101000a900460ff1660038111156123d2576123d1613d43565b5b1480156124025750600b5460116000838152602001908152602001600020600101546123fe91906141fa565b4210155b1561297d576011600082815260200190815260200160002060020154601260006011600085815260200190815260200160002060030160009054906101000a900473ffffffffffffffffffffffffffffffffffffffff1673ffffffffffffffffffffffffffffffffffffffff1673ffffffffffffffffffffffffffffffffffffffff1681526020019081526020016000205461249e9190614766565b6124dd6011600084815260200190815260200160002060030160009054906101000a900473ffffffffffffffffffffffffffffffffffffffff166109fc565b11156126095760006011600083815260200190815260200160002060020154601260006011600086815260200190815260200160002060030160009054906101000a900473ffffffffffffffffffffffffffffffffffffffff1673ffffffffffffffffffffffffffffffffffffffff1673ffffffffffffffffffffffffffffffffffffffff1681526020019081526020016000205461257c9190614766565b6125bb6011600085815260200190815260200160002060030160009054906101000a900473ffffffffffffffffffffffffffffffffffffffff166109fc565b6125c59190614766565b90506126076011600084815260200190815260200160002060030160009054906101000a900473ffffffffffffffffffffffffffffffffffffffff1682612fe0565b505b6011600082815260200190815260200160002060020154601260006011600085815260200190815260200160002060030160009054906101000a900473ffffffffffffffffffffffffffffffffffffffff1673ffffffffffffffffffffffffffffffffffffffff1673ffffffffffffffffffffffffffffffffffffffff16815260200190815260200160002060008282546126a49190614766565b925050819055506011600082815260200190815260200160002060040160149054906101000a900460ff161561293d57600d54601260006011600085815260200190815260200160002060040160009054906101000a900473ffffffffffffffffffffffffffffffffffffffff1673ffffffffffffffffffffffffffffffffffffffff1673ffffffffffffffffffffffffffffffffffffffff168152602001908152602001600020546127579190614766565b6127966011600084815260200190815260200160002060040160009054906101000a900473ffffffffffffffffffffffffffffffffffffffff166109fc565b11156128ae576000600d54601260006011600086815260200190815260200160002060040160009054906101000a900473ffffffffffffffffffffffffffffffffffffffff1673ffffffffffffffffffffffffffffffffffffffff1673ffffffffffffffffffffffffffffffffffffffff168152602001908152602001600020546128219190614766565b6128606011600085815260200190815260200160002060040160009054906101000a900473ffffffffffffffffffffffffffffffffffffffff166109fc565b61286a9190614766565b90506128ac6011600084815260200190815260200160002060040160009054906101000a900473ffffffffffffffffffffffffffffffffffffffff1682612fe0565b505b600d54601260006011600085815260200190815260200160002060040160009054906101000a900473ffffffffffffffffffffffffffffffffffffffff1673ffffffffffffffffffffffffffffffffffffffff1673ffffffffffffffffffffffffffffffffffffffff16815260200190815260200160002060008282546129359190614766565b925050819055505b60036011600083815260200190815260200160002060070160006101000a81548160ff0219169083600381111561297757612976613d43565b5b02179055505b8080612988906143e1565b91505061237e565b50565b426011600083815260200190815260200160002060010154116129b557600080fd5b60016011600083815260200190815260200160002060070160006101000a81548160ff021916908360038111156129ef576129ee613d43565b5b021790555050565b60126020528060005260406000206000915090505481565b60005b8151811015612b09576000601060009054906101000a900473ffffffffffffffffffffffffffffffffffffffff1690508073ffffffffffffffffffffffffffffffffffffffff1663a9059cbb848481518110612a7157612a706144bb565b5b602002602001015160646005600e54612a8a9190614250565b612a9491906142d9565b6040518363ffffffff1660e01b8152600401612ab1929190614376565b6020604051808303816000875af1158015612ad0573d6000803e3d6000fd5b505050506040513d601f19601f82011682018060405250810190612af491906143b4565b50508080612b01906143e1565b915050612a12565b5050565b600033905090565b600073ffffffffffffffffffffffffffffffffffffffff168373ffffffffffffffffffffffffffffffffffffffff1603612b84576040517f08c379a0000000000000000000000000000000000000000000000000000000008152600401612b7b9061480c565b60405180910390fd5b600073ffffffffffffffffffffffffffffffffffffffff168273ffffffffffffffffffffffffffffffffffffffff1603612bf3576040517f08c379a0000000000000000000000000000000000000000000000000000000008152600401612bea9061489e565b60405180910390fd5b80600160008573ffffffffffffffffffffffffffffffffffffffff1673ffffffffffffffffffffffffffffffffffffffff16815260200190815260200160002060008473ffffffffffffffffffffffffffffffffffffffff1673ffffffffffffffffffffffffffffffffffffffff168152602001908152602001600020819055508173ffffffffffffffffffffffffffffffffffffffff168373ffffffffffffffffffffffffffffffffffffffff167f8c5be1e5ebec7d5bd14f71427d1e84f3dd0314c0f7b2291e5b200ac8c7c3b92583604051612cd1919061385c565b60405180910390a3505050565b6000612cea84846122f4565b90507fffffffffffffffffffffffffffffffffffffffffffffffffffffffffffffffff8114612d645781811015612d56576040517f08c379a0000000000000000000000000000000000000000000000000000000008152600401612d4d9061490a565b60405180910390fd5b612d638484848403612b15565b5b50505050565b600073ffffffffffffffffffffffffffffffffffffffff168373ffffffffffffffffffffffffffffffffffffffff1603612dd9576040517f08c379a0000000000000000000000000000000000000000000000000000000008152600401612dd09061499c565b60405180910390fd5b600073ffffffffffffffffffffffffffffffffffffffff168273ffffffffffffffffffffffffffffffffffffffff1603612e48576040517f08c379a0000000000000000000000000000000000000000000000000000000008152600401612e3f90614a2e565b60405180910390fd5b612e53838383613636565b60008060008573ffffffffffffffffffffffffffffffffffffffff1673ffffffffffffffffffffffffffffffffffffffff16815260200190815260200160002054905081811015612ed9576040517f08c379a0000000000000000000000000000000000000000000000000000000008152600401612ed090614ac0565b60405180910390fd5b8181036000808673ffffffffffffffffffffffffffffffffffffffff1673ffffffffffffffffffffffffffffffffffffffff16815260200190815260200160002081905550816000808573ffffffffffffffffffffffffffffffffffffffff1673ffffffffffffffffffffffffffffffffffffffff168152602001908152602001600020600082825401925050819055508273ffffffffffffffffffffffffffffffffffffffff168473ffffffffffffffffffffffffffffffffffffffff167fddf252ad1be2c89b69c2b068fc378daa952ba7f163c4a11628f55a4df523b3ef84604051612fc7919061385c565b60405180910390a3612fda84848461363b565b50505050565b600073ffffffffffffffffffffffffffffffffffffffff168273ffffffffffffffffffffffffffffffffffffffff160361304f576040517f08c379a000000000000000000000000000000000000000000000000000000000815260040161304690614b52565b60405180910390fd5b61305b82600083613636565b60008060008473ffffffffffffffffffffffffffffffffffffffff1673ffffffffffffffffffffffffffffffffffffffff168152602001908152602001600020549050818110156130e1576040517f08c379a00000000000000000000000000000000000000000000000000000000081526004016130d890614be4565b60405180910390fd5b8181036000808573ffffffffffffffffffffffffffffffffffffffff1673ffffffffffffffffffffffffffffffffffffffff1681526020019081526020016000208190555081600260008282540392505081905550600073ffffffffffffffffffffffffffffffffffffffff168373ffffffffffffffffffffffffffffffffffffffff167fddf252ad1be2c89b69c2b068fc378daa952ba7f163c4a11628f55a4df523b3ef84604051613194919061385c565b60405180910390a36131a88360008461363b565b505050565b600073ffffffffffffffffffffffffffffffffffffffff168273ffffffffffffffffffffffffffffffffffffffff160361321c576040517f08c379a000000000000000000000000000000000000000000000000000000000815260040161321390614c50565b60405180910390fd5b61322860008383613636565b806002600082825461323a91906141fa565b92505081905550806000808473ffffffffffffffffffffffffffffffffffffffff1673ffffffffffffffffffffffffffffffffffffffff168152602001908152602001600020600082825401925050819055508173ffffffffffffffffffffffffffffffffffffffff16600073ffffffffffffffffffffffffffffffffffffffff167fddf252ad1be2c89b69c2b068fc378daa952ba7f163c4a11628f55a4df523b3ef836040516132eb919061385c565b60405180910390a36132ff6000838361363b565b5050565b8061330d836109fc565b1015801561331b5750600081115b61335a576040517f08c379a000000000000000000000000000000000000000000000000000000000815260040161335190614746565b60405180910390fd5b613362613640565b600a548160000181815250508181604001818152505060008160a001901515908115158152505042816020018181525050600381610100019060038111156133ad576133ac613d43565b5b908160038111156133c1576133c0613d43565b5b8152505082816060019073ffffffffffffffffffffffffffffffffffffffff16908173ffffffffffffffffffffffffffffffffffffffff16815250506000816101200190600381111561341757613416613d43565b5b9081600381111561342b5761342a613d43565b5b815250506040518060400160405280600681526020017f52656465656d00000000000000000000000000000000000000000000000000008152508160c00181905250604051806080016040528060538152602001614c71605391398160e001819052508060116000600a54815260200190815260200160002060008201518160000155602082015181600101556040820151816002015560608201518160030160006101000a81548173ffffffffffffffffffffffffffffffffffffffff021916908373ffffffffffffffffffffffffffffffffffffffff16021790555060808201518160040160006101000a81548173ffffffffffffffffffffffffffffffffffffffff021916908373ffffffffffffffffffffffffffffffffffffffff16021790555060a08201518160040160146101000a81548160ff02191690831515021790555060c082015181600501908051906020019061358c9291906136e5565b5060e08201518160060190805190602001906135a99291906136e5565b506101008201518160070160006101000a81548160ff021916908360038111156135d6576135d5613d43565b5b02179055506101208201518160070160016101000a81548160ff0219169083600381111561360757613606613d43565b5b0217905550905050600a6000815480929190613622906143e1565b91905055506136318383612fe0565b505050565b505050565b505050565b604051806101400160405280600081526020016000815260200160008152602001600073ffffffffffffffffffffffffffffffffffffffff168152602001600073ffffffffffffffffffffffffffffffffffffffff1681526020016000151581526020016060815260200160608152602001600060038111156136c6576136c5613d43565b5b8152602001600060038111156136df576136de613d43565b5b81525090565b8280546136f19061419a565b90600052602060002090601f016020900481019282613713576000855561375a565b82601f1061372c57805160ff191683800117855561375a565b8280016001018555821561375a579182015b8281111561375957825182559160200191906001019061373e565b5b509050613767919061376b565b5090565b5b8082111561378457600081600090555060010161376c565b5090565b600081519050919050565b600082825260208201905092915050565b60005b838110156137c25780820151818401526020810190506137a7565b838111156137d1576000848401525b50505050565b6000601f19601f8301169050919050565b60006137f382613788565b6137fd8185613793565b935061380d8185602086016137a4565b613816816137d7565b840191505092915050565b6000602082019050818103600083015261383b81846137e8565b905092915050565b6000819050919050565b61385681613843565b82525050565b6000602082019050613871600083018461384d565b92915050565b6000604051905090565b600080fd5b600080fd5b600073ffffffffffffffffffffffffffffffffffffffff82169050919050565b60006138b68261388b565b9050919050565b6138c6816138ab565b81146138d157600080fd5b50565b6000813590506138e3816138bd565b92915050565b6138f281613843565b81146138fd57600080fd5b50565b60008135905061390f816138e9565b92915050565b6000806040838503121561392c5761392b613881565b5b600061393a858286016138d4565b925050602061394b85828601613900565b9150509250929050565b60008115159050919050565b61396a81613955565b82525050565b60006020820190506139856000830184613961565b92915050565b6000806000606084860312156139a4576139a3613881565b5b60006139b2868287016138d4565b93505060206139c3868287016138d4565b92505060406139d486828701613900565b9150509250925092565b6000602082840312156139f4576139f3613881565b5b6000613a0284828501613900565b91505092915050565b600060ff82169050919050565b613a2181613a0b565b82525050565b6000602082019050613a3c6000830184613a18565b92915050565b600060208284031215613a5857613a57613881565b5b6000613a66848285016138d4565b91505092915050565b600080fd5b7f4e487b7100000000000000000000000000000000000000000000000000000000600052604160045260246000fd5b613aac826137d7565b810181811067ffffffffffffffff82111715613acb57613aca613a74565b5b80604052505050565b6000613ade613877565b9050613aea8282613aa3565b919050565b600067ffffffffffffffff821115613b0a57613b09613a74565b5b602082029050602081019050919050565b600080fd5b6000613b33613b2e84613aef565b613ad4565b90508083825260208201905060208402830185811115613b5657613b55613b1b565b5b835b81811015613b7f5780613b6b8882613900565b845260208401935050602081019050613b58565b5050509392505050565b600082601f830112613b9e57613b9d613a6f565b5b8135613bae848260208601613b20565b91505092915050565b600067ffffffffffffffff821115613bd257613bd1613a74565b5b602082029050602081019050919050565b6000613bf6613bf184613bb7565b613ad4565b90508083825260208201905060208402830185811115613c1957613c18613b1b565b5b835b81811015613c425780613c2e88826138d4565b845260208401935050602081019050613c1b565b5050509392505050565b600082601f830112613c6157613c60613a6f565b5b8135613c71848260208601613be3565b91505092915050565b60008060008060808587031215613c9457613c93613881565b5b6000613ca2878288016138d4565b945050602085013567ffffffffffffffff811115613cc357613cc2613886565b5b613ccf87828801613b89565b935050604085013567ffffffffffffffff811115613cf057613cef613886565b5b613cfc87828801613c4c565b9250506060613d0d87828801613900565b91505092959194509250565b613d22816138ab565b82525050565b6000602082019050613d3d6000830184613d19565b92915050565b7f4e487b7100000000000000000000000000000000000000000000000000000000600052602160045260246000fd5b60048110613d8357613d82613d43565b5b50565b6000819050613d9482613d72565b919050565b6000613da482613d86565b9050919050565b613db481613d99565b82525050565b60048110613dcb57613dca613d43565b5b50565b6000819050613ddc82613dba565b919050565b6000613dec82613dce565b9050919050565b613dfc81613de1565b82525050565b600061014082019050613e18600083018d61384d565b613e25602083018c61384d565b613e32604083018b61384d565b613e3f606083018a613d19565b613e4c6080830189613d19565b613e5960a0830188613961565b81810360c0830152613e6b81876137e8565b905081810360e0830152613e7f81866137e8565b9050613e8f610100830185613dab565b613e9d610120830184613df3565b9b9a5050505050505050505050565b600080600060608486031215613ec557613ec4613881565b5b6000613ed386828701613900565b9350506020613ee4868287016138d4565b9250506040613ef586828701613900565b9150509250925092565b613f0881613955565b8114613f1357600080fd5b50565b600081359050613f2581613eff565b92915050565b600080fd5b600067ffffffffffffffff821115613f4b57613f4a613a74565b5b613f54826137d7565b9050602081019050919050565b82818337600083830152505050565b6000613f83613f7e84613f30565b613ad4565b905082815260208101848484011115613f9f57613f9e613f2b565b5b613faa848285613f61565b509392505050565b600082601f830112613fc757613fc6613a6f565b5b8135613fd7848260208601613f70565b91505092915050565b60008060008060008060008060006101208a8c03121561400357614002613881565b5b60006140118c828d01613900565b99505060206140228c828d016138d4565b98505060406140338c828d01613900565b97505060606140448c828d01613f16565b96505060806140558c828d016138d4565b95505060a06140668c828d01613f16565b94505060c06140778c828d01613900565b93505060e08a013567ffffffffffffffff81111561409857614097613886565b5b6140a48c828d01613fb2565b9250506101008a013567ffffffffffffffff8111156140c6576140c5613886565b5b6140d28c828d01613fb2565b9150509295985092959850929598565b600080604083850312156140f9576140f8613881565b5b6000614107858286016138d4565b9250506020614118858286016138d4565b9150509250929050565b60006020828403121561413857614137613881565b5b600082013567ffffffffffffffff81111561415657614155613886565b5b61416284828501613c4c565b91505092915050565b7f4e487b7100000000000000000000000000000000000000000000000000000000600052602260045260246000fd5b600060028204905060018216806141b257607f821691505b6020821081036141c5576141c461416b565b5b50919050565b7f4e487b7100000000000000000000000000000000000000000000000000000000600052601160045260246000fd5b600061420582613843565b915061421083613843565b9250827fffffffffffffffffffffffffffffffffffffffffffffffffffffffffffffffff03821115614245576142446141cb565b5b828201905092915050565b600061425b82613843565b915061426683613843565b9250817fffffffffffffffffffffffffffffffffffffffffffffffffffffffffffffffff048311821515161561429f5761429e6141cb565b5b828202905092915050565b7f4e487b7100000000000000000000000000000000000000000000000000000000600052601260045260246000fd5b60006142e482613843565b91506142ef83613843565b9250826142ff576142fe6142aa565b5b828204905092915050565b7f52756e6e696e67204c6f77206f6e20546f6b656e730000000000000000000000600082015250565b6000614340601583613793565b915061434b8261430a565b602082019050919050565b6000602082019050818103600083015261436f81614333565b9050919050565b600060408201905061438b6000830185613d19565b614398602083018461384d565b9392505050565b6000815190506143ae81613eff565b92915050565b6000602082840312156143ca576143c9613881565b5b60006143d88482850161439f565b91505092915050565b60006143ec82613843565b91507fffffffffffffffffffffffffffffffffffffffffffffffffffffffffffffffff820361441e5761441d6141cb565b5b600182019050919050565b7f53656c6c657220686173206e6f7420656e6f75676820616d6f756e74206f662060008201527f546f6b656e730000000000000000000000000000000000000000000000000000602082015250565b6000614485602683613793565b915061449082614429565b604082019050919050565b600060208201905081810360008301526144b481614478565b9050919050565b7f4e487b7100000000000000000000000000000000000000000000000000000000600052603260045260246000fd5b60008160011c9050919050565b6000808291508390505b60018511156145415780860481111561451d5761451c6141cb565b5b600185161561452c5780820291505b808102905061453a856144ea565b9450614501565b94509492505050565b60008261455a5760019050614616565b816145685760009050614616565b816001811461457e5760028114614588576145b7565b6001915050614616565b60ff84111561459a576145996141cb565b5b8360020a9150848211156145b1576145b06141cb565b5b50614616565b5060208310610133831016604e8410600b84101617156145ec5782820a9050838111156145e7576145e66141cb565b5b614616565b6145f984848460016144f7565b925090508184048111156146105761460f6141cb565b5b81810290505b9392505050565b600061462882613843565b915061463383613a0b565b92506146607fffffffffffffffffffffffffffffffffffffffffffffffffffffffffffffffff848461454a565b905092915050565b7f45524332303a2064656372656173656420616c6c6f77616e63652062656c6f7760008201527f207a65726f000000000000000000000000000000000000000000000000000000602082015250565b60006146c4602583613793565b91506146cf82614668565b604082019050919050565b600060208201905081810360008301526146f3816146b7565b9050919050565b7f496e73756666696369656e742062616c616e6365000000000000000000000000600082015250565b6000614730601483613793565b915061473b826146fa565b602082019050919050565b6000602082019050818103600083015261475f81614723565b9050919050565b600061477182613843565b915061477c83613843565b92508282101561478f5761478e6141cb565b5b828203905092915050565b7f45524332303a20617070726f76652066726f6d20746865207a65726f2061646460008201527f7265737300000000000000000000000000000000000000000000000000000000602082015250565b60006147f6602483613793565b91506148018261479a565b604082019050919050565b60006020820190508181036000830152614825816147e9565b9050919050565b7f45524332303a20617070726f766520746f20746865207a65726f20616464726560008201527f7373000000000000000000000000000000000000000000000000000000000000602082015250565b6000614888602283613793565b91506148938261482c565b604082019050919050565b600060208201905081810360008301526148b78161487b565b9050919050565b7f45524332303a20696e73756666696369656e7420616c6c6f77616e6365000000600082015250565b60006148f4601d83613793565b91506148ff826148be565b602082019050919050565b60006020820190508181036000830152614923816148e7565b9050919050565b7f45524332303a207472616e736665722066726f6d20746865207a65726f20616460008201527f6472657373000000000000000000000000000000000000000000000000000000602082015250565b6000614986602583613793565b91506149918261492a565b604082019050919050565b600060208201905081810360008301526149b581614979565b9050919050565b7f45524332303a207472616e7366657220746f20746865207a65726f206164647260008201527f6573730000000000000000000000000000000000000000000000000000000000602082015250565b6000614a18602383613793565b9150614a23826149bc565b604082019050919050565b60006020820190508181036000830152614a4781614a0b565b9050919050565b7f45524332303a207472616e7366657220616d6f756e742065786365656473206260008201527f616c616e63650000000000000000000000000000000000000000000000000000602082015250565b6000614aaa602683613793565b9150614ab582614a4e565b604082019050919050565b60006020820190508181036000830152614ad981614a9d565b9050919050565b7f45524332303a206275726e2066726f6d20746865207a65726f2061646472657360008201527f7300000000000000000000000000000000000000000000000000000000000000602082015250565b6000614b3c602183613793565b9150614b4782614ae0565b604082019050919050565b60006020820190508181036000830152614b6b81614b2f565b9050919050565b7f45524332303a206275726e20616d6f756e7420657863656564732062616c616e60008201527f6365000000000000000000000000000000000000000000000000000000000000602082015250565b6000614bce602283613793565b9150614bd982614b72565b604082019050919050565b60006020820190508181036000830152614bfd81614bc1565b9050919050565b7f45524332303a206d696e7420746f20746865207a65726f206164647265737300600082015250565b6000614c3a601f83613793565b9150614c4582614c04565b602082019050919050565b60006020820190508181036000830152614c6981614c2d565b905091905056fe68747470733a2f2f7265732e636c6f7564696e6172792e636f6d2f73616d62697473616e6b616c702f696d6167652f75706c6f61642f76313639323532383935302f6663636f696e5f656d757a75362e706e67a26469706673582212205beeb0caf865948e8fc409a0ac959e1f03f49faedd079aff023cd4ad95f7e2df64736f6c634300080d0033",
  "immutableReferences": {},
  "source": "// SPDX-License-Identifier: MIT\npragma solidity ^0.8.0;\n\n// Import the necessary ERC-20 interface\nimport \"@openzeppelin/contracts/token/ERC20/ERC20.sol\";\nimport \"@openzeppelin/contracts/token/ERC20/IERC20.sol\";\n\n// Inherit from the ERC-20 contract\ncontract FlipCoin is ERC20 {\n\n    uint256 public purchase_rewards;\n    uint256 public purchase_referrals;\n    uint256 public purchase_socialMedia;\n    uint256 public staking;\n    uint256 public partners;\n    uint256 public currentOrder;\n    uint256 public expireTime = 300;\n    uint256 public socialMediaReward = 5;\n    uint256 public referralReward = 5;\n    uint256 public currentMintAmount = 0;\n    address public ownerAddress;\n    address public tokenAddress;\n\n    enum OrderStatus\n    {\n        Confirmed,\n        Cancelled,\n        NotReturned,\n        Expired\n    }\n    enum OrderType\n    {\n        Purchase,\n        Airdrop,\n        SocialPost,\n        Stake\n    }\n    struct Order\n    {\n        uint256 id;\n        uint256 lastReturnDate;\n        uint256 flipCoin;\n        address userAccount;\n        address referrer;\n        bool isReferred;\n        string productName;\n        string imgUrl;\n        OrderStatus status;\n        OrderType orderType;\n    }\n\n    mapping(uint256=>Order) public orders;\n    mapping(address=>uint256) public expectedBalance;\n    mapping(uint256=>uint256) public totalReferrals;\n\n    constructor(string memory name, string memory symbol) ERC20(name, symbol) {\n        _mint(address(this), 10000000 * 10 ** decimals());\n        currentMintAmount = 10000000;\n        ownerAddress = msg.sender;\n        tokenAddress = address(this);\n    }\n    function distributeToPartners(address[] memory sellers) external \n    {\n        for(uint256 i=0;i<sellers.length;i++)\n        {\n            IERC20 token = IERC20(tokenAddress);\n            token.transfer(sellers[i], (currentMintAmount * 5)/100);\n        }\n    }\n    function removeSeller(address seller) external \n    {\n        _burn(seller, balanceOf(seller));\n    }\n    function mint(uint256 amount) external \n    {\n        require(ownerAddress == msg.sender);\n        _mint(address(this), amount * 10 ** decimals());\n        currentMintAmount = amount;\n    }\n    function depositCoint() external {\n        for(uint256 i=0;i<currentOrder;i++)\n        {\n            if(orders[i].status == OrderStatus.Confirmed && block.timestamp >= orders[i].lastReturnDate)\n            {\n                if(orders[i].orderType == OrderType.Airdrop)\n                {\n                    require((totalSupply() * 5)/100 > partners, \"Running Low on Tokens\");\n                    partners += orders[i].flipCoin;\n                }\n                else if(orders[i].orderType == OrderType.SocialPost)\n                {\n                    require((totalSupply() * 5)/100 > purchase_socialMedia, \"Running Low on Tokens\");\n                    purchase_socialMedia += orders[i].flipCoin;\n                }\n                else if(orders[i].orderType == OrderType.Stake)\n                {\n                    require((totalSupply() * 15)/100 > staking, \"Running Low on Tokens\");\n                    staking += orders[i].flipCoin;\n                }\n                else \n                {\n                    require((totalSupply() * 40)/100 > purchase_rewards, \"Running Low on Tokens\");\n                    purchase_rewards += orders[i].flipCoin;\n                }\n                orders[i].status = OrderStatus.NotReturned;\n                IERC20 token = IERC20(tokenAddress);\n                token.transfer(orders[i].userAccount, orders[i].flipCoin);\n                expectedBalance[orders[i].userAccount] += orders[i].flipCoin;\n                if(orders[i].isReferred)\n                {\n                    require((totalSupply() * 15)/100 > purchase_referrals, \"Running Low on Tokens\");\n                    IERC20 tokenRef = IERC20(tokenAddress);\n                    tokenRef.transfer(orders[i].referrer, referralReward);\n                    expectedBalance[orders[i].referrer] += referralReward;\n                    purchase_referrals += referralReward;\n                }\n            }\n\n        }\n    }\n    function deductCoin() payable external {\n        for(uint256 i=0;i<currentOrder;i++)\n        {\n            if(orders[i].status == OrderStatus.NotReturned && block.timestamp >= orders[i].lastReturnDate + expireTime)\n            {\n                if(balanceOf(orders[i].userAccount) > (expectedBalance[orders[i].userAccount] - orders[i].flipCoin))\n                {\n                    uint256 extraAmount = balanceOf(orders[i].userAccount) - (expectedBalance[orders[i].userAccount] - orders[i].flipCoin);\n                    _burn(orders[i].userAccount, extraAmount);\n                }\n                expectedBalance[orders[i].userAccount] -= orders[i].flipCoin;\n                if(orders[i].isReferred)\n                {\n                    if(balanceOf(orders[i].referrer) > (expectedBalance[orders[i].referrer] - referralReward))\n                    {\n                        uint256 extraAmount = balanceOf(orders[i].referrer) - (expectedBalance[orders[i].referrer] - referralReward);\n                        _burn(orders[i].referrer, extraAmount);\n                    }\n                    expectedBalance[orders[i].referrer] -= referralReward;\n                }\n                orders[i].status = OrderStatus.Expired;\n            }\n        }\n    }\n    function purchase(uint256 productPrice,address userAccount, uint256 lastReturnDate,bool isReferred, address referrer, bool isRedeem, uint256 redeemAmount, string memory productName, string memory imgUrl)external {\n        Order memory newOrder;\n        newOrder.id = currentOrder;\n        if(productPrice/50 >= 100){\n        newOrder.flipCoin = 100;\n        }\n        else{\n            newOrder.flipCoin = productPrice / 50;\n        }\n        newOrder.userAccount = userAccount;\n        newOrder.status = OrderStatus.Confirmed;\n        newOrder.lastReturnDate = lastReturnDate;\n        newOrder.orderType = OrderType.Purchase;\n        newOrder.productName = productName;\n        newOrder.imgUrl = imgUrl;\n        if(isReferred)\n        {\n            newOrder.isReferred = true;\n            newOrder.referrer = referrer;\n        }\n        else \n        {\n            newOrder.isReferred = false;\n        }\n        orders[currentOrder] = newOrder;\n        currentOrder++;\n        if(isRedeem)\n        {\n            redeem(userAccount, redeemAmount);\n        }\n        \n    }\n    function disperseCoin(address seller, uint256[] memory amount, address[] memory userAccount, uint256 totalAmount) external {\n        require(balanceOf(seller) >= totalAmount, \"Seller has not enough amount of Tokens\");\n        require((totalSupply() * 5)/100 > partners, \"Running Low on Tokens\");\n        for(uint256 i=0;i<amount.length;i++)\n        {\n            Order memory newOrder;\n            newOrder.id = currentOrder;\n            newOrder.flipCoin = amount[0];\n            newOrder.isReferred = false;\n            newOrder.lastReturnDate = block.timestamp;\n            newOrder.status = OrderStatus.Confirmed;\n            newOrder.userAccount = userAccount[i];\n            newOrder.orderType = OrderType.Airdrop;\n            orders[currentOrder] = newOrder;\n            _burn(seller, amount[i]);\n            currentOrder++;\n        }\n    }\n    function cancleOrder(uint256 orderId) external \n    {\n        require(orders[orderId].lastReturnDate > block.timestamp);\n        orders[orderId].status = OrderStatus.Cancelled;\n    }\n    function socialMediaPost(address userAccount) external \n    {\n        Order memory newOrder;\n        newOrder.id = currentOrder;\n        newOrder.flipCoin = socialMediaReward;\n        newOrder.isReferred = false;\n        newOrder.lastReturnDate = block.timestamp;\n        newOrder.status = OrderStatus.Confirmed;\n        newOrder.userAccount = userAccount;\n        newOrder.orderType = OrderType.SocialPost;\n        orders[currentOrder] = newOrder;\n        newOrder.productName = \"Social Media Interaction\";\n        newOrder.imgUrl = \"https://res.cloudinary.com/sambitsankalp/image/upload/v1692528950/fccoin_emuzu6.png\";\n        currentOrder++;\n    }\n    function redeem(address userAccount, uint256 amount) internal  \n    {\n        require(balanceOf(userAccount) >= amount && amount > 0, \"Insufficient balance\");\n        Order memory newOrder;\n        newOrder.id = currentOrder;\n        newOrder.flipCoin = amount;\n        newOrder.isReferred = false;\n        newOrder.lastReturnDate = block.timestamp;\n        newOrder.status = OrderStatus.Expired;\n        newOrder.userAccount = userAccount;\n        newOrder.orderType = OrderType.Purchase;\n        newOrder.productName = \"Redeem\";\n        newOrder.imgUrl = \"https://res.cloudinary.com/sambitsankalp/image/upload/v1692528950/fccoin_emuzu6.png\";\n        orders[currentOrder] = newOrder;\n        currentOrder++;\n        _burn(userAccount, amount);\n    }\n    function stakeTokens(uint256 amount, address userAccount, uint256 interval) external {\n        require(amount >0 && amount <= balanceOf(userAccount), \"Insufficient balance\");\n        _transfer(userAccount, address(this) ,amount);\n        Order memory newOrder;\n        newOrder.id = currentOrder;\n        newOrder.flipCoin = amount + amount/10;\n        newOrder.isReferred = false;\n        newOrder.lastReturnDate = block.timestamp + interval;\n        newOrder.status = OrderStatus.Confirmed;\n        newOrder.orderType = OrderType.Stake;\n        newOrder.userAccount = userAccount;\n        newOrder.productName = \"Stake\";\n        newOrder.imgUrl = \"https://res.cloudinary.com/sambitsankalp/image/upload/v1692528950/fccoin_emuzu6.png\";\n        orders[currentOrder] = newOrder;\n        currentOrder++;\n    }\n}\n",
  "sourcePath": "/home/subrat0018/Desktop/project-grid/truffle/contracts/FlipCoin.sol",
  "compiler": {
    "name": "solc",
    "version": "0.8.13+commit.abaa5c0e.Emscripten.clang"
  },
  "schemaVersion": "3.4.15",
  "updatedAt": "2023-08-20T12:14:15.485Z",
  "networkType": "ethereum",
  "devdoc": {
    "kind": "dev",
    "methods": {
      "allowance(address,address)": {
        "details": "See {IERC20-allowance}."
      },
      "approve(address,uint256)": {
        "details": "See {IERC20-approve}. NOTE: If `amount` is the maximum `uint256`, the allowance is not updated on `transferFrom`. This is semantically equivalent to an infinite approval. Requirements: - `spender` cannot be the zero address."
      },
      "balanceOf(address)": {
        "details": "See {IERC20-balanceOf}."
      },
      "decimals()": {
        "details": "Returns the number of decimals used to get its user representation. For example, if `decimals` equals `2`, a balance of `505` tokens should be displayed to a user as `5.05` (`505 / 10 ** 2`). Tokens usually opt for a value of 18, imitating the relationship between Ether and Wei. This is the default value returned by this function, unless it's overridden. NOTE: This information is only used for _display_ purposes: it in no way affects any of the arithmetic of the contract, including {IERC20-balanceOf} and {IERC20-transfer}."
      },
      "decreaseAllowance(address,uint256)": {
        "details": "Atomically decreases the allowance granted to `spender` by the caller. This is an alternative to {approve} that can be used as a mitigation for problems described in {IERC20-approve}. Emits an {Approval} event indicating the updated allowance. Requirements: - `spender` cannot be the zero address. - `spender` must have allowance for the caller of at least `subtractedValue`."
      },
      "increaseAllowance(address,uint256)": {
        "details": "Atomically increases the allowance granted to `spender` by the caller. This is an alternative to {approve} that can be used as a mitigation for problems described in {IERC20-approve}. Emits an {Approval} event indicating the updated allowance. Requirements: - `spender` cannot be the zero address."
      },
      "name()": {
        "details": "Returns the name of the token."
      },
      "symbol()": {
        "details": "Returns the symbol of the token, usually a shorter version of the name."
      },
      "totalSupply()": {
        "details": "See {IERC20-totalSupply}."
      },
      "transfer(address,uint256)": {
        "details": "See {IERC20-transfer}. Requirements: - `to` cannot be the zero address. - the caller must have a balance of at least `amount`."
      },
      "transferFrom(address,address,uint256)": {
        "details": "See {IERC20-transferFrom}. Emits an {Approval} event indicating the updated allowance. This is not required by the EIP. See the note at the beginning of {ERC20}. NOTE: Does not update the allowance if the current allowance is the maximum `uint256`. Requirements: - `from` and `to` cannot be the zero address. - `from` must have a balance of at least `amount`. - the caller must have allowance for ``from``'s tokens of at least `amount`."
      }
    },
    "version": 1
  },
  "userdoc": {
    "kind": "user",
    "methods": {},
    "version": 1
  }
}