{
  "contractName": "FlipCoin",
  "abi": [
    {
      "inputs": [
        {
          "internalType": "string",
          "name": "name",
          "type": "string"
        },
        {
          "internalType": "string",
          "name": "symbol",
          "type": "string"
        }
      ],
      "stateMutability": "nonpayable",
      "type": "constructor"
    },
    {
      "anonymous": false,
      "inputs": [
        {
          "indexed": true,
          "internalType": "address",
          "name": "owner",
          "type": "address"
        },
        {
          "indexed": true,
          "internalType": "address",
          "name": "spender",
          "type": "address"
        },
        {
          "indexed": false,
          "internalType": "uint256",
          "name": "value",
          "type": "uint256"
        }
      ],
      "name": "Approval",
      "type": "event"
    },
    {
      "anonymous": false,
      "inputs": [
        {
          "indexed": true,
          "internalType": "address",
          "name": "from",
          "type": "address"
        },
        {
          "indexed": true,
          "internalType": "address",
          "name": "to",
          "type": "address"
        },
        {
          "indexed": false,
          "internalType": "uint256",
          "name": "value",
          "type": "uint256"
        }
      ],
      "name": "Transfer",
      "type": "event"
    },
    {
      "inputs": [
        {
          "internalType": "address",
          "name": "owner",
          "type": "address"
        },
        {
          "internalType": "address",
          "name": "spender",
          "type": "address"
        }
      ],
      "name": "allowance",
      "outputs": [
        {
          "internalType": "uint256",
          "name": "",
          "type": "uint256"
        }
      ],
      "stateMutability": "view",
      "type": "function",
      "constant": true
    },
    {
      "inputs": [
        {
          "internalType": "address",
          "name": "spender",
          "type": "address"
        },
        {
          "internalType": "uint256",
          "name": "amount",
          "type": "uint256"
        }
      ],
      "name": "approve",
      "outputs": [
        {
          "internalType": "bool",
          "name": "",
          "type": "bool"
        }
      ],
      "stateMutability": "nonpayable",
      "type": "function"
    },
    {
      "inputs": [
        {
          "internalType": "address",
          "name": "account",
          "type": "address"
        }
      ],
      "name": "balanceOf",
      "outputs": [
        {
          "internalType": "uint256",
          "name": "",
          "type": "uint256"
        }
      ],
      "stateMutability": "view",
      "type": "function",
      "constant": true
    },
    {
      "inputs": [],
      "name": "currentMintAmount",
      "outputs": [
        {
          "internalType": "uint256",
          "name": "",
          "type": "uint256"
        }
      ],
      "stateMutability": "view",
      "type": "function",
      "constant": true
    },
    {
      "inputs": [],
      "name": "currentOrder",
      "outputs": [
        {
          "internalType": "uint256",
          "name": "",
          "type": "uint256"
        }
      ],
      "stateMutability": "view",
      "type": "function",
      "constant": true
    },
    {
      "inputs": [],
      "name": "decimals",
      "outputs": [
        {
          "internalType": "uint8",
          "name": "",
          "type": "uint8"
        }
      ],
      "stateMutability": "view",
      "type": "function",
      "constant": true
    },
    {
      "inputs": [
        {
          "internalType": "address",
          "name": "spender",
          "type": "address"
        },
        {
          "internalType": "uint256",
          "name": "subtractedValue",
          "type": "uint256"
        }
      ],
      "name": "decreaseAllowance",
      "outputs": [
        {
          "internalType": "bool",
          "name": "",
          "type": "bool"
        }
      ],
      "stateMutability": "nonpayable",
      "type": "function"
    },
    {
      "inputs": [
        {
          "internalType": "address",
          "name": "",
          "type": "address"
        }
      ],
      "name": "expectedBalance",
      "outputs": [
        {
          "internalType": "uint256",
          "name": "",
          "type": "uint256"
        }
      ],
      "stateMutability": "view",
      "type": "function",
      "constant": true
    },
    {
      "inputs": [],
      "name": "expireTime",
      "outputs": [
        {
          "internalType": "uint256",
          "name": "",
          "type": "uint256"
        }
      ],
      "stateMutability": "view",
      "type": "function",
      "constant": true
    },
    {
      "inputs": [
        {
          "internalType": "address",
          "name": "spender",
          "type": "address"
        },
        {
          "internalType": "uint256",
          "name": "addedValue",
          "type": "uint256"
        }
      ],
      "name": "increaseAllowance",
      "outputs": [
        {
          "internalType": "bool",
          "name": "",
          "type": "bool"
        }
      ],
      "stateMutability": "nonpayable",
      "type": "function"
    },
    {
      "inputs": [],
      "name": "name",
      "outputs": [
        {
          "internalType": "string",
          "name": "",
          "type": "string"
        }
      ],
      "stateMutability": "view",
      "type": "function",
      "constant": true
    },
    {
      "inputs": [
        {
          "internalType": "uint256",
          "name": "",
          "type": "uint256"
        }
      ],
      "name": "orders",
      "outputs": [
        {
          "internalType": "uint256",
          "name": "id",
          "type": "uint256"
        },
        {
          "internalType": "uint256",
          "name": "lastReturnDate",
          "type": "uint256"
        },
        {
          "internalType": "uint256",
          "name": "flipCoin",
          "type": "uint256"
        },
        {
          "internalType": "address",
          "name": "userAccount",
          "type": "address"
        },
        {
          "internalType": "address",
          "name": "referrer",
          "type": "address"
        },
        {
          "internalType": "bool",
          "name": "isReferred",
          "type": "bool"
        },
        {
          "internalType": "enum FlipCoin.OrderStatus",
          "name": "status",
          "type": "uint8"
        },
        {
          "internalType": "enum FlipCoin.OrderType",
          "name": "orderType",
          "type": "uint8"
        }
      ],
      "stateMutability": "view",
      "type": "function",
      "constant": true
    },
    {
      "inputs": [],
      "name": "ownerAddress",
      "outputs": [
        {
          "internalType": "address",
          "name": "",
          "type": "address"
        }
      ],
      "stateMutability": "view",
      "type": "function",
      "constant": true
    },
    {
      "inputs": [],
      "name": "partners",
      "outputs": [
        {
          "internalType": "uint256",
          "name": "",
          "type": "uint256"
        }
      ],
      "stateMutability": "view",
      "type": "function",
      "constant": true
    },
    {
      "inputs": [],
      "name": "purchase_referrals",
      "outputs": [
        {
          "internalType": "uint256",
          "name": "",
          "type": "uint256"
        }
      ],
      "stateMutability": "view",
      "type": "function",
      "constant": true
    },
    {
      "inputs": [],
      "name": "purchase_rewards",
      "outputs": [
        {
          "internalType": "uint256",
          "name": "",
          "type": "uint256"
        }
      ],
      "stateMutability": "view",
      "type": "function",
      "constant": true
    },
    {
      "inputs": [],
      "name": "purchase_socialMedia",
      "outputs": [
        {
          "internalType": "uint256",
          "name": "",
          "type": "uint256"
        }
      ],
      "stateMutability": "view",
      "type": "function",
      "constant": true
    },
    {
      "inputs": [],
      "name": "referralReward",
      "outputs": [
        {
          "internalType": "uint256",
          "name": "",
          "type": "uint256"
        }
      ],
      "stateMutability": "view",
      "type": "function",
      "constant": true
    },
    {
      "inputs": [],
      "name": "socialMediaReward",
      "outputs": [
        {
          "internalType": "uint256",
          "name": "",
          "type": "uint256"
        }
      ],
      "stateMutability": "view",
      "type": "function",
      "constant": true
    },
    {
      "inputs": [],
      "name": "staking",
      "outputs": [
        {
          "internalType": "uint256",
          "name": "",
          "type": "uint256"
        }
      ],
      "stateMutability": "view",
      "type": "function",
      "constant": true
    },
    {
      "inputs": [],
      "name": "symbol",
      "outputs": [
        {
          "internalType": "string",
          "name": "",
          "type": "string"
        }
      ],
      "stateMutability": "view",
      "type": "function",
      "constant": true
    },
    {
      "inputs": [],
      "name": "tokenAddress",
      "outputs": [
        {
          "internalType": "address",
          "name": "",
          "type": "address"
        }
      ],
      "stateMutability": "view",
      "type": "function",
      "constant": true
    },
    {
      "inputs": [
        {
          "internalType": "uint256",
          "name": "",
          "type": "uint256"
        }
      ],
      "name": "totalReferrals",
      "outputs": [
        {
          "internalType": "uint256",
          "name": "",
          "type": "uint256"
        }
      ],
      "stateMutability": "view",
      "type": "function",
      "constant": true
    },
    {
      "inputs": [],
      "name": "totalSupply",
      "outputs": [
        {
          "internalType": "uint256",
          "name": "",
          "type": "uint256"
        }
      ],
      "stateMutability": "view",
      "type": "function",
      "constant": true
    },
    {
      "inputs": [
        {
          "internalType": "address",
          "name": "to",
          "type": "address"
        },
        {
          "internalType": "uint256",
          "name": "amount",
          "type": "uint256"
        }
      ],
      "name": "transfer",
      "outputs": [
        {
          "internalType": "bool",
          "name": "",
          "type": "bool"
        }
      ],
      "stateMutability": "nonpayable",
      "type": "function"
    },
    {
      "inputs": [
        {
          "internalType": "address",
          "name": "from",
          "type": "address"
        },
        {
          "internalType": "address",
          "name": "to",
          "type": "address"
        },
        {
          "internalType": "uint256",
          "name": "amount",
          "type": "uint256"
        }
      ],
      "name": "transferFrom",
      "outputs": [
        {
          "internalType": "bool",
          "name": "",
          "type": "bool"
        }
      ],
      "stateMutability": "nonpayable",
      "type": "function"
    },
    {
      "inputs": [
        {
          "internalType": "address[]",
          "name": "sellers",
          "type": "address[]"
        }
      ],
      "name": "distributeToPartners",
      "outputs": [],
      "stateMutability": "nonpayable",
      "type": "function"
    },
    {
      "inputs": [
        {
          "internalType": "address",
          "name": "seller",
          "type": "address"
        }
      ],
      "name": "removeSeller",
      "outputs": [],
      "stateMutability": "nonpayable",
      "type": "function"
    },
    {
      "inputs": [
        {
          "internalType": "uint256",
          "name": "amount",
          "type": "uint256"
        }
      ],
      "name": "mint",
      "outputs": [],
      "stateMutability": "nonpayable",
      "type": "function"
    },
    {
      "inputs": [],
      "name": "depositCoint",
      "outputs": [],
      "stateMutability": "nonpayable",
      "type": "function"
    },
    {
      "inputs": [],
      "name": "deductCoin",
      "outputs": [],
      "stateMutability": "payable",
      "type": "function",
      "payable": true
    },
    {
      "inputs": [
        {
          "internalType": "uint256",
          "name": "productPrice",
          "type": "uint256"
        },
        {
          "internalType": "address",
          "name": "userAccount",
          "type": "address"
        },
        {
          "internalType": "uint256",
          "name": "lastReturnDate",
          "type": "uint256"
        },
        {
          "internalType": "bool",
          "name": "isReferred",
          "type": "bool"
        },
        {
          "internalType": "address",
          "name": "referrer",
          "type": "address"
        },
        {
          "internalType": "bool",
          "name": "isRedeem",
          "type": "bool"
        },
        {
          "internalType": "uint256",
          "name": "redeemAmount",
          "type": "uint256"
        }
      ],
      "name": "purchase",
      "outputs": [],
      "stateMutability": "nonpayable",
      "type": "function"
    },
    {
      "inputs": [
        {
          "internalType": "address",
          "name": "seller",
          "type": "address"
        },
        {
          "internalType": "uint256[]",
          "name": "amount",
          "type": "uint256[]"
        },
        {
          "internalType": "address[]",
          "name": "userAccount",
          "type": "address[]"
        },
        {
          "internalType": "uint256",
          "name": "totalAmount",
          "type": "uint256"
        }
      ],
      "name": "disperseCoin",
      "outputs": [],
      "stateMutability": "nonpayable",
      "type": "function"
    },
    {
      "inputs": [
        {
          "internalType": "uint256",
          "name": "orderId",
          "type": "uint256"
        }
      ],
      "name": "cancleOrder",
      "outputs": [],
      "stateMutability": "nonpayable",
      "type": "function"
    },
    {
      "inputs": [
        {
          "internalType": "address",
          "name": "userAccount",
          "type": "address"
        }
      ],
      "name": "socialMediaPost",
      "outputs": [],
      "stateMutability": "nonpayable",
      "type": "function"
    },
    {
      "inputs": [
        {
          "internalType": "uint256",
          "name": "amount",
          "type": "uint256"
        },
        {
          "internalType": "address",
          "name": "userAccount",
          "type": "address"
        },
        {
          "internalType": "uint256",
          "name": "interval",
          "type": "uint256"
        }
      ],
      "name": "stakeTokens",
      "outputs": [],
      "stateMutability": "nonpayable",
      "type": "function"
    }
  ],
  "bytecode": "0x608060405261012c600b556005600c556005600d556000600e553480156200002657600080fd5b5060405162004e7338038062004e7383398181016040528101906200004c919062000522565b8181816003908051906020019062000066929190620002d5565b5080600490805190602001906200007f929190620002d5565b505050620000c130620000976200015560201b60201c565b600a620000a5919062000741565b62989680620000b5919062000792565b6200015e60201b60201c565b62989680600e8190555033600f60006101000a81548173ffffffffffffffffffffffffffffffffffffffff021916908373ffffffffffffffffffffffffffffffffffffffff16021790555030601060006101000a81548173ffffffffffffffffffffffffffffffffffffffff021916908373ffffffffffffffffffffffffffffffffffffffff160217905550505062000965565b60006012905090565b600073ffffffffffffffffffffffffffffffffffffffff168273ffffffffffffffffffffffffffffffffffffffff1603620001d0576040517f08c379a0000000000000000000000000000000000000000000000000000000008152600401620001c79062000854565b60405180910390fd5b620001e460008383620002cb60201b60201c565b8060026000828254620001f8919062000876565b92505081905550806000808473ffffffffffffffffffffffffffffffffffffffff1673ffffffffffffffffffffffffffffffffffffffff168152602001908152602001600020600082825401925050819055508173ffffffffffffffffffffffffffffffffffffffff16600073ffffffffffffffffffffffffffffffffffffffff167fddf252ad1be2c89b69c2b068fc378daa952ba7f163c4a11628f55a4df523b3ef83604051620002ab9190620008e4565b60405180910390a3620002c760008383620002d060201b60201c565b5050565b505050565b505050565b828054620002e39062000930565b90600052602060002090601f01602090048101928262000307576000855562000353565b82601f106200032257805160ff191683800117855562000353565b8280016001018555821562000353579182015b828111156200035257825182559160200191906001019062000335565b5b50905062000362919062000366565b5090565b5b808211156200038157600081600090555060010162000367565b5090565b6000604051905090565b600080fd5b600080fd5b600080fd5b600080fd5b6000601f19601f8301169050919050565b7f4e487b7100000000000000000000000000000000000000000000000000000000600052604160045260246000fd5b620003ee82620003a3565b810181811067ffffffffffffffff8211171562000410576200040f620003b4565b5b80604052505050565b60006200042562000385565b9050620004338282620003e3565b919050565b600067ffffffffffffffff821115620004565762000455620003b4565b5b6200046182620003a3565b9050602081019050919050565b60005b838110156200048e57808201518184015260208101905062000471565b838111156200049e576000848401525b50505050565b6000620004bb620004b58462000438565b62000419565b905082815260208101848484011115620004da57620004d96200039e565b5b620004e78482856200046e565b509392505050565b600082601f83011262000507576200050662000399565b5b815162000519848260208601620004a4565b91505092915050565b600080604083850312156200053c576200053b6200038f565b5b600083015167ffffffffffffffff8111156200055d576200055c62000394565b5b6200056b85828601620004ef565b925050602083015167ffffffffffffffff8111156200058f576200058e62000394565b5b6200059d85828601620004ef565b9150509250929050565b7f4e487b7100000000000000000000000000000000000000000000000000000000600052601160045260246000fd5b60008160011c9050919050565b6000808291508390505b600185111562000635578086048111156200060d576200060c620005a7565b5b60018516156200061d5780820291505b80810290506200062d85620005d6565b9450620005ed565b94509492505050565b60008262000650576001905062000723565b8162000660576000905062000723565b81600181146200067957600281146200068457620006ba565b600191505062000723565b60ff841115620006995762000698620005a7565b5b8360020a915084821115620006b357620006b2620005a7565b5b5062000723565b5060208310610133831016604e8410600b8410161715620006f45782820a905083811115620006ee57620006ed620005a7565b5b62000723565b620007038484846001620005e3565b925090508184048111156200071d576200071c620005a7565b5b81810290505b9392505050565b6000819050919050565b600060ff82169050919050565b60006200074e826200072a565b91506200075b8362000734565b92506200078a7fffffffffffffffffffffffffffffffffffffffffffffffffffffffffffffffff84846200063e565b905092915050565b60006200079f826200072a565b9150620007ac836200072a565b9250817fffffffffffffffffffffffffffffffffffffffffffffffffffffffffffffffff0483118215151615620007e857620007e7620005a7565b5b828202905092915050565b600082825260208201905092915050565b7f45524332303a206d696e7420746f20746865207a65726f206164647265737300600082015250565b60006200083c601f83620007f3565b9150620008498262000804565b602082019050919050565b600060208201905081810360008301526200086f816200082d565b9050919050565b600062000883826200072a565b915062000890836200072a565b9250827fffffffffffffffffffffffffffffffffffffffffffffffffffffffffffffffff03821115620008c857620008c7620005a7565b5b828201905092915050565b620008de816200072a565b82525050565b6000602082019050620008fb6000830184620008d3565b92915050565b7f4e487b7100000000000000000000000000000000000000000000000000000000600052602260045260246000fd5b600060028204905060018216806200094957607f821691505b6020821081036200095f576200095e62000901565b5b50919050565b6144fe80620009756000396000f3fe60806040526004361061020f5760003560e01c80638f84aa0911610118578063b2a62064116100a0578063dd62ed3e1161006f578063dd62ed3e146107c0578063e3cc16e1146107fd578063f406cb8a14610807578063f64cccea14610830578063f95c0df31461086d5761020f565b8063b2a6206414610716578063b64dac4d14610741578063b9b85b4b1461076c578063cec534d6146107975761020f565b80639e28229d116100e75780639e28229d14610604578063a0712d681461062f578063a457c2d714610658578063a85c38ef14610695578063a9059cbb146106d95761020f565b80638f84aa091461055a57806395d89b41146105855780639a69ca9d146105b05780639d76ea58146105d95761020f565b8063395093511161019b57806370a082311161016a57806370a082311461048957806377937c21146104c65780637cb9cf54146104dd57806381add559146105065780638c16602f146105315761020f565b806339509351146103cd5780634a0e09d31461040a5780634cf088d9146104335780634d6836741461045e5761020f565b80631ca351b2116101e25780631ca351b2146102d257806323b872dd146102fd5780632ed8eaa61461033a578063310a1ee314610377578063313ce567146103a25761020f565b806306fdde03146102145780630860eeb21461023f578063095ea7b31461026a57806318160ddd146102a7575b600080fd5b34801561022057600080fd5b50610229610896565b60405161023691906131ba565b60405180910390f35b34801561024b57600080fd5b50610254610928565b60405161026191906131f5565b60405180910390f35b34801561027657600080fd5b50610291600480360381019061028c91906132ae565b61092e565b60405161029e9190613309565b60405180910390f35b3480156102b357600080fd5b506102bc610951565b6040516102c991906131f5565b60405180910390f35b3480156102de57600080fd5b506102e761095b565b6040516102f491906131f5565b60405180910390f35b34801561030957600080fd5b50610324600480360381019061031f9190613324565b610961565b6040516103319190613309565b60405180910390f35b34801561034657600080fd5b50610361600480360381019061035c9190613377565b610990565b60405161036e91906131f5565b60405180910390f35b34801561038357600080fd5b5061038c6109a8565b60405161039991906131f5565b60405180910390f35b3480156103ae57600080fd5b506103b76109ae565b6040516103c491906133c0565b60405180910390f35b3480156103d957600080fd5b506103f460048036038101906103ef91906132ae565b6109b7565b6040516104019190613309565b60405180910390f35b34801561041657600080fd5b50610431600480360381019061042c9190613407565b6109ee565b005b34801561043f57600080fd5b50610448610cbf565b60405161045591906131f5565b60405180910390f35b34801561046a57600080fd5b50610473610cc5565b60405161048091906131f5565b60405180910390f35b34801561049557600080fd5b506104b060048036038101906104ab91906134a9565b610ccb565b6040516104bd91906131f5565b60405180910390f35b3480156104d257600080fd5b506104db610d13565b005b3480156104e957600080fd5b5061050460048036038101906104ff91906134a9565b6114d8565b005b34801561051257600080fd5b5061051b6114ed565b60405161052891906131f5565b60405180910390f35b34801561053d57600080fd5b50610558600480360381019061055391906136e1565b6114f3565b005b34801561056657600080fd5b5061056f611851565b60405161057c919061378f565b60405180910390f35b34801561059157600080fd5b5061059a611877565b6040516105a791906131ba565b60405180910390f35b3480156105bc57600080fd5b506105d760048036038101906105d291906134a9565b611909565b005b3480156105e557600080fd5b506105ee611b3f565b6040516105fb919061378f565b60405180910390f35b34801561061057600080fd5b50610619611b65565b60405161062691906131f5565b60405180910390f35b34801561063b57600080fd5b5061065660048036038101906106519190613377565b611b6b565b005b34801561066457600080fd5b5061067f600480360381019061067a91906132ae565b611bf7565b60405161068c9190613309565b60405180910390f35b3480156106a157600080fd5b506106bc60048036038101906106b79190613377565b611c6e565b6040516106d0989796959493929190613869565b60405180910390f35b3480156106e557600080fd5b5061070060048036038101906106fb91906132ae565b611d1d565b60405161070d9190613309565b60405180910390f35b34801561072257600080fd5b5061072b611d40565b60405161073891906131f5565b60405180910390f35b34801561074d57600080fd5b50610756611d46565b60405161076391906131f5565b60405180910390f35b34801561077857600080fd5b50610781611d4c565b60405161078e91906131f5565b60405180910390f35b3480156107a357600080fd5b506107be60048036038101906107b991906138e7565b611d52565b005b3480156107cc57600080fd5b506107e760048036038101906107e2919061393a565b61200c565b6040516107f491906131f5565b60405180910390f35b610805612093565b005b34801561081357600080fd5b5061082e60048036038101906108299190613377565b6126ab565b005b34801561083c57600080fd5b50610857600480360381019061085291906134a9565b61270f565b60405161086491906131f5565b60405180910390f35b34801561087957600080fd5b50610894600480360381019061088f919061397a565b612727565b005b6060600380546108a5906139f2565b80601f01602080910402602001604051908101604052809291908181526020018280546108d1906139f2565b801561091e5780601f106108f35761010080835404028352916020019161091e565b820191906000526020600020905b81548152906001019060200180831161090157829003601f168201915b5050505050905090565b60075481565b600080610939612825565b905061094681858561282d565b600191505092915050565b6000600254905090565b600c5481565b60008061096c612825565b90506109798582856129f6565b610984858585612a82565b60019150509392505050565b60136020528060005260406000206000915090505481565b600b5481565b60006012905090565b6000806109c2612825565b90506109e38185856109d4858961200c565b6109de9190613a52565b61282d565b600191505092915050565b6109f661308a565b600a548160000181815250506064603289610a119190613ad7565b10610a26576064816040018181525050610a3d565b603288610a339190613ad7565b8160400181815250505b86816060019073ffffffffffffffffffffffffffffffffffffffff16908173ffffffffffffffffffffffffffffffffffffffff168152505060008160c001906003811115610a8e57610a8d6137aa565b5b90816003811115610aa257610aa16137aa565b5b815250508581602001818152505060008160e001906003811115610ac957610ac86137aa565b5b90816003811115610add57610adc6137aa565b5b815250508415610b355760018160a001901515908115158152505083816080019073ffffffffffffffffffffffffffffffffffffffff16908173ffffffffffffffffffffffffffffffffffffffff1681525050610b47565b60008160a00190151590811515815250505b8215610b5857610b578783612cf8565b5b8060116000600a54815260200190815260200160002060008201518160000155602082015181600101556040820151816002015560608201518160030160006101000a81548173ffffffffffffffffffffffffffffffffffffffff021916908373ffffffffffffffffffffffffffffffffffffffff16021790555060808201518160040160006101000a81548173ffffffffffffffffffffffffffffffffffffffff021916908373ffffffffffffffffffffffffffffffffffffffff16021790555060a08201518160040160146101000a81548160ff02191690831515021790555060c08201518160040160156101000a81548160ff02191690836003811115610c6557610c646137aa565b5b021790555060e08201518160040160166101000a81548160ff02191690836003811115610c9557610c946137aa565b5b0217905550905050600a6000815480929190610cb090613b08565b91905055505050505050505050565b60085481565b600d5481565b60008060008373ffffffffffffffffffffffffffffffffffffffff1673ffffffffffffffffffffffffffffffffffffffff168152602001908152602001600020549050919050565b60005b600a548110156114d55760006003811115610d3457610d336137aa565b5b6011600083815260200190815260200160002060040160159054906101000a900460ff166003811115610d6a57610d696137aa565b5b148015610d8d575060116000828152602001908152602001600020600101544210155b156114c25760016003811115610da657610da56137aa565b5b6011600083815260200190815260200160002060040160169054906101000a900460ff166003811115610ddc57610ddb6137aa565b5b03610e785760095460646005610df0610951565b610dfa9190613b50565b610e049190613ad7565b11610e44576040517f08c379a0000000000000000000000000000000000000000000000000000000008152600401610e3b90613bf6565b60405180910390fd5b601160008281526020019081526020016000206002015460096000828254610e6c9190613a52565b925050819055506110d8565b60026003811115610e8c57610e8b6137aa565b5b6011600083815260200190815260200160002060040160169054906101000a900460ff166003811115610ec257610ec16137aa565b5b03610f5e5760075460646005610ed6610951565b610ee09190613b50565b610eea9190613ad7565b11610f2a576040517f08c379a0000000000000000000000000000000000000000000000000000000008152600401610f2190613bf6565b60405180910390fd5b601160008281526020019081526020016000206002015460076000828254610f529190613a52565b925050819055506110d7565b600380811115610f7157610f706137aa565b5b6011600083815260200190815260200160002060040160169054906101000a900460ff166003811115610fa757610fa66137aa565b5b03611043576008546064600f610fbb610951565b610fc59190613b50565b610fcf9190613ad7565b1161100f576040517f08c379a000000000000000000000000000000000000000000000000000000000815260040161100690613bf6565b60405180910390fd5b6011600082815260200190815260200160002060020154600860008282546110379190613a52565b925050819055506110d6565b60055460646028611052610951565b61105c9190613b50565b6110669190613ad7565b116110a6576040517f08c379a000000000000000000000000000000000000000000000000000000000815260040161109d90613bf6565b60405180910390fd5b6011600082815260200190815260200160002060020154600560008282546110ce9190613a52565b925050819055505b5b5b60026011600083815260200190815260200160002060040160156101000a81548160ff02191690836003811115611112576111116137aa565b5b02179055506000601060009054906101000a900473ffffffffffffffffffffffffffffffffffffffff1690508073ffffffffffffffffffffffffffffffffffffffff1663a9059cbb6011600085815260200190815260200160002060030160009054906101000a900473ffffffffffffffffffffffffffffffffffffffff1660116000868152602001908152602001600020600201546040518363ffffffff1660e01b81526004016111c5929190613c16565b6020604051808303816000875af11580156111e4573d6000803e3d6000fd5b505050506040513d601f19601f820116820180604052508101906112089190613c54565b506011600083815260200190815260200160002060020154601260006011600086815260200190815260200160002060030160009054906101000a900473ffffffffffffffffffffffffffffffffffffffff1673ffffffffffffffffffffffffffffffffffffffff1673ffffffffffffffffffffffffffffffffffffffff16815260200190815260200160002060008282546112a49190613a52565b925050819055506011600083815260200190815260200160002060040160149054906101000a900460ff16156114c0576006546064600f6112e3610951565b6112ed9190613b50565b6112f79190613ad7565b11611337576040517f08c379a000000000000000000000000000000000000000000000000000000000815260040161132e90613bf6565b60405180910390fd5b6000601060009054906101000a900473ffffffffffffffffffffffffffffffffffffffff1690508073ffffffffffffffffffffffffffffffffffffffff1663a9059cbb6011600086815260200190815260200160002060040160009054906101000a900473ffffffffffffffffffffffffffffffffffffffff16600d546040518363ffffffff1660e01b81526004016113d1929190613c16565b6020604051808303816000875af11580156113f0573d6000803e3d6000fd5b505050506040513d601f19601f820116820180604052508101906114149190613c54565b50600d54601260006011600087815260200190815260200160002060040160009054906101000a900473ffffffffffffffffffffffffffffffffffffffff1673ffffffffffffffffffffffffffffffffffffffff1673ffffffffffffffffffffffffffffffffffffffff168152602001908152602001600020600082825461149c9190613a52565b92505081905550600d54600660008282546114b79190613a52565b92505081905550505b505b80806114cd90613b08565b915050610d16565b50565b6114ea816114e583610ccb565b612d5d565b50565b60095481565b806114fd85610ccb565b101561153e576040517f08c379a000000000000000000000000000000000000000000000000000000000815260040161153590613cf3565b60405180910390fd5b6009546064600561154d610951565b6115579190613b50565b6115619190613ad7565b116115a1576040517f08c379a000000000000000000000000000000000000000000000000000000000815260040161159890613bf6565b60405180910390fd5b60005b835181101561184a576115b561308a565b600a54816000018181525050846000815181106115d5576115d4613d13565b5b602002602001015181604001818152505060008160a00190151590811515815250504281602001818152505060008160c00190600381111561161a576116196137aa565b5b9081600381111561162e5761162d6137aa565b5b8152505083828151811061164557611644613d13565b5b6020026020010151816060019073ffffffffffffffffffffffffffffffffffffffff16908173ffffffffffffffffffffffffffffffffffffffff168152505060018160e00190600381111561169d5761169c6137aa565b5b908160038111156116b1576116b06137aa565b5b815250508060116000600a54815260200190815260200160002060008201518160000155602082015181600101556040820151816002015560608201518160030160006101000a81548173ffffffffffffffffffffffffffffffffffffffff021916908373ffffffffffffffffffffffffffffffffffffffff16021790555060808201518160040160006101000a81548173ffffffffffffffffffffffffffffffffffffffff021916908373ffffffffffffffffffffffffffffffffffffffff16021790555060a08201518160040160146101000a81548160ff02191690831515021790555060c08201518160040160156101000a81548160ff021916908360038111156117c2576117c16137aa565b5b021790555060e08201518160040160166101000a81548160ff021916908360038111156117f2576117f16137aa565b5b021790555090505061181e8686848151811061181157611810613d13565b5b6020026020010151612d5d565b600a600081548092919061183190613b08565b919050555050808061184290613b08565b9150506115a4565b5050505050565b600f60009054906101000a900473ffffffffffffffffffffffffffffffffffffffff1681565b606060048054611886906139f2565b80601f01602080910402602001604051908101604052809291908181526020018280546118b2906139f2565b80156118ff5780601f106118d4576101008083540402835291602001916118ff565b820191906000526020600020905b8154815290600101906020018083116118e257829003601f168201915b5050505050905090565b61191161308a565b600a54816000018181525050600c5481604001818152505060008160a00190151590811515815250504281602001818152505060008160c00190600381111561195d5761195c6137aa565b5b90816003811115611971576119706137aa565b5b8152505081816060019073ffffffffffffffffffffffffffffffffffffffff16908173ffffffffffffffffffffffffffffffffffffffff168152505060028160e0019060038111156119c6576119c56137aa565b5b908160038111156119da576119d96137aa565b5b815250508060116000600a54815260200190815260200160002060008201518160000155602082015181600101556040820151816002015560608201518160030160006101000a81548173ffffffffffffffffffffffffffffffffffffffff021916908373ffffffffffffffffffffffffffffffffffffffff16021790555060808201518160040160006101000a81548173ffffffffffffffffffffffffffffffffffffffff021916908373ffffffffffffffffffffffffffffffffffffffff16021790555060a08201518160040160146101000a81548160ff02191690831515021790555060c08201518160040160156101000a81548160ff02191690836003811115611aeb57611aea6137aa565b5b021790555060e08201518160040160166101000a81548160ff02191690836003811115611b1b57611b1a6137aa565b5b0217905550905050600a6000815480929190611b3690613b08565b91905055505050565b601060009054906101000a900473ffffffffffffffffffffffffffffffffffffffff1681565b600a5481565b3373ffffffffffffffffffffffffffffffffffffffff16600f60009054906101000a900473ffffffffffffffffffffffffffffffffffffffff1673ffffffffffffffffffffffffffffffffffffffff1614611bc557600080fd5b611bed30611bd16109ae565b600a611bdd9190613e75565b83611be89190613b50565b612f2a565b80600e8190555050565b600080611c02612825565b90506000611c10828661200c565b905083811015611c55576040517f08c379a0000000000000000000000000000000000000000000000000000000008152600401611c4c90613f32565b60405180910390fd5b611c62828686840361282d565b60019250505092915050565b60116020528060005260406000206000915090508060000154908060010154908060020154908060030160009054906101000a900473ffffffffffffffffffffffffffffffffffffffff16908060040160009054906101000a900473ffffffffffffffffffffffffffffffffffffffff16908060040160149054906101000a900460ff16908060040160159054906101000a900460ff16908060040160169054906101000a900460ff16905088565b600080611d28612825565b9050611d35818585612a82565b600191505092915050565b600e5481565b60055481565b60065481565b600083118015611d6a5750611d6682610ccb565b8311155b611da9576040517f08c379a0000000000000000000000000000000000000000000000000000000008152600401611da090613f9e565b60405180910390fd5b611db4823085612a82565b611dbc61308a565b600a54816000018181525050600a84611dd59190613ad7565b84611de09190613a52565b81604001818152505060008160a00190151590811515815250508142611e069190613a52565b81602001818152505060008160c001906003811115611e2857611e276137aa565b5b90816003811115611e3c57611e3b6137aa565b5b8152505060038160e001906003811115611e5957611e586137aa565b5b90816003811115611e6d57611e6c6137aa565b5b8152505082816060019073ffffffffffffffffffffffffffffffffffffffff16908173ffffffffffffffffffffffffffffffffffffffff16815250508060116000600a54815260200190815260200160002060008201518160000155602082015181600101556040820151816002015560608201518160030160006101000a81548173ffffffffffffffffffffffffffffffffffffffff021916908373ffffffffffffffffffffffffffffffffffffffff16021790555060808201518160040160006101000a81548173ffffffffffffffffffffffffffffffffffffffff021916908373ffffffffffffffffffffffffffffffffffffffff16021790555060a08201518160040160146101000a81548160ff02191690831515021790555060c08201518160040160156101000a81548160ff02191690836003811115611fb657611fb56137aa565b5b021790555060e08201518160040160166101000a81548160ff02191690836003811115611fe657611fe56137aa565b5b0217905550905050600a600081548092919061200190613b08565b919050555050505050565b6000600160008473ffffffffffffffffffffffffffffffffffffffff1673ffffffffffffffffffffffffffffffffffffffff16815260200190815260200160002060008373ffffffffffffffffffffffffffffffffffffffff1673ffffffffffffffffffffffffffffffffffffffff16815260200190815260200160002054905092915050565b60005b600a548110156126a857600260038111156120b4576120b36137aa565b5b6011600083815260200190815260200160002060040160159054906101000a900460ff1660038111156120ea576120e96137aa565b5b14801561211a5750600b5460116000838152602001908152602001600020600101546121169190613a52565b4210155b15612695576011600082815260200190815260200160002060020154601260006011600085815260200190815260200160002060030160009054906101000a900473ffffffffffffffffffffffffffffffffffffffff1673ffffffffffffffffffffffffffffffffffffffff1673ffffffffffffffffffffffffffffffffffffffff168152602001908152602001600020546121b69190613fbe565b6121f56011600084815260200190815260200160002060030160009054906101000a900473ffffffffffffffffffffffffffffffffffffffff16610ccb565b11156123215760006011600083815260200190815260200160002060020154601260006011600086815260200190815260200160002060030160009054906101000a900473ffffffffffffffffffffffffffffffffffffffff1673ffffffffffffffffffffffffffffffffffffffff1673ffffffffffffffffffffffffffffffffffffffff168152602001908152602001600020546122949190613fbe565b6122d36011600085815260200190815260200160002060030160009054906101000a900473ffffffffffffffffffffffffffffffffffffffff16610ccb565b6122dd9190613fbe565b905061231f6011600084815260200190815260200160002060030160009054906101000a900473ffffffffffffffffffffffffffffffffffffffff1682612d5d565b505b6011600082815260200190815260200160002060020154601260006011600085815260200190815260200160002060030160009054906101000a900473ffffffffffffffffffffffffffffffffffffffff1673ffffffffffffffffffffffffffffffffffffffff1673ffffffffffffffffffffffffffffffffffffffff16815260200190815260200160002060008282546123bc9190613fbe565b925050819055506011600082815260200190815260200160002060040160149054906101000a900460ff161561265557600d54601260006011600085815260200190815260200160002060040160009054906101000a900473ffffffffffffffffffffffffffffffffffffffff1673ffffffffffffffffffffffffffffffffffffffff1673ffffffffffffffffffffffffffffffffffffffff1681526020019081526020016000205461246f9190613fbe565b6124ae6011600084815260200190815260200160002060040160009054906101000a900473ffffffffffffffffffffffffffffffffffffffff16610ccb565b11156125c6576000600d54601260006011600086815260200190815260200160002060040160009054906101000a900473ffffffffffffffffffffffffffffffffffffffff1673ffffffffffffffffffffffffffffffffffffffff1673ffffffffffffffffffffffffffffffffffffffff168152602001908152602001600020546125399190613fbe565b6125786011600085815260200190815260200160002060040160009054906101000a900473ffffffffffffffffffffffffffffffffffffffff16610ccb565b6125829190613fbe565b90506125c46011600084815260200190815260200160002060040160009054906101000a900473ffffffffffffffffffffffffffffffffffffffff1682612d5d565b505b600d54601260006011600085815260200190815260200160002060040160009054906101000a900473ffffffffffffffffffffffffffffffffffffffff1673ffffffffffffffffffffffffffffffffffffffff1673ffffffffffffffffffffffffffffffffffffffff168152602001908152602001600020600082825461264d9190613fbe565b925050819055505b60036011600083815260200190815260200160002060040160156101000a81548160ff0219169083600381111561268f5761268e6137aa565b5b02179055505b80806126a090613b08565b915050612096565b50565b426011600083815260200190815260200160002060010154116126cd57600080fd5b60016011600083815260200190815260200160002060040160156101000a81548160ff02191690836003811115612707576127066137aa565b5b021790555050565b60126020528060005260406000206000915090505481565b60005b8151811015612821576000601060009054906101000a900473ffffffffffffffffffffffffffffffffffffffff1690508073ffffffffffffffffffffffffffffffffffffffff1663a9059cbb84848151811061278957612788613d13565b5b602002602001015160646005600e546127a29190613b50565b6127ac9190613ad7565b6040518363ffffffff1660e01b81526004016127c9929190613c16565b6020604051808303816000875af11580156127e8573d6000803e3d6000fd5b505050506040513d601f19601f8201168201806040525081019061280c9190613c54565b5050808061281990613b08565b91505061272a565b5050565b600033905090565b600073ffffffffffffffffffffffffffffffffffffffff168373ffffffffffffffffffffffffffffffffffffffff160361289c576040517f08c379a000000000000000000000000000000000000000000000000000000000815260040161289390614064565b60405180910390fd5b600073ffffffffffffffffffffffffffffffffffffffff168273ffffffffffffffffffffffffffffffffffffffff160361290b576040517f08c379a0000000000000000000000000000000000000000000000000000000008152600401612902906140f6565b60405180910390fd5b80600160008573ffffffffffffffffffffffffffffffffffffffff1673ffffffffffffffffffffffffffffffffffffffff16815260200190815260200160002060008473ffffffffffffffffffffffffffffffffffffffff1673ffffffffffffffffffffffffffffffffffffffff168152602001908152602001600020819055508173ffffffffffffffffffffffffffffffffffffffff168373ffffffffffffffffffffffffffffffffffffffff167f8c5be1e5ebec7d5bd14f71427d1e84f3dd0314c0f7b2291e5b200ac8c7c3b925836040516129e991906131f5565b60405180910390a3505050565b6000612a02848461200c565b90507fffffffffffffffffffffffffffffffffffffffffffffffffffffffffffffffff8114612a7c5781811015612a6e576040517f08c379a0000000000000000000000000000000000000000000000000000000008152600401612a6590614162565b60405180910390fd5b612a7b848484840361282d565b5b50505050565b600073ffffffffffffffffffffffffffffffffffffffff168373ffffffffffffffffffffffffffffffffffffffff1603612af1576040517f08c379a0000000000000000000000000000000000000000000000000000000008152600401612ae8906141f4565b60405180910390fd5b600073ffffffffffffffffffffffffffffffffffffffff168273ffffffffffffffffffffffffffffffffffffffff1603612b60576040517f08c379a0000000000000000000000000000000000000000000000000000000008152600401612b5790614286565b60405180910390fd5b612b6b838383613080565b60008060008573ffffffffffffffffffffffffffffffffffffffff1673ffffffffffffffffffffffffffffffffffffffff16815260200190815260200160002054905081811015612bf1576040517f08c379a0000000000000000000000000000000000000000000000000000000008152600401612be890614318565b60405180910390fd5b8181036000808673ffffffffffffffffffffffffffffffffffffffff1673ffffffffffffffffffffffffffffffffffffffff16815260200190815260200160002081905550816000808573ffffffffffffffffffffffffffffffffffffffff1673ffffffffffffffffffffffffffffffffffffffff168152602001908152602001600020600082825401925050819055508273ffffffffffffffffffffffffffffffffffffffff168473ffffffffffffffffffffffffffffffffffffffff167fddf252ad1be2c89b69c2b068fc378daa952ba7f163c4a11628f55a4df523b3ef84604051612cdf91906131f5565b60405180910390a3612cf2848484613085565b50505050565b80612d0283610ccb565b10158015612d105750600081115b612d4f576040517f08c379a0000000000000000000000000000000000000000000000000000000008152600401612d4690613f9e565b60405180910390fd5b612d598282612d5d565b5050565b600073ffffffffffffffffffffffffffffffffffffffff168273ffffffffffffffffffffffffffffffffffffffff1603612dcc576040517f08c379a0000000000000000000000000000000000000000000000000000000008152600401612dc3906143aa565b60405180910390fd5b612dd882600083613080565b60008060008473ffffffffffffffffffffffffffffffffffffffff1673ffffffffffffffffffffffffffffffffffffffff16815260200190815260200160002054905081811015612e5e576040517f08c379a0000000000000000000000000000000000000000000000000000000008152600401612e559061443c565b60405180910390fd5b8181036000808573ffffffffffffffffffffffffffffffffffffffff1673ffffffffffffffffffffffffffffffffffffffff1681526020019081526020016000208190555081600260008282540392505081905550600073ffffffffffffffffffffffffffffffffffffffff168373ffffffffffffffffffffffffffffffffffffffff167fddf252ad1be2c89b69c2b068fc378daa952ba7f163c4a11628f55a4df523b3ef84604051612f1191906131f5565b60405180910390a3612f2583600084613085565b505050565b600073ffffffffffffffffffffffffffffffffffffffff168273ffffffffffffffffffffffffffffffffffffffff1603612f99576040517f08c379a0000000000000000000000000000000000000000000000000000000008152600401612f90906144a8565b60405180910390fd5b612fa560008383613080565b8060026000828254612fb79190613a52565b92505081905550806000808473ffffffffffffffffffffffffffffffffffffffff1673ffffffffffffffffffffffffffffffffffffffff168152602001908152602001600020600082825401925050819055508173ffffffffffffffffffffffffffffffffffffffff16600073ffffffffffffffffffffffffffffffffffffffff167fddf252ad1be2c89b69c2b068fc378daa952ba7f163c4a11628f55a4df523b3ef8360405161306891906131f5565b60405180910390a361307c60008383613085565b5050565b505050565b505050565b604051806101000160405280600081526020016000815260200160008152602001600073ffffffffffffffffffffffffffffffffffffffff168152602001600073ffffffffffffffffffffffffffffffffffffffff16815260200160001515815260200160006003811115613102576131016137aa565b5b81526020016000600381111561311b5761311a6137aa565b5b81525090565b600081519050919050565b600082825260208201905092915050565b60005b8381101561315b578082015181840152602081019050613140565b8381111561316a576000848401525b50505050565b6000601f19601f8301169050919050565b600061318c82613121565b613196818561312c565b93506131a681856020860161313d565b6131af81613170565b840191505092915050565b600060208201905081810360008301526131d48184613181565b905092915050565b6000819050919050565b6131ef816131dc565b82525050565b600060208201905061320a60008301846131e6565b92915050565b6000604051905090565b600080fd5b600080fd5b600073ffffffffffffffffffffffffffffffffffffffff82169050919050565b600061324f82613224565b9050919050565b61325f81613244565b811461326a57600080fd5b50565b60008135905061327c81613256565b92915050565b61328b816131dc565b811461329657600080fd5b50565b6000813590506132a881613282565b92915050565b600080604083850312156132c5576132c461321a565b5b60006132d38582860161326d565b92505060206132e485828601613299565b9150509250929050565b60008115159050919050565b613303816132ee565b82525050565b600060208201905061331e60008301846132fa565b92915050565b60008060006060848603121561333d5761333c61321a565b5b600061334b8682870161326d565b935050602061335c8682870161326d565b925050604061336d86828701613299565b9150509250925092565b60006020828403121561338d5761338c61321a565b5b600061339b84828501613299565b91505092915050565b600060ff82169050919050565b6133ba816133a4565b82525050565b60006020820190506133d560008301846133b1565b92915050565b6133e4816132ee565b81146133ef57600080fd5b50565b600081359050613401816133db565b92915050565b600080600080600080600060e0888a0312156134265761342561321a565b5b60006134348a828b01613299565b97505060206134458a828b0161326d565b96505060406134568a828b01613299565b95505060606134678a828b016133f2565b94505060806134788a828b0161326d565b93505060a06134898a828b016133f2565b92505060c061349a8a828b01613299565b91505092959891949750929550565b6000602082840312156134bf576134be61321a565b5b60006134cd8482850161326d565b91505092915050565b600080fd5b7f4e487b7100000000000000000000000000000000000000000000000000000000600052604160045260246000fd5b61351382613170565b810181811067ffffffffffffffff82111715613532576135316134db565b5b80604052505050565b6000613545613210565b9050613551828261350a565b919050565b600067ffffffffffffffff821115613571576135706134db565b5b602082029050602081019050919050565b600080fd5b600061359a61359584613556565b61353b565b905080838252602082019050602084028301858111156135bd576135bc613582565b5b835b818110156135e657806135d28882613299565b8452602084019350506020810190506135bf565b5050509392505050565b600082601f830112613605576136046134d6565b5b8135613615848260208601613587565b91505092915050565b600067ffffffffffffffff821115613639576136386134db565b5b602082029050602081019050919050565b600061365d6136588461361e565b61353b565b905080838252602082019050602084028301858111156136805761367f613582565b5b835b818110156136a95780613695888261326d565b845260208401935050602081019050613682565b5050509392505050565b600082601f8301126136c8576136c76134d6565b5b81356136d884826020860161364a565b91505092915050565b600080600080608085870312156136fb576136fa61321a565b5b60006137098782880161326d565b945050602085013567ffffffffffffffff81111561372a5761372961321f565b5b613736878288016135f0565b935050604085013567ffffffffffffffff8111156137575761375661321f565b5b613763878288016136b3565b925050606061377487828801613299565b91505092959194509250565b61378981613244565b82525050565b60006020820190506137a46000830184613780565b92915050565b7f4e487b7100000000000000000000000000000000000000000000000000000000600052602160045260246000fd5b600481106137ea576137e96137aa565b5b50565b60008190506137fb826137d9565b919050565b600061380b826137ed565b9050919050565b61381b81613800565b82525050565b60048110613832576138316137aa565b5b50565b600081905061384382613821565b919050565b600061385382613835565b9050919050565b61386381613848565b82525050565b60006101008201905061387f600083018b6131e6565b61388c602083018a6131e6565b61389960408301896131e6565b6138a66060830188613780565b6138b36080830187613780565b6138c060a08301866132fa565b6138cd60c0830185613812565b6138da60e083018461385a565b9998505050505050505050565b600080600060608486031215613900576138ff61321a565b5b600061390e86828701613299565b935050602061391f8682870161326d565b925050604061393086828701613299565b9150509250925092565b600080604083850312156139515761395061321a565b5b600061395f8582860161326d565b92505060206139708582860161326d565b9150509250929050565b6000602082840312156139905761398f61321a565b5b600082013567ffffffffffffffff8111156139ae576139ad61321f565b5b6139ba848285016136b3565b91505092915050565b7f4e487b7100000000000000000000000000000000000000000000000000000000600052602260045260246000fd5b60006002820490506001821680613a0a57607f821691505b602082108103613a1d57613a1c6139c3565b5b50919050565b7f4e487b7100000000000000000000000000000000000000000000000000000000600052601160045260246000fd5b6000613a5d826131dc565b9150613a68836131dc565b9250827fffffffffffffffffffffffffffffffffffffffffffffffffffffffffffffffff03821115613a9d57613a9c613a23565b5b828201905092915050565b7f4e487b7100000000000000000000000000000000000000000000000000000000600052601260045260246000fd5b6000613ae2826131dc565b9150613aed836131dc565b925082613afd57613afc613aa8565b5b828204905092915050565b6000613b13826131dc565b91507fffffffffffffffffffffffffffffffffffffffffffffffffffffffffffffffff8203613b4557613b44613a23565b5b600182019050919050565b6000613b5b826131dc565b9150613b66836131dc565b9250817fffffffffffffffffffffffffffffffffffffffffffffffffffffffffffffffff0483118215151615613b9f57613b9e613a23565b5b828202905092915050565b7f52756e6e696e67204c6f77206f6e20546f6b656e730000000000000000000000600082015250565b6000613be060158361312c565b9150613beb82613baa565b602082019050919050565b60006020820190508181036000830152613c0f81613bd3565b9050919050565b6000604082019050613c2b6000830185613780565b613c3860208301846131e6565b9392505050565b600081519050613c4e816133db565b92915050565b600060208284031215613c6a57613c6961321a565b5b6000613c7884828501613c3f565b91505092915050565b7f53656c6c657220686173206e6f7420656e6f75676820616d6f756e74206f662060008201527f546f6b656e730000000000000000000000000000000000000000000000000000602082015250565b6000613cdd60268361312c565b9150613ce882613c81565b604082019050919050565b60006020820190508181036000830152613d0c81613cd0565b9050919050565b7f4e487b7100000000000000000000000000000000000000000000000000000000600052603260045260246000fd5b60008160011c9050919050565b6000808291508390505b6001851115613d9957808604811115613d7557613d74613a23565b5b6001851615613d845780820291505b8081029050613d9285613d42565b9450613d59565b94509492505050565b600082613db25760019050613e6e565b81613dc05760009050613e6e565b8160018114613dd65760028114613de057613e0f565b6001915050613e6e565b60ff841115613df257613df1613a23565b5b8360020a915084821115613e0957613e08613a23565b5b50613e6e565b5060208310610133831016604e8410600b8410161715613e445782820a905083811115613e3f57613e3e613a23565b5b613e6e565b613e518484846001613d4f565b92509050818404811115613e6857613e67613a23565b5b81810290505b9392505050565b6000613e80826131dc565b9150613e8b836133a4565b9250613eb87fffffffffffffffffffffffffffffffffffffffffffffffffffffffffffffffff8484613da2565b905092915050565b7f45524332303a2064656372656173656420616c6c6f77616e63652062656c6f7760008201527f207a65726f000000000000000000000000000000000000000000000000000000602082015250565b6000613f1c60258361312c565b9150613f2782613ec0565b604082019050919050565b60006020820190508181036000830152613f4b81613f0f565b9050919050565b7f496e73756666696369656e742062616c616e6365000000000000000000000000600082015250565b6000613f8860148361312c565b9150613f9382613f52565b602082019050919050565b60006020820190508181036000830152613fb781613f7b565b9050919050565b6000613fc9826131dc565b9150613fd4836131dc565b925082821015613fe757613fe6613a23565b5b828203905092915050565b7f45524332303a20617070726f76652066726f6d20746865207a65726f2061646460008201527f7265737300000000000000000000000000000000000000000000000000000000602082015250565b600061404e60248361312c565b915061405982613ff2565b604082019050919050565b6000602082019050818103600083015261407d81614041565b9050919050565b7f45524332303a20617070726f766520746f20746865207a65726f20616464726560008201527f7373000000000000000000000000000000000000000000000000000000000000602082015250565b60006140e060228361312c565b91506140eb82614084565b604082019050919050565b6000602082019050818103600083015261410f816140d3565b9050919050565b7f45524332303a20696e73756666696369656e7420616c6c6f77616e6365000000600082015250565b600061414c601d8361312c565b915061415782614116565b602082019050919050565b6000602082019050818103600083015261417b8161413f565b9050919050565b7f45524332303a207472616e736665722066726f6d20746865207a65726f20616460008201527f6472657373000000000000000000000000000000000000000000000000000000602082015250565b60006141de60258361312c565b91506141e982614182565b604082019050919050565b6000602082019050818103600083015261420d816141d1565b9050919050565b7f45524332303a207472616e7366657220746f20746865207a65726f206164647260008201527f6573730000000000000000000000000000000000000000000000000000000000602082015250565b600061427060238361312c565b915061427b82614214565b604082019050919050565b6000602082019050818103600083015261429f81614263565b9050919050565b7f45524332303a207472616e7366657220616d6f756e742065786365656473206260008201527f616c616e63650000000000000000000000000000000000000000000000000000602082015250565b600061430260268361312c565b915061430d826142a6565b604082019050919050565b60006020820190508181036000830152614331816142f5565b9050919050565b7f45524332303a206275726e2066726f6d20746865207a65726f2061646472657360008201527f7300000000000000000000000000000000000000000000000000000000000000602082015250565b600061439460218361312c565b915061439f82614338565b604082019050919050565b600060208201905081810360008301526143c381614387565b9050919050565b7f45524332303a206275726e20616d6f756e7420657863656564732062616c616e60008201527f6365000000000000000000000000000000000000000000000000000000000000602082015250565b600061442660228361312c565b9150614431826143ca565b604082019050919050565b6000602082019050818103600083015261445581614419565b9050919050565b7f45524332303a206d696e7420746f20746865207a65726f206164647265737300600082015250565b6000614492601f8361312c565b915061449d8261445c565b602082019050919050565b600060208201905081810360008301526144c181614485565b905091905056fea2646970667358221220566eb9fba60cf8c0ca3e00fba856b7f2d0734048bb336feff5fce180e1804f8d64736f6c634300080d0033",
  "immutableReferences": {},
  "source": "// SPDX-License-Identifier: MIT\npragma solidity ^0.8.0;\n\n// Import the necessary ERC-20 interface\nimport \"@openzeppelin/contracts/token/ERC20/ERC20.sol\";\nimport \"@openzeppelin/contracts/token/ERC20/IERC20.sol\";\n\n// Inherit from the ERC-20 contract\ncontract FlipCoin is ERC20 {\n\n    uint256 public purchase_rewards;\n    uint256 public purchase_referrals;\n    uint256 public purchase_socialMedia;\n    uint256 public staking;\n    uint256 public partners;\n    uint256 public currentOrder;\n    uint256 public expireTime = 300;\n    uint256 public socialMediaReward = 5;\n    uint256 public referralReward = 5;\n    uint256 public currentMintAmount = 0;\n    address public ownerAddress;\n    address public tokenAddress;\n\n    enum OrderStatus\n    {\n        Confirmed,\n        Cancelled,\n        NotReturned,\n        Expired\n    }\n    enum OrderType\n    {\n        Purchase,\n        Airdrop,\n        SocialPost,\n        Stake\n    }\n    struct Order\n    {\n        uint256 id;\n        uint256 lastReturnDate;\n        uint256 flipCoin;\n        address userAccount;\n        address referrer;\n        bool isReferred;\n        OrderStatus status;\n        OrderType orderType;\n    }\n\n    mapping(uint256=>Order) public orders;\n    mapping(address=>uint256) public expectedBalance;\n    mapping(uint256=>uint256) public totalReferrals;\n\n    constructor(string memory name, string memory symbol) ERC20(name, symbol) {\n        _mint(address(this), 10000000 * 10 ** decimals());\n        currentMintAmount = 10000000;\n        ownerAddress = msg.sender;\n        tokenAddress = address(this);\n    }\n    function distributeToPartners(address[] memory sellers) external \n    {\n        for(uint256 i=0;i<sellers.length;i++)\n        {\n            IERC20 token = IERC20(tokenAddress);\n            token.transfer(sellers[i], (currentMintAmount * 5)/100);\n        }\n    }\n    function removeSeller(address seller) external \n    {\n        _burn(seller, balanceOf(seller));\n    }\n    function mint(uint256 amount) external \n    {\n        require(ownerAddress == msg.sender);\n        _mint(address(this), amount * 10 ** decimals());\n        currentMintAmount = amount;\n    }\n    function depositCoint() external {\n        for(uint256 i=0;i<currentOrder;i++)\n        {\n            if(orders[i].status == OrderStatus.Confirmed && block.timestamp >= orders[i].lastReturnDate)\n            {\n                if(orders[i].orderType == OrderType.Airdrop)\n                {\n                    require((totalSupply() * 5)/100 > partners, \"Running Low on Tokens\");\n                    partners += orders[i].flipCoin;\n                }\n                else if(orders[i].orderType == OrderType.SocialPost)\n                {\n                    require((totalSupply() * 5)/100 > purchase_socialMedia, \"Running Low on Tokens\");\n                    purchase_socialMedia += orders[i].flipCoin;\n                }\n                else if(orders[i].orderType == OrderType.Stake)\n                {\n                    require((totalSupply() * 15)/100 > staking, \"Running Low on Tokens\");\n                    staking += orders[i].flipCoin;\n                }\n                else \n                {\n                    require((totalSupply() * 40)/100 > purchase_rewards, \"Running Low on Tokens\");\n                    purchase_rewards += orders[i].flipCoin;\n                }\n                orders[i].status = OrderStatus.NotReturned;\n                IERC20 token = IERC20(tokenAddress);\n                token.transfer(orders[i].userAccount, orders[i].flipCoin);\n                expectedBalance[orders[i].userAccount] += orders[i].flipCoin;\n                if(orders[i].isReferred)\n                {\n                    require((totalSupply() * 15)/100 > purchase_referrals, \"Running Low on Tokens\");\n                    IERC20 tokenRef = IERC20(tokenAddress);\n                    tokenRef.transfer(orders[i].referrer, referralReward);\n                    expectedBalance[orders[i].referrer] += referralReward;\n                    purchase_referrals += referralReward;\n                }\n            }\n\n        }\n    }\n    function deductCoin() payable external {\n        for(uint256 i=0;i<currentOrder;i++)\n        {\n            if(orders[i].status == OrderStatus.NotReturned && block.timestamp >= orders[i].lastReturnDate + expireTime)\n            {\n                if(balanceOf(orders[i].userAccount) > (expectedBalance[orders[i].userAccount] - orders[i].flipCoin))\n                {\n                    uint256 extraAmount = balanceOf(orders[i].userAccount) - (expectedBalance[orders[i].userAccount] - orders[i].flipCoin);\n                    _burn(orders[i].userAccount, extraAmount);\n                }\n                expectedBalance[orders[i].userAccount] -= orders[i].flipCoin;\n                if(orders[i].isReferred)\n                {\n                    if(balanceOf(orders[i].referrer) > (expectedBalance[orders[i].referrer] - referralReward))\n                    {\n                        uint256 extraAmount = balanceOf(orders[i].referrer) - (expectedBalance[orders[i].referrer] - referralReward);\n                        _burn(orders[i].referrer, extraAmount);\n                    }\n                    expectedBalance[orders[i].referrer] -= referralReward;\n                }\n                orders[i].status = OrderStatus.Expired;\n            }\n        }\n    }\n    function purchase(uint256 productPrice,address userAccount, uint256 lastReturnDate,bool isReferred, address referrer, bool isRedeem, uint256 redeemAmount)external {\n        Order memory newOrder;\n        newOrder.id = currentOrder;\n        if(productPrice/50 >= 100){\n        newOrder.flipCoin = 100;\n        }\n        else{\n            newOrder.flipCoin = productPrice / 50;\n        }\n        newOrder.userAccount = userAccount;\n        newOrder.status = OrderStatus.Confirmed;\n        newOrder.lastReturnDate = lastReturnDate;\n        newOrder.orderType = OrderType.Purchase;\n        if(isReferred)\n        {\n            newOrder.isReferred = true;\n            newOrder.referrer = referrer;\n        }\n        else \n        {\n            newOrder.isReferred = false;\n        }\n        if(isRedeem)\n        {\n            redeem(userAccount, redeemAmount);\n        }\n        orders[currentOrder] = newOrder;\n        currentOrder++;\n    }\n    function disperseCoin(address seller, uint256[] memory amount, address[] memory userAccount, uint256 totalAmount) external {\n        require(balanceOf(seller) >= totalAmount, \"Seller has not enough amount of Tokens\");\n        require((totalSupply() * 5)/100 > partners, \"Running Low on Tokens\");\n        for(uint256 i=0;i<amount.length;i++)\n        {\n            Order memory newOrder;\n            newOrder.id = currentOrder;\n            newOrder.flipCoin = amount[0];\n            newOrder.isReferred = false;\n            newOrder.lastReturnDate = block.timestamp;\n            newOrder.status = OrderStatus.Confirmed;\n            newOrder.userAccount = userAccount[i];\n            newOrder.orderType = OrderType.Airdrop;\n            orders[currentOrder] = newOrder;\n            _burn(seller, amount[i]);\n            currentOrder++;\n        }\n    }\n    function cancleOrder(uint256 orderId) external \n    {\n        require(orders[orderId].lastReturnDate > block.timestamp);\n        orders[orderId].status = OrderStatus.Cancelled;\n    }\n    function socialMediaPost(address userAccount) external \n    {\n        Order memory newOrder;\n        newOrder.id = currentOrder;\n        newOrder.flipCoin = socialMediaReward;\n        newOrder.isReferred = false;\n        newOrder.lastReturnDate = block.timestamp;\n        newOrder.status = OrderStatus.Confirmed;\n        newOrder.userAccount = userAccount;\n        newOrder.orderType = OrderType.SocialPost;\n        orders[currentOrder] = newOrder;\n        currentOrder++;\n    }\n    function redeem(address userAccount, uint256 amount) internal  \n    {\n        require(balanceOf(userAccount) >= amount && amount > 0, \"Insufficient balance\");\n        _burn(userAccount, amount);\n    }\n    function stakeTokens(uint256 amount, address userAccount, uint256 interval) external {\n        require(amount >0 && amount <= balanceOf(userAccount), \"Insufficient balance\");\n        _transfer(userAccount, address(this) ,amount);\n        Order memory newOrder;\n        newOrder.id = currentOrder;\n        newOrder.flipCoin = amount + amount/10;\n        newOrder.isReferred = false;\n        newOrder.lastReturnDate = block.timestamp + interval;\n        newOrder.status = OrderStatus.Confirmed;\n        newOrder.orderType = OrderType.Stake;\n        newOrder.userAccount = userAccount;\n        orders[currentOrder] = newOrder;\n        currentOrder++;\n    }\n}\n",
  "sourcePath": "/home/subrat0018/Desktop/project-grid/truffle/contracts/FlipCoin.sol",
  "compiler": {
    "name": "solc",
    "version": "0.8.13+commit.abaa5c0e.Emscripten.clang"
  },
  "schemaVersion": "3.4.15",
  "updatedAt": "2023-08-20T11:41:08.971Z",
  "networkType": "ethereum",
  "devdoc": {
    "kind": "dev",
    "methods": {
      "allowance(address,address)": {
        "details": "See {IERC20-allowance}."
      },
      "approve(address,uint256)": {
        "details": "See {IERC20-approve}. NOTE: If `amount` is the maximum `uint256`, the allowance is not updated on `transferFrom`. This is semantically equivalent to an infinite approval. Requirements: - `spender` cannot be the zero address."
      },
      "balanceOf(address)": {
        "details": "See {IERC20-balanceOf}."
      },
      "decimals()": {
        "details": "Returns the number of decimals used to get its user representation. For example, if `decimals` equals `2`, a balance of `505` tokens should be displayed to a user as `5.05` (`505 / 10 ** 2`). Tokens usually opt for a value of 18, imitating the relationship between Ether and Wei. This is the default value returned by this function, unless it's overridden. NOTE: This information is only used for _display_ purposes: it in no way affects any of the arithmetic of the contract, including {IERC20-balanceOf} and {IERC20-transfer}."
      },
      "decreaseAllowance(address,uint256)": {
        "details": "Atomically decreases the allowance granted to `spender` by the caller. This is an alternative to {approve} that can be used as a mitigation for problems described in {IERC20-approve}. Emits an {Approval} event indicating the updated allowance. Requirements: - `spender` cannot be the zero address. - `spender` must have allowance for the caller of at least `subtractedValue`."
      },
      "increaseAllowance(address,uint256)": {
        "details": "Atomically increases the allowance granted to `spender` by the caller. This is an alternative to {approve} that can be used as a mitigation for problems described in {IERC20-approve}. Emits an {Approval} event indicating the updated allowance. Requirements: - `spender` cannot be the zero address."
      },
      "name()": {
        "details": "Returns the name of the token."
      },
      "symbol()": {
        "details": "Returns the symbol of the token, usually a shorter version of the name."
      },
      "totalSupply()": {
        "details": "See {IERC20-totalSupply}."
      },
      "transfer(address,uint256)": {
        "details": "See {IERC20-transfer}. Requirements: - `to` cannot be the zero address. - the caller must have a balance of at least `amount`."
      },
      "transferFrom(address,address,uint256)": {
        "details": "See {IERC20-transferFrom}. Emits an {Approval} event indicating the updated allowance. This is not required by the EIP. See the note at the beginning of {ERC20}. NOTE: Does not update the allowance if the current allowance is the maximum `uint256`. Requirements: - `from` and `to` cannot be the zero address. - `from` must have a balance of at least `amount`. - the caller must have allowance for ``from``'s tokens of at least `amount`."
      }
    },
    "version": 1
  },
  "userdoc": {
    "kind": "user",
    "methods": {},
    "version": 1
  }
}