{
  "contractName": "FlipCoin",
  "abi": [
    {
      "inputs": [
        {
          "internalType": "string",
          "name": "name",
          "type": "string"
        },
        {
          "internalType": "string",
          "name": "symbol",
          "type": "string"
        }
      ],
      "stateMutability": "nonpayable",
      "type": "constructor"
    },
    {
      "anonymous": false,
      "inputs": [
        {
          "indexed": true,
          "internalType": "address",
          "name": "owner",
          "type": "address"
        },
        {
          "indexed": true,
          "internalType": "address",
          "name": "spender",
          "type": "address"
        },
        {
          "indexed": false,
          "internalType": "uint256",
          "name": "value",
          "type": "uint256"
        }
      ],
      "name": "Approval",
      "type": "event"
    },
    {
      "anonymous": false,
      "inputs": [
        {
          "indexed": true,
          "internalType": "address",
          "name": "from",
          "type": "address"
        },
        {
          "indexed": true,
          "internalType": "address",
          "name": "to",
          "type": "address"
        },
        {
          "indexed": false,
          "internalType": "uint256",
          "name": "value",
          "type": "uint256"
        }
      ],
      "name": "Transfer",
      "type": "event"
    },
    {
      "inputs": [
        {
          "internalType": "address",
          "name": "owner",
          "type": "address"
        },
        {
          "internalType": "address",
          "name": "spender",
          "type": "address"
        }
      ],
      "name": "allowance",
      "outputs": [
        {
          "internalType": "uint256",
          "name": "",
          "type": "uint256"
        }
      ],
      "stateMutability": "view",
      "type": "function",
      "constant": true
    },
    {
      "inputs": [
        {
          "internalType": "address",
          "name": "spender",
          "type": "address"
        },
        {
          "internalType": "uint256",
          "name": "amount",
          "type": "uint256"
        }
      ],
      "name": "approve",
      "outputs": [
        {
          "internalType": "bool",
          "name": "",
          "type": "bool"
        }
      ],
      "stateMutability": "nonpayable",
      "type": "function"
    },
    {
      "inputs": [
        {
          "internalType": "address",
          "name": "account",
          "type": "address"
        }
      ],
      "name": "balanceOf",
      "outputs": [
        {
          "internalType": "uint256",
          "name": "",
          "type": "uint256"
        }
      ],
      "stateMutability": "view",
      "type": "function",
      "constant": true
    },
    {
      "inputs": [],
      "name": "currentMintAmount",
      "outputs": [
        {
          "internalType": "uint256",
          "name": "",
          "type": "uint256"
        }
      ],
      "stateMutability": "view",
      "type": "function",
      "constant": true
    },
    {
      "inputs": [],
      "name": "currentOrder",
      "outputs": [
        {
          "internalType": "uint256",
          "name": "",
          "type": "uint256"
        }
      ],
      "stateMutability": "view",
      "type": "function",
      "constant": true
    },
    {
      "inputs": [],
      "name": "decimals",
      "outputs": [
        {
          "internalType": "uint8",
          "name": "",
          "type": "uint8"
        }
      ],
      "stateMutability": "view",
      "type": "function",
      "constant": true
    },
    {
      "inputs": [
        {
          "internalType": "address",
          "name": "spender",
          "type": "address"
        },
        {
          "internalType": "uint256",
          "name": "subtractedValue",
          "type": "uint256"
        }
      ],
      "name": "decreaseAllowance",
      "outputs": [
        {
          "internalType": "bool",
          "name": "",
          "type": "bool"
        }
      ],
      "stateMutability": "nonpayable",
      "type": "function"
    },
    {
      "inputs": [
        {
          "internalType": "address",
          "name": "",
          "type": "address"
        }
      ],
      "name": "expectedBalance",
      "outputs": [
        {
          "internalType": "uint256",
          "name": "",
          "type": "uint256"
        }
      ],
      "stateMutability": "view",
      "type": "function",
      "constant": true
    },
    {
      "inputs": [],
      "name": "expireTime",
      "outputs": [
        {
          "internalType": "uint256",
          "name": "",
          "type": "uint256"
        }
      ],
      "stateMutability": "view",
      "type": "function",
      "constant": true
    },
    {
      "inputs": [
        {
          "internalType": "address",
          "name": "spender",
          "type": "address"
        },
        {
          "internalType": "uint256",
          "name": "addedValue",
          "type": "uint256"
        }
      ],
      "name": "increaseAllowance",
      "outputs": [
        {
          "internalType": "bool",
          "name": "",
          "type": "bool"
        }
      ],
      "stateMutability": "nonpayable",
      "type": "function"
    },
    {
      "inputs": [],
      "name": "name",
      "outputs": [
        {
          "internalType": "string",
          "name": "",
          "type": "string"
        }
      ],
      "stateMutability": "view",
      "type": "function",
      "constant": true
    },
    {
      "inputs": [
        {
          "internalType": "uint256",
          "name": "",
          "type": "uint256"
        }
      ],
      "name": "orders",
      "outputs": [
        {
          "internalType": "uint256",
          "name": "id",
          "type": "uint256"
        },
        {
          "internalType": "uint256",
          "name": "lastReturnDate",
          "type": "uint256"
        },
        {
          "internalType": "uint256",
          "name": "flipCoin",
          "type": "uint256"
        },
        {
          "internalType": "address",
          "name": "userAccount",
          "type": "address"
        },
        {
          "internalType": "address",
          "name": "referrer",
          "type": "address"
        },
        {
          "internalType": "bool",
          "name": "isReferred",
          "type": "bool"
        },
        {
          "internalType": "enum FlipCoin.OrderStatus",
          "name": "status",
          "type": "uint8"
        },
        {
          "internalType": "enum FlipCoin.OrderType",
          "name": "orderType",
          "type": "uint8"
        }
      ],
      "stateMutability": "view",
      "type": "function",
      "constant": true
    },
    {
      "inputs": [],
      "name": "ownerAddress",
      "outputs": [
        {
          "internalType": "address",
          "name": "",
          "type": "address"
        }
      ],
      "stateMutability": "view",
      "type": "function",
      "constant": true
    },
    {
      "inputs": [],
      "name": "partners",
      "outputs": [
        {
          "internalType": "uint256",
          "name": "",
          "type": "uint256"
        }
      ],
      "stateMutability": "view",
      "type": "function",
      "constant": true
    },
    {
      "inputs": [],
      "name": "purchase_referrals",
      "outputs": [
        {
          "internalType": "uint256",
          "name": "",
          "type": "uint256"
        }
      ],
      "stateMutability": "view",
      "type": "function",
      "constant": true
    },
    {
      "inputs": [],
      "name": "purchase_rewards",
      "outputs": [
        {
          "internalType": "uint256",
          "name": "",
          "type": "uint256"
        }
      ],
      "stateMutability": "view",
      "type": "function",
      "constant": true
    },
    {
      "inputs": [],
      "name": "purchase_socialMedia",
      "outputs": [
        {
          "internalType": "uint256",
          "name": "",
          "type": "uint256"
        }
      ],
      "stateMutability": "view",
      "type": "function",
      "constant": true
    },
    {
      "inputs": [],
      "name": "referralReward",
      "outputs": [
        {
          "internalType": "uint256",
          "name": "",
          "type": "uint256"
        }
      ],
      "stateMutability": "view",
      "type": "function",
      "constant": true
    },
    {
      "inputs": [],
      "name": "socialMediaReward",
      "outputs": [
        {
          "internalType": "uint256",
          "name": "",
          "type": "uint256"
        }
      ],
      "stateMutability": "view",
      "type": "function",
      "constant": true
    },
    {
      "inputs": [],
      "name": "staking",
      "outputs": [
        {
          "internalType": "uint256",
          "name": "",
          "type": "uint256"
        }
      ],
      "stateMutability": "view",
      "type": "function",
      "constant": true
    },
    {
      "inputs": [],
      "name": "symbol",
      "outputs": [
        {
          "internalType": "string",
          "name": "",
          "type": "string"
        }
      ],
      "stateMutability": "view",
      "type": "function",
      "constant": true
    },
    {
      "inputs": [],
      "name": "tokenAddress",
      "outputs": [
        {
          "internalType": "address",
          "name": "",
          "type": "address"
        }
      ],
      "stateMutability": "view",
      "type": "function",
      "constant": true
    },
    {
      "inputs": [
        {
          "internalType": "uint256",
          "name": "",
          "type": "uint256"
        }
      ],
      "name": "totalReferrals",
      "outputs": [
        {
          "internalType": "uint256",
          "name": "",
          "type": "uint256"
        }
      ],
      "stateMutability": "view",
      "type": "function",
      "constant": true
    },
    {
      "inputs": [],
      "name": "totalSupply",
      "outputs": [
        {
          "internalType": "uint256",
          "name": "",
          "type": "uint256"
        }
      ],
      "stateMutability": "view",
      "type": "function",
      "constant": true
    },
    {
      "inputs": [
        {
          "internalType": "address",
          "name": "to",
          "type": "address"
        },
        {
          "internalType": "uint256",
          "name": "amount",
          "type": "uint256"
        }
      ],
      "name": "transfer",
      "outputs": [
        {
          "internalType": "bool",
          "name": "",
          "type": "bool"
        }
      ],
      "stateMutability": "nonpayable",
      "type": "function"
    },
    {
      "inputs": [
        {
          "internalType": "address",
          "name": "from",
          "type": "address"
        },
        {
          "internalType": "address",
          "name": "to",
          "type": "address"
        },
        {
          "internalType": "uint256",
          "name": "amount",
          "type": "uint256"
        }
      ],
      "name": "transferFrom",
      "outputs": [
        {
          "internalType": "bool",
          "name": "",
          "type": "bool"
        }
      ],
      "stateMutability": "nonpayable",
      "type": "function"
    },
    {
      "inputs": [
        {
          "internalType": "address[]",
          "name": "sellers",
          "type": "address[]"
        }
      ],
      "name": "distributeToPartners",
      "outputs": [],
      "stateMutability": "nonpayable",
      "type": "function"
    },
    {
      "inputs": [
        {
          "internalType": "address",
          "name": "seller",
          "type": "address"
        }
      ],
      "name": "removeSeller",
      "outputs": [],
      "stateMutability": "nonpayable",
      "type": "function"
    },
    {
      "inputs": [
        {
          "internalType": "uint256",
          "name": "amount",
          "type": "uint256"
        }
      ],
      "name": "mint",
      "outputs": [],
      "stateMutability": "nonpayable",
      "type": "function"
    },
    {
      "inputs": [],
      "name": "depositCoint",
      "outputs": [],
      "stateMutability": "nonpayable",
      "type": "function"
    },
    {
      "inputs": [],
      "name": "deductCoin",
      "outputs": [],
      "stateMutability": "payable",
      "type": "function",
      "payable": true
    },
    {
      "inputs": [
        {
          "internalType": "uint256",
          "name": "productPrice",
          "type": "uint256"
        },
        {
          "internalType": "address",
          "name": "userAccount",
          "type": "address"
        },
        {
          "internalType": "uint256",
          "name": "lastReturnDate",
          "type": "uint256"
        },
        {
          "internalType": "bool",
          "name": "isReferred",
          "type": "bool"
        },
        {
          "internalType": "address",
          "name": "referrer",
          "type": "address"
        }
      ],
      "name": "purchase",
      "outputs": [],
      "stateMutability": "nonpayable",
      "type": "function"
    },
    {
      "inputs": [
        {
          "internalType": "address",
          "name": "seller",
          "type": "address"
        },
        {
          "internalType": "uint256[]",
          "name": "amount",
          "type": "uint256[]"
        },
        {
          "internalType": "address[]",
          "name": "userAccount",
          "type": "address[]"
        },
        {
          "internalType": "uint256",
          "name": "totalAmount",
          "type": "uint256"
        }
      ],
      "name": "disperseCoin",
      "outputs": [],
      "stateMutability": "nonpayable",
      "type": "function"
    },
    {
      "inputs": [
        {
          "internalType": "uint256",
          "name": "orderId",
          "type": "uint256"
        }
      ],
      "name": "cancleOrder",
      "outputs": [],
      "stateMutability": "nonpayable",
      "type": "function"
    },
    {
      "inputs": [
        {
          "internalType": "address",
          "name": "userAccount",
          "type": "address"
        }
      ],
      "name": "socialMediaPost",
      "outputs": [],
      "stateMutability": "nonpayable",
      "type": "function"
    },
    {
      "inputs": [
        {
          "internalType": "address",
          "name": "userAccount",
          "type": "address"
        },
        {
          "internalType": "uint256",
          "name": "amount",
          "type": "uint256"
        }
      ],
      "name": "redeem",
      "outputs": [],
      "stateMutability": "nonpayable",
      "type": "function"
    },
    {
      "inputs": [
        {
          "internalType": "uint256",
          "name": "amount",
          "type": "uint256"
        },
        {
          "internalType": "address",
          "name": "userAccount",
          "type": "address"
        },
        {
          "internalType": "uint256",
          "name": "interval",
          "type": "uint256"
        }
      ],
      "name": "stakeTokens",
      "outputs": [],
      "stateMutability": "nonpayable",
      "type": "function"
    }
  ],
  "bytecode": "0x608060405261012c600b556005600c556005600d556000600e553480156200002657600080fd5b5060405162004e6d38038062004e6d83398181016040528101906200004c919062000522565b8181816003908051906020019062000066929190620002d5565b5080600490805190602001906200007f929190620002d5565b505050620000c130620000976200015560201b60201c565b600a620000a5919062000741565b62989680620000b5919062000792565b6200015e60201b60201c565b62989680600e8190555033600f60006101000a81548173ffffffffffffffffffffffffffffffffffffffff021916908373ffffffffffffffffffffffffffffffffffffffff16021790555030601060006101000a81548173ffffffffffffffffffffffffffffffffffffffff021916908373ffffffffffffffffffffffffffffffffffffffff160217905550505062000965565b60006012905090565b600073ffffffffffffffffffffffffffffffffffffffff168273ffffffffffffffffffffffffffffffffffffffff1603620001d0576040517f08c379a0000000000000000000000000000000000000000000000000000000008152600401620001c79062000854565b60405180910390fd5b620001e460008383620002cb60201b60201c565b8060026000828254620001f8919062000876565b92505081905550806000808473ffffffffffffffffffffffffffffffffffffffff1673ffffffffffffffffffffffffffffffffffffffff168152602001908152602001600020600082825401925050819055508173ffffffffffffffffffffffffffffffffffffffff16600073ffffffffffffffffffffffffffffffffffffffff167fddf252ad1be2c89b69c2b068fc378daa952ba7f163c4a11628f55a4df523b3ef83604051620002ab9190620008e4565b60405180910390a3620002c760008383620002d060201b60201c565b5050565b505050565b505050565b828054620002e39062000930565b90600052602060002090601f01602090048101928262000307576000855562000353565b82601f106200032257805160ff191683800117855562000353565b8280016001018555821562000353579182015b828111156200035257825182559160200191906001019062000335565b5b50905062000362919062000366565b5090565b5b808211156200038157600081600090555060010162000367565b5090565b6000604051905090565b600080fd5b600080fd5b600080fd5b600080fd5b6000601f19601f8301169050919050565b7f4e487b7100000000000000000000000000000000000000000000000000000000600052604160045260246000fd5b620003ee82620003a3565b810181811067ffffffffffffffff8211171562000410576200040f620003b4565b5b80604052505050565b60006200042562000385565b9050620004338282620003e3565b919050565b600067ffffffffffffffff821115620004565762000455620003b4565b5b6200046182620003a3565b9050602081019050919050565b60005b838110156200048e57808201518184015260208101905062000471565b838111156200049e576000848401525b50505050565b6000620004bb620004b58462000438565b62000419565b905082815260208101848484011115620004da57620004d96200039e565b5b620004e78482856200046e565b509392505050565b600082601f83011262000507576200050662000399565b5b815162000519848260208601620004a4565b91505092915050565b600080604083850312156200053c576200053b6200038f565b5b600083015167ffffffffffffffff8111156200055d576200055c62000394565b5b6200056b85828601620004ef565b925050602083015167ffffffffffffffff8111156200058f576200058e62000394565b5b6200059d85828601620004ef565b9150509250929050565b7f4e487b7100000000000000000000000000000000000000000000000000000000600052601160045260246000fd5b60008160011c9050919050565b6000808291508390505b600185111562000635578086048111156200060d576200060c620005a7565b5b60018516156200061d5780820291505b80810290506200062d85620005d6565b9450620005ed565b94509492505050565b60008262000650576001905062000723565b8162000660576000905062000723565b81600181146200067957600281146200068457620006ba565b600191505062000723565b60ff841115620006995762000698620005a7565b5b8360020a915084821115620006b357620006b2620005a7565b5b5062000723565b5060208310610133831016604e8410600b8410161715620006f45782820a905083811115620006ee57620006ed620005a7565b5b62000723565b620007038484846001620005e3565b925090508184048111156200071d576200071c620005a7565b5b81810290505b9392505050565b6000819050919050565b600060ff82169050919050565b60006200074e826200072a565b91506200075b8362000734565b92506200078a7fffffffffffffffffffffffffffffffffffffffffffffffffffffffffffffffff84846200063e565b905092915050565b60006200079f826200072a565b9150620007ac836200072a565b9250817fffffffffffffffffffffffffffffffffffffffffffffffffffffffffffffffff0483118215151615620007e857620007e7620005a7565b5b828202905092915050565b600082825260208201905092915050565b7f45524332303a206d696e7420746f20746865207a65726f206164647265737300600082015250565b60006200083c601f83620007f3565b9150620008498262000804565b602082019050919050565b600060208201905081810360008301526200086f816200082d565b9050919050565b600062000883826200072a565b915062000890836200072a565b9250827fffffffffffffffffffffffffffffffffffffffffffffffffffffffffffffffff03821115620008c857620008c7620005a7565b5b828201905092915050565b620008de816200072a565b82525050565b6000602082019050620008fb6000830184620008d3565b92915050565b7f4e487b7100000000000000000000000000000000000000000000000000000000600052602260045260246000fd5b600060028204905060018216806200094957607f821691505b6020821081036200095f576200095e62000901565b5b50919050565b6144f880620009756000396000f3fe60806040526004361061021a5760003560e01c80638f84aa0911610123578063a9059cbb116100ab578063dd62ed3e1161006f578063dd62ed3e146107f4578063e3cc16e114610831578063f406cb8a1461083b578063f64cccea14610864578063f95c0df3146108a15761021a565b8063a9059cbb1461070d578063b2a620641461074a578063b64dac4d14610775578063b9b85b4b146107a0578063cec534d6146107cb5761021a565b80639e28229d116100f25780639e28229d1461060f578063a0712d681461063a578063a457c2d714610663578063a4afe66b146106a0578063a85c38ef146106c95761021a565b80638f84aa091461056557806395d89b41146105905780639a69ca9d146105bb5780639d76ea58146105e45761021a565b8063313ce567116101a657806370a082311161017557806370a082311461049457806377937c21146104d15780637cb9cf54146104e857806381add559146105115780638c16602f1461053c5761021a565b8063313ce567146103d657806339509351146104015780634cf088d91461043e5780634d683674146104695761021a565b80631ca351b2116101ed5780631ca351b2146102dd5780631e9a69501461030857806323b872dd146103315780632ed8eaa61461036e578063310a1ee3146103ab5761021a565b806306fdde031461021f5780630860eeb21461024a578063095ea7b31461027557806318160ddd146102b2575b600080fd5b34801561022b57600080fd5b506102346108ca565b60405161024191906131db565b60405180910390f35b34801561025657600080fd5b5061025f61095c565b60405161026c9190613216565b60405180910390f35b34801561028157600080fd5b5061029c600480360381019061029791906132cf565b610962565b6040516102a9919061332a565b60405180910390f35b3480156102be57600080fd5b506102c7610985565b6040516102d49190613216565b60405180910390f35b3480156102e957600080fd5b506102f261098f565b6040516102ff9190613216565b60405180910390f35b34801561031457600080fd5b5061032f600480360381019061032a91906132cf565b610995565b005b34801561033d57600080fd5b5061035860048036038101906103539190613345565b6109fa565b604051610365919061332a565b60405180910390f35b34801561037a57600080fd5b5061039560048036038101906103909190613398565b610a29565b6040516103a29190613216565b60405180910390f35b3480156103b757600080fd5b506103c0610a41565b6040516103cd9190613216565b60405180910390f35b3480156103e257600080fd5b506103eb610a47565b6040516103f891906133e1565b60405180910390f35b34801561040d57600080fd5b50610428600480360381019061042391906132cf565b610a50565b604051610435919061332a565b60405180910390f35b34801561044a57600080fd5b50610453610a87565b6040516104609190613216565b60405180910390f35b34801561047557600080fd5b5061047e610a8d565b60405161048b9190613216565b60405180910390f35b3480156104a057600080fd5b506104bb60048036038101906104b691906133fc565b610a93565b6040516104c89190613216565b60405180910390f35b3480156104dd57600080fd5b506104e6610adb565b005b3480156104f457600080fd5b5061050f600480360381019061050a91906133fc565b6112a0565b005b34801561051d57600080fd5b506105266112b5565b6040516105339190613216565b60405180910390f35b34801561054857600080fd5b50610563600480360381019061055e9190613634565b6112bb565b005b34801561057157600080fd5b5061057a611619565b60405161058791906136e2565b60405180910390f35b34801561059c57600080fd5b506105a561163f565b6040516105b291906131db565b60405180910390f35b3480156105c757600080fd5b506105e260048036038101906105dd91906133fc565b6116d1565b005b3480156105f057600080fd5b506105f9611907565b60405161060691906136e2565b60405180910390f35b34801561061b57600080fd5b5061062461192d565b6040516106319190613216565b60405180910390f35b34801561064657600080fd5b50610661600480360381019061065c9190613398565b611933565b005b34801561066f57600080fd5b5061068a600480360381019061068591906132cf565b6119bf565b604051610697919061332a565b60405180910390f35b3480156106ac57600080fd5b506106c760048036038101906106c29190613729565b611a36565b005b3480156106d557600080fd5b506106f060048036038101906106eb9190613398565b611cf4565b604051610704989796959493929190613863565b60405180910390f35b34801561071957600080fd5b50610734600480360381019061072f91906132cf565b611da3565b604051610741919061332a565b60405180910390f35b34801561075657600080fd5b5061075f611dc6565b60405161076c9190613216565b60405180910390f35b34801561078157600080fd5b5061078a611dcc565b6040516107979190613216565b60405180910390f35b3480156107ac57600080fd5b506107b5611dd2565b6040516107c29190613216565b60405180910390f35b3480156107d757600080fd5b506107f260048036038101906107ed91906138e1565b611dd8565b005b34801561080057600080fd5b5061081b60048036038101906108169190613934565b612092565b6040516108289190613216565b60405180910390f35b610839612119565b005b34801561084757600080fd5b50610862600480360381019061085d9190613398565b612731565b005b34801561087057600080fd5b5061088b600480360381019061088691906133fc565b612795565b6040516108989190613216565b60405180910390f35b3480156108ad57600080fd5b506108c860048036038101906108c39190613974565b6127ad565b005b6060600380546108d9906139ec565b80601f0160208091040260200160405190810160405280929190818152602001828054610905906139ec565b80156109525780601f1061092757610100808354040283529160200191610952565b820191906000526020600020905b81548152906001019060200180831161093557829003601f168201915b5050505050905090565b60075481565b60008061096d6128ab565b905061097a8185856128b3565b600191505092915050565b6000600254905090565b600c5481565b8061099f83610a93565b101580156109ad5750600081115b6109ec576040517f08c379a00000000000000000000000000000000000000000000000000000000081526004016109e390613a69565b60405180910390fd5b6109f68282612a7c565b5050565b600080610a056128ab565b9050610a12858285612c49565b610a1d858585612cd5565b60019150509392505050565b60136020528060005260406000206000915090505481565b600b5481565b60006012905090565b600080610a5b6128ab565b9050610a7c818585610a6d8589612092565b610a779190613ab8565b6128b3565b600191505092915050565b60085481565b600d5481565b60008060008373ffffffffffffffffffffffffffffffffffffffff1673ffffffffffffffffffffffffffffffffffffffff168152602001908152602001600020549050919050565b60005b600a5481101561129d5760006003811115610afc57610afb6137a4565b5b6011600083815260200190815260200160002060040160159054906101000a900460ff166003811115610b3257610b316137a4565b5b148015610b55575060116000828152602001908152602001600020600101544210155b1561128a5760016003811115610b6e57610b6d6137a4565b5b6011600083815260200190815260200160002060040160169054906101000a900460ff166003811115610ba457610ba36137a4565b5b03610c405760095460646005610bb8610985565b610bc29190613b0e565b610bcc9190613b97565b11610c0c576040517f08c379a0000000000000000000000000000000000000000000000000000000008152600401610c0390613c14565b60405180910390fd5b601160008281526020019081526020016000206002015460096000828254610c349190613ab8565b92505081905550610ea0565b60026003811115610c5457610c536137a4565b5b6011600083815260200190815260200160002060040160169054906101000a900460ff166003811115610c8a57610c896137a4565b5b03610d265760075460646005610c9e610985565b610ca89190613b0e565b610cb29190613b97565b11610cf2576040517f08c379a0000000000000000000000000000000000000000000000000000000008152600401610ce990613c14565b60405180910390fd5b601160008281526020019081526020016000206002015460076000828254610d1a9190613ab8565b92505081905550610e9f565b600380811115610d3957610d386137a4565b5b6011600083815260200190815260200160002060040160169054906101000a900460ff166003811115610d6f57610d6e6137a4565b5b03610e0b576008546064600f610d83610985565b610d8d9190613b0e565b610d979190613b97565b11610dd7576040517f08c379a0000000000000000000000000000000000000000000000000000000008152600401610dce90613c14565b60405180910390fd5b601160008281526020019081526020016000206002015460086000828254610dff9190613ab8565b92505081905550610e9e565b60055460646028610e1a610985565b610e249190613b0e565b610e2e9190613b97565b11610e6e576040517f08c379a0000000000000000000000000000000000000000000000000000000008152600401610e6590613c14565b60405180910390fd5b601160008281526020019081526020016000206002015460056000828254610e969190613ab8565b925050819055505b5b5b60026011600083815260200190815260200160002060040160156101000a81548160ff02191690836003811115610eda57610ed96137a4565b5b02179055506000601060009054906101000a900473ffffffffffffffffffffffffffffffffffffffff1690508073ffffffffffffffffffffffffffffffffffffffff1663a9059cbb6011600085815260200190815260200160002060030160009054906101000a900473ffffffffffffffffffffffffffffffffffffffff1660116000868152602001908152602001600020600201546040518363ffffffff1660e01b8152600401610f8d929190613c34565b6020604051808303816000875af1158015610fac573d6000803e3d6000fd5b505050506040513d601f19601f82011682018060405250810190610fd09190613c72565b506011600083815260200190815260200160002060020154601260006011600086815260200190815260200160002060030160009054906101000a900473ffffffffffffffffffffffffffffffffffffffff1673ffffffffffffffffffffffffffffffffffffffff1673ffffffffffffffffffffffffffffffffffffffff168152602001908152602001600020600082825461106c9190613ab8565b925050819055506011600083815260200190815260200160002060040160149054906101000a900460ff1615611288576006546064600f6110ab610985565b6110b59190613b0e565b6110bf9190613b97565b116110ff576040517f08c379a00000000000000000000000000000000000000000000000000000000081526004016110f690613c14565b60405180910390fd5b6000601060009054906101000a900473ffffffffffffffffffffffffffffffffffffffff1690508073ffffffffffffffffffffffffffffffffffffffff1663a9059cbb6011600086815260200190815260200160002060040160009054906101000a900473ffffffffffffffffffffffffffffffffffffffff16600d546040518363ffffffff1660e01b8152600401611199929190613c34565b6020604051808303816000875af11580156111b8573d6000803e3d6000fd5b505050506040513d601f19601f820116820180604052508101906111dc9190613c72565b50600d54601260006011600087815260200190815260200160002060040160009054906101000a900473ffffffffffffffffffffffffffffffffffffffff1673ffffffffffffffffffffffffffffffffffffffff1673ffffffffffffffffffffffffffffffffffffffff16815260200190815260200160002060008282546112649190613ab8565b92505081905550600d546006600082825461127f9190613ab8565b92505081905550505b505b808061129590613c9f565b915050610ade565b50565b6112b2816112ad83610a93565b612a7c565b50565b60095481565b806112c585610a93565b1015611306576040517f08c379a00000000000000000000000000000000000000000000000000000000081526004016112fd90613d59565b60405180910390fd5b60095460646005611315610985565b61131f9190613b0e565b6113299190613b97565b11611369576040517f08c379a000000000000000000000000000000000000000000000000000000000815260040161136090613c14565b60405180910390fd5b60005b83518110156116125761137d6130ab565b600a548160000181815250508460008151811061139d5761139c613d79565b5b602002602001015181604001818152505060008160a00190151590811515815250504281602001818152505060008160c0019060038111156113e2576113e16137a4565b5b908160038111156113f6576113f56137a4565b5b8152505083828151811061140d5761140c613d79565b5b6020026020010151816060019073ffffffffffffffffffffffffffffffffffffffff16908173ffffffffffffffffffffffffffffffffffffffff168152505060018160e001906003811115611465576114646137a4565b5b90816003811115611479576114786137a4565b5b815250508060116000600a54815260200190815260200160002060008201518160000155602082015181600101556040820151816002015560608201518160030160006101000a81548173ffffffffffffffffffffffffffffffffffffffff021916908373ffffffffffffffffffffffffffffffffffffffff16021790555060808201518160040160006101000a81548173ffffffffffffffffffffffffffffffffffffffff021916908373ffffffffffffffffffffffffffffffffffffffff16021790555060a08201518160040160146101000a81548160ff02191690831515021790555060c08201518160040160156101000a81548160ff0219169083600381111561158a576115896137a4565b5b021790555060e08201518160040160166101000a81548160ff021916908360038111156115ba576115b96137a4565b5b02179055509050506115e6868684815181106115d9576115d8613d79565b5b6020026020010151612a7c565b600a60008154809291906115f990613c9f565b919050555050808061160a90613c9f565b91505061136c565b5050505050565b600f60009054906101000a900473ffffffffffffffffffffffffffffffffffffffff1681565b60606004805461164e906139ec565b80601f016020809104026020016040519081016040528092919081815260200182805461167a906139ec565b80156116c75780601f1061169c576101008083540402835291602001916116c7565b820191906000526020600020905b8154815290600101906020018083116116aa57829003601f168201915b5050505050905090565b6116d96130ab565b600a54816000018181525050600c5481604001818152505060008160a00190151590811515815250504281602001818152505060008160c001906003811115611725576117246137a4565b5b90816003811115611739576117386137a4565b5b8152505081816060019073ffffffffffffffffffffffffffffffffffffffff16908173ffffffffffffffffffffffffffffffffffffffff168152505060028160e00190600381111561178e5761178d6137a4565b5b908160038111156117a2576117a16137a4565b5b815250508060116000600a54815260200190815260200160002060008201518160000155602082015181600101556040820151816002015560608201518160030160006101000a81548173ffffffffffffffffffffffffffffffffffffffff021916908373ffffffffffffffffffffffffffffffffffffffff16021790555060808201518160040160006101000a81548173ffffffffffffffffffffffffffffffffffffffff021916908373ffffffffffffffffffffffffffffffffffffffff16021790555060a08201518160040160146101000a81548160ff02191690831515021790555060c08201518160040160156101000a81548160ff021916908360038111156118b3576118b26137a4565b5b021790555060e08201518160040160166101000a81548160ff021916908360038111156118e3576118e26137a4565b5b0217905550905050600a60008154809291906118fe90613c9f565b91905055505050565b601060009054906101000a900473ffffffffffffffffffffffffffffffffffffffff1681565b600a5481565b3373ffffffffffffffffffffffffffffffffffffffff16600f60009054906101000a900473ffffffffffffffffffffffffffffffffffffffff1673ffffffffffffffffffffffffffffffffffffffff161461198d57600080fd5b6119b530611999610a47565b600a6119a59190613edb565b836119b09190613b0e565b612f4b565b80600e8190555050565b6000806119ca6128ab565b905060006119d88286612092565b905083811015611a1d576040517f08c379a0000000000000000000000000000000000000000000000000000000008152600401611a1490613f98565b60405180910390fd5b611a2a82868684036128b3565b60019250505092915050565b611a3e6130ab565b600a548160000181815250506064603287611a599190613b97565b10611a6e576064816040018181525050611a85565b603286611a7b9190613b97565b8160400181815250505b84816060019073ffffffffffffffffffffffffffffffffffffffff16908173ffffffffffffffffffffffffffffffffffffffff168152505060008160c001906003811115611ad657611ad56137a4565b5b90816003811115611aea57611ae96137a4565b5b815250508381602001818152505060008160e001906003811115611b1157611b106137a4565b5b90816003811115611b2557611b246137a4565b5b815250508215611b7d5760018160a001901515908115158152505081816080019073ffffffffffffffffffffffffffffffffffffffff16908173ffffffffffffffffffffffffffffffffffffffff1681525050611b8f565b60008160a00190151590811515815250505b8060116000600a54815260200190815260200160002060008201518160000155602082015181600101556040820151816002015560608201518160030160006101000a81548173ffffffffffffffffffffffffffffffffffffffff021916908373ffffffffffffffffffffffffffffffffffffffff16021790555060808201518160040160006101000a81548173ffffffffffffffffffffffffffffffffffffffff021916908373ffffffffffffffffffffffffffffffffffffffff16021790555060a08201518160040160146101000a81548160ff02191690831515021790555060c08201518160040160156101000a81548160ff02191690836003811115611c9c57611c9b6137a4565b5b021790555060e08201518160040160166101000a81548160ff02191690836003811115611ccc57611ccb6137a4565b5b0217905550905050600a6000815480929190611ce790613c9f565b9190505550505050505050565b60116020528060005260406000206000915090508060000154908060010154908060020154908060030160009054906101000a900473ffffffffffffffffffffffffffffffffffffffff16908060040160009054906101000a900473ffffffffffffffffffffffffffffffffffffffff16908060040160149054906101000a900460ff16908060040160159054906101000a900460ff16908060040160169054906101000a900460ff16905088565b600080611dae6128ab565b9050611dbb818585612cd5565b600191505092915050565b600e5481565b60055481565b60065481565b600083118015611df05750611dec82610a93565b8311155b611e2f576040517f08c379a0000000000000000000000000000000000000000000000000000000008152600401611e2690613a69565b60405180910390fd5b611e3a823085612cd5565b611e426130ab565b600a54816000018181525050600a84611e5b9190613b97565b84611e669190613ab8565b81604001818152505060008160a00190151590811515815250508142611e8c9190613ab8565b81602001818152505060008160c001906003811115611eae57611ead6137a4565b5b90816003811115611ec257611ec16137a4565b5b8152505060038160e001906003811115611edf57611ede6137a4565b5b90816003811115611ef357611ef26137a4565b5b8152505082816060019073ffffffffffffffffffffffffffffffffffffffff16908173ffffffffffffffffffffffffffffffffffffffff16815250508060116000600a54815260200190815260200160002060008201518160000155602082015181600101556040820151816002015560608201518160030160006101000a81548173ffffffffffffffffffffffffffffffffffffffff021916908373ffffffffffffffffffffffffffffffffffffffff16021790555060808201518160040160006101000a81548173ffffffffffffffffffffffffffffffffffffffff021916908373ffffffffffffffffffffffffffffffffffffffff16021790555060a08201518160040160146101000a81548160ff02191690831515021790555060c08201518160040160156101000a81548160ff0219169083600381111561203c5761203b6137a4565b5b021790555060e08201518160040160166101000a81548160ff0219169083600381111561206c5761206b6137a4565b5b0217905550905050600a600081548092919061208790613c9f565b919050555050505050565b6000600160008473ffffffffffffffffffffffffffffffffffffffff1673ffffffffffffffffffffffffffffffffffffffff16815260200190815260200160002060008373ffffffffffffffffffffffffffffffffffffffff1673ffffffffffffffffffffffffffffffffffffffff16815260200190815260200160002054905092915050565b60005b600a5481101561272e576002600381111561213a576121396137a4565b5b6011600083815260200190815260200160002060040160159054906101000a900460ff1660038111156121705761216f6137a4565b5b1480156121a05750600b54601160008381526020019081526020016000206001015461219c9190613ab8565b4210155b1561271b576011600082815260200190815260200160002060020154601260006011600085815260200190815260200160002060030160009054906101000a900473ffffffffffffffffffffffffffffffffffffffff1673ffffffffffffffffffffffffffffffffffffffff1673ffffffffffffffffffffffffffffffffffffffff1681526020019081526020016000205461223c9190613fb8565b61227b6011600084815260200190815260200160002060030160009054906101000a900473ffffffffffffffffffffffffffffffffffffffff16610a93565b11156123a75760006011600083815260200190815260200160002060020154601260006011600086815260200190815260200160002060030160009054906101000a900473ffffffffffffffffffffffffffffffffffffffff1673ffffffffffffffffffffffffffffffffffffffff1673ffffffffffffffffffffffffffffffffffffffff1681526020019081526020016000205461231a9190613fb8565b6123596011600085815260200190815260200160002060030160009054906101000a900473ffffffffffffffffffffffffffffffffffffffff16610a93565b6123639190613fb8565b90506123a56011600084815260200190815260200160002060030160009054906101000a900473ffffffffffffffffffffffffffffffffffffffff1682612a7c565b505b6011600082815260200190815260200160002060020154601260006011600085815260200190815260200160002060030160009054906101000a900473ffffffffffffffffffffffffffffffffffffffff1673ffffffffffffffffffffffffffffffffffffffff1673ffffffffffffffffffffffffffffffffffffffff16815260200190815260200160002060008282546124429190613fb8565b925050819055506011600082815260200190815260200160002060040160149054906101000a900460ff16156126db57600d54601260006011600085815260200190815260200160002060040160009054906101000a900473ffffffffffffffffffffffffffffffffffffffff1673ffffffffffffffffffffffffffffffffffffffff1673ffffffffffffffffffffffffffffffffffffffff168152602001908152602001600020546124f59190613fb8565b6125346011600084815260200190815260200160002060040160009054906101000a900473ffffffffffffffffffffffffffffffffffffffff16610a93565b111561264c576000600d54601260006011600086815260200190815260200160002060040160009054906101000a900473ffffffffffffffffffffffffffffffffffffffff1673ffffffffffffffffffffffffffffffffffffffff1673ffffffffffffffffffffffffffffffffffffffff168152602001908152602001600020546125bf9190613fb8565b6125fe6011600085815260200190815260200160002060040160009054906101000a900473ffffffffffffffffffffffffffffffffffffffff16610a93565b6126089190613fb8565b905061264a6011600084815260200190815260200160002060040160009054906101000a900473ffffffffffffffffffffffffffffffffffffffff1682612a7c565b505b600d54601260006011600085815260200190815260200160002060040160009054906101000a900473ffffffffffffffffffffffffffffffffffffffff1673ffffffffffffffffffffffffffffffffffffffff1673ffffffffffffffffffffffffffffffffffffffff16815260200190815260200160002060008282546126d39190613fb8565b925050819055505b60036011600083815260200190815260200160002060040160156101000a81548160ff02191690836003811115612715576127146137a4565b5b02179055505b808061272690613c9f565b91505061211c565b50565b4260116000838152602001908152602001600020600101541161275357600080fd5b60016011600083815260200190815260200160002060040160156101000a81548160ff0219169083600381111561278d5761278c6137a4565b5b021790555050565b60126020528060005260406000206000915090505481565b60005b81518110156128a7576000601060009054906101000a900473ffffffffffffffffffffffffffffffffffffffff1690508073ffffffffffffffffffffffffffffffffffffffff1663a9059cbb84848151811061280f5761280e613d79565b5b602002602001015160646005600e546128289190613b0e565b6128329190613b97565b6040518363ffffffff1660e01b815260040161284f929190613c34565b6020604051808303816000875af115801561286e573d6000803e3d6000fd5b505050506040513d601f19601f820116820180604052508101906128929190613c72565b5050808061289f90613c9f565b9150506127b0565b5050565b600033905090565b600073ffffffffffffffffffffffffffffffffffffffff168373ffffffffffffffffffffffffffffffffffffffff1603612922576040517f08c379a00000000000000000000000000000000000000000000000000000000081526004016129199061405e565b60405180910390fd5b600073ffffffffffffffffffffffffffffffffffffffff168273ffffffffffffffffffffffffffffffffffffffff1603612991576040517f08c379a0000000000000000000000000000000000000000000000000000000008152600401612988906140f0565b60405180910390fd5b80600160008573ffffffffffffffffffffffffffffffffffffffff1673ffffffffffffffffffffffffffffffffffffffff16815260200190815260200160002060008473ffffffffffffffffffffffffffffffffffffffff1673ffffffffffffffffffffffffffffffffffffffff168152602001908152602001600020819055508173ffffffffffffffffffffffffffffffffffffffff168373ffffffffffffffffffffffffffffffffffffffff167f8c5be1e5ebec7d5bd14f71427d1e84f3dd0314c0f7b2291e5b200ac8c7c3b92583604051612a6f9190613216565b60405180910390a3505050565b600073ffffffffffffffffffffffffffffffffffffffff168273ffffffffffffffffffffffffffffffffffffffff1603612aeb576040517f08c379a0000000000000000000000000000000000000000000000000000000008152600401612ae290614182565b60405180910390fd5b612af7826000836130a1565b60008060008473ffffffffffffffffffffffffffffffffffffffff1673ffffffffffffffffffffffffffffffffffffffff16815260200190815260200160002054905081811015612b7d576040517f08c379a0000000000000000000000000000000000000000000000000000000008152600401612b7490614214565b60405180910390fd5b8181036000808573ffffffffffffffffffffffffffffffffffffffff1673ffffffffffffffffffffffffffffffffffffffff1681526020019081526020016000208190555081600260008282540392505081905550600073ffffffffffffffffffffffffffffffffffffffff168373ffffffffffffffffffffffffffffffffffffffff167fddf252ad1be2c89b69c2b068fc378daa952ba7f163c4a11628f55a4df523b3ef84604051612c309190613216565b60405180910390a3612c44836000846130a6565b505050565b6000612c558484612092565b90507fffffffffffffffffffffffffffffffffffffffffffffffffffffffffffffffff8114612ccf5781811015612cc1576040517f08c379a0000000000000000000000000000000000000000000000000000000008152600401612cb890614280565b60405180910390fd5b612cce84848484036128b3565b5b50505050565b600073ffffffffffffffffffffffffffffffffffffffff168373ffffffffffffffffffffffffffffffffffffffff1603612d44576040517f08c379a0000000000000000000000000000000000000000000000000000000008152600401612d3b90614312565b60405180910390fd5b600073ffffffffffffffffffffffffffffffffffffffff168273ffffffffffffffffffffffffffffffffffffffff1603612db3576040517f08c379a0000000000000000000000000000000000000000000000000000000008152600401612daa906143a4565b60405180910390fd5b612dbe8383836130a1565b60008060008573ffffffffffffffffffffffffffffffffffffffff1673ffffffffffffffffffffffffffffffffffffffff16815260200190815260200160002054905081811015612e44576040517f08c379a0000000000000000000000000000000000000000000000000000000008152600401612e3b90614436565b60405180910390fd5b8181036000808673ffffffffffffffffffffffffffffffffffffffff1673ffffffffffffffffffffffffffffffffffffffff16815260200190815260200160002081905550816000808573ffffffffffffffffffffffffffffffffffffffff1673ffffffffffffffffffffffffffffffffffffffff168152602001908152602001600020600082825401925050819055508273ffffffffffffffffffffffffffffffffffffffff168473ffffffffffffffffffffffffffffffffffffffff167fddf252ad1be2c89b69c2b068fc378daa952ba7f163c4a11628f55a4df523b3ef84604051612f329190613216565b60405180910390a3612f458484846130a6565b50505050565b600073ffffffffffffffffffffffffffffffffffffffff168273ffffffffffffffffffffffffffffffffffffffff1603612fba576040517f08c379a0000000000000000000000000000000000000000000000000000000008152600401612fb1906144a2565b60405180910390fd5b612fc6600083836130a1565b8060026000828254612fd89190613ab8565b92505081905550806000808473ffffffffffffffffffffffffffffffffffffffff1673ffffffffffffffffffffffffffffffffffffffff168152602001908152602001600020600082825401925050819055508173ffffffffffffffffffffffffffffffffffffffff16600073ffffffffffffffffffffffffffffffffffffffff167fddf252ad1be2c89b69c2b068fc378daa952ba7f163c4a11628f55a4df523b3ef836040516130899190613216565b60405180910390a361309d600083836130a6565b5050565b505050565b505050565b604051806101000160405280600081526020016000815260200160008152602001600073ffffffffffffffffffffffffffffffffffffffff168152602001600073ffffffffffffffffffffffffffffffffffffffff16815260200160001515815260200160006003811115613123576131226137a4565b5b81526020016000600381111561313c5761313b6137a4565b5b81525090565b600081519050919050565b600082825260208201905092915050565b60005b8381101561317c578082015181840152602081019050613161565b8381111561318b576000848401525b50505050565b6000601f19601f8301169050919050565b60006131ad82613142565b6131b7818561314d565b93506131c781856020860161315e565b6131d081613191565b840191505092915050565b600060208201905081810360008301526131f581846131a2565b905092915050565b6000819050919050565b613210816131fd565b82525050565b600060208201905061322b6000830184613207565b92915050565b6000604051905090565b600080fd5b600080fd5b600073ffffffffffffffffffffffffffffffffffffffff82169050919050565b600061327082613245565b9050919050565b61328081613265565b811461328b57600080fd5b50565b60008135905061329d81613277565b92915050565b6132ac816131fd565b81146132b757600080fd5b50565b6000813590506132c9816132a3565b92915050565b600080604083850312156132e6576132e561323b565b5b60006132f48582860161328e565b9250506020613305858286016132ba565b9150509250929050565b60008115159050919050565b6133248161330f565b82525050565b600060208201905061333f600083018461331b565b92915050565b60008060006060848603121561335e5761335d61323b565b5b600061336c8682870161328e565b935050602061337d8682870161328e565b925050604061338e868287016132ba565b9150509250925092565b6000602082840312156133ae576133ad61323b565b5b60006133bc848285016132ba565b91505092915050565b600060ff82169050919050565b6133db816133c5565b82525050565b60006020820190506133f660008301846133d2565b92915050565b6000602082840312156134125761341161323b565b5b60006134208482850161328e565b91505092915050565b600080fd5b7f4e487b7100000000000000000000000000000000000000000000000000000000600052604160045260246000fd5b61346682613191565b810181811067ffffffffffffffff821117156134855761348461342e565b5b80604052505050565b6000613498613231565b90506134a4828261345d565b919050565b600067ffffffffffffffff8211156134c4576134c361342e565b5b602082029050602081019050919050565b600080fd5b60006134ed6134e8846134a9565b61348e565b905080838252602082019050602084028301858111156135105761350f6134d5565b5b835b81811015613539578061352588826132ba565b845260208401935050602081019050613512565b5050509392505050565b600082601f83011261355857613557613429565b5b81356135688482602086016134da565b91505092915050565b600067ffffffffffffffff82111561358c5761358b61342e565b5b602082029050602081019050919050565b60006135b06135ab84613571565b61348e565b905080838252602082019050602084028301858111156135d3576135d26134d5565b5b835b818110156135fc57806135e8888261328e565b8452602084019350506020810190506135d5565b5050509392505050565b600082601f83011261361b5761361a613429565b5b813561362b84826020860161359d565b91505092915050565b6000806000806080858703121561364e5761364d61323b565b5b600061365c8782880161328e565b945050602085013567ffffffffffffffff81111561367d5761367c613240565b5b61368987828801613543565b935050604085013567ffffffffffffffff8111156136aa576136a9613240565b5b6136b687828801613606565b92505060606136c7878288016132ba565b91505092959194509250565b6136dc81613265565b82525050565b60006020820190506136f760008301846136d3565b92915050565b6137068161330f565b811461371157600080fd5b50565b600081359050613723816136fd565b92915050565b600080600080600060a086880312156137455761374461323b565b5b6000613753888289016132ba565b95505060206137648882890161328e565b9450506040613775888289016132ba565b935050606061378688828901613714565b92505060806137978882890161328e565b9150509295509295909350565b7f4e487b7100000000000000000000000000000000000000000000000000000000600052602160045260246000fd5b600481106137e4576137e36137a4565b5b50565b60008190506137f5826137d3565b919050565b6000613805826137e7565b9050919050565b613815816137fa565b82525050565b6004811061382c5761382b6137a4565b5b50565b600081905061383d8261381b565b919050565b600061384d8261382f565b9050919050565b61385d81613842565b82525050565b600061010082019050613879600083018b613207565b613886602083018a613207565b6138936040830189613207565b6138a060608301886136d3565b6138ad60808301876136d3565b6138ba60a083018661331b565b6138c760c083018561380c565b6138d460e0830184613854565b9998505050505050505050565b6000806000606084860312156138fa576138f961323b565b5b6000613908868287016132ba565b93505060206139198682870161328e565b925050604061392a868287016132ba565b9150509250925092565b6000806040838503121561394b5761394a61323b565b5b60006139598582860161328e565b925050602061396a8582860161328e565b9150509250929050565b60006020828403121561398a5761398961323b565b5b600082013567ffffffffffffffff8111156139a8576139a7613240565b5b6139b484828501613606565b91505092915050565b7f4e487b7100000000000000000000000000000000000000000000000000000000600052602260045260246000fd5b60006002820490506001821680613a0457607f821691505b602082108103613a1757613a166139bd565b5b50919050565b7f496e73756666696369656e742062616c616e6365000000000000000000000000600082015250565b6000613a5360148361314d565b9150613a5e82613a1d565b602082019050919050565b60006020820190508181036000830152613a8281613a46565b9050919050565b7f4e487b7100000000000000000000000000000000000000000000000000000000600052601160045260246000fd5b6000613ac3826131fd565b9150613ace836131fd565b9250827fffffffffffffffffffffffffffffffffffffffffffffffffffffffffffffffff03821115613b0357613b02613a89565b5b828201905092915050565b6000613b19826131fd565b9150613b24836131fd565b9250817fffffffffffffffffffffffffffffffffffffffffffffffffffffffffffffffff0483118215151615613b5d57613b5c613a89565b5b828202905092915050565b7f4e487b7100000000000000000000000000000000000000000000000000000000600052601260045260246000fd5b6000613ba2826131fd565b9150613bad836131fd565b925082613bbd57613bbc613b68565b5b828204905092915050565b7f52756e6e696e67204c6f77206f6e20546f6b656e730000000000000000000000600082015250565b6000613bfe60158361314d565b9150613c0982613bc8565b602082019050919050565b60006020820190508181036000830152613c2d81613bf1565b9050919050565b6000604082019050613c4960008301856136d3565b613c566020830184613207565b9392505050565b600081519050613c6c816136fd565b92915050565b600060208284031215613c8857613c8761323b565b5b6000613c9684828501613c5d565b91505092915050565b6000613caa826131fd565b91507fffffffffffffffffffffffffffffffffffffffffffffffffffffffffffffffff8203613cdc57613cdb613a89565b5b600182019050919050565b7f53656c6c657220686173206e6f7420656e6f75676820616d6f756e74206f662060008201527f546f6b656e730000000000000000000000000000000000000000000000000000602082015250565b6000613d4360268361314d565b9150613d4e82613ce7565b604082019050919050565b60006020820190508181036000830152613d7281613d36565b9050919050565b7f4e487b7100000000000000000000000000000000000000000000000000000000600052603260045260246000fd5b60008160011c9050919050565b6000808291508390505b6001851115613dff57808604811115613ddb57613dda613a89565b5b6001851615613dea5780820291505b8081029050613df885613da8565b9450613dbf565b94509492505050565b600082613e185760019050613ed4565b81613e265760009050613ed4565b8160018114613e3c5760028114613e4657613e75565b6001915050613ed4565b60ff841115613e5857613e57613a89565b5b8360020a915084821115613e6f57613e6e613a89565b5b50613ed4565b5060208310610133831016604e8410600b8410161715613eaa5782820a905083811115613ea557613ea4613a89565b5b613ed4565b613eb78484846001613db5565b92509050818404811115613ece57613ecd613a89565b5b81810290505b9392505050565b6000613ee6826131fd565b9150613ef1836133c5565b9250613f1e7fffffffffffffffffffffffffffffffffffffffffffffffffffffffffffffffff8484613e08565b905092915050565b7f45524332303a2064656372656173656420616c6c6f77616e63652062656c6f7760008201527f207a65726f000000000000000000000000000000000000000000000000000000602082015250565b6000613f8260258361314d565b9150613f8d82613f26565b604082019050919050565b60006020820190508181036000830152613fb181613f75565b9050919050565b6000613fc3826131fd565b9150613fce836131fd565b925082821015613fe157613fe0613a89565b5b828203905092915050565b7f45524332303a20617070726f76652066726f6d20746865207a65726f2061646460008201527f7265737300000000000000000000000000000000000000000000000000000000602082015250565b600061404860248361314d565b915061405382613fec565b604082019050919050565b600060208201905081810360008301526140778161403b565b9050919050565b7f45524332303a20617070726f766520746f20746865207a65726f20616464726560008201527f7373000000000000000000000000000000000000000000000000000000000000602082015250565b60006140da60228361314d565b91506140e58261407e565b604082019050919050565b60006020820190508181036000830152614109816140cd565b9050919050565b7f45524332303a206275726e2066726f6d20746865207a65726f2061646472657360008201527f7300000000000000000000000000000000000000000000000000000000000000602082015250565b600061416c60218361314d565b915061417782614110565b604082019050919050565b6000602082019050818103600083015261419b8161415f565b9050919050565b7f45524332303a206275726e20616d6f756e7420657863656564732062616c616e60008201527f6365000000000000000000000000000000000000000000000000000000000000602082015250565b60006141fe60228361314d565b9150614209826141a2565b604082019050919050565b6000602082019050818103600083015261422d816141f1565b9050919050565b7f45524332303a20696e73756666696369656e7420616c6c6f77616e6365000000600082015250565b600061426a601d8361314d565b915061427582614234565b602082019050919050565b600060208201905081810360008301526142998161425d565b9050919050565b7f45524332303a207472616e736665722066726f6d20746865207a65726f20616460008201527f6472657373000000000000000000000000000000000000000000000000000000602082015250565b60006142fc60258361314d565b9150614307826142a0565b604082019050919050565b6000602082019050818103600083015261432b816142ef565b9050919050565b7f45524332303a207472616e7366657220746f20746865207a65726f206164647260008201527f6573730000000000000000000000000000000000000000000000000000000000602082015250565b600061438e60238361314d565b915061439982614332565b604082019050919050565b600060208201905081810360008301526143bd81614381565b9050919050565b7f45524332303a207472616e7366657220616d6f756e742065786365656473206260008201527f616c616e63650000000000000000000000000000000000000000000000000000602082015250565b600061442060268361314d565b915061442b826143c4565b604082019050919050565b6000602082019050818103600083015261444f81614413565b9050919050565b7f45524332303a206d696e7420746f20746865207a65726f206164647265737300600082015250565b600061448c601f8361314d565b915061449782614456565b602082019050919050565b600060208201905081810360008301526144bb8161447f565b905091905056fea26469706673582212206c951e38bb946090f6a3dc847b5cd9dbf0bc048a2bd4df1b138a25a280c627f964736f6c634300080d0033",
  "immutableReferences": {},
  "source": "// SPDX-License-Identifier: MIT\npragma solidity ^0.8.0;\n\n// Import the necessary ERC-20 interface\nimport \"@openzeppelin/contracts/token/ERC20/ERC20.sol\";\nimport \"@openzeppelin/contracts/token/ERC20/IERC20.sol\";\n\n// Inherit from the ERC-20 contract\ncontract FlipCoin is ERC20 {\n\n    uint256 public purchase_rewards;\n    uint256 public purchase_referrals;\n    uint256 public purchase_socialMedia;\n    uint256 public staking;\n    uint256 public partners;\n    uint256 public currentOrder;\n    uint256 public expireTime = 300;\n    uint256 public socialMediaReward = 5;\n    uint256 public referralReward = 5;\n    uint256 public currentMintAmount = 0;\n    address public ownerAddress;\n    address public tokenAddress;\n\n    enum OrderStatus\n    {\n        Confirmed,\n        Cancelled,\n        NotReturned,\n        Expired\n    }\n    enum OrderType\n    {\n        Purchase,\n        Airdrop,\n        SocialPost,\n        Stake\n    }\n    struct Order\n    {\n        uint256 id;\n        uint256 lastReturnDate;\n        uint256 flipCoin;\n        address userAccount;\n        address referrer;\n        bool isReferred;\n        OrderStatus status;\n        OrderType orderType;\n    }\n\n    mapping(uint256=>Order) public orders;\n    mapping(address=>uint256) public expectedBalance;\n    mapping(uint256=>uint256) public totalReferrals;\n\n    constructor(string memory name, string memory symbol) ERC20(name, symbol) {\n        _mint(address(this), 10000000 * 10 ** decimals());\n        currentMintAmount = 10000000;\n        ownerAddress = msg.sender;\n        tokenAddress = address(this);\n    }\n    function distributeToPartners(address[] memory sellers) external \n    {\n        for(uint256 i=0;i<sellers.length;i++)\n        {\n            IERC20 token = IERC20(tokenAddress);\n            token.transfer(sellers[i], (currentMintAmount * 5)/100);\n        }\n    }\n    function removeSeller(address seller) external \n    {\n        _burn(seller, balanceOf(seller));\n    }\n    function mint(uint256 amount) external \n    {\n        require(ownerAddress == msg.sender);\n        _mint(address(this), amount * 10 ** decimals());\n        currentMintAmount = amount;\n    }\n    function depositCoint() external {\n        for(uint256 i=0;i<currentOrder;i++)\n        {\n            if(orders[i].status == OrderStatus.Confirmed && block.timestamp >= orders[i].lastReturnDate)\n            {\n                if(orders[i].orderType == OrderType.Airdrop)\n                {\n                    require((totalSupply() * 5)/100 > partners, \"Running Low on Tokens\");\n                    partners += orders[i].flipCoin;\n                }\n                else if(orders[i].orderType == OrderType.SocialPost)\n                {\n                    require((totalSupply() * 5)/100 > purchase_socialMedia, \"Running Low on Tokens\");\n                    purchase_socialMedia += orders[i].flipCoin;\n                }\n                else if(orders[i].orderType == OrderType.Stake)\n                {\n                    require((totalSupply() * 15)/100 > staking, \"Running Low on Tokens\");\n                    staking += orders[i].flipCoin;\n                }\n                else \n                {\n                    require((totalSupply() * 40)/100 > purchase_rewards, \"Running Low on Tokens\");\n                    purchase_rewards += orders[i].flipCoin;\n                }\n                orders[i].status = OrderStatus.NotReturned;\n                IERC20 token = IERC20(tokenAddress);\n                token.transfer(orders[i].userAccount, orders[i].flipCoin);\n                expectedBalance[orders[i].userAccount] += orders[i].flipCoin;\n                if(orders[i].isReferred)\n                {\n                    require((totalSupply() * 15)/100 > purchase_referrals, \"Running Low on Tokens\");\n                    IERC20 tokenRef = IERC20(tokenAddress);\n                    tokenRef.transfer(orders[i].referrer, referralReward);\n                    expectedBalance[orders[i].referrer] += referralReward;\n                    purchase_referrals += referralReward;\n                }\n            }\n\n        }\n    }\n    function deductCoin() payable external {\n        for(uint256 i=0;i<currentOrder;i++)\n        {\n            if(orders[i].status == OrderStatus.NotReturned && block.timestamp >= orders[i].lastReturnDate + expireTime)\n            {\n                if(balanceOf(orders[i].userAccount) > (expectedBalance[orders[i].userAccount] - orders[i].flipCoin))\n                {\n                    uint256 extraAmount = balanceOf(orders[i].userAccount) - (expectedBalance[orders[i].userAccount] - orders[i].flipCoin);\n                    _burn(orders[i].userAccount, extraAmount);\n                }\n                expectedBalance[orders[i].userAccount] -= orders[i].flipCoin;\n                if(orders[i].isReferred)\n                {\n                    if(balanceOf(orders[i].referrer) > (expectedBalance[orders[i].referrer] - referralReward))\n                    {\n                        uint256 extraAmount = balanceOf(orders[i].referrer) - (expectedBalance[orders[i].referrer] - referralReward);\n                        _burn(orders[i].referrer, extraAmount);\n                    }\n                    expectedBalance[orders[i].referrer] -= referralReward;\n                }\n                orders[i].status = OrderStatus.Expired;\n            }\n        }\n    }\n    function purchase(uint256 productPrice,address userAccount, uint256 lastReturnDate,bool isReferred, address referrer)external {\n        Order memory newOrder;\n        newOrder.id = currentOrder;\n        if(productPrice/50 >= 100){\n        newOrder.flipCoin = 100;\n        }\n        else{\n            newOrder.flipCoin = productPrice / 50;\n        }\n        newOrder.userAccount = userAccount;\n        newOrder.status = OrderStatus.Confirmed;\n        newOrder.lastReturnDate = lastReturnDate;\n        newOrder.orderType = OrderType.Purchase;\n        if(isReferred)\n        {\n            newOrder.isReferred = true;\n            newOrder.referrer = referrer;\n        }\n        else \n        {\n            newOrder.isReferred = false;\n        }\n        orders[currentOrder] = newOrder;\n        currentOrder++;\n    }\n    function disperseCoin(address seller, uint256[] memory amount, address[] memory userAccount, uint256 totalAmount) external {\n        require(balanceOf(seller) >= totalAmount, \"Seller has not enough amount of Tokens\");\n        require((totalSupply() * 5)/100 > partners, \"Running Low on Tokens\");\n        for(uint256 i=0;i<amount.length;i++)\n        {\n            Order memory newOrder;\n            newOrder.id = currentOrder;\n            newOrder.flipCoin = amount[0];\n            newOrder.isReferred = false;\n            newOrder.lastReturnDate = block.timestamp;\n            newOrder.status = OrderStatus.Confirmed;\n            newOrder.userAccount = userAccount[i];\n            newOrder.orderType = OrderType.Airdrop;\n            orders[currentOrder] = newOrder;\n            _burn(seller, amount[i]);\n            currentOrder++;\n        }\n    }\n    function cancleOrder(uint256 orderId) external \n    {\n        require(orders[orderId].lastReturnDate > block.timestamp);\n        orders[orderId].status = OrderStatus.Cancelled;\n    }\n    function socialMediaPost(address userAccount) external \n    {\n        Order memory newOrder;\n        newOrder.id = currentOrder;\n        newOrder.flipCoin = socialMediaReward;\n        newOrder.isReferred = false;\n        newOrder.lastReturnDate = block.timestamp;\n        newOrder.status = OrderStatus.Confirmed;\n        newOrder.userAccount = userAccount;\n        newOrder.orderType = OrderType.SocialPost;\n        orders[currentOrder] = newOrder;\n        currentOrder++;\n    }\n    function redeem(address userAccount, uint256 amount) external \n    {\n        require(balanceOf(userAccount) >= amount && amount > 0, \"Insufficient balance\");\n        _burn(userAccount, amount);\n    }\n    function stakeTokens(uint256 amount, address userAccount, uint256 interval) external {\n        require(amount >0 && amount <= balanceOf(userAccount), \"Insufficient balance\");\n        _transfer(userAccount, address(this) ,amount);\n        Order memory newOrder;\n        newOrder.id = currentOrder;\n        newOrder.flipCoin = amount + amount/10;\n        newOrder.isReferred = false;\n        newOrder.lastReturnDate = block.timestamp + interval;\n        newOrder.status = OrderStatus.Confirmed;\n        newOrder.orderType = OrderType.Stake;\n        newOrder.userAccount = userAccount;\n        orders[currentOrder] = newOrder;\n        currentOrder++;\n    }\n}\n",
  "sourcePath": "/home/subrat0018/Desktop/project-grid/truffle/contracts/FlipCoin.sol",
  "compiler": {
    "name": "solc",
    "version": "0.8.13+commit.abaa5c0e.Emscripten.clang"
  },
  "schemaVersion": "3.4.15",
  "updatedAt": "2023-08-19T20:43:42.291Z",
  "networkType": "ethereum",
  "devdoc": {
    "kind": "dev",
    "methods": {
      "allowance(address,address)": {
        "details": "See {IERC20-allowance}."
      },
      "approve(address,uint256)": {
        "details": "See {IERC20-approve}. NOTE: If `amount` is the maximum `uint256`, the allowance is not updated on `transferFrom`. This is semantically equivalent to an infinite approval. Requirements: - `spender` cannot be the zero address."
      },
      "balanceOf(address)": {
        "details": "See {IERC20-balanceOf}."
      },
      "decimals()": {
        "details": "Returns the number of decimals used to get its user representation. For example, if `decimals` equals `2`, a balance of `505` tokens should be displayed to a user as `5.05` (`505 / 10 ** 2`). Tokens usually opt for a value of 18, imitating the relationship between Ether and Wei. This is the default value returned by this function, unless it's overridden. NOTE: This information is only used for _display_ purposes: it in no way affects any of the arithmetic of the contract, including {IERC20-balanceOf} and {IERC20-transfer}."
      },
      "decreaseAllowance(address,uint256)": {
        "details": "Atomically decreases the allowance granted to `spender` by the caller. This is an alternative to {approve} that can be used as a mitigation for problems described in {IERC20-approve}. Emits an {Approval} event indicating the updated allowance. Requirements: - `spender` cannot be the zero address. - `spender` must have allowance for the caller of at least `subtractedValue`."
      },
      "increaseAllowance(address,uint256)": {
        "details": "Atomically increases the allowance granted to `spender` by the caller. This is an alternative to {approve} that can be used as a mitigation for problems described in {IERC20-approve}. Emits an {Approval} event indicating the updated allowance. Requirements: - `spender` cannot be the zero address."
      },
      "name()": {
        "details": "Returns the name of the token."
      },
      "symbol()": {
        "details": "Returns the symbol of the token, usually a shorter version of the name."
      },
      "totalSupply()": {
        "details": "See {IERC20-totalSupply}."
      },
      "transfer(address,uint256)": {
        "details": "See {IERC20-transfer}. Requirements: - `to` cannot be the zero address. - the caller must have a balance of at least `amount`."
      },
      "transferFrom(address,address,uint256)": {
        "details": "See {IERC20-transferFrom}. Emits an {Approval} event indicating the updated allowance. This is not required by the EIP. See the note at the beginning of {ERC20}. NOTE: Does not update the allowance if the current allowance is the maximum `uint256`. Requirements: - `from` and `to` cannot be the zero address. - `from` must have a balance of at least `amount`. - the caller must have allowance for ``from``'s tokens of at least `amount`."
      }
    },
    "version": 1
  },
  "userdoc": {
    "kind": "user",
    "methods": {},
    "version": 1
  }
}