{
  "contractName": "FlipCoin",
  "abi": [
    {
      "inputs": [
        {
          "internalType": "string",
          "name": "name",
          "type": "string"
        },
        {
          "internalType": "string",
          "name": "symbol",
          "type": "string"
        }
      ],
      "stateMutability": "nonpayable",
      "type": "constructor"
    },
    {
      "anonymous": false,
      "inputs": [
        {
          "indexed": true,
          "internalType": "address",
          "name": "owner",
          "type": "address"
        },
        {
          "indexed": true,
          "internalType": "address",
          "name": "spender",
          "type": "address"
        },
        {
          "indexed": false,
          "internalType": "uint256",
          "name": "value",
          "type": "uint256"
        }
      ],
      "name": "Approval",
      "type": "event"
    },
    {
      "anonymous": false,
      "inputs": [
        {
          "indexed": true,
          "internalType": "address",
          "name": "from",
          "type": "address"
        },
        {
          "indexed": true,
          "internalType": "address",
          "name": "to",
          "type": "address"
        },
        {
          "indexed": false,
          "internalType": "uint256",
          "name": "value",
          "type": "uint256"
        }
      ],
      "name": "Transfer",
      "type": "event"
    },
    {
      "inputs": [
        {
          "internalType": "address",
          "name": "owner",
          "type": "address"
        },
        {
          "internalType": "address",
          "name": "spender",
          "type": "address"
        }
      ],
      "name": "allowance",
      "outputs": [
        {
          "internalType": "uint256",
          "name": "",
          "type": "uint256"
        }
      ],
      "stateMutability": "view",
      "type": "function",
      "constant": true
    },
    {
      "inputs": [
        {
          "internalType": "address",
          "name": "spender",
          "type": "address"
        },
        {
          "internalType": "uint256",
          "name": "amount",
          "type": "uint256"
        }
      ],
      "name": "approve",
      "outputs": [
        {
          "internalType": "bool",
          "name": "",
          "type": "bool"
        }
      ],
      "stateMutability": "nonpayable",
      "type": "function"
    },
    {
      "inputs": [
        {
          "internalType": "address",
          "name": "account",
          "type": "address"
        }
      ],
      "name": "balanceOf",
      "outputs": [
        {
          "internalType": "uint256",
          "name": "",
          "type": "uint256"
        }
      ],
      "stateMutability": "view",
      "type": "function",
      "constant": true
    },
    {
      "inputs": [],
      "name": "currentMintAmount",
      "outputs": [
        {
          "internalType": "uint256",
          "name": "",
          "type": "uint256"
        }
      ],
      "stateMutability": "view",
      "type": "function",
      "constant": true
    },
    {
      "inputs": [],
      "name": "currentOrder",
      "outputs": [
        {
          "internalType": "uint256",
          "name": "",
          "type": "uint256"
        }
      ],
      "stateMutability": "view",
      "type": "function",
      "constant": true
    },
    {
      "inputs": [],
      "name": "decimals",
      "outputs": [
        {
          "internalType": "uint8",
          "name": "",
          "type": "uint8"
        }
      ],
      "stateMutability": "view",
      "type": "function",
      "constant": true
    },
    {
      "inputs": [
        {
          "internalType": "address",
          "name": "spender",
          "type": "address"
        },
        {
          "internalType": "uint256",
          "name": "subtractedValue",
          "type": "uint256"
        }
      ],
      "name": "decreaseAllowance",
      "outputs": [
        {
          "internalType": "bool",
          "name": "",
          "type": "bool"
        }
      ],
      "stateMutability": "nonpayable",
      "type": "function"
    },
    {
      "inputs": [
        {
          "internalType": "address",
          "name": "",
          "type": "address"
        }
      ],
      "name": "expectedBalance",
      "outputs": [
        {
          "internalType": "uint256",
          "name": "",
          "type": "uint256"
        }
      ],
      "stateMutability": "view",
      "type": "function",
      "constant": true
    },
    {
      "inputs": [],
      "name": "expireTime",
      "outputs": [
        {
          "internalType": "uint256",
          "name": "",
          "type": "uint256"
        }
      ],
      "stateMutability": "view",
      "type": "function",
      "constant": true
    },
    {
      "inputs": [
        {
          "internalType": "address",
          "name": "spender",
          "type": "address"
        },
        {
          "internalType": "uint256",
          "name": "addedValue",
          "type": "uint256"
        }
      ],
      "name": "increaseAllowance",
      "outputs": [
        {
          "internalType": "bool",
          "name": "",
          "type": "bool"
        }
      ],
      "stateMutability": "nonpayable",
      "type": "function"
    },
    {
      "inputs": [],
      "name": "name",
      "outputs": [
        {
          "internalType": "string",
          "name": "",
          "type": "string"
        }
      ],
      "stateMutability": "view",
      "type": "function",
      "constant": true
    },
    {
      "inputs": [
        {
          "internalType": "uint256",
          "name": "",
          "type": "uint256"
        }
      ],
      "name": "orderHistory",
      "outputs": [
        {
          "internalType": "uint256",
          "name": "id",
          "type": "uint256"
        },
        {
          "internalType": "uint256",
          "name": "lastReturnDate",
          "type": "uint256"
        },
        {
          "internalType": "uint256",
          "name": "flipCoin",
          "type": "uint256"
        },
        {
          "internalType": "address",
          "name": "userAccount",
          "type": "address"
        },
        {
          "internalType": "address",
          "name": "referrer",
          "type": "address"
        },
        {
          "internalType": "bool",
          "name": "isReferred",
          "type": "bool"
        },
        {
          "internalType": "string",
          "name": "productName",
          "type": "string"
        },
        {
          "internalType": "string",
          "name": "imgUrl",
          "type": "string"
        },
        {
          "internalType": "enum FlipCoin.OrderStatus",
          "name": "status",
          "type": "uint8"
        },
        {
          "internalType": "enum FlipCoin.OrderType",
          "name": "orderType",
          "type": "uint8"
        }
      ],
      "stateMutability": "view",
      "type": "function",
      "constant": true
    },
    {
      "inputs": [
        {
          "internalType": "uint256",
          "name": "",
          "type": "uint256"
        }
      ],
      "name": "orders",
      "outputs": [
        {
          "internalType": "uint256",
          "name": "id",
          "type": "uint256"
        },
        {
          "internalType": "uint256",
          "name": "lastReturnDate",
          "type": "uint256"
        },
        {
          "internalType": "uint256",
          "name": "flipCoin",
          "type": "uint256"
        },
        {
          "internalType": "address",
          "name": "userAccount",
          "type": "address"
        },
        {
          "internalType": "address",
          "name": "referrer",
          "type": "address"
        },
        {
          "internalType": "bool",
          "name": "isReferred",
          "type": "bool"
        },
        {
          "internalType": "string",
          "name": "productName",
          "type": "string"
        },
        {
          "internalType": "string",
          "name": "imgUrl",
          "type": "string"
        },
        {
          "internalType": "enum FlipCoin.OrderStatus",
          "name": "status",
          "type": "uint8"
        },
        {
          "internalType": "enum FlipCoin.OrderType",
          "name": "orderType",
          "type": "uint8"
        }
      ],
      "stateMutability": "view",
      "type": "function",
      "constant": true
    },
    {
      "inputs": [],
      "name": "ordersCount",
      "outputs": [
        {
          "internalType": "uint256",
          "name": "",
          "type": "uint256"
        }
      ],
      "stateMutability": "view",
      "type": "function",
      "constant": true
    },
    {
      "inputs": [],
      "name": "ownerAddress",
      "outputs": [
        {
          "internalType": "address",
          "name": "",
          "type": "address"
        }
      ],
      "stateMutability": "view",
      "type": "function",
      "constant": true
    },
    {
      "inputs": [],
      "name": "partners",
      "outputs": [
        {
          "internalType": "uint256",
          "name": "",
          "type": "uint256"
        }
      ],
      "stateMutability": "view",
      "type": "function",
      "constant": true
    },
    {
      "inputs": [],
      "name": "purchase_referrals",
      "outputs": [
        {
          "internalType": "uint256",
          "name": "",
          "type": "uint256"
        }
      ],
      "stateMutability": "view",
      "type": "function",
      "constant": true
    },
    {
      "inputs": [],
      "name": "purchase_rewards",
      "outputs": [
        {
          "internalType": "uint256",
          "name": "",
          "type": "uint256"
        }
      ],
      "stateMutability": "view",
      "type": "function",
      "constant": true
    },
    {
      "inputs": [],
      "name": "purchase_socialMedia",
      "outputs": [
        {
          "internalType": "uint256",
          "name": "",
          "type": "uint256"
        }
      ],
      "stateMutability": "view",
      "type": "function",
      "constant": true
    },
    {
      "inputs": [],
      "name": "referralReward",
      "outputs": [
        {
          "internalType": "uint256",
          "name": "",
          "type": "uint256"
        }
      ],
      "stateMutability": "view",
      "type": "function",
      "constant": true
    },
    {
      "inputs": [],
      "name": "socialMediaReward",
      "outputs": [
        {
          "internalType": "uint256",
          "name": "",
          "type": "uint256"
        }
      ],
      "stateMutability": "view",
      "type": "function",
      "constant": true
    },
    {
      "inputs": [],
      "name": "staking",
      "outputs": [
        {
          "internalType": "uint256",
          "name": "",
          "type": "uint256"
        }
      ],
      "stateMutability": "view",
      "type": "function",
      "constant": true
    },
    {
      "inputs": [],
      "name": "symbol",
      "outputs": [
        {
          "internalType": "string",
          "name": "",
          "type": "string"
        }
      ],
      "stateMutability": "view",
      "type": "function",
      "constant": true
    },
    {
      "inputs": [],
      "name": "tokenAddress",
      "outputs": [
        {
          "internalType": "address",
          "name": "",
          "type": "address"
        }
      ],
      "stateMutability": "view",
      "type": "function",
      "constant": true
    },
    {
      "inputs": [
        {
          "internalType": "uint256",
          "name": "",
          "type": "uint256"
        }
      ],
      "name": "totalReferrals",
      "outputs": [
        {
          "internalType": "uint256",
          "name": "",
          "type": "uint256"
        }
      ],
      "stateMutability": "view",
      "type": "function",
      "constant": true
    },
    {
      "inputs": [],
      "name": "totalSupply",
      "outputs": [
        {
          "internalType": "uint256",
          "name": "",
          "type": "uint256"
        }
      ],
      "stateMutability": "view",
      "type": "function",
      "constant": true
    },
    {
      "inputs": [
        {
          "internalType": "address",
          "name": "to",
          "type": "address"
        },
        {
          "internalType": "uint256",
          "name": "amount",
          "type": "uint256"
        }
      ],
      "name": "transfer",
      "outputs": [
        {
          "internalType": "bool",
          "name": "",
          "type": "bool"
        }
      ],
      "stateMutability": "nonpayable",
      "type": "function"
    },
    {
      "inputs": [
        {
          "internalType": "address",
          "name": "from",
          "type": "address"
        },
        {
          "internalType": "address",
          "name": "to",
          "type": "address"
        },
        {
          "internalType": "uint256",
          "name": "amount",
          "type": "uint256"
        }
      ],
      "name": "transferFrom",
      "outputs": [
        {
          "internalType": "bool",
          "name": "",
          "type": "bool"
        }
      ],
      "stateMutability": "nonpayable",
      "type": "function"
    },
    {
      "inputs": [
        {
          "internalType": "address[]",
          "name": "sellers",
          "type": "address[]"
        }
      ],
      "name": "distributeToPartners",
      "outputs": [],
      "stateMutability": "nonpayable",
      "type": "function"
    },
    {
      "inputs": [
        {
          "internalType": "address",
          "name": "seller",
          "type": "address"
        }
      ],
      "name": "removeSeller",
      "outputs": [],
      "stateMutability": "nonpayable",
      "type": "function"
    },
    {
      "inputs": [
        {
          "internalType": "uint256",
          "name": "amount",
          "type": "uint256"
        }
      ],
      "name": "mint",
      "outputs": [],
      "stateMutability": "nonpayable",
      "type": "function"
    },
    {
      "inputs": [],
      "name": "depositCoint",
      "outputs": [],
      "stateMutability": "nonpayable",
      "type": "function"
    },
    {
      "inputs": [],
      "name": "deductCoin",
      "outputs": [],
      "stateMutability": "payable",
      "type": "function",
      "payable": true
    },
    {
      "inputs": [
        {
          "internalType": "uint256",
          "name": "productPrice",
          "type": "uint256"
        },
        {
          "internalType": "address",
          "name": "userAccount",
          "type": "address"
        },
        {
          "internalType": "uint256",
          "name": "lastReturnDate",
          "type": "uint256"
        },
        {
          "internalType": "bool",
          "name": "isReferred",
          "type": "bool"
        },
        {
          "internalType": "address",
          "name": "referrer",
          "type": "address"
        },
        {
          "internalType": "bool",
          "name": "isRedeem",
          "type": "bool"
        },
        {
          "internalType": "uint256",
          "name": "redeemAmount",
          "type": "uint256"
        },
        {
          "internalType": "string",
          "name": "productName",
          "type": "string"
        },
        {
          "internalType": "string",
          "name": "imgUrl",
          "type": "string"
        }
      ],
      "name": "purchase",
      "outputs": [],
      "stateMutability": "nonpayable",
      "type": "function"
    },
    {
      "inputs": [
        {
          "internalType": "address",
          "name": "seller",
          "type": "address"
        },
        {
          "internalType": "uint256[]",
          "name": "amount",
          "type": "uint256[]"
        },
        {
          "internalType": "address[]",
          "name": "userAccount",
          "type": "address[]"
        },
        {
          "internalType": "uint256",
          "name": "totalAmount",
          "type": "uint256"
        }
      ],
      "name": "disperseCoin",
      "outputs": [],
      "stateMutability": "nonpayable",
      "type": "function"
    },
    {
      "inputs": [
        {
          "internalType": "uint256",
          "name": "orderId",
          "type": "uint256"
        }
      ],
      "name": "cancleOrder",
      "outputs": [],
      "stateMutability": "nonpayable",
      "type": "function"
    },
    {
      "inputs": [
        {
          "internalType": "uint256",
          "name": "amount",
          "type": "uint256"
        },
        {
          "internalType": "address",
          "name": "userAccount",
          "type": "address"
        },
        {
          "internalType": "uint256",
          "name": "interval",
          "type": "uint256"
        }
      ],
      "name": "stakeTokens",
      "outputs": [],
      "stateMutability": "nonpayable",
      "type": "function"
    }
  ],
  "bytecode": "0x608060405261012c600b556005600c556005600d556000600e556000600f55604051806080016040528060538152602001620065d560539139601290805190602001906200004f9291906200030c565b503480156200005d57600080fd5b506040516200662838038062006628833981810160405281019062000083919062000559565b818181600390805190602001906200009d9291906200030c565b508060049080519060200190620000b69291906200030c565b505050620000f830620000ce6200018c60201b60201c565b600a620000dc919062000778565b62989680620000ec9190620007c9565b6200019560201b60201c565b62989680600e8190555033601060006101000a81548173ffffffffffffffffffffffffffffffffffffffff021916908373ffffffffffffffffffffffffffffffffffffffff16021790555030601160006101000a81548173ffffffffffffffffffffffffffffffffffffffff021916908373ffffffffffffffffffffffffffffffffffffffff16021790555050506200099c565b60006012905090565b600073ffffffffffffffffffffffffffffffffffffffff168273ffffffffffffffffffffffffffffffffffffffff160362000207576040517f08c379a0000000000000000000000000000000000000000000000000000000008152600401620001fe906200088b565b60405180910390fd5b6200021b600083836200030260201b60201c565b80600260008282546200022f9190620008ad565b92505081905550806000808473ffffffffffffffffffffffffffffffffffffffff1673ffffffffffffffffffffffffffffffffffffffff168152602001908152602001600020600082825401925050819055508173ffffffffffffffffffffffffffffffffffffffff16600073ffffffffffffffffffffffffffffffffffffffff167fddf252ad1be2c89b69c2b068fc378daa952ba7f163c4a11628f55a4df523b3ef83604051620002e291906200091b565b60405180910390a3620002fe600083836200030760201b60201c565b5050565b505050565b505050565b8280546200031a9062000967565b90600052602060002090601f0160209004810192826200033e57600085556200038a565b82601f106200035957805160ff19168380011785556200038a565b828001600101855582156200038a579182015b82811115620003895782518255916020019190600101906200036c565b5b5090506200039991906200039d565b5090565b5b80821115620003b85760008160009055506001016200039e565b5090565b6000604051905090565b600080fd5b600080fd5b600080fd5b600080fd5b6000601f19601f8301169050919050565b7f4e487b7100000000000000000000000000000000000000000000000000000000600052604160045260246000fd5b6200042582620003da565b810181811067ffffffffffffffff82111715620004475762000446620003eb565b5b80604052505050565b60006200045c620003bc565b90506200046a82826200041a565b919050565b600067ffffffffffffffff8211156200048d576200048c620003eb565b5b6200049882620003da565b9050602081019050919050565b60005b83811015620004c5578082015181840152602081019050620004a8565b83811115620004d5576000848401525b50505050565b6000620004f2620004ec846200046f565b62000450565b905082815260208101848484011115620005115762000510620003d5565b5b6200051e848285620004a5565b509392505050565b600082601f8301126200053e576200053d620003d0565b5b815162000550848260208601620004db565b91505092915050565b60008060408385031215620005735762000572620003c6565b5b600083015167ffffffffffffffff811115620005945762000593620003cb565b5b620005a28582860162000526565b925050602083015167ffffffffffffffff811115620005c657620005c5620003cb565b5b620005d48582860162000526565b9150509250929050565b7f4e487b7100000000000000000000000000000000000000000000000000000000600052601160045260246000fd5b60008160011c9050919050565b6000808291508390505b60018511156200066c57808604811115620006445762000643620005de565b5b6001851615620006545780820291505b808102905062000664856200060d565b945062000624565b94509492505050565b6000826200068757600190506200075a565b816200069757600090506200075a565b8160018114620006b05760028114620006bb57620006f1565b60019150506200075a565b60ff841115620006d057620006cf620005de565b5b8360020a915084821115620006ea57620006e9620005de565b5b506200075a565b5060208310610133831016604e8410600b84101617156200072b5782820a905083811115620007255762000724620005de565b5b6200075a565b6200073a84848460016200061a565b92509050818404811115620007545762000753620005de565b5b81810290505b9392505050565b6000819050919050565b600060ff82169050919050565b6000620007858262000761565b915062000792836200076b565b9250620007c17fffffffffffffffffffffffffffffffffffffffffffffffffffffffffffffffff848462000675565b905092915050565b6000620007d68262000761565b9150620007e38362000761565b9250817fffffffffffffffffffffffffffffffffffffffffffffffffffffffffffffffff04831182151516156200081f576200081e620005de565b5b828202905092915050565b600082825260208201905092915050565b7f45524332303a206d696e7420746f20746865207a65726f206164647265737300600082015250565b600062000873601f836200082a565b915062000880826200083b565b602082019050919050565b60006020820190508181036000830152620008a68162000864565b9050919050565b6000620008ba8262000761565b9150620008c78362000761565b9250827fffffffffffffffffffffffffffffffffffffffffffffffffffffffffffffffff03821115620008ff57620008fe620005de565b5b828201905092915050565b620009158162000761565b82525050565b60006020820190506200093260008301846200090a565b92915050565b7f4e487b7100000000000000000000000000000000000000000000000000000000600052602260045260246000fd5b600060028204905060018216806200098057607f821691505b60208210810362000996576200099562000938565b5b50919050565b615c2980620009ac6000396000f3fe60806040526004361061021a5760003560e01c80638c16602f11610123578063b2a62064116100ab578063dd62ed3e1161006f578063dd62ed3e14610815578063e3cc16e114610852578063f406cb8a1461085c578063f64cccea14610885578063f95c0df3146108c25761021a565b8063b2a6206414610742578063b64dac4d1461076d578063b9b85b4b14610798578063cec534d6146107c3578063da757a45146107ec5761021a565b80639e28229d116100f25780639e28229d1461062e578063a0712d6814610659578063a457c2d714610682578063a85c38ef146106bf578063a9059cbb146107055761021a565b80638c16602f146105845780638f84aa09146105ad57806395d89b41146105d85780639d76ea58146106035761021a565b8063313ce567116101a65780634d683674116101755780634d683674146104b157806370a08231146104dc57806377937c21146105195780637cb9cf541461053057806381add559146105595761021a565b8063313ce567146103f357806335daa7311461041e57806339509351146104495780634cf088d9146104865761021a565b806318160ddd116101ed57806318160ddd146102f85780631ca351b21461032357806323b872dd1461034e5780632ed8eaa61461038b578063310a1ee3146103c85761021a565b806306fdde031461021f5780630860eeb21461024a578063095ea7b3146102755780630d99a955146102b2575b600080fd5b34801561022b57600080fd5b506102346108eb565b60405161024191906147a4565b60405180910390f35b34801561025657600080fd5b5061025f61097d565b60405161026c91906147df565b60405180910390f35b34801561028157600080fd5b5061029c60048036038101906102979190614898565b610983565b6040516102a991906148f3565b60405180910390f35b3480156102be57600080fd5b506102d960048036038101906102d4919061490e565b6109a6565b6040516102ef9a99989796959493929190614a09565b60405180910390f35b34801561030457600080fd5b5061030d610b81565b60405161031a91906147df565b60405180910390f35b34801561032f57600080fd5b50610338610b8b565b60405161034591906147df565b60405180910390f35b34801561035a57600080fd5b5061037560048036038101906103709190614ab3565b610b91565b60405161038291906148f3565b60405180910390f35b34801561039757600080fd5b506103b260048036038101906103ad919061490e565b610bc0565b6040516103bf91906147df565b60405180910390f35b3480156103d457600080fd5b506103dd610bd8565b6040516103ea91906147df565b60405180910390f35b3480156103ff57600080fd5b50610408610bde565b6040516104159190614b22565b60405180910390f35b34801561042a57600080fd5b50610433610be7565b60405161044091906147df565b60405180910390f35b34801561045557600080fd5b50610470600480360381019061046b9190614898565b610bed565b60405161047d91906148f3565b60405180910390f35b34801561049257600080fd5b5061049b610c24565b6040516104a891906147df565b60405180910390f35b3480156104bd57600080fd5b506104c6610c2a565b6040516104d391906147df565b60405180910390f35b3480156104e857600080fd5b5061050360048036038101906104fe9190614b3d565b610c30565b60405161051091906147df565b60405180910390f35b34801561052557600080fd5b5061052e610c78565b005b34801561053c57600080fd5b5061055760048036038101906105529190614b3d565b6118d5565b005b34801561056557600080fd5b5061056e6118ea565b60405161057b91906147df565b60405180910390f35b34801561059057600080fd5b506105ab60048036038101906105a69190614d75565b6118f0565b005b3480156105b957600080fd5b506105c2611d5d565b6040516105cf9190614e14565b60405180910390f35b3480156105e457600080fd5b506105ed611d83565b6040516105fa91906147a4565b60405180910390f35b34801561060f57600080fd5b50610618611e15565b6040516106259190614e14565b60405180910390f35b34801561063a57600080fd5b50610643611e3b565b60405161065091906147df565b60405180910390f35b34801561066557600080fd5b50610680600480360381019061067b919061490e565b611e41565b005b34801561068e57600080fd5b506106a960048036038101906106a49190614898565b611ecd565b6040516106b691906148f3565b60405180910390f35b3480156106cb57600080fd5b506106e660048036038101906106e1919061490e565b611f44565b6040516106fc9a99989796959493929190614a09565b60405180910390f35b34801561071157600080fd5b5061072c60048036038101906107279190614898565b61210f565b60405161073991906148f3565b60405180910390f35b34801561074e57600080fd5b50610757612132565b60405161076491906147df565b60405180910390f35b34801561077957600080fd5b50610782612138565b60405161078f91906147df565b60405180910390f35b3480156107a457600080fd5b506107ad61213e565b6040516107ba91906147df565b60405180910390f35b3480156107cf57600080fd5b506107ea60048036038101906107e59190614e2f565b612144565b005b3480156107f857600080fd5b50610813600480360381019061080e9190614f63565b61280a565b005b34801561082157600080fd5b5061083c60048036038101906108379190615065565b612b2d565b60405161084991906147df565b60405180910390f35b61085a612bb4565b005b34801561086857600080fd5b50610883600480360381019061087e919061490e565b6137c4565b005b34801561089157600080fd5b506108ac60048036038101906108a79190614b3d565b613828565b6040516108b991906147df565b60405180910390f35b3480156108ce57600080fd5b506108e960048036038101906108e491906150a5565b613840565b005b6060600380546108fa9061511d565b80601f01602080910402602001604051908101604052809291908181526020018280546109269061511d565b80156109735780601f1061094857610100808354040283529160200191610973565b820191906000526020600020905b81548152906001019060200180831161095657829003601f168201915b5050505050905090565b60075481565b60008061098e61393e565b905061099b818585613946565b600191505092915050565b601681815481106109b657600080fd5b90600052602060002090600802016000915090508060000154908060010154908060020154908060030160009054906101000a900473ffffffffffffffffffffffffffffffffffffffff16908060040160009054906101000a900473ffffffffffffffffffffffffffffffffffffffff16908060040160149054906101000a900460ff1690806005018054610a4a9061511d565b80601f0160208091040260200160405190810160405280929190818152602001828054610a769061511d565b8015610ac35780601f10610a9857610100808354040283529160200191610ac3565b820191906000526020600020905b815481529060010190602001808311610aa657829003601f168201915b505050505090806006018054610ad89061511d565b80601f0160208091040260200160405190810160405280929190818152602001828054610b049061511d565b8015610b515780601f10610b2657610100808354040283529160200191610b51565b820191906000526020600020905b815481529060010190602001808311610b3457829003601f168201915b5050505050908060070160009054906101000a900460ff16908060070160019054906101000a900460ff1690508a565b6000600254905090565b600c5481565b600080610b9c61393e565b9050610ba9858285613b0f565b610bb4858585613b9b565b60019150509392505050565b60156020528060005260406000206000915090505481565b600b5481565b60006012905090565b600f5481565b600080610bf861393e565b9050610c19818585610c0a8589612b2d565b610c14919061517d565b613946565b600191505092915050565b60085481565b600d5481565b60008060008373ffffffffffffffffffffffffffffffffffffffff1673ffffffffffffffffffffffffffffffffffffffff168152602001908152602001600020549050919050565b60005b600a548110156118d25760006003811115610c9957610c9861494a565b5b6013600083815260200190815260200160002060070160009054906101000a900460ff166003811115610ccf57610cce61494a565b5b148015610cf2575060136000828152602001908152602001600020600101544210155b156118bf5760016003811115610d0b57610d0a61494a565b5b6013600083815260200190815260200160002060070160019054906101000a900460ff166003811115610d4157610d4061494a565b5b03610ddd5760095460646005610d55610b81565b610d5f91906151d3565b610d69919061525c565b11610da9576040517f08c379a0000000000000000000000000000000000000000000000000000000008152600401610da0906152d9565b60405180910390fd5b601360008281526020019081526020016000206002015460096000828254610dd1919061517d565b92505081905550610f56565b600380811115610df057610def61494a565b5b6013600083815260200190815260200160002060070160019054906101000a900460ff166003811115610e2657610e2561494a565b5b03610ec2576008546064600f610e3a610b81565b610e4491906151d3565b610e4e919061525c565b11610e8e576040517f08c379a0000000000000000000000000000000000000000000000000000000008152600401610e85906152d9565b60405180910390fd5b601360008281526020019081526020016000206002015460086000828254610eb6919061517d565b92505081905550610f55565b60055460646028610ed1610b81565b610edb91906151d3565b610ee5919061525c565b11610f25576040517f08c379a0000000000000000000000000000000000000000000000000000000008152600401610f1c906152d9565b60405180910390fd5b601360008281526020019081526020016000206002015460056000828254610f4d919061517d565b925050819055505b5b60026013600083815260200190815260200160002060070160006101000a81548160ff02191690836003811115610f9057610f8f61494a565b5b02179055506000601160009054906101000a900473ffffffffffffffffffffffffffffffffffffffff1690508073ffffffffffffffffffffffffffffffffffffffff1663a9059cbb6013600085815260200190815260200160002060030160009054906101000a900473ffffffffffffffffffffffffffffffffffffffff1660136000868152602001908152602001600020600201546040518363ffffffff1660e01b81526004016110439291906152f9565b6020604051808303816000875af1158015611062573d6000803e3d6000fd5b505050506040513d601f19601f820116820180604052508101906110869190615337565b506013600083815260200190815260200160002060020154601460006013600086815260200190815260200160002060030160009054906101000a900473ffffffffffffffffffffffffffffffffffffffff1673ffffffffffffffffffffffffffffffffffffffff1673ffffffffffffffffffffffffffffffffffffffff1681526020019081526020016000206000828254611122919061517d565b9250508190555060166013600084815260200190815260200160002090806001815401808255809150506001900390600052602060002090600802016000909190919091506000820154816000015560018201548160010155600282015481600201556003820160009054906101000a900473ffffffffffffffffffffffffffffffffffffffff168160030160006101000a81548173ffffffffffffffffffffffffffffffffffffffff021916908373ffffffffffffffffffffffffffffffffffffffff1602179055506004820160009054906101000a900473ffffffffffffffffffffffffffffffffffffffff168160040160006101000a81548173ffffffffffffffffffffffffffffffffffffffff021916908373ffffffffffffffffffffffffffffffffffffffff1602179055506004820160149054906101000a900460ff168160040160146101000a81548160ff02191690831515021790555060058201816005019080546112949061511d565b61129f9291906144a9565b5060068201816006019080546112b49061511d565b6112bf9291906144a9565b506007820160009054906101000a900460ff168160070160006101000a81548160ff021916908360038111156112f8576112f761494a565b5b02179055506007820160019054906101000a900460ff168160070160016101000a81548160ff021916908360038111156113355761133461494a565b5b02179055505050600f600081548092919061134f90615364565b91905055506013600083815260200190815260200160002060040160149054906101000a900460ff16156118bd576006546064600f61138c610b81565b61139691906151d3565b6113a0919061525c565b116113e0576040517f08c379a00000000000000000000000000000000000000000000000000000000081526004016113d7906152d9565b60405180910390fd5b6000601160009054906101000a900473ffffffffffffffffffffffffffffffffffffffff1690508073ffffffffffffffffffffffffffffffffffffffff1663a9059cbb6013600086815260200190815260200160002060040160009054906101000a900473ffffffffffffffffffffffffffffffffffffffff16600d546040518363ffffffff1660e01b815260040161147a9291906152f9565b6020604051808303816000875af1158015611499573d6000803e3d6000fd5b505050506040513d601f19601f820116820180604052508101906114bd9190615337565b50600d54601460006013600087815260200190815260200160002060040160009054906101000a900473ffffffffffffffffffffffffffffffffffffffff1673ffffffffffffffffffffffffffffffffffffffff1673ffffffffffffffffffffffffffffffffffffffff1681526020019081526020016000206000828254611545919061517d565b92505081905550600d5460066000828254611560919061517d565b9250508190555061156f614536565b600d548160400181815250506013600085815260200190815260200160002060010154816020018181525050600281610100019060038111156115b5576115b461494a565b5b908160038111156115c9576115c861494a565b5b815250506013600085815260200190815260200160002060040160009054906101000a900473ffffffffffffffffffffffffffffffffffffffff16816060019073ffffffffffffffffffffffffffffffffffffffff16908173ffffffffffffffffffffffffffffffffffffffff16815250506040518060400160405280600f81526020017f526566657272616c2052657761726400000000000000000000000000000000008152508160c00181905250601280546116869061511d565b80601f01602080910402602001604051908101604052809291908181526020018280546116b29061511d565b80156116ff5780601f106116d4576101008083540402835291602001916116ff565b820191906000526020600020905b8154815290600101906020018083116116e257829003601f168201915b50505050508160e00181905250601681908060018154018082558091505060019003906000526020600020906008020160009091909190915060008201518160000155602082015181600101556040820151816002015560608201518160030160006101000a81548173ffffffffffffffffffffffffffffffffffffffff021916908373ffffffffffffffffffffffffffffffffffffffff16021790555060808201518160040160006101000a81548173ffffffffffffffffffffffffffffffffffffffff021916908373ffffffffffffffffffffffffffffffffffffffff16021790555060a08201518160040160146101000a81548160ff02191690831515021790555060c08201518160050190805190602001906118209291906145db565b5060e082015181600601908051906020019061183d9291906145db565b506101008201518160070160006101000a81548160ff0219169083600381111561186a5761186961494a565b5b02179055506101208201518160070160016101000a81548160ff0219169083600381111561189b5761189a61494a565b5b02179055505050600f60008154809291906118b590615364565b919050555050505b505b80806118ca90615364565b915050610c7b565b50565b6118e7816118e283610c30565b613e11565b50565b60095481565b806118fa85610c30565b101561193b576040517f08c379a00000000000000000000000000000000000000000000000000000000081526004016119329061541e565b60405180910390fd5b6009546064600561194a610b81565b61195491906151d3565b61195e919061525c565b1161199e576040517f08c379a0000000000000000000000000000000000000000000000000000000008152600401611995906152d9565b60405180910390fd5b60005b8351811015611d56576119b2614536565b600a54816000018181525050846000815181106119d2576119d161543e565b5b602002602001015181604001818152505060008160a00190151590811515815250504281602001818152505060008161010001906003811115611a1857611a1761494a565b5b90816003811115611a2c57611a2b61494a565b5b81525050838281518110611a4357611a4261543e565b5b6020026020010151816060019073ffffffffffffffffffffffffffffffffffffffff16908173ffffffffffffffffffffffffffffffffffffffff168152505060018161012001906003811115611a9c57611a9b61494a565b5b90816003811115611ab057611aaf61494a565b5b815250506040518060400160405280600781526020017f41697244726f70000000000000000000000000000000000000000000000000008152508160c0018190525060128054611aff9061511d565b80601f0160208091040260200160405190810160405280929190818152602001828054611b2b9061511d565b8015611b785780601f10611b4d57610100808354040283529160200191611b78565b820191906000526020600020905b815481529060010190602001808311611b5b57829003601f168201915b50505050508160e001819052508060136000600a54815260200190815260200160002060008201518160000155602082015181600101556040820151816002015560608201518160030160006101000a81548173ffffffffffffffffffffffffffffffffffffffff021916908373ffffffffffffffffffffffffffffffffffffffff16021790555060808201518160040160006101000a81548173ffffffffffffffffffffffffffffffffffffffff021916908373ffffffffffffffffffffffffffffffffffffffff16021790555060a08201518160040160146101000a81548160ff02191690831515021790555060c0820151816005019080519060200190611c839291906145db565b5060e0820151816006019080519060200190611ca09291906145db565b506101008201518160070160006101000a81548160ff02191690836003811115611ccd57611ccc61494a565b5b02179055506101208201518160070160016101000a81548160ff02191690836003811115611cfe57611cfd61494a565b5b0217905550905050611d2a86868481518110611d1d57611d1c61543e565b5b6020026020010151613e11565b600a6000815480929190611d3d90615364565b9190505550508080611d4e90615364565b9150506119a1565b5050505050565b601060009054906101000a900473ffffffffffffffffffffffffffffffffffffffff1681565b606060048054611d929061511d565b80601f0160208091040260200160405190810160405280929190818152602001828054611dbe9061511d565b8015611e0b5780601f10611de057610100808354040283529160200191611e0b565b820191906000526020600020905b815481529060010190602001808311611dee57829003601f168201915b5050505050905090565b601160009054906101000a900473ffffffffffffffffffffffffffffffffffffffff1681565b600a5481565b3373ffffffffffffffffffffffffffffffffffffffff16601060009054906101000a900473ffffffffffffffffffffffffffffffffffffffff1673ffffffffffffffffffffffffffffffffffffffff1614611e9b57600080fd5b611ec330611ea7610bde565b600a611eb391906155a0565b83611ebe91906151d3565b613fde565b80600e8190555050565b600080611ed861393e565b90506000611ee68286612b2d565b905083811015611f2b576040517f08c379a0000000000000000000000000000000000000000000000000000000008152600401611f229061565d565b60405180910390fd5b611f388286868403613946565b60019250505092915050565b60136020528060005260406000206000915090508060000154908060010154908060020154908060030160009054906101000a900473ffffffffffffffffffffffffffffffffffffffff16908060040160009054906101000a900473ffffffffffffffffffffffffffffffffffffffff16908060040160149054906101000a900460ff1690806005018054611fd89061511d565b80601f01602080910402602001604051908101604052809291908181526020018280546120049061511d565b80156120515780601f1061202657610100808354040283529160200191612051565b820191906000526020600020905b81548152906001019060200180831161203457829003601f168201915b5050505050908060060180546120669061511d565b80601f01602080910402602001604051908101604052809291908181526020018280546120929061511d565b80156120df5780601f106120b4576101008083540402835291602001916120df565b820191906000526020600020905b8154815290600101906020018083116120c257829003601f168201915b5050505050908060070160009054906101000a900460ff16908060070160019054906101000a900460ff1690508a565b60008061211a61393e565b9050612127818585613b9b565b600191505092915050565b600e5481565b60055481565b60065481565b60008311801561215c575061215882610c30565b8311155b61219b576040517f08c379a0000000000000000000000000000000000000000000000000000000008152600401612192906156c9565b60405180910390fd5b6121a6823085613b9b565b6121ae614536565b600a54816000018181525050600a846121c7919061525c565b846121d2919061517d565b81604001818152505060008160a001901515908115158152505081426121f8919061517d565b8160200181815250506000816101000190600381111561221b5761221a61494a565b5b9081600381111561222f5761222e61494a565b5b815250506003816101200190600381111561224d5761224c61494a565b5b908160038111156122615761226061494a565b5b8152505082816060019073ffffffffffffffffffffffffffffffffffffffff16908173ffffffffffffffffffffffffffffffffffffffff16815250506040518060400160405280600c81526020017f5374616b652043726564697400000000000000000000000000000000000000008152508160c00181905250601280546122e89061511d565b80601f01602080910402602001604051908101604052809291908181526020018280546123149061511d565b80156123615780601f1061233657610100808354040283529160200191612361565b820191906000526020600020905b81548152906001019060200180831161234457829003601f168201915b50505050508160e001819052508060136000600a54815260200190815260200160002060008201518160000155602082015181600101556040820151816002015560608201518160030160006101000a81548173ffffffffffffffffffffffffffffffffffffffff021916908373ffffffffffffffffffffffffffffffffffffffff16021790555060808201518160040160006101000a81548173ffffffffffffffffffffffffffffffffffffffff021916908373ffffffffffffffffffffffffffffffffffffffff16021790555060a08201518160040160146101000a81548160ff02191690831515021790555060c082015181600501908051906020019061246c9291906145db565b5060e08201518160060190805190602001906124899291906145db565b506101008201518160070160006101000a81548160ff021916908360038111156124b6576124b561494a565b5b02179055506101208201518160070160016101000a81548160ff021916908360038111156124e7576124e661494a565b5b0217905550905050600a600081548092919061250290615364565b91905055504281602001818152505083816040018181525050600381610100019060038111156125355761253461494a565b5b908160038111156125495761254861494a565b5b8152505082816060019073ffffffffffffffffffffffffffffffffffffffff16908173ffffffffffffffffffffffffffffffffffffffff16815250506040518060400160405280600b81526020017f5374616b652044656269740000000000000000000000000000000000000000008152508160c00181905250601280546125d09061511d565b80601f01602080910402602001604051908101604052809291908181526020018280546125fc9061511d565b80156126495780601f1061261e57610100808354040283529160200191612649565b820191906000526020600020905b81548152906001019060200180831161262c57829003601f168201915b50505050508160e00181905250601681908060018154018082558091505060019003906000526020600020906008020160009091909190915060008201518160000155602082015181600101556040820151816002015560608201518160030160006101000a81548173ffffffffffffffffffffffffffffffffffffffff021916908373ffffffffffffffffffffffffffffffffffffffff16021790555060808201518160040160006101000a81548173ffffffffffffffffffffffffffffffffffffffff021916908373ffffffffffffffffffffffffffffffffffffffff16021790555060a08201518160040160146101000a81548160ff02191690831515021790555060c082015181600501908051906020019061276a9291906145db565b5060e08201518160060190805190602001906127879291906145db565b506101008201518160070160006101000a81548160ff021916908360038111156127b4576127b361494a565b5b02179055506101208201518160070160016101000a81548160ff021916908360038111156127e5576127e461494a565b5b02179055505050600f60008154809291906127ff90615364565b919050555050505050565b612812614536565b600a54816000018181525050606460328b61282d919061525c565b10612842576064816040018181525050612859565b60328a61284f919061525c565b8160400181815250505b88816060019073ffffffffffffffffffffffffffffffffffffffff16908173ffffffffffffffffffffffffffffffffffffffff1681525050600081610100019060038111156128ab576128aa61494a565b5b908160038111156128bf576128be61494a565b5b8152505087816020018181525050600081610120019060038111156128e7576128e661494a565b5b908160038111156128fb576128fa61494a565b5b81525050828160c00181905250818160e0018190525086156129655760018160a001901515908115158152505085816080019073ffffffffffffffffffffffffffffffffffffffff16908173ffffffffffffffffffffffffffffffffffffffff1681525050612977565b60008160a00190151590811515815250505b8060136000600a54815260200190815260200160002060008201518160000155602082015181600101556040820151816002015560608201518160030160006101000a81548173ffffffffffffffffffffffffffffffffffffffff021916908373ffffffffffffffffffffffffffffffffffffffff16021790555060808201518160040160006101000a81548173ffffffffffffffffffffffffffffffffffffffff021916908373ffffffffffffffffffffffffffffffffffffffff16021790555060a08201518160040160146101000a81548160ff02191690831515021790555060c0820151816005019080519060200190612a759291906145db565b5060e0820151816006019080519060200190612a929291906145db565b506101008201518160070160006101000a81548160ff02191690836003811115612abf57612abe61494a565b5b02179055506101208201518160070160016101000a81548160ff02191690836003811115612af057612aef61494a565b5b0217905550905050600a6000815480929190612b0b90615364565b91905055508415612b2157612b208985614134565b5b50505050505050505050565b6000600160008473ffffffffffffffffffffffffffffffffffffffff1673ffffffffffffffffffffffffffffffffffffffff16815260200190815260200160002060008373ffffffffffffffffffffffffffffffffffffffff1673ffffffffffffffffffffffffffffffffffffffff16815260200190815260200160002054905092915050565b60005b600a548110156137c15760026003811115612bd557612bd461494a565b5b6013600083815260200190815260200160002060070160009054906101000a900460ff166003811115612c0b57612c0a61494a565b5b148015612c3b5750600b546013600083815260200190815260200160002060010154612c37919061517d565b4210155b156137ae5760036013600083815260200190815260200160002060070160006101000a81548160ff02191690836003811115612c7a57612c7961494a565b5b02179055506000601360008381526020019081526020016000206002015490506013600083815260200190815260200160002060020154601460006013600086815260200190815260200160002060030160009054906101000a900473ffffffffffffffffffffffffffffffffffffffff1673ffffffffffffffffffffffffffffffffffffffff1673ffffffffffffffffffffffffffffffffffffffff16815260200190815260200160002054612d3191906156e9565b612d706013600085815260200190815260200160002060030160009054906101000a900473ffffffffffffffffffffffffffffffffffffffff16610c30565b11156131505760006013600084815260200190815260200160002060020154601460006013600087815260200190815260200160002060030160009054906101000a900473ffffffffffffffffffffffffffffffffffffffff1673ffffffffffffffffffffffffffffffffffffffff1673ffffffffffffffffffffffffffffffffffffffff16815260200190815260200160002054612e0f91906156e9565b612e4e6013600086815260200190815260200160002060030160009054906101000a900473ffffffffffffffffffffffffffffffffffffffff16610c30565b612e5891906156e9565b9050612e9a6013600085815260200190815260200160002060030160009054906101000a900473ffffffffffffffffffffffffffffffffffffffff1682613e11565b806013600085815260200190815260200160002060020181905550601260136000858152602001908152602001600020600601908054612ed99061511d565b612ee4929190614661565b50600b546013600085815260200190815260200160002060010154612f09919061517d565b601360008581526020019081526020016000206001018190555060166013600085815260200190815260200160002090806001815401808255809150506001900390600052602060002090600802016000909190919091506000820154816000015560018201548160010155600282015481600201556003820160009054906101000a900473ffffffffffffffffffffffffffffffffffffffff168160030160006101000a81548173ffffffffffffffffffffffffffffffffffffffff021916908373ffffffffffffffffffffffffffffffffffffffff1602179055506004820160009054906101000a900473ffffffffffffffffffffffffffffffffffffffff168160040160006101000a81548173ffffffffffffffffffffffffffffffffffffffff021916908373ffffffffffffffffffffffffffffffffffffffff1602179055506004820160149054906101000a900460ff168160040160146101000a81548160ff021916908315150217905550600582018160050190805461308e9061511d565b6130999291906144a9565b5060068201816006019080546130ae9061511d565b6130b99291906144a9565b506007820160009054906101000a900460ff168160070160006101000a81548160ff021916908360038111156130f2576130f161494a565b5b02179055506007820160019054906101000a900460ff168160070160016101000a81548160ff0219169083600381111561312f5761312e61494a565b5b02179055505050600f600081548092919061314990615364565b9190505550505b80601460006013600086815260200190815260200160002060030160009054906101000a900473ffffffffffffffffffffffffffffffffffffffff1673ffffffffffffffffffffffffffffffffffffffff1673ffffffffffffffffffffffffffffffffffffffff16815260200190815260200160002060008282546131d591906156e9565b925050819055506013600083815260200190815260200160002060040160149054906101000a900460ff16156137ac57600d54601460006013600086815260200190815260200160002060040160009054906101000a900473ffffffffffffffffffffffffffffffffffffffff1673ffffffffffffffffffffffffffffffffffffffff1673ffffffffffffffffffffffffffffffffffffffff1681526020019081526020016000205461328891906156e9565b6132c76013600085815260200190815260200160002060040160009054906101000a900473ffffffffffffffffffffffffffffffffffffffff16610c30565b111561371d576000600d54601460006013600087815260200190815260200160002060040160009054906101000a900473ffffffffffffffffffffffffffffffffffffffff1673ffffffffffffffffffffffffffffffffffffffff1673ffffffffffffffffffffffffffffffffffffffff1681526020019081526020016000205461335291906156e9565b6133916013600086815260200190815260200160002060040160009054906101000a900473ffffffffffffffffffffffffffffffffffffffff16610c30565b61339b91906156e9565b90506133dd6013600085815260200190815260200160002060040160009054906101000a900473ffffffffffffffffffffffffffffffffffffffff1682613e11565b6133e5614536565b600d5481604001818152505042816020018181525050600381610100019060038111156134155761341461494a565b5b908160038111156134295761342861494a565b5b815250506013600085815260200190815260200160002060040160009054906101000a900473ffffffffffffffffffffffffffffffffffffffff16816060019073ffffffffffffffffffffffffffffffffffffffff16908173ffffffffffffffffffffffffffffffffffffffff16815250506040518060400160405280601081526020017f526566657272616c2045787069726564000000000000000000000000000000008152508160c00181905250601280546134e69061511d565b80601f01602080910402602001604051908101604052809291908181526020018280546135129061511d565b801561355f5780601f106135345761010080835404028352916020019161355f565b820191906000526020600020905b81548152906001019060200180831161354257829003601f168201915b50505050508160e00181905250601681908060018154018082558091505060019003906000526020600020906008020160009091909190915060008201518160000155602082015181600101556040820151816002015560608201518160030160006101000a81548173ffffffffffffffffffffffffffffffffffffffff021916908373ffffffffffffffffffffffffffffffffffffffff16021790555060808201518160040160006101000a81548173ffffffffffffffffffffffffffffffffffffffff021916908373ffffffffffffffffffffffffffffffffffffffff16021790555060a08201518160040160146101000a81548160ff02191690831515021790555060c08201518160050190805190602001906136809291906145db565b5060e082015181600601908051906020019061369d9291906145db565b506101008201518160070160006101000a81548160ff021916908360038111156136ca576136c961494a565b5b02179055506101208201518160070160016101000a81548160ff021916908360038111156136fb576136fa61494a565b5b02179055505050600f600081548092919061371590615364565b919050555050505b600d54601460006013600086815260200190815260200160002060040160009054906101000a900473ffffffffffffffffffffffffffffffffffffffff1673ffffffffffffffffffffffffffffffffffffffff1673ffffffffffffffffffffffffffffffffffffffff16815260200190815260200160002060008282546137a491906156e9565b925050819055505b505b80806137b990615364565b915050612bb7565b50565b426013600083815260200190815260200160002060010154116137e657600080fd5b60016013600083815260200190815260200160002060070160006101000a81548160ff021916908360038111156138205761381f61494a565b5b021790555050565b60146020528060005260406000206000915090505481565b60005b815181101561393a576000601160009054906101000a900473ffffffffffffffffffffffffffffffffffffffff1690508073ffffffffffffffffffffffffffffffffffffffff1663a9059cbb8484815181106138a2576138a161543e565b5b602002602001015160646005600e546138bb91906151d3565b6138c5919061525c565b6040518363ffffffff1660e01b81526004016138e29291906152f9565b6020604051808303816000875af1158015613901573d6000803e3d6000fd5b505050506040513d601f19601f820116820180604052508101906139259190615337565b5050808061393290615364565b915050613843565b5050565b600033905090565b600073ffffffffffffffffffffffffffffffffffffffff168373ffffffffffffffffffffffffffffffffffffffff16036139b5576040517f08c379a00000000000000000000000000000000000000000000000000000000081526004016139ac9061578f565b60405180910390fd5b600073ffffffffffffffffffffffffffffffffffffffff168273ffffffffffffffffffffffffffffffffffffffff1603613a24576040517f08c379a0000000000000000000000000000000000000000000000000000000008152600401613a1b90615821565b60405180910390fd5b80600160008573ffffffffffffffffffffffffffffffffffffffff1673ffffffffffffffffffffffffffffffffffffffff16815260200190815260200160002060008473ffffffffffffffffffffffffffffffffffffffff1673ffffffffffffffffffffffffffffffffffffffff168152602001908152602001600020819055508173ffffffffffffffffffffffffffffffffffffffff168373ffffffffffffffffffffffffffffffffffffffff167f8c5be1e5ebec7d5bd14f71427d1e84f3dd0314c0f7b2291e5b200ac8c7c3b92583604051613b0291906147df565b60405180910390a3505050565b6000613b1b8484612b2d565b90507fffffffffffffffffffffffffffffffffffffffffffffffffffffffffffffffff8114613b955781811015613b87576040517f08c379a0000000000000000000000000000000000000000000000000000000008152600401613b7e9061588d565b60405180910390fd5b613b948484848403613946565b5b50505050565b600073ffffffffffffffffffffffffffffffffffffffff168373ffffffffffffffffffffffffffffffffffffffff1603613c0a576040517f08c379a0000000000000000000000000000000000000000000000000000000008152600401613c019061591f565b60405180910390fd5b600073ffffffffffffffffffffffffffffffffffffffff168273ffffffffffffffffffffffffffffffffffffffff1603613c79576040517f08c379a0000000000000000000000000000000000000000000000000000000008152600401613c70906159b1565b60405180910390fd5b613c8483838361449f565b60008060008573ffffffffffffffffffffffffffffffffffffffff1673ffffffffffffffffffffffffffffffffffffffff16815260200190815260200160002054905081811015613d0a576040517f08c379a0000000000000000000000000000000000000000000000000000000008152600401613d0190615a43565b60405180910390fd5b8181036000808673ffffffffffffffffffffffffffffffffffffffff1673ffffffffffffffffffffffffffffffffffffffff16815260200190815260200160002081905550816000808573ffffffffffffffffffffffffffffffffffffffff1673ffffffffffffffffffffffffffffffffffffffff168152602001908152602001600020600082825401925050819055508273ffffffffffffffffffffffffffffffffffffffff168473ffffffffffffffffffffffffffffffffffffffff167fddf252ad1be2c89b69c2b068fc378daa952ba7f163c4a11628f55a4df523b3ef84604051613df891906147df565b60405180910390a3613e0b8484846144a4565b50505050565b600073ffffffffffffffffffffffffffffffffffffffff168273ffffffffffffffffffffffffffffffffffffffff1603613e80576040517f08c379a0000000000000000000000000000000000000000000000000000000008152600401613e7790615ad5565b60405180910390fd5b613e8c8260008361449f565b60008060008473ffffffffffffffffffffffffffffffffffffffff1673ffffffffffffffffffffffffffffffffffffffff16815260200190815260200160002054905081811015613f12576040517f08c379a0000000000000000000000000000000000000000000000000000000008152600401613f0990615b67565b60405180910390fd5b8181036000808573ffffffffffffffffffffffffffffffffffffffff1673ffffffffffffffffffffffffffffffffffffffff1681526020019081526020016000208190555081600260008282540392505081905550600073ffffffffffffffffffffffffffffffffffffffff168373ffffffffffffffffffffffffffffffffffffffff167fddf252ad1be2c89b69c2b068fc378daa952ba7f163c4a11628f55a4df523b3ef84604051613fc591906147df565b60405180910390a3613fd9836000846144a4565b505050565b600073ffffffffffffffffffffffffffffffffffffffff168273ffffffffffffffffffffffffffffffffffffffff160361404d576040517f08c379a000000000000000000000000000000000000000000000000000000000815260040161404490615bd3565b60405180910390fd5b6140596000838361449f565b806002600082825461406b919061517d565b92505081905550806000808473ffffffffffffffffffffffffffffffffffffffff1673ffffffffffffffffffffffffffffffffffffffff168152602001908152602001600020600082825401925050819055508173ffffffffffffffffffffffffffffffffffffffff16600073ffffffffffffffffffffffffffffffffffffffff167fddf252ad1be2c89b69c2b068fc378daa952ba7f163c4a11628f55a4df523b3ef8360405161411c91906147df565b60405180910390a3614130600083836144a4565b5050565b8061413e83610c30565b1015801561414c5750600081115b61418b576040517f08c379a0000000000000000000000000000000000000000000000000000000008152600401614182906156c9565b60405180910390fd5b614193614536565b8181604001818152505042816020018181525050600381610100019060038111156141c1576141c061494a565b5b908160038111156141d5576141d461494a565b5b8152505082816060019073ffffffffffffffffffffffffffffffffffffffff16908173ffffffffffffffffffffffffffffffffffffffff16815250506040518060400160405280600681526020017f52656465656d00000000000000000000000000000000000000000000000000008152508160c001819052506012805461425c9061511d565b80601f01602080910402602001604051908101604052809291908181526020018280546142889061511d565b80156142d55780601f106142aa576101008083540402835291602001916142d5565b820191906000526020600020905b8154815290600101906020018083116142b857829003601f168201915b50505050508160e00181905250601681908060018154018082558091505060019003906000526020600020906008020160009091909190915060008201518160000155602082015181600101556040820151816002015560608201518160030160006101000a81548173ffffffffffffffffffffffffffffffffffffffff021916908373ffffffffffffffffffffffffffffffffffffffff16021790555060808201518160040160006101000a81548173ffffffffffffffffffffffffffffffffffffffff021916908373ffffffffffffffffffffffffffffffffffffffff16021790555060a08201518160040160146101000a81548160ff02191690831515021790555060c08201518160050190805190602001906143f69291906145db565b5060e08201518160060190805190602001906144139291906145db565b506101008201518160070160006101000a81548160ff021916908360038111156144405761443f61494a565b5b02179055506101208201518160070160016101000a81548160ff021916908360038111156144715761447061494a565b5b02179055505050600f600081548092919061448b90615364565b919050555061449a8383613e11565b505050565b505050565b505050565b8280546144b59061511d565b90600052602060002090601f0160209004810192826144d75760008555614525565b82601f106144e85780548555614525565b8280016001018555821561452557600052602060002091601f016020900482015b82811115614524578254825591600101919060010190614509565b5b50905061453291906146ee565b5090565b604051806101400160405280600081526020016000815260200160008152602001600073ffffffffffffffffffffffffffffffffffffffff168152602001600073ffffffffffffffffffffffffffffffffffffffff1681526020016000151581526020016060815260200160608152602001600060038111156145bc576145bb61494a565b5b8152602001600060038111156145d5576145d461494a565b5b81525090565b8280546145e79061511d565b90600052602060002090601f0160209004810192826146095760008555614650565b82601f1061462257805160ff1916838001178555614650565b82800160010185558215614650579182015b8281111561464f578251825591602001919060010190614634565b5b50905061465d91906146ee565b5090565b82805461466d9061511d565b90600052602060002090601f01602090048101928261468f57600085556146dd565b82601f106146a057805485556146dd565b828001600101855582156146dd57600052602060002091601f016020900482015b828111156146dc5782548255916001019190600101906146c1565b5b5090506146ea91906146ee565b5090565b5b808211156147075760008160009055506001016146ef565b5090565b600081519050919050565b600082825260208201905092915050565b60005b8381101561474557808201518184015260208101905061472a565b83811115614754576000848401525b50505050565b6000601f19601f8301169050919050565b60006147768261470b565b6147808185614716565b9350614790818560208601614727565b6147998161475a565b840191505092915050565b600060208201905081810360008301526147be818461476b565b905092915050565b6000819050919050565b6147d9816147c6565b82525050565b60006020820190506147f460008301846147d0565b92915050565b6000604051905090565b600080fd5b600080fd5b600073ffffffffffffffffffffffffffffffffffffffff82169050919050565b60006148398261480e565b9050919050565b6148498161482e565b811461485457600080fd5b50565b60008135905061486681614840565b92915050565b614875816147c6565b811461488057600080fd5b50565b6000813590506148928161486c565b92915050565b600080604083850312156148af576148ae614804565b5b60006148bd85828601614857565b92505060206148ce85828601614883565b9150509250929050565b60008115159050919050565b6148ed816148d8565b82525050565b600060208201905061490860008301846148e4565b92915050565b60006020828403121561492457614923614804565b5b600061493284828501614883565b91505092915050565b6149448161482e565b82525050565b7f4e487b7100000000000000000000000000000000000000000000000000000000600052602160045260246000fd5b6004811061498a5761498961494a565b5b50565b600081905061499b82614979565b919050565b60006149ab8261498d565b9050919050565b6149bb816149a0565b82525050565b600481106149d2576149d161494a565b5b50565b60008190506149e3826149c1565b919050565b60006149f3826149d5565b9050919050565b614a03816149e8565b82525050565b600061014082019050614a1f600083018d6147d0565b614a2c602083018c6147d0565b614a39604083018b6147d0565b614a46606083018a61493b565b614a53608083018961493b565b614a6060a08301886148e4565b81810360c0830152614a72818761476b565b905081810360e0830152614a86818661476b565b9050614a966101008301856149b2565b614aa46101208301846149fa565b9b9a5050505050505050505050565b600080600060608486031215614acc57614acb614804565b5b6000614ada86828701614857565b9350506020614aeb86828701614857565b9250506040614afc86828701614883565b9150509250925092565b600060ff82169050919050565b614b1c81614b06565b82525050565b6000602082019050614b376000830184614b13565b92915050565b600060208284031215614b5357614b52614804565b5b6000614b6184828501614857565b91505092915050565b600080fd5b7f4e487b7100000000000000000000000000000000000000000000000000000000600052604160045260246000fd5b614ba78261475a565b810181811067ffffffffffffffff82111715614bc657614bc5614b6f565b5b80604052505050565b6000614bd96147fa565b9050614be58282614b9e565b919050565b600067ffffffffffffffff821115614c0557614c04614b6f565b5b602082029050602081019050919050565b600080fd5b6000614c2e614c2984614bea565b614bcf565b90508083825260208201905060208402830185811115614c5157614c50614c16565b5b835b81811015614c7a5780614c668882614883565b845260208401935050602081019050614c53565b5050509392505050565b600082601f830112614c9957614c98614b6a565b5b8135614ca9848260208601614c1b565b91505092915050565b600067ffffffffffffffff821115614ccd57614ccc614b6f565b5b602082029050602081019050919050565b6000614cf1614cec84614cb2565b614bcf565b90508083825260208201905060208402830185811115614d1457614d13614c16565b5b835b81811015614d3d5780614d298882614857565b845260208401935050602081019050614d16565b5050509392505050565b600082601f830112614d5c57614d5b614b6a565b5b8135614d6c848260208601614cde565b91505092915050565b60008060008060808587031215614d8f57614d8e614804565b5b6000614d9d87828801614857565b945050602085013567ffffffffffffffff811115614dbe57614dbd614809565b5b614dca87828801614c84565b935050604085013567ffffffffffffffff811115614deb57614dea614809565b5b614df787828801614d47565b9250506060614e0887828801614883565b91505092959194509250565b6000602082019050614e29600083018461493b565b92915050565b600080600060608486031215614e4857614e47614804565b5b6000614e5686828701614883565b9350506020614e6786828701614857565b9250506040614e7886828701614883565b9150509250925092565b614e8b816148d8565b8114614e9657600080fd5b50565b600081359050614ea881614e82565b92915050565b600080fd5b600067ffffffffffffffff821115614ece57614ecd614b6f565b5b614ed78261475a565b9050602081019050919050565b82818337600083830152505050565b6000614f06614f0184614eb3565b614bcf565b905082815260208101848484011115614f2257614f21614eae565b5b614f2d848285614ee4565b509392505050565b600082601f830112614f4a57614f49614b6a565b5b8135614f5a848260208601614ef3565b91505092915050565b60008060008060008060008060006101208a8c031215614f8657614f85614804565b5b6000614f948c828d01614883565b9950506020614fa58c828d01614857565b9850506040614fb68c828d01614883565b9750506060614fc78c828d01614e99565b9650506080614fd88c828d01614857565b95505060a0614fe98c828d01614e99565b94505060c0614ffa8c828d01614883565b93505060e08a013567ffffffffffffffff81111561501b5761501a614809565b5b6150278c828d01614f35565b9250506101008a013567ffffffffffffffff81111561504957615048614809565b5b6150558c828d01614f35565b9150509295985092959850929598565b6000806040838503121561507c5761507b614804565b5b600061508a85828601614857565b925050602061509b85828601614857565b9150509250929050565b6000602082840312156150bb576150ba614804565b5b600082013567ffffffffffffffff8111156150d9576150d8614809565b5b6150e584828501614d47565b91505092915050565b7f4e487b7100000000000000000000000000000000000000000000000000000000600052602260045260246000fd5b6000600282049050600182168061513557607f821691505b602082108103615148576151476150ee565b5b50919050565b7f4e487b7100000000000000000000000000000000000000000000000000000000600052601160045260246000fd5b6000615188826147c6565b9150615193836147c6565b9250827fffffffffffffffffffffffffffffffffffffffffffffffffffffffffffffffff038211156151c8576151c761514e565b5b828201905092915050565b60006151de826147c6565b91506151e9836147c6565b9250817fffffffffffffffffffffffffffffffffffffffffffffffffffffffffffffffff04831182151516156152225761522161514e565b5b828202905092915050565b7f4e487b7100000000000000000000000000000000000000000000000000000000600052601260045260246000fd5b6000615267826147c6565b9150615272836147c6565b9250826152825761528161522d565b5b828204905092915050565b7f52756e6e696e67204c6f77206f6e20546f6b656e730000000000000000000000600082015250565b60006152c3601583614716565b91506152ce8261528d565b602082019050919050565b600060208201905081810360008301526152f2816152b6565b9050919050565b600060408201905061530e600083018561493b565b61531b60208301846147d0565b9392505050565b60008151905061533181614e82565b92915050565b60006020828403121561534d5761534c614804565b5b600061535b84828501615322565b91505092915050565b600061536f826147c6565b91507fffffffffffffffffffffffffffffffffffffffffffffffffffffffffffffffff82036153a1576153a061514e565b5b600182019050919050565b7f53656c6c657220686173206e6f7420656e6f75676820616d6f756e74206f662060008201527f546f6b656e730000000000000000000000000000000000000000000000000000602082015250565b6000615408602683614716565b9150615413826153ac565b604082019050919050565b60006020820190508181036000830152615437816153fb565b9050919050565b7f4e487b7100000000000000000000000000000000000000000000000000000000600052603260045260246000fd5b60008160011c9050919050565b6000808291508390505b60018511156154c4578086048111156154a05761549f61514e565b5b60018516156154af5780820291505b80810290506154bd8561546d565b9450615484565b94509492505050565b6000826154dd5760019050615599565b816154eb5760009050615599565b8160018114615501576002811461550b5761553a565b6001915050615599565b60ff84111561551d5761551c61514e565b5b8360020a9150848211156155345761553361514e565b5b50615599565b5060208310610133831016604e8410600b841016171561556f5782820a90508381111561556a5761556961514e565b5b615599565b61557c848484600161547a565b925090508184048111156155935761559261514e565b5b81810290505b9392505050565b60006155ab826147c6565b91506155b683614b06565b92506155e37fffffffffffffffffffffffffffffffffffffffffffffffffffffffffffffffff84846154cd565b905092915050565b7f45524332303a2064656372656173656420616c6c6f77616e63652062656c6f7760008201527f207a65726f000000000000000000000000000000000000000000000000000000602082015250565b6000615647602583614716565b9150615652826155eb565b604082019050919050565b600060208201905081810360008301526156768161563a565b9050919050565b7f496e73756666696369656e742062616c616e6365000000000000000000000000600082015250565b60006156b3601483614716565b91506156be8261567d565b602082019050919050565b600060208201905081810360008301526156e2816156a6565b9050919050565b60006156f4826147c6565b91506156ff836147c6565b9250828210156157125761571161514e565b5b828203905092915050565b7f45524332303a20617070726f76652066726f6d20746865207a65726f2061646460008201527f7265737300000000000000000000000000000000000000000000000000000000602082015250565b6000615779602483614716565b91506157848261571d565b604082019050919050565b600060208201905081810360008301526157a88161576c565b9050919050565b7f45524332303a20617070726f766520746f20746865207a65726f20616464726560008201527f7373000000000000000000000000000000000000000000000000000000000000602082015250565b600061580b602283614716565b9150615816826157af565b604082019050919050565b6000602082019050818103600083015261583a816157fe565b9050919050565b7f45524332303a20696e73756666696369656e7420616c6c6f77616e6365000000600082015250565b6000615877601d83614716565b915061588282615841565b602082019050919050565b600060208201905081810360008301526158a68161586a565b9050919050565b7f45524332303a207472616e736665722066726f6d20746865207a65726f20616460008201527f6472657373000000000000000000000000000000000000000000000000000000602082015250565b6000615909602583614716565b9150615914826158ad565b604082019050919050565b60006020820190508181036000830152615938816158fc565b9050919050565b7f45524332303a207472616e7366657220746f20746865207a65726f206164647260008201527f6573730000000000000000000000000000000000000000000000000000000000602082015250565b600061599b602383614716565b91506159a68261593f565b604082019050919050565b600060208201905081810360008301526159ca8161598e565b9050919050565b7f45524332303a207472616e7366657220616d6f756e742065786365656473206260008201527f616c616e63650000000000000000000000000000000000000000000000000000602082015250565b6000615a2d602683614716565b9150615a38826159d1565b604082019050919050565b60006020820190508181036000830152615a5c81615a20565b9050919050565b7f45524332303a206275726e2066726f6d20746865207a65726f2061646472657360008201527f7300000000000000000000000000000000000000000000000000000000000000602082015250565b6000615abf602183614716565b9150615aca82615a63565b604082019050919050565b60006020820190508181036000830152615aee81615ab2565b9050919050565b7f45524332303a206275726e20616d6f756e7420657863656564732062616c616e60008201527f6365000000000000000000000000000000000000000000000000000000000000602082015250565b6000615b51602283614716565b9150615b5c82615af5565b604082019050919050565b60006020820190508181036000830152615b8081615b44565b9050919050565b7f45524332303a206d696e7420746f20746865207a65726f206164647265737300600082015250565b6000615bbd601f83614716565b9150615bc882615b87565b602082019050919050565b60006020820190508181036000830152615bec81615bb0565b905091905056fea2646970667358221220b6896ddc4e835b275ec14ac95e0d94fe3ed0b92040cf01048c5957ef079266e364736f6c634300080d003368747470733a2f2f7265732e636c6f7564696e6172792e636f6d2f73616d62697473616e6b616c702f696d6167652f75706c6f61642f76313639323532383935302f6663636f696e5f656d757a75362e706e67",
  "immutableReferences": {},
  "source": "// SPDX-License-Identifier: MIT\npragma solidity ^0.8.0;\n\n// Import the necessary ERC-20 interface\nimport \"@openzeppelin/contracts/token/ERC20/ERC20.sol\";\nimport \"@openzeppelin/contracts/token/ERC20/IERC20.sol\";\n\n// Inherit from the ERC-20 contract\ncontract FlipCoin is ERC20 {\n\n    uint256 public purchase_rewards;\n    uint256 public purchase_referrals;\n    uint256 public purchase_socialMedia;\n    uint256 public staking;\n    uint256 public partners;\n    uint256 public currentOrder;\n    uint256 public expireTime = 300;\n    uint256 public socialMediaReward = 5;\n    uint256 public referralReward = 5;\n    uint256 public currentMintAmount = 0;\n    uint256 public ordersCount = 0;\n    address public ownerAddress;\n    address public tokenAddress;\n    string tokenUrl = \"https://res.cloudinary.com/sambitsankalp/image/upload/v1692528950/fccoin_emuzu6.png\";\n\n    enum OrderStatus\n    {\n        Confirmed,\n        Cancelled,\n        NotReturned,\n        Expired\n    }\n    enum OrderType\n    {\n        Purchase,\n        Airdrop,\n        SocialPost,\n        Stake\n    }\n    struct Order\n    {\n        uint256 id;\n        uint256 lastReturnDate;\n        uint256 flipCoin;\n        address userAccount;\n        address referrer;\n        bool isReferred;\n        string productName;\n        string imgUrl;\n        OrderStatus status;\n        OrderType orderType;\n    }\n\n    mapping(uint256=>Order) public orders;\n    mapping(address=>uint256) public expectedBalance;\n    mapping(uint256=>uint256) public totalReferrals;\n\n    Order[] public orderHistory;\n\n    constructor(string memory name, string memory symbol) ERC20(name, symbol) {\n        _mint(address(this), 10000000 * 10 ** decimals());\n        currentMintAmount = 10000000;\n        ownerAddress = msg.sender;\n        tokenAddress = address(this);\n    }\n    function distributeToPartners(address[] memory sellers) external \n    {\n        for(uint256 i=0;i<sellers.length;i++)\n        {\n            IERC20 token = IERC20(tokenAddress);\n            token.transfer(sellers[i], (currentMintAmount * 5)/100);\n        }\n    }\n    function removeSeller(address seller) external \n    {\n        _burn(seller, balanceOf(seller));\n    }\n    function mint(uint256 amount) external \n    {\n        require(ownerAddress == msg.sender);\n        _mint(address(this), amount * 10 ** decimals());\n        currentMintAmount = amount;\n    }\n    function depositCoint() external {\n        for(uint256 i=0;i<currentOrder;i++)\n        {\n            if(orders[i].status == OrderStatus.Confirmed && block.timestamp >= orders[i].lastReturnDate)\n            {\n                if(orders[i].orderType == OrderType.Airdrop)\n                {\n                    require((totalSupply() * 5)/100 > partners, \"Running Low on Tokens\");\n                    partners += orders[i].flipCoin;\n                }\n                else if(orders[i].orderType == OrderType.Stake)\n                {\n                    require((totalSupply() * 15)/100 > staking, \"Running Low on Tokens\");\n                    staking += orders[i].flipCoin;\n                }\n                else \n                {\n                    require((totalSupply() * 40)/100 > purchase_rewards, \"Running Low on Tokens\");\n                    purchase_rewards += orders[i].flipCoin;\n                }\n                orders[i].status = OrderStatus.NotReturned;\n                IERC20 token = IERC20(tokenAddress);\n                token.transfer(orders[i].userAccount, orders[i].flipCoin);\n                expectedBalance[orders[i].userAccount] += orders[i].flipCoin;\n                orderHistory.push(orders[i]);\n                ordersCount++;\n                if(orders[i].isReferred)\n                {\n                    require((totalSupply() * 15)/100 > purchase_referrals, \"Running Low on Tokens\");\n                    IERC20 tokenRef = IERC20(tokenAddress);\n                    tokenRef.transfer(orders[i].referrer, referralReward);\n                    expectedBalance[orders[i].referrer] += referralReward;\n                    purchase_referrals += referralReward;\n                    Order memory newOrder;\n                    newOrder.flipCoin = referralReward;\n                    newOrder.lastReturnDate = orders[i].lastReturnDate;\n                    newOrder.status = OrderStatus.NotReturned;\n                    newOrder.userAccount = orders[i].referrer;\n                    newOrder.productName = \"Referral Reward\";\n                    newOrder.imgUrl = tokenUrl;\n                    orderHistory.push(newOrder);\n                    ordersCount++;\n                    \n                }\n            }\n\n        }\n    }\n    function deductCoin() payable external {\n        for(uint256 i=0;i<currentOrder;i++)\n        {\n            if(orders[i].status == OrderStatus.NotReturned && block.timestamp >= orders[i].lastReturnDate + expireTime)\n            {\n                orders[i].status = OrderStatus.Expired;\n                uint256 orderFlipCoin = orders[i].flipCoin;\n                if(balanceOf(orders[i].userAccount) > (expectedBalance[orders[i].userAccount] - orders[i].flipCoin))\n                {\n                    uint256 extraAmount = balanceOf(orders[i].userAccount) - (expectedBalance[orders[i].userAccount] - orders[i].flipCoin);\n                    _burn(orders[i].userAccount, extraAmount);\n                    orders[i].flipCoin = extraAmount;\n                    orders[i].imgUrl = tokenUrl;\n                    orders[i].lastReturnDate = orders[i].lastReturnDate + expireTime;\n                    orderHistory.push(orders[i]);\n                    ordersCount++;\n                }\n                expectedBalance[orders[i].userAccount] -= orderFlipCoin;\n                if(orders[i].isReferred)\n                {\n                    if(balanceOf(orders[i].referrer) > (expectedBalance[orders[i].referrer] - referralReward))\n                    {\n                        uint256 extraAmount = balanceOf(orders[i].referrer) - (expectedBalance[orders[i].referrer] - referralReward);\n                        _burn(orders[i].referrer, extraAmount);\n                        Order memory newOrder;\n                        newOrder.flipCoin = referralReward;\n                        newOrder.lastReturnDate = block.timestamp;\n                        newOrder.status = OrderStatus.Expired;\n                        newOrder.userAccount = orders[i].referrer;\n                        newOrder.productName = \"Referral Expired\";\n                        newOrder.imgUrl = tokenUrl;\n                        orderHistory.push(newOrder);\n                        ordersCount++;\n                    }\n                    expectedBalance[orders[i].referrer] -= referralReward;\n                } \n            }\n        }\n    }\n    function purchase(uint256 productPrice,address userAccount, uint256 lastReturnDate,bool isReferred, address referrer, bool isRedeem, uint256 redeemAmount, string memory productName, string memory imgUrl)external {\n        Order memory newOrder;\n        newOrder.id = currentOrder;\n        if(productPrice/50 >= 100){\n        newOrder.flipCoin = 100;\n        }\n        else{\n            newOrder.flipCoin = productPrice / 50;\n        }\n        newOrder.userAccount = userAccount;\n        newOrder.status = OrderStatus.Confirmed;\n        newOrder.lastReturnDate = lastReturnDate;\n        newOrder.orderType = OrderType.Purchase;\n        newOrder.productName = productName;\n        newOrder.imgUrl = imgUrl;\n        if(isReferred)\n        {\n            newOrder.isReferred = true;\n            newOrder.referrer = referrer;\n        }\n        else \n        {\n            newOrder.isReferred = false;\n        }\n        orders[currentOrder] = newOrder;\n        currentOrder++;\n        if(isRedeem)\n        {\n            redeem(userAccount, redeemAmount);\n        }\n        \n    }\n    function disperseCoin(address seller, uint256[] memory amount, address[] memory userAccount, uint256 totalAmount) external {\n        require(balanceOf(seller) >= totalAmount, \"Seller has not enough amount of Tokens\");\n        require((totalSupply() * 5)/100 > partners, \"Running Low on Tokens\");\n        for(uint256 i=0;i<amount.length;i++)\n        {\n            Order memory newOrder;\n            newOrder.id = currentOrder;\n            newOrder.flipCoin = amount[0];\n            newOrder.isReferred = false;\n            newOrder.lastReturnDate = block.timestamp;\n            newOrder.status = OrderStatus.Confirmed;\n            newOrder.userAccount = userAccount[i];\n            newOrder.orderType = OrderType.Airdrop;\n            newOrder.productName = \"AirDrop\";\n            newOrder.imgUrl = tokenUrl;\n            orders[currentOrder] = newOrder;\n            _burn(seller, amount[i]);\n            currentOrder++;\n        }\n    }\n    function cancleOrder(uint256 orderId) external \n    {\n        require(orders[orderId].lastReturnDate > block.timestamp);\n        orders[orderId].status = OrderStatus.Cancelled;\n    }\n\n    function redeem(address userAccount, uint256 amount) internal  \n    {\n        require(balanceOf(userAccount) >= amount && amount > 0, \"Insufficient balance\");\n        Order memory newOrder;\n        newOrder.flipCoin = amount;\n        newOrder.lastReturnDate = block.timestamp;\n        newOrder.status = OrderStatus.Expired;\n        newOrder.userAccount = userAccount;\n        newOrder.productName = \"Redeem\";\n        newOrder.imgUrl = tokenUrl;\n        orderHistory.push(newOrder);\n        ordersCount++;\n        _burn(userAccount, amount);\n    }\n    function stakeTokens(uint256 amount, address userAccount, uint256 interval) external {\n        require(amount >0 && amount <= balanceOf(userAccount), \"Insufficient balance\");\n        _transfer(userAccount, address(this) ,amount);\n        Order memory newOrder;\n        newOrder.id = currentOrder;\n        newOrder.flipCoin = amount + amount/10;\n        newOrder.isReferred = false;\n        newOrder.lastReturnDate = block.timestamp + interval;\n        newOrder.status = OrderStatus.Confirmed;\n        newOrder.orderType = OrderType.Stake;\n        newOrder.userAccount = userAccount;\n        newOrder.productName = \"Stake Credit\";\n        newOrder.imgUrl = tokenUrl;\n        orders[currentOrder] = newOrder;\n        currentOrder++;\n        newOrder.lastReturnDate = block.timestamp;\n        newOrder.flipCoin = amount;\n        newOrder.status = OrderStatus.Expired;\n        newOrder.userAccount = userAccount;\n        newOrder.productName = \"Stake Debit\";\n        newOrder.imgUrl = tokenUrl;\n        orderHistory.push(newOrder);\n        ordersCount++;\n    }\n}\n",
  "sourcePath": "/home/subrat0018/Desktop/project-grid/truffle/contracts/FlipCoin.sol",
  "compiler": {
    "name": "solc",
    "version": "0.8.13+commit.abaa5c0e.Emscripten.clang"
  },
  "schemaVersion": "3.4.15",
  "updatedAt": "2023-08-20T15:47:26.919Z",
  "networkType": "ethereum",
  "devdoc": {
    "kind": "dev",
    "methods": {
      "allowance(address,address)": {
        "details": "See {IERC20-allowance}."
      },
      "approve(address,uint256)": {
        "details": "See {IERC20-approve}. NOTE: If `amount` is the maximum `uint256`, the allowance is not updated on `transferFrom`. This is semantically equivalent to an infinite approval. Requirements: - `spender` cannot be the zero address."
      },
      "balanceOf(address)": {
        "details": "See {IERC20-balanceOf}."
      },
      "decimals()": {
        "details": "Returns the number of decimals used to get its user representation. For example, if `decimals` equals `2`, a balance of `505` tokens should be displayed to a user as `5.05` (`505 / 10 ** 2`). Tokens usually opt for a value of 18, imitating the relationship between Ether and Wei. This is the default value returned by this function, unless it's overridden. NOTE: This information is only used for _display_ purposes: it in no way affects any of the arithmetic of the contract, including {IERC20-balanceOf} and {IERC20-transfer}."
      },
      "decreaseAllowance(address,uint256)": {
        "details": "Atomically decreases the allowance granted to `spender` by the caller. This is an alternative to {approve} that can be used as a mitigation for problems described in {IERC20-approve}. Emits an {Approval} event indicating the updated allowance. Requirements: - `spender` cannot be the zero address. - `spender` must have allowance for the caller of at least `subtractedValue`."
      },
      "increaseAllowance(address,uint256)": {
        "details": "Atomically increases the allowance granted to `spender` by the caller. This is an alternative to {approve} that can be used as a mitigation for problems described in {IERC20-approve}. Emits an {Approval} event indicating the updated allowance. Requirements: - `spender` cannot be the zero address."
      },
      "name()": {
        "details": "Returns the name of the token."
      },
      "symbol()": {
        "details": "Returns the symbol of the token, usually a shorter version of the name."
      },
      "totalSupply()": {
        "details": "See {IERC20-totalSupply}."
      },
      "transfer(address,uint256)": {
        "details": "See {IERC20-transfer}. Requirements: - `to` cannot be the zero address. - the caller must have a balance of at least `amount`."
      },
      "transferFrom(address,address,uint256)": {
        "details": "See {IERC20-transferFrom}. Emits an {Approval} event indicating the updated allowance. This is not required by the EIP. See the note at the beginning of {ERC20}. NOTE: Does not update the allowance if the current allowance is the maximum `uint256`. Requirements: - `from` and `to` cannot be the zero address. - `from` must have a balance of at least `amount`. - the caller must have allowance for ``from``'s tokens of at least `amount`."
      }
    },
    "version": 1
  },
  "userdoc": {
    "kind": "user",
    "methods": {},
    "version": 1
  }
}